{
  "_format": "hh-sol-artifact-1",
  "contractName": "VendingMachine",
  "sourceName": "contracts/4_VendingMachine.sol",
  "abi": [
    {
      "inputs": [],
      "stateMutability": "nonpayable",
      "type": "constructor"
    },
    {
      "inputs": [],
      "name": "PRICE_PER_ITEM",
      "outputs": [
        {
          "internalType": "uint256",
          "name": "",
          "type": "uint256"
        }
      ],
      "stateMutability": "view",
      "type": "function"
    },
    {
      "inputs": [],
      "name": "getVendingMachineBalance",
      "outputs": [
        {
          "internalType": "uint256",
          "name": "",
          "type": "uint256"
        }
      ],
      "stateMutability": "view",
      "type": "function"
    },
    {
      "inputs": [],
      "name": "owner",
      "outputs": [
        {
          "internalType": "address",
          "name": "",
          "type": "address"
        }
      ],
      "stateMutability": "view",
      "type": "function"
    },
    {
      "inputs": [
        {
          "internalType": "uint256",
          "name": "amount",
          "type": "uint256"
        }
      ],
      "name": "purchase",
      "outputs": [],
      "stateMutability": "payable",
      "type": "function"
    },
    {
      "inputs": [
        {
          "internalType": "uint256",
          "name": "amount",
          "type": "uint256"
        }
      ],
      "name": "refill",
      "outputs": [],
      "stateMutability": "nonpayable",
      "type": "function"
    }
  ],
  "bytecode": "0x608060405234801561001057600080fd5b50336000806101000a81548173ffffffffffffffffffffffffffffffffffffffff021916908373ffffffffffffffffffffffffffffffffffffffff16021790555060646001819055506106a9806100686000396000f3fe60806040526004361061004a5760003560e01c80635f336d911461004f5780638da5cb5b1461007a578063ca9d07ba146100a5578063e7644d34146100ce578063efef39a1146100f9575b600080fd5b34801561005b57600080fd5b50610064610115565b6040516100719190610304565b60405180910390f35b34801561008657600080fd5b5061008f61011d565b60405161009c9190610360565b60405180910390f35b3480156100b157600080fd5b506100cc60048036038101906100c791906103ac565b610141565b005b3480156100da57600080fd5b506100e36101eb565b6040516100f09190610304565b60405180910390f35b610113600480360381019061010e91906103ac565b6101f5565b005b633b9aca0081565b60008054906101000a900473ffffffffffffffffffffffffffffffffffffffff1681565b60008054906101000a900473ffffffffffffffffffffffffffffffffffffffff1673ffffffffffffffffffffffffffffffffffffffff163373ffffffffffffffffffffffffffffffffffffffff16146101cf576040517f08c379a00000000000000000000000000000000000000000000000000000000081526004016101c690610436565b60405180910390fd5b80600160008282546101e19190610485565b9250508190555050565b6000600154905090565b60008111610238576040517f08c379a000000000000000000000000000000000000000000000000000000000815260040161022f90610505565b60405180910390fd5b80600154101561027d576040517f08c379a000000000000000000000000000000000000000000000000000000000815260040161027490610571565b60405180910390fd5b633b9aca008161028d9190610591565b3410156102cf576040517f08c379a00000000000000000000000000000000000000000000000000000000081526004016102c69061061f565b60405180910390fd5b80600160008282546102e1919061063f565b9250508190555050565b6000819050919050565b6102fe816102eb565b82525050565b600060208201905061031960008301846102f5565b92915050565b600073ffffffffffffffffffffffffffffffffffffffff82169050919050565b600061034a8261031f565b9050919050565b61035a8161033f565b82525050565b60006020820190506103756000830184610351565b92915050565b600080fd5b610389816102eb565b811461039457600080fd5b50565b6000813590506103a681610380565b92915050565b6000602082840312156103c2576103c161037b565b5b60006103d084828501610397565b91505092915050565b600082825260208201905092915050565b7f4f6e6c79206f776e65722063616e20726566696c6c0000000000000000000000600082015250565b60006104206015836103d9565b915061042b826103ea565b602082019050919050565b6000602082019050818103600083015261044f81610413565b9050919050565b7f4e487b7100000000000000000000000000000000000000000000000000000000600052601160045260246000fd5b6000610490826102eb565b915061049b836102eb565b92508282019050808211156104b3576104b2610456565b5b92915050565b7f416d6f756e74206d7573742062652067726561746572207468616e207a65726f600082015250565b60006104ef6020836103d9565b91506104fa826104b9565b602082019050919050565b6000602082019050818103600083015261051e816104e2565b9050919050565b7f4e6f7420656e6f7567682073746f636b00000000000000000000000000000000600082015250565b600061055b6010836103d9565b915061056682610525565b602082019050919050565b6000602082019050818103600083015261058a8161054e565b9050919050565b600061059c826102eb565b91506105a7836102eb565b92508282026105b5816102eb565b915082820484148315176105cc576105cb610456565b5b5092915050565b7f496e73756666696369656e74207061796d656e74000000000000000000000000600082015250565b60006106096014836103d9565b9150610614826105d3565b602082019050919050565b60006020820190508181036000830152610638816105fc565b9050919050565b600061064a826102eb565b9150610655836102eb565b925082820390508181111561066d5761066c610456565b5b9291505056fea26469706673582212208342aa6a4523eb8a202b3a09182a8e962c636f6b20a5b6c4274eae3d7cc79e8564736f6c63430008140033",
  "linkReferences": {},
  "deployedLinkReferences": {}
}