{
  "_format": "hh-sol-artifact-1",
  "contractName": "Owner",
  "sourceName": "contracts/2_Owner.sol",
  "abi": [
    {
      "inputs": [],
      "stateMutability": "nonpayable",
      "type": "constructor"
    },
    {
      "inputs": [
        {
          "internalType": "address",
          "name": "newOwner",
          "type": "address"
        }
      ],
      "name": "changeOwner",
      "outputs": [],
      "stateMutability": "nonpayable",
      "type": "function"
    },
    {
      "inputs": [],
      "name": "getOwner",
      "outputs": [
        {
          "internalType": "address",
          "name": "",
          "type": "address"
        }
      ],
      "stateMutability": "view",
      "type": "function"
    }
  ],
  "bytecode": "0x608060405234801561001057600080fd5b50336000806101000a81548173ffffffffffffffffffffffffffffffffffffffff021916908373ffffffffffffffffffffffffffffffffffffffff1602179055506103b7806100606000396000f3fe608060405234801561001057600080fd5b50600436106100365760003560e01c8063893d20e81461003b578063a6f9dae114610059575b600080fd5b610043610075565b604051610050919061021f565b60405180910390f35b610073600480360381019061006e919061026b565b61009e565b005b60008060009054906101000a900473ffffffffffffffffffffffffffffffffffffffff16905090565b60008054906101000a900473ffffffffffffffffffffffffffffffffffffffff1673ffffffffffffffffffffffffffffffffffffffff163373ffffffffffffffffffffffffffffffffffffffff161461012c576040517f08c379a0000000000000000000000000000000000000000000000000000000008152600401610123906102f5565b60405180910390fd5b600073ffffffffffffffffffffffffffffffffffffffff168173ffffffffffffffffffffffffffffffffffffffff160361019b576040517f08c379a000000000000000000000000000000000000000000000000000000000815260040161019290610361565b60405180910390fd5b806000806101000a81548173ffffffffffffffffffffffffffffffffffffffff021916908373ffffffffffffffffffffffffffffffffffffffff16021790555050565b600073ffffffffffffffffffffffffffffffffffffffff82169050919050565b6000610209826101de565b9050919050565b610219816101fe565b82525050565b60006020820190506102346000830184610210565b92915050565b600080fd5b610248816101fe565b811461025357600080fd5b50565b6000813590506102658161023f565b92915050565b6000602082840312156102815761028061023a565b5b600061028f84828501610256565b91505092915050565b600082825260208201905092915050565b7f4f6e6c79206f776e65722063616e206368616e6765206f776e65720000000000600082015250565b60006102df601b83610298565b91506102ea826102a9565b602082019050919050565b6000602082019050818103600083015261030e816102d2565b9050919050565b7f5a65726f20616464726573730000000000000000000000000000000000000000600082015250565b600061034b600c83610298565b915061035682610315565b602082019050919050565b6000602082019050818103600083015261037a8161033e565b905091905056fea2646970667358221220e7e8c43655abe32f49275cac15dfc41192ed6687ec1ae435f826ff8c1caddf4864736f6c63430008140033",
  "linkReferences": {},
  "deployedLinkReferences": {}
}