{
	"compilerInput": "{\"language\":\"Solidity\",\"sources\":{\"remix_ready/remix-tests/Ballot_test.sol\":{\"content\":\"// SPDX-License-Identifier: GPL-3.0\\npragma solidity >=0.7.0 <0.9.0;\\n\\nimport \\\"remix_tests.sol\\\";\\nimport \\\"../contracts/3_Ballot.sol\\\";\\n\\ncontract BallotTest {\\n    bytes32[] proposalNames;\\n    Ballot ballotToTest;\\n\\n    function beforeAll() public {\\n        proposalNames.push(bytes32(\\\"candidate1\\\"));\\n        ballotToTest = new Ballot(proposalNames);\\n    }\\n\\n    function checkWinningProposal() public {\\n        ballotToTest.vote(0);\\n        Assert.equal(ballotToTest.winningProposal(), uint256(0), \\\"proposal at index 0 should be the winning proposal\\\");\\n        Assert.equal(ballotToTest.winnerName(), bytes32(\\\"candidate1\\\"), \\\"candidate1 should be the winner name\\\");\\n    }\\n\\n    function checkWinninProposalWithReturnValue() public view returns (bool) {\\n        return ballotToTest.winningProposal() == 0;\\n    }\\n}\\n\"},\"remix_tests.sol\":{\"content\":\"// SPDX-License-Identifier: GPL-3.0\\n\\npragma solidity >=0.4.22 <0.9.0;\\n\\nlibrary Assert {\\n\\n  event AssertionEvent(\\n    bool passed,\\n    string message,\\n    string methodName\\n  );\\n\\n  event AssertionEventUint(\\n    bool passed,\\n    string message,\\n    string methodName,\\n    uint256 returned,\\n    uint256 expected\\n  );\\n\\n  event AssertionEventInt(\\n    bool passed,\\n    string message,\\n    string methodName,\\n    int256 returned,\\n    int256 expected\\n  );\\n\\n  event AssertionEventBool(\\n    bool passed,\\n    string message,\\n    string methodName,\\n    bool returned,\\n    bool expected\\n  );\\n\\n  event AssertionEventAddress(\\n    bool passed,\\n    string message,\\n    string methodName,\\n    address returned,\\n    address expected\\n  );\\n\\n  event AssertionEventBytes32(\\n    bool passed,\\n    string message,\\n    string methodName,\\n    bytes32 returned,\\n    bytes32 expected\\n  );\\n\\n  event AssertionEventString(\\n    bool passed,\\n    string message,\\n    string methodName,\\n    string returned,\\n    string expected\\n  );\\n\\n  event AssertionEventUintInt(\\n    bool passed,\\n    string message,\\n    string methodName,\\n    uint256 returned,\\n    int256 expected\\n  );\\n\\n  event AssertionEventIntUint(\\n    bool passed,\\n    string message,\\n    string methodName,\\n    int256 returned,\\n    uint256 expected\\n  );\\n\\n  function ok(bool a, string memory message) public returns (bool result) {\\n    result = a;\\n    emit AssertionEvent(result, message, \\\"ok\\\");\\n  }\\n\\n  function equal(uint256 a, uint256 b, string memory message) public returns (bool result) {\\n    result = (a == b);\\n    emit AssertionEventUint(result, message, \\\"equal\\\", a, b);\\n  }\\n\\n  function equal(int256 a, int256 b, string memory message) public returns (bool result) {\\n    result = (a == b);\\n    emit AssertionEventInt(result, message, \\\"equal\\\", a, b);\\n  }\\n\\n  function equal(bool a, bool b, string memory message) public returns (bool result) {\\n    result = (a == b);\\n    emit AssertionEventBool(result, message, \\\"equal\\\", a, b);\\n  }\\n\\n  // TODO: only for certain versions of solc\\n  //function equal(fixed a, fixed b, string message) public returns (bool result) {\\n  //  result = (a == b);\\n  //  emit AssertionEvent(result, message);\\n  //}\\n\\n  // TODO: only for certain versions of solc\\n  //function equal(ufixed a, ufixed b, string message) public returns (bool result) {\\n  //  result = (a == b);\\n  //  emit AssertionEvent(result, message);\\n  //}\\n\\n  function equal(address a, address b, string memory message) public returns (bool result) {\\n    result = (a == b);\\n    emit AssertionEventAddress(result, message, \\\"equal\\\", a, b);\\n  }\\n\\n  function equal(bytes32 a, bytes32 b, string memory message) public returns (bool result) {\\n    result = (a == b);\\n    emit AssertionEventBytes32(result, message, \\\"equal\\\", a, b);\\n  }\\n\\n  function equal(string memory a, string memory b, string memory message) public returns (bool result) {\\n     result = (keccak256(abi.encodePacked(a)) == keccak256(abi.encodePacked(b)));\\n     emit AssertionEventString(result, message, \\\"equal\\\", a, b);\\n  }\\n\\n  function notEqual(uint256 a, uint256 b, string memory message) public returns (bool result) {\\n    result = (a != b);\\n    emit AssertionEventUint(result, message, \\\"notEqual\\\", a, b);\\n  }\\n\\n  function notEqual(int256 a, int256 b, string memory message) public returns (bool result) {\\n    result = (a != b);\\n    emit AssertionEventInt(result, message, \\\"notEqual\\\", a, b);\\n  }\\n\\n  function notEqual(bool a, bool b, string memory message) public returns (bool result) {\\n    result = (a != b);\\n    emit AssertionEventBool(result, message, \\\"notEqual\\\", a, b);\\n  }\\n\\n  // TODO: only for certain versions of solc\\n  //function notEqual(fixed a, fixed b, string message) public returns (bool result) {\\n  //  result = (a != b);\\n  //  emit AssertionEvent(result, message);\\n  //}\\n\\n  // TODO: only for certain versions of solc\\n  //function notEqual(ufixed a, ufixed b, string message) public returns (bool result) {\\n  //  result = (a != b);\\n  //  emit AssertionEvent(result, message);\\n  //}\\n\\n  function notEqual(address a, address b, string memory message) public returns (bool result) {\\n    result = (a != b);\\n    emit AssertionEventAddress(result, message, \\\"notEqual\\\", a, b);\\n  }\\n\\n  function notEqual(bytes32 a, bytes32 b, string memory message) public returns (bool result) {\\n    result = (a != b);\\n    emit AssertionEventBytes32(result, message, \\\"notEqual\\\", a, b);\\n  }\\n\\n  function notEqual(string memory a, string memory b, string memory message) public returns (bool result) {\\n    result = (keccak256(abi.encodePacked(a)) != keccak256(abi.encodePacked(b)));\\n    emit AssertionEventString(result, message, \\\"notEqual\\\", a, b);\\n  }\\n\\n  /*----------------- Greater than --------------------*/\\n  function greaterThan(uint256 a, uint256 b, string memory message) public returns (bool result) {\\n    result = (a > b);\\n    emit AssertionEventUint(result, message, \\\"greaterThan\\\", a, b);\\n  }\\n\\n  function greaterThan(int256 a, int256 b, string memory message) public returns (bool result) {\\n    result = (a > b);\\n    emit AssertionEventInt(result, message, \\\"greaterThan\\\", a, b);\\n  }\\n  // TODO: safely compare between uint and int\\n  function greaterThan(uint256 a, int256 b, string memory message) public returns (bool result) {\\n    if(b < int(0)) {\\n      // int is negative uint \\\"a\\\" always greater\\n      result = true;\\n    } else {\\n      result = (a > uint(b));\\n    }\\n    emit AssertionEventUintInt(result, message, \\\"greaterThan\\\", a, b);\\n  }\\n  function greaterThan(int256 a, uint256 b, string memory message) public returns (bool result) {\\n    if(a < int(0)) {\\n      // int is negative uint \\\"b\\\" always greater\\n      result = false;\\n    } else {\\n      result = (uint(a) > b);\\n    }\\n    emit AssertionEventIntUint(result, message, \\\"greaterThan\\\", a, b);\\n  }\\n  /*----------------- Lesser than --------------------*/\\n  function lesserThan(uint256 a, uint256 b, string memory message) public returns (bool result) {\\n    result = (a < b);\\n    emit AssertionEventUint(result, message, \\\"lesserThan\\\", a, b);\\n  }\\n\\n  function lesserThan(int256 a, int256 b, string memory message) public returns (bool result) {\\n    result = (a < b);\\n    emit AssertionEventInt(result, message, \\\"lesserThan\\\", a, b);\\n  }\\n  // TODO: safely compare between uint and int\\n  function lesserThan(uint256 a, int256 b, string memory message) public returns (bool result) {\\n    if(b < int(0)) {\\n      // int is negative int \\\"b\\\" always lesser\\n      result = false;\\n    } else {\\n      result = (a < uint(b));\\n    }\\n    emit AssertionEventUintInt(result, message, \\\"lesserThan\\\", a, b);\\n  }\\n\\n  function lesserThan(int256 a, uint256 b, string memory message) public returns (bool result) {\\n    if(a < int(0)) {\\n      // int is negative int \\\"a\\\" always lesser\\n      result = true;\\n    } else {\\n      result = (uint(a) < b);\\n    }\\n    emit AssertionEventIntUint(result, message, \\\"lesserThan\\\", a, b);\\n  }\\n}\\n\"},\"remix_ready/contracts/3_Ballot.sol\":{\"content\":\"// SPDX-License-Identifier: GPL-3.0\\npragma solidity >=0.7.0 <0.9.0;\\n\\ncontract Ballot {\\n    struct Voter {\\n        uint256 weight;\\n        bool voted;\\n        address delegate;\\n        uint256 vote;\\n    }\\n\\n    struct Proposal {\\n        bytes32 name;\\n        uint256 voteCount;\\n    }\\n\\n    address public chairperson;\\n    mapping(address => Voter) public voters;\\n    Proposal[] public proposals;\\n\\n    constructor(bytes32[] memory proposalNames) {\\n        chairperson = msg.sender;\\n        voters[chairperson].weight = 1;\\n\\n        for (uint256 i = 0; i < proposalNames.length; i++) {\\n            proposals.push(Proposal({name: proposalNames[i], voteCount: 0}));\\n        }\\n    }\\n\\n    function giveRightToVote(address voter) public {\\n        require(msg.sender == chairperson, \\\"Only chairperson can give right to vote.\\\");\\n        require(!voters[voter].voted, \\\"The voter already voted.\\\");\\n        require(voters[voter].weight == 0, \\\"Voter already has right to vote.\\\");\\n        voters[voter].weight = 1;\\n    }\\n\\n    function delegate(address to) public {\\n        Voter storage sender = voters[msg.sender];\\n        require(!sender.voted, \\\"You already voted.\\\");\\n        require(to != msg.sender, \\\"Self-delegation is disallowed.\\\");\\n\\n        while (voters[to].delegate != address(0)) {\\n            to = voters[to].delegate;\\n            require(to != msg.sender, \\\"Found loop in delegation.\\\");\\n        }\\n\\n        sender.voted = true;\\n        sender.delegate = to;\\n        Voter storage delegate_ = voters[to];\\n\\n        if (delegate_.voted) {\\n            proposals[delegate_.vote].voteCount += sender.weight;\\n        } else {\\n            delegate_.weight += sender.weight;\\n        }\\n    }\\n\\n    function vote(uint256 proposal) public {\\n        Voter storage sender = voters[msg.sender];\\n        require(sender.weight != 0, \\\"Has no right to vote.\\\");\\n        require(!sender.voted, \\\"Already voted.\\\");\\n\\n        sender.voted = true;\\n        sender.vote = proposal;\\n        proposals[proposal].voteCount += sender.weight;\\n    }\\n\\n    function winningProposal() public view returns (uint256 winningProposal_) {\\n        uint256 winningVoteCount = 0;\\n        for (uint256 p = 0; p < proposals.length; p++) {\\n            if (proposals[p].voteCount > winningVoteCount) {\\n                winningVoteCount = proposals[p].voteCount;\\n                winningProposal_ = p;\\n            }\\n        }\\n    }\\n\\n    function winnerName() public view returns (bytes32 winnerName_) {\\n        winnerName_ = proposals[winningProposal()].name;\\n    }\\n}\\n\"}},\"settings\":{\"optimizer\":{\"enabled\":false,\"runs\":200},\"outputSelection\":{\"*\":{\"\":[\"ast\"],\"*\":[\"abi\",\"metadata\",\"devdoc\",\"userdoc\",\"storageLayout\",\"evm.legacyAssembly\",\"evm.bytecode\",\"evm.deployedBytecode\",\"evm.methodIdentifiers\",\"evm.gasEstimates\",\"evm.assembly\"]}},\"remappings\":[]}}",
	"name": "BallotTest",
	"bytecode": {
		"linkReferences": {
			"remix_tests.sol": {
				"Assert": [
					{
						"length": 20,
						"start": 615
					},
					{
						"length": 20,
						"start": 877
					}
				]
			}
		},
		"object": "6080604052348015600e575f5ffd5b50611c328061001c5f395ff3fe608060405234801561000f575f5ffd5b506004361061003f575f3560e01c80633439c57b146100435780637fea0d4b14610061578063ed2bee101461006b575b5f5ffd5b61004b610075565b604051610058919061049e565b60405180910390f35b61006961010b565b005b6100736101c2565b005b5f5f60015f9054906101000a900473ffffffffffffffffffffffffffffffffffffffff1673ffffffffffffffffffffffffffffffffffffffff1663609ff1bd6040518163ffffffff1660e01b8152600401602060405180830381865afa1580156100e1573d5f5f3e3d5ffd5b505050506040513d601f19601f8201168201806040525081019061010591906104ee565b14905090565b5f7f63616e6469646174653100000000000000000000000000000000000000000000908060018154018082558091505060019003905f5260205f20015f90919091909150555f60405161015d90610477565b6101679190610622565b604051809103905ff080158015610180573d5f5f3e3d5ffd5b5060015f6101000a81548173ffffffffffffffffffffffffffffffffffffffff021916908373ffffffffffffffffffffffffffffffffffffffff160217905550565b60015f9054906101000a900473ffffffffffffffffffffffffffffffffffffffff1673ffffffffffffffffffffffffffffffffffffffff16630121b93f5f6040518263ffffffff1660e01b815260040161021c9190610684565b5f604051808303815f87803b158015610233575f5ffd5b505af1158015610245573d5f5f3e3d5ffd5b5050505073__$acbfb1c35000d78352310b16a054a6b106$__63abcd796060015f9054906101000a900473ffffffffffffffffffffffffffffffffffffffff1673ffffffffffffffffffffffffffffffffffffffff1663609ff1bd6040518163ffffffff1660e01b8152600401602060405180830381865afa1580156102cd573d5f5f3e3d5ffd5b505050506040513d601f19601f820116820180604052508101906102f191906104ee565b5f6040518363ffffffff1660e01b815260040161030f92919061072c565b602060405180830381865af415801561032a573d5f5f3e3d5ffd5b505050506040513d601f19601f8201168201806040525081019061034e9190610790565b5073__$acbfb1c35000d78352310b16a054a6b106$__63ea79dd7960015f9054906101000a900473ffffffffffffffffffffffffffffffffffffffff1673ffffffffffffffffffffffffffffffffffffffff1663e2ba53f06040518163ffffffff1660e01b8152600401602060405180830381865afa1580156103d3573d5f5f3e3d5ffd5b505050506040513d601f19601f820116820180604052508101906103f791906107e5565b7f63616e64696461746531000000000000000000000000000000000000000000006040518363ffffffff1660e01b815260040161043592919061088f565b602060405180830381865af4158015610450573d5f5f3e3d5ffd5b505050506040513d601f19601f820116820180604052508101906104749190610790565b50565b611333806108ca83390190565b5f8115159050919050565b61049881610484565b82525050565b5f6020820190506104b15f83018461048f565b92915050565b5f5ffd5b5f819050919050565b6104cd816104bb565b81146104d7575f5ffd5b50565b5f815190506104e8816104c4565b92915050565b5f60208284031215610503576105026104b7565b5b5f610510848285016104da565b91505092915050565b5f81549050919050565b5f82825260208201905092915050565b5f819050815f5260205f209050919050565b5f819050919050565b61055781610545565b82525050565b5f610568838361054e565b60208301905092915050565b5f815f1c9050919050565b5f819050919050565b5f61059a61059583610574565b61057f565b9050919050565b5f6105ac8254610588565b9050919050565b5f600182019050919050565b5f6105c982610519565b6105d38185610523565b93506105de83610533565b805f5b83811015610615576105f2826105a1565b6105fc888261055d565b9750610607836105b3565b9250506001810190506105e1565b5085935050505092915050565b5f6020820190508181035f83015261063a81846105bf565b905092915050565b5f819050919050565b5f819050919050565b5f61066e61066961066484610642565b61064b565b6104bb565b9050919050565b61067e81610654565b82525050565b5f6020820190506106975f830184610675565b92915050565b6106a6816104bb565b82525050565b5f82825260208201905092915050565b7f70726f706f73616c20617420696e64657820302073686f756c642062652074685f8201527f652077696e6e696e672070726f706f73616c0000000000000000000000000000602082015250565b5f6107166032836106ac565b9150610721826106bc565b604082019050919050565b5f60608201905061073f5f83018561069d565b61074c602083018461069d565b818103604083015261075d8161070a565b90509392505050565b61076f81610484565b8114610779575f5ffd5b50565b5f8151905061078a81610766565b92915050565b5f602082840312156107a5576107a46104b7565b5b5f6107b28482850161077c565b91505092915050565b6107c481610545565b81146107ce575f5ffd5b50565b5f815190506107df816107bb565b92915050565b5f602082840312156107fa576107f96104b7565b5b5f610807848285016107d1565b91505092915050565b61081981610545565b82525050565b7f63616e646964617465312073686f756c64206265207468652077696e6e6572205f8201527f6e616d6500000000000000000000000000000000000000000000000000000000602082015250565b5f6108796024836106ac565b91506108848261081f565b604082019050919050565b5f6060820190506108a25f830185610810565b6108af6020830184610810565b81810360408301526108c08161086d565b9050939250505056fe608060405234801561000f575f5ffd5b50604051611333380380611333833981810160405281019061003191906102f5565b335f5f6101000a81548173ffffffffffffffffffffffffffffffffffffffff021916908373ffffffffffffffffffffffffffffffffffffffff1602179055506001805f5f5f9054906101000a900473ffffffffffffffffffffffffffffffffffffffff1673ffffffffffffffffffffffffffffffffffffffff1673ffffffffffffffffffffffffffffffffffffffff1681526020019081526020015f205f01819055505f5f90505b815181101561015a57600260405180604001604052808484815181106101025761010161033c565b5b602002602001015181526020015f815250908060018154018082558091505060019003905f5260205f2090600202015f909190919091505f820151815f015560208201518160010155505080806001019150506100d9565b5050610369565b5f604051905090565b5f5ffd5b5f5ffd5b5f5ffd5b5f601f19601f8301169050919050565b7f4e487b71000000000000000000000000000000000000000000000000000000005f52604160045260245ffd5b6101bc82610176565b810181811067ffffffffffffffff821117156101db576101da610186565b5b80604052505050565b5f6101ed610161565b90506101f982826101b3565b919050565b5f67ffffffffffffffff82111561021857610217610186565b5b602082029050602081019050919050565b5f5ffd5b5f819050919050565b61023f8161022d565b8114610249575f5ffd5b50565b5f8151905061025a81610236565b92915050565b5f61027261026d846101fe565b6101e4565b9050808382526020820190506020840283018581111561029557610294610229565b5b835b818110156102be57806102aa888261024c565b845260208401935050602081019050610297565b5050509392505050565b5f82601f8301126102dc576102db610172565b5b81516102ec848260208601610260565b91505092915050565b5f6020828403121561030a5761030961016a565b5b5f82015167ffffffffffffffff8111156103275761032661016e565b5b610333848285016102c8565b91505092915050565b7f4e487b71000000000000000000000000000000000000000000000000000000005f52603260045260245ffd5b610fbd806103765f395ff3fe608060405234801561000f575f5ffd5b5060043610610086575f3560e01c8063609ff1bd11610059578063609ff1bd146101115780639e7b8d611461012f578063a3ec138d1461014b578063e2ba53f01461017e57610086565b80630121b93f1461008a578063013cf08b146100a65780632e4176cf146100d75780635c19a95c146100f5575b5f5ffd5b6100a4600480360381019061009f91906109cf565b61019c565b005b6100c060048036038101906100bb91906109cf565b6102d7565b6040516100ce929190610a21565b60405180910390f35b6100df610306565b6040516100ec9190610a87565b60405180910390f35b61010f600480360381019061010a9190610aca565b61032a565b005b6101196106af565b6040516101269190610af5565b60405180910390f35b61014960048036038101906101449190610aca565b61072d565b005b61016560048036038101906101609190610aca565b610910565b6040516101759493929190610b28565b60405180910390f35b610186610968565b6040516101939190610b6b565b60405180910390f35b5f60015f3373ffffffffffffffffffffffffffffffffffffffff1673ffffffffffffffffffffffffffffffffffffffff1681526020019081526020015f2090505f815f015403610221576040517f08c379a000000000000000000000000000000000000000000000000000000000815260040161021890610bde565b60405180910390fd5b806001015f9054906101000a900460ff1615610272576040517f08c379a000000000000000000000000000000000000000000000000000000000815260040161026990610c46565b60405180910390fd5b6001816001015f6101000a81548160ff021916908315150217905550818160020181905550805f0154600283815481106102af576102ae610c64565b5b905f5260205f2090600202016001015f8282546102cc9190610cbe565b925050819055505050565b600281815481106102e6575f80fd5b905f5260205f2090600202015f91509050805f0154908060010154905082565b5f5f9054906101000a900473ffffffffffffffffffffffffffffffffffffffff1681565b5f60015f3373ffffffffffffffffffffffffffffffffffffffff1673ffffffffffffffffffffffffffffffffffffffff1681526020019081526020015f209050806001015f9054906101000a900460ff16156103bb576040517f08c379a00000000000000000000000000000000000000000000000000000000081526004016103b290610d3b565b60405180910390fd5b3373ffffffffffffffffffffffffffffffffffffffff168273ffffffffffffffffffffffffffffffffffffffff1603610429576040517f08c379a000000000000000000000000000000000000000000000000000000000815260040161042090610da3565b60405180910390fd5b5b5f73ffffffffffffffffffffffffffffffffffffffff1660015f8473ffffffffffffffffffffffffffffffffffffffff1673ffffffffffffffffffffffffffffffffffffffff1681526020019081526020015f2060010160019054906101000a900473ffffffffffffffffffffffffffffffffffffffff1673ffffffffffffffffffffffffffffffffffffffff16146105935760015f8373ffffffffffffffffffffffffffffffffffffffff1673ffffffffffffffffffffffffffffffffffffffff1681526020019081526020015f2060010160019054906101000a900473ffffffffffffffffffffffffffffffffffffffff1691503373ffffffffffffffffffffffffffffffffffffffff168273ffffffffffffffffffffffffffffffffffffffff160361058e576040517f08c379a000000000000000000000000000000000000000000000000000000000815260040161058590610e0b565b60405180910390fd5b61042a565b6001816001015f6101000a81548160ff021916908315150217905550818160010160016101000a81548173ffffffffffffffffffffffffffffffffffffffff021916908373ffffffffffffffffffffffffffffffffffffffff1602179055505f60015f8473ffffffffffffffffffffffffffffffffffffffff1673ffffffffffffffffffffffffffffffffffffffff1681526020019081526020015f209050806001015f9054906101000a900460ff161561068d57815f0154600282600201548154811061066457610663610c64565b5b905f5260205f2090600202016001015f8282546106819190610cbe565b925050819055506106aa565b815f0154815f015f8282546106a29190610cbe565b925050819055505b505050565b5f5f5f90505f5f90505b6002805490508110156107285781600282815481106106db576106da610c64565b5b905f5260205f20906002020160010154111561071b576002818154811061070557610704610c64565b5b905f5260205f2090600202016001015491508092505b80806001019150506106b9565b505090565b5f5f9054906101000a900473ffffffffffffffffffffffffffffffffffffffff1673ffffffffffffffffffffffffffffffffffffffff163373ffffffffffffffffffffffffffffffffffffffff16146107bb576040517f08c379a00000000000000000000000000000000000000000000000000000000081526004016107b290610e99565b60405180910390fd5b60015f8273ffffffffffffffffffffffffffffffffffffffff1673ffffffffffffffffffffffffffffffffffffffff1681526020019081526020015f206001015f9054906101000a900460ff1615610848576040517f08c379a000000000000000000000000000000000000000000000000000000000815260040161083f90610f01565b60405180910390fd5b5f60015f8373ffffffffffffffffffffffffffffffffffffffff1673ffffffffffffffffffffffffffffffffffffffff1681526020019081526020015f205f0154146108c9576040517f08c379a00000000000000000000000000000000000000000000000000000000081526004016108c090610f69565b60405180910390fd5b6001805f8373ffffffffffffffffffffffffffffffffffffffff1673ffffffffffffffffffffffffffffffffffffffff1681526020019081526020015f205f018190555050565b6001602052805f5260405f205f91509050805f015490806001015f9054906101000a900460ff16908060010160019054906101000a900473ffffffffffffffffffffffffffffffffffffffff16908060020154905084565b5f60026109736106af565b8154811061098457610983610c64565b5b905f5260205f2090600202015f0154905090565b5f5ffd5b5f819050919050565b6109ae8161099c565b81146109b8575f5ffd5b50565b5f813590506109c9816109a5565b92915050565b5f602082840312156109e4576109e3610998565b5b5f6109f1848285016109bb565b91505092915050565b5f819050919050565b610a0c816109fa565b82525050565b610a1b8161099c565b82525050565b5f604082019050610a345f830185610a03565b610a416020830184610a12565b9392505050565b5f73ffffffffffffffffffffffffffffffffffffffff82169050919050565b5f610a7182610a48565b9050919050565b610a8181610a67565b82525050565b5f602082019050610a9a5f830184610a78565b92915050565b610aa981610a67565b8114610ab3575f5ffd5b50565b5f81359050610ac481610aa0565b92915050565b5f60208284031215610adf57610ade610998565b5b5f610aec84828501610ab6565b91505092915050565b5f602082019050610b085f830184610a12565b92915050565b5f8115159050919050565b610b2281610b0e565b82525050565b5f608082019050610b3b5f830187610a12565b610b486020830186610b19565b610b556040830185610a78565b610b626060830184610a12565b95945050505050565b5f602082019050610b7e5f830184610a03565b92915050565b5f82825260208201905092915050565b7f486173206e6f20726967687420746f20766f74652e00000000000000000000005f82015250565b5f610bc8601583610b84565b9150610bd382610b94565b602082019050919050565b5f6020820190508181035f830152610bf581610bbc565b9050919050565b7f416c726561647920766f7465642e0000000000000000000000000000000000005f82015250565b5f610c30600e83610b84565b9150610c3b82610bfc565b602082019050919050565b5f6020820190508181035f830152610c5d81610c24565b9050919050565b7f4e487b71000000000000000000000000000000000000000000000000000000005f52603260045260245ffd5b7f4e487b71000000000000000000000000000000000000000000000000000000005f52601160045260245ffd5b5f610cc88261099c565b9150610cd38361099c565b9250828201905080821115610ceb57610cea610c91565b5b92915050565b7f596f7520616c726561647920766f7465642e00000000000000000000000000005f82015250565b5f610d25601283610b84565b9150610d3082610cf1565b602082019050919050565b5f6020820190508181035f830152610d5281610d19565b9050919050565b7f53656c662d64656c65676174696f6e20697320646973616c6c6f7765642e00005f82015250565b5f610d8d601e83610b84565b9150610d9882610d59565b602082019050919050565b5f6020820190508181035f830152610dba81610d81565b9050919050565b7f466f756e64206c6f6f7020696e2064656c65676174696f6e2e000000000000005f82015250565b5f610df5601983610b84565b9150610e0082610dc1565b602082019050919050565b5f6020820190508181035f830152610e2281610de9565b9050919050565b7f4f6e6c79206368616972706572736f6e2063616e2067697665207269676874205f8201527f746f20766f74652e000000000000000000000000000000000000000000000000602082015250565b5f610e83602883610b84565b9150610e8e82610e29565b604082019050919050565b5f6020820190508181035f830152610eb081610e77565b9050919050565b7f54686520766f74657220616c726561647920766f7465642e00000000000000005f82015250565b5f610eeb601883610b84565b9150610ef682610eb7565b602082019050919050565b5f6020820190508181035f830152610f1881610edf565b9050919050565b7f566f74657220616c72656164792068617320726967687420746f20766f74652e5f82015250565b5f610f53602083610b84565b9150610f5e82610f1f565b602082019050919050565b5f6020820190508181035f830152610f8081610f47565b905091905056fea2646970667358221220182343fea4721f351cdae920d5dda056fd63f67096750e197bd6cffd2f57ad7064736f6c63430008220033a264697066735822122050c8db8937157e0ca38697a825a16575528c040ed58c860acec203596c2e29b164736f6c63430008220033",
		"opcodes": "PUSH1 0x80 PUSH1 0x40 MSTORE CALLVALUE DUP1 ISZERO PUSH1 0xE JUMPI PUSH0 PUSH0 REVERT JUMPDEST POP PUSH2 0x1C32 DUP1 PUSH2 0x1C PUSH0 CODECOPY PUSH0 RETURN INVALID PUSH1 0x80 PUSH1 0x40 MSTORE CALLVALUE DUP1 ISZERO PUSH2 0xF JUMPI PUSH0 PUSH0 REVERT JUMPDEST POP PUSH1 0x4 CALLDATASIZE LT PUSH2 0x3F JUMPI PUSH0 CALLDATALOAD PUSH1 0xE0 SHR DUP1 PUSH4 0x3439C57B EQ PUSH2 0x43 JUMPI DUP1 PUSH4 0x7FEA0D4B EQ PUSH2 0x61 JUMPI DUP1 PUSH4 0xED2BEE10 EQ PUSH2 0x6B JUMPI JUMPDEST PUSH0 PUSH0 REVERT JUMPDEST PUSH2 0x4B PUSH2 0x75 JUMP JUMPDEST PUSH1 0x40 MLOAD PUSH2 0x58 SWAP2 SWAP1 PUSH2 0x49E JUMP JUMPDEST PUSH1 0x40 MLOAD DUP1 SWAP2 SUB SWAP1 RETURN JUMPDEST PUSH2 0x69 PUSH2 0x10B JUMP JUMPDEST STOP JUMPDEST PUSH2 0x73 PUSH2 0x1C2 JUMP JUMPDEST STOP JUMPDEST PUSH0 PUSH0 PUSH1 0x1 PUSH0 SWAP1 SLOAD SWAP1 PUSH2 0x100 EXP SWAP1 DIV PUSH20 0xFFFFFFFFFFFFFFFFFFFFFFFFFFFFFFFFFFFFFFFF AND PUSH20 0xFFFFFFFFFFFFFFFFFFFFFFFFFFFFFFFFFFFFFFFF AND PUSH4 0x609FF1BD PUSH1 0x40 MLOAD DUP2 PUSH4 0xFFFFFFFF AND PUSH1 0xE0 SHL DUP2 MSTORE PUSH1 0x4 ADD PUSH1 0x20 PUSH1 0x40 MLOAD DUP1 DUP4 SUB DUP2 DUP7 GAS STATICCALL ISZERO DUP1 ISZERO PUSH2 0xE1 JUMPI RETURNDATASIZE PUSH0 PUSH0 RETURNDATACOPY RETURNDATASIZE PUSH0 REVERT JUMPDEST POP POP POP POP PUSH1 0x40 MLOAD RETURNDATASIZE PUSH1 0x1F NOT PUSH1 0x1F DUP3 ADD AND DUP3 ADD DUP1 PUSH1 0x40 MSTORE POP DUP2 ADD SWAP1 PUSH2 0x105 SWAP2 SWAP1 PUSH2 0x4EE JUMP JUMPDEST EQ SWAP1 POP SWAP1 JUMP JUMPDEST PUSH0 PUSH32 0x63616E6469646174653100000000000000000000000000000000000000000000 SWAP1 DUP1 PUSH1 0x1 DUP2 SLOAD ADD DUP1 DUP3 SSTORE DUP1 SWAP2 POP POP PUSH1 0x1 SWAP1 SUB SWAP1 PUSH0 MSTORE PUSH1 0x20 PUSH0 KECCAK256 ADD PUSH0 SWAP1 SWAP2 SWAP1 SWAP2 SWAP1 SWAP2 POP SSTORE PUSH0 PUSH1 0x40 MLOAD PUSH2 0x15D SWAP1 PUSH2 0x477 JUMP JUMPDEST PUSH2 0x167 SWAP2 SWAP1 PUSH2 0x622 JUMP JUMPDEST PUSH1 0x40 MLOAD DUP1 SWAP2 SUB SWAP1 PUSH0 CREATE DUP1 ISZERO DUP1 ISZERO PUSH2 0x180 JUMPI RETURNDATASIZE PUSH0 PUSH0 RETURNDATACOPY RETURNDATASIZE PUSH0 REVERT JUMPDEST POP PUSH1 0x1 PUSH0 PUSH2 0x100 EXP DUP2 SLOAD DUP2 PUSH20 0xFFFFFFFFFFFFFFFFFFFFFFFFFFFFFFFFFFFFFFFF MUL NOT AND SWAP1 DUP4 PUSH20 0xFFFFFFFFFFFFFFFFFFFFFFFFFFFFFFFFFFFFFFFF AND MUL OR SWAP1 SSTORE POP JUMP JUMPDEST PUSH1 0x1 PUSH0 SWAP1 SLOAD SWAP1 PUSH2 0x100 EXP SWAP1 DIV PUSH20 0xFFFFFFFFFFFFFFFFFFFFFFFFFFFFFFFFFFFFFFFF AND PUSH20 0xFFFFFFFFFFFFFFFFFFFFFFFFFFFFFFFFFFFFFFFF AND PUSH4 0x121B93F PUSH0 PUSH1 0x40 MLOAD DUP3 PUSH4 0xFFFFFFFF AND PUSH1 0xE0 SHL DUP2 MSTORE PUSH1 0x4 ADD PUSH2 0x21C SWAP2 SWAP1 PUSH2 0x684 JUMP JUMPDEST PUSH0 PUSH1 0x40 MLOAD DUP1 DUP4 SUB DUP2 PUSH0 DUP8 DUP1 EXTCODESIZE ISZERO DUP1 ISZERO PUSH2 0x233 JUMPI PUSH0 PUSH0 REVERT JUMPDEST POP GAS CALL ISZERO DUP1 ISZERO PUSH2 0x245 JUMPI RETURNDATASIZE PUSH0 PUSH0 RETURNDATACOPY RETURNDATASIZE PUSH0 REVERT JUMPDEST POP POP POP POP PUSH20 0x0 PUSH4 0xABCD7960 PUSH1 0x1 PUSH0 SWAP1 SLOAD SWAP1 PUSH2 0x100 EXP SWAP1 DIV PUSH20 0xFFFFFFFFFFFFFFFFFFFFFFFFFFFFFFFFFFFFFFFF AND PUSH20 0xFFFFFFFFFFFFFFFFFFFFFFFFFFFFFFFFFFFFFFFF AND PUSH4 0x609FF1BD PUSH1 0x40 MLOAD DUP2 PUSH4 0xFFFFFFFF AND PUSH1 0xE0 SHL DUP2 MSTORE PUSH1 0x4 ADD PUSH1 0x20 PUSH1 0x40 MLOAD DUP1 DUP4 SUB DUP2 DUP7 GAS STATICCALL ISZERO DUP1 ISZERO PUSH2 0x2CD JUMPI RETURNDATASIZE PUSH0 PUSH0 RETURNDATACOPY RETURNDATASIZE PUSH0 REVERT JUMPDEST POP POP POP POP PUSH1 0x40 MLOAD RETURNDATASIZE PUSH1 0x1F NOT PUSH1 0x1F DUP3 ADD AND DUP3 ADD DUP1 PUSH1 0x40 MSTORE POP DUP2 ADD SWAP1 PUSH2 0x2F1 SWAP2 SWAP1 PUSH2 0x4EE JUMP JUMPDEST PUSH0 PUSH1 0x40 MLOAD DUP4 PUSH4 0xFFFFFFFF AND PUSH1 0xE0 SHL DUP2 MSTORE PUSH1 0x4 ADD PUSH2 0x30F SWAP3 SWAP2 SWAP1 PUSH2 0x72C JUMP JUMPDEST PUSH1 0x20 PUSH1 0x40 MLOAD DUP1 DUP4 SUB DUP2 DUP7 GAS DELEGATECALL ISZERO DUP1 ISZERO PUSH2 0x32A JUMPI RETURNDATASIZE PUSH0 PUSH0 RETURNDATACOPY RETURNDATASIZE PUSH0 REVERT JUMPDEST POP POP POP POP PUSH1 0x40 MLOAD RETURNDATASIZE PUSH1 0x1F NOT PUSH1 0x1F DUP3 ADD AND DUP3 ADD DUP1 PUSH1 0x40 MSTORE POP DUP2 ADD SWAP1 PUSH2 0x34E SWAP2 SWAP1 PUSH2 0x790 JUMP JUMPDEST POP PUSH20 0x0 PUSH4 0xEA79DD79 PUSH1 0x1 PUSH0 SWAP1 SLOAD SWAP1 PUSH2 0x100 EXP SWAP1 DIV PUSH20 0xFFFFFFFFFFFFFFFFFFFFFFFFFFFFFFFFFFFFFFFF AND PUSH20 0xFFFFFFFFFFFFFFFFFFFFFFFFFFFFFFFFFFFFFFFF AND PUSH4 0xE2BA53F0 PUSH1 0x40 MLOAD DUP2 PUSH4 0xFFFFFFFF AND PUSH1 0xE0 SHL DUP2 MSTORE PUSH1 0x4 ADD PUSH1 0x20 PUSH1 0x40 MLOAD DUP1 DUP4 SUB DUP2 DUP7 GAS STATICCALL ISZERO DUP1 ISZERO PUSH2 0x3D3 JUMPI RETURNDATASIZE PUSH0 PUSH0 RETURNDATACOPY RETURNDATASIZE PUSH0 REVERT JUMPDEST POP POP POP POP PUSH1 0x40 MLOAD RETURNDATASIZE PUSH1 0x1F NOT PUSH1 0x1F DUP3 ADD AND DUP3 ADD DUP1 PUSH1 0x40 MSTORE POP DUP2 ADD SWAP1 PUSH2 0x3F7 SWAP2 SWAP1 PUSH2 0x7E5 JUMP JUMPDEST PUSH32 0x63616E6469646174653100000000000000000000000000000000000000000000 PUSH1 0x40 MLOAD DUP4 PUSH4 0xFFFFFFFF AND PUSH1 0xE0 SHL DUP2 MSTORE PUSH1 0x4 ADD PUSH2 0x435 SWAP3 SWAP2 SWAP1 PUSH2 0x88F JUMP JUMPDEST PUSH1 0x20 PUSH1 0x40 MLOAD DUP1 DUP4 SUB DUP2 DUP7 GAS DELEGATECALL ISZERO DUP1 ISZERO PUSH2 0x450 JUMPI RETURNDATASIZE PUSH0 PUSH0 RETURNDATACOPY RETURNDATASIZE PUSH0 REVERT JUMPDEST POP POP POP POP PUSH1 0x40 MLOAD RETURNDATASIZE PUSH1 0x1F NOT PUSH1 0x1F DUP3 ADD AND DUP3 ADD DUP1 PUSH1 0x40 MSTORE POP DUP2 ADD SWAP1 PUSH2 0x474 SWAP2 SWAP1 PUSH2 0x790 JUMP JUMPDEST POP JUMP JUMPDEST PUSH2 0x1333 DUP1 PUSH2 0x8CA DUP4 CODECOPY ADD SWAP1 JUMP JUMPDEST PUSH0 DUP2 ISZERO ISZERO SWAP1 POP SWAP2 SWAP1 POP JUMP JUMPDEST PUSH2 0x498 DUP2 PUSH2 0x484 JUMP JUMPDEST DUP3 MSTORE POP POP JUMP JUMPDEST PUSH0 PUSH1 0x20 DUP3 ADD SWAP1 POP PUSH2 0x4B1 PUSH0 DUP4 ADD DUP5 PUSH2 0x48F JUMP JUMPDEST SWAP3 SWAP2 POP POP JUMP JUMPDEST PUSH0 PUSH0 REVERT JUMPDEST PUSH0 DUP2 SWAP1 POP SWAP2 SWAP1 POP JUMP JUMPDEST PUSH2 0x4CD DUP2 PUSH2 0x4BB JUMP JUMPDEST DUP2 EQ PUSH2 0x4D7 JUMPI PUSH0 PUSH0 REVERT JUMPDEST POP JUMP JUMPDEST PUSH0 DUP2 MLOAD SWAP1 POP PUSH2 0x4E8 DUP2 PUSH2 0x4C4 JUMP JUMPDEST SWAP3 SWAP2 POP POP JUMP JUMPDEST PUSH0 PUSH1 0x20 DUP3 DUP5 SUB SLT ISZERO PUSH2 0x503 JUMPI PUSH2 0x502 PUSH2 0x4B7 JUMP JUMPDEST JUMPDEST PUSH0 PUSH2 0x510 DUP5 DUP3 DUP6 ADD PUSH2 0x4DA JUMP JUMPDEST SWAP2 POP POP SWAP3 SWAP2 POP POP JUMP JUMPDEST PUSH0 DUP2 SLOAD SWAP1 POP SWAP2 SWAP1 POP JUMP JUMPDEST PUSH0 DUP3 DUP3 MSTORE PUSH1 0x20 DUP3 ADD SWAP1 POP SWAP3 SWAP2 POP POP JUMP JUMPDEST PUSH0 DUP2 SWAP1 POP DUP2 PUSH0 MSTORE PUSH1 0x20 PUSH0 KECCAK256 SWAP1 POP SWAP2 SWAP1 POP JUMP JUMPDEST PUSH0 DUP2 SWAP1 POP SWAP2 SWAP1 POP JUMP JUMPDEST PUSH2 0x557 DUP2 PUSH2 0x545 JUMP JUMPDEST DUP3 MSTORE POP POP JUMP JUMPDEST PUSH0 PUSH2 0x568 DUP4 DUP4 PUSH2 0x54E JUMP JUMPDEST PUSH1 0x20 DUP4 ADD SWAP1 POP SWAP3 SWAP2 POP POP JUMP JUMPDEST PUSH0 DUP2 PUSH0 SHR SWAP1 POP SWAP2 SWAP1 POP JUMP JUMPDEST PUSH0 DUP2 SWAP1 POP SWAP2 SWAP1 POP JUMP JUMPDEST PUSH0 PUSH2 0x59A PUSH2 0x595 DUP4 PUSH2 0x574 JUMP JUMPDEST PUSH2 0x57F JUMP JUMPDEST SWAP1 POP SWAP2 SWAP1 POP JUMP JUMPDEST PUSH0 PUSH2 0x5AC DUP3 SLOAD PUSH2 0x588 JUMP JUMPDEST SWAP1 POP SWAP2 SWAP1 POP JUMP JUMPDEST PUSH0 PUSH1 0x1 DUP3 ADD SWAP1 POP SWAP2 SWAP1 POP JUMP JUMPDEST PUSH0 PUSH2 0x5C9 DUP3 PUSH2 0x519 JUMP JUMPDEST PUSH2 0x5D3 DUP2 DUP6 PUSH2 0x523 JUMP JUMPDEST SWAP4 POP PUSH2 0x5DE DUP4 PUSH2 0x533 JUMP JUMPDEST DUP1 PUSH0 JUMPDEST DUP4 DUP2 LT ISZERO PUSH2 0x615 JUMPI PUSH2 0x5F2 DUP3 PUSH2 0x5A1 JUMP JUMPDEST PUSH2 0x5FC DUP9 DUP3 PUSH2 0x55D JUMP JUMPDEST SWAP8 POP PUSH2 0x607 DUP4 PUSH2 0x5B3 JUMP JUMPDEST SWAP3 POP POP PUSH1 0x1 DUP2 ADD SWAP1 POP PUSH2 0x5E1 JUMP JUMPDEST POP DUP6 SWAP4 POP POP POP POP SWAP3 SWAP2 POP POP JUMP JUMPDEST PUSH0 PUSH1 0x20 DUP3 ADD SWAP1 POP DUP2 DUP2 SUB PUSH0 DUP4 ADD MSTORE PUSH2 0x63A DUP2 DUP5 PUSH2 0x5BF JUMP JUMPDEST SWAP1 POP SWAP3 SWAP2 POP POP JUMP JUMPDEST PUSH0 DUP2 SWAP1 POP SWAP2 SWAP1 POP JUMP JUMPDEST PUSH0 DUP2 SWAP1 POP SWAP2 SWAP1 POP JUMP JUMPDEST PUSH0 PUSH2 0x66E PUSH2 0x669 PUSH2 0x664 DUP5 PUSH2 0x642 JUMP JUMPDEST PUSH2 0x64B JUMP JUMPDEST PUSH2 0x4BB JUMP JUMPDEST SWAP1 POP SWAP2 SWAP1 POP JUMP JUMPDEST PUSH2 0x67E DUP2 PUSH2 0x654 JUMP JUMPDEST DUP3 MSTORE POP POP JUMP JUMPDEST PUSH0 PUSH1 0x20 DUP3 ADD SWAP1 POP PUSH2 0x697 PUSH0 DUP4 ADD DUP5 PUSH2 0x675 JUMP JUMPDEST SWAP3 SWAP2 POP POP JUMP JUMPDEST PUSH2 0x6A6 DUP2 PUSH2 0x4BB JUMP JUMPDEST DUP3 MSTORE POP POP JUMP JUMPDEST PUSH0 DUP3 DUP3 MSTORE PUSH1 0x20 DUP3 ADD SWAP1 POP SWAP3 SWAP2 POP POP JUMP JUMPDEST PUSH32 0x70726F706F73616C20617420696E64657820302073686F756C64206265207468 PUSH0 DUP3 ADD MSTORE PUSH32 0x652077696E6E696E672070726F706F73616C0000000000000000000000000000 PUSH1 0x20 DUP3 ADD MSTORE POP JUMP JUMPDEST PUSH0 PUSH2 0x716 PUSH1 0x32 DUP4 PUSH2 0x6AC JUMP JUMPDEST SWAP2 POP PUSH2 0x721 DUP3 PUSH2 0x6BC JUMP JUMPDEST PUSH1 0x40 DUP3 ADD SWAP1 POP SWAP2 SWAP1 POP JUMP JUMPDEST PUSH0 PUSH1 0x60 DUP3 ADD SWAP1 POP PUSH2 0x73F PUSH0 DUP4 ADD DUP6 PUSH2 0x69D JUMP JUMPDEST PUSH2 0x74C PUSH1 0x20 DUP4 ADD DUP5 PUSH2 0x69D JUMP JUMPDEST DUP2 DUP2 SUB PUSH1 0x40 DUP4 ADD MSTORE PUSH2 0x75D DUP2 PUSH2 0x70A JUMP JUMPDEST SWAP1 POP SWAP4 SWAP3 POP POP POP JUMP JUMPDEST PUSH2 0x76F DUP2 PUSH2 0x484 JUMP JUMPDEST DUP2 EQ PUSH2 0x779 JUMPI PUSH0 PUSH0 REVERT JUMPDEST POP JUMP JUMPDEST PUSH0 DUP2 MLOAD SWAP1 POP PUSH2 0x78A DUP2 PUSH2 0x766 JUMP JUMPDEST SWAP3 SWAP2 POP POP JUMP JUMPDEST PUSH0 PUSH1 0x20 DUP3 DUP5 SUB SLT ISZERO PUSH2 0x7A5 JUMPI PUSH2 0x7A4 PUSH2 0x4B7 JUMP JUMPDEST JUMPDEST PUSH0 PUSH2 0x7B2 DUP5 DUP3 DUP6 ADD PUSH2 0x77C JUMP JUMPDEST SWAP2 POP POP SWAP3 SWAP2 POP POP JUMP JUMPDEST PUSH2 0x7C4 DUP2 PUSH2 0x545 JUMP JUMPDEST DUP2 EQ PUSH2 0x7CE JUMPI PUSH0 PUSH0 REVERT JUMPDEST POP JUMP JUMPDEST PUSH0 DUP2 MLOAD SWAP1 POP PUSH2 0x7DF DUP2 PUSH2 0x7BB JUMP JUMPDEST SWAP3 SWAP2 POP POP JUMP JUMPDEST PUSH0 PUSH1 0x20 DUP3 DUP5 SUB SLT ISZERO PUSH2 0x7FA JUMPI PUSH2 0x7F9 PUSH2 0x4B7 JUMP JUMPDEST JUMPDEST PUSH0 PUSH2 0x807 DUP5 DUP3 DUP6 ADD PUSH2 0x7D1 JUMP JUMPDEST SWAP2 POP POP SWAP3 SWAP2 POP POP JUMP JUMPDEST PUSH2 0x819 DUP2 PUSH2 0x545 JUMP JUMPDEST DUP3 MSTORE POP POP JUMP JUMPDEST PUSH32 0x63616E646964617465312073686F756C64206265207468652077696E6E657220 PUSH0 DUP3 ADD MSTORE PUSH32 0x6E616D6500000000000000000000000000000000000000000000000000000000 PUSH1 0x20 DUP3 ADD MSTORE POP JUMP JUMPDEST PUSH0 PUSH2 0x879 PUSH1 0x24 DUP4 PUSH2 0x6AC JUMP JUMPDEST SWAP2 POP PUSH2 0x884 DUP3 PUSH2 0x81F JUMP JUMPDEST PUSH1 0x40 DUP3 ADD SWAP1 POP SWAP2 SWAP1 POP JUMP JUMPDEST PUSH0 PUSH1 0x60 DUP3 ADD SWAP1 POP PUSH2 0x8A2 PUSH0 DUP4 ADD DUP6 PUSH2 0x810 JUMP JUMPDEST PUSH2 0x8AF PUSH1 0x20 DUP4 ADD DUP5 PUSH2 0x810 JUMP JUMPDEST DUP2 DUP2 SUB PUSH1 0x40 DUP4 ADD MSTORE PUSH2 0x8C0 DUP2 PUSH2 0x86D JUMP JUMPDEST SWAP1 POP SWAP4 SWAP3 POP POP POP JUMP INVALID PUSH1 0x80 PUSH1 0x40 MSTORE CALLVALUE DUP1 ISZERO PUSH2 0xF JUMPI PUSH0 PUSH0 REVERT JUMPDEST POP PUSH1 0x40 MLOAD PUSH2 0x1333 CODESIZE SUB DUP1 PUSH2 0x1333 DUP4 CODECOPY DUP2 DUP2 ADD PUSH1 0x40 MSTORE DUP2 ADD SWAP1 PUSH2 0x31 SWAP2 SWAP1 PUSH2 0x2F5 JUMP JUMPDEST CALLER PUSH0 PUSH0 PUSH2 0x100 EXP DUP2 SLOAD DUP2 PUSH20 0xFFFFFFFFFFFFFFFFFFFFFFFFFFFFFFFFFFFFFFFF MUL NOT AND SWAP1 DUP4 PUSH20 0xFFFFFFFFFFFFFFFFFFFFFFFFFFFFFFFFFFFFFFFF AND MUL OR SWAP1 SSTORE POP PUSH1 0x1 DUP1 PUSH0 PUSH0 PUSH0 SWAP1 SLOAD SWAP1 PUSH2 0x100 EXP SWAP1 DIV PUSH20 0xFFFFFFFFFFFFFFFFFFFFFFFFFFFFFFFFFFFFFFFF AND PUSH20 0xFFFFFFFFFFFFFFFFFFFFFFFFFFFFFFFFFFFFFFFF AND PUSH20 0xFFFFFFFFFFFFFFFFFFFFFFFFFFFFFFFFFFFFFFFF AND DUP2 MSTORE PUSH1 0x20 ADD SWAP1 DUP2 MSTORE PUSH1 0x20 ADD PUSH0 KECCAK256 PUSH0 ADD DUP2 SWAP1 SSTORE POP PUSH0 PUSH0 SWAP1 POP JUMPDEST DUP2 MLOAD DUP2 LT ISZERO PUSH2 0x15A JUMPI PUSH1 0x2 PUSH1 0x40 MLOAD DUP1 PUSH1 0x40 ADD PUSH1 0x40 MSTORE DUP1 DUP5 DUP5 DUP2 MLOAD DUP2 LT PUSH2 0x102 JUMPI PUSH2 0x101 PUSH2 0x33C JUMP JUMPDEST JUMPDEST PUSH1 0x20 MUL PUSH1 0x20 ADD ADD MLOAD DUP2 MSTORE PUSH1 0x20 ADD PUSH0 DUP2 MSTORE POP SWAP1 DUP1 PUSH1 0x1 DUP2 SLOAD ADD DUP1 DUP3 SSTORE DUP1 SWAP2 POP POP PUSH1 0x1 SWAP1 SUB SWAP1 PUSH0 MSTORE PUSH1 0x20 PUSH0 KECCAK256 SWAP1 PUSH1 0x2 MUL ADD PUSH0 SWAP1 SWAP2 SWAP1 SWAP2 SWAP1 SWAP2 POP PUSH0 DUP3 ADD MLOAD DUP2 PUSH0 ADD SSTORE PUSH1 0x20 DUP3 ADD MLOAD DUP2 PUSH1 0x1 ADD SSTORE POP POP DUP1 DUP1 PUSH1 0x1 ADD SWAP2 POP POP PUSH2 0xD9 JUMP JUMPDEST POP POP PUSH2 0x369 JUMP JUMPDEST PUSH0 PUSH1 0x40 MLOAD SWAP1 POP SWAP1 JUMP JUMPDEST PUSH0 PUSH0 REVERT JUMPDEST PUSH0 PUSH0 REVERT JUMPDEST PUSH0 PUSH0 REVERT JUMPDEST PUSH0 PUSH1 0x1F NOT PUSH1 0x1F DUP4 ADD AND SWAP1 POP SWAP2 SWAP1 POP JUMP JUMPDEST PUSH32 0x4E487B7100000000000000000000000000000000000000000000000000000000 PUSH0 MSTORE PUSH1 0x41 PUSH1 0x4 MSTORE PUSH1 0x24 PUSH0 REVERT JUMPDEST PUSH2 0x1BC DUP3 PUSH2 0x176 JUMP JUMPDEST DUP2 ADD DUP2 DUP2 LT PUSH8 0xFFFFFFFFFFFFFFFF DUP3 GT OR ISZERO PUSH2 0x1DB JUMPI PUSH2 0x1DA PUSH2 0x186 JUMP JUMPDEST JUMPDEST DUP1 PUSH1 0x40 MSTORE POP POP POP JUMP JUMPDEST PUSH0 PUSH2 0x1ED PUSH2 0x161 JUMP JUMPDEST SWAP1 POP PUSH2 0x1F9 DUP3 DUP3 PUSH2 0x1B3 JUMP JUMPDEST SWAP2 SWAP1 POP JUMP JUMPDEST PUSH0 PUSH8 0xFFFFFFFFFFFFFFFF DUP3 GT ISZERO PUSH2 0x218 JUMPI PUSH2 0x217 PUSH2 0x186 JUMP JUMPDEST JUMPDEST PUSH1 0x20 DUP3 MUL SWAP1 POP PUSH1 0x20 DUP2 ADD SWAP1 POP SWAP2 SWAP1 POP JUMP JUMPDEST PUSH0 PUSH0 REVERT JUMPDEST PUSH0 DUP2 SWAP1 POP SWAP2 SWAP1 POP JUMP JUMPDEST PUSH2 0x23F DUP2 PUSH2 0x22D JUMP JUMPDEST DUP2 EQ PUSH2 0x249 JUMPI PUSH0 PUSH0 REVERT JUMPDEST POP JUMP JUMPDEST PUSH0 DUP2 MLOAD SWAP1 POP PUSH2 0x25A DUP2 PUSH2 0x236 JUMP JUMPDEST SWAP3 SWAP2 POP POP JUMP JUMPDEST PUSH0 PUSH2 0x272 PUSH2 0x26D DUP5 PUSH2 0x1FE JUMP JUMPDEST PUSH2 0x1E4 JUMP JUMPDEST SWAP1 POP DUP1 DUP4 DUP3 MSTORE PUSH1 0x20 DUP3 ADD SWAP1 POP PUSH1 0x20 DUP5 MUL DUP4 ADD DUP6 DUP2 GT ISZERO PUSH2 0x295 JUMPI PUSH2 0x294 PUSH2 0x229 JUMP JUMPDEST JUMPDEST DUP4 JUMPDEST DUP2 DUP2 LT ISZERO PUSH2 0x2BE JUMPI DUP1 PUSH2 0x2AA DUP9 DUP3 PUSH2 0x24C JUMP JUMPDEST DUP5 MSTORE PUSH1 0x20 DUP5 ADD SWAP4 POP POP PUSH1 0x20 DUP2 ADD SWAP1 POP PUSH2 0x297 JUMP JUMPDEST POP POP POP SWAP4 SWAP3 POP POP POP JUMP JUMPDEST PUSH0 DUP3 PUSH1 0x1F DUP4 ADD SLT PUSH2 0x2DC JUMPI PUSH2 0x2DB PUSH2 0x172 JUMP JUMPDEST JUMPDEST DUP2 MLOAD PUSH2 0x2EC DUP5 DUP3 PUSH1 0x20 DUP7 ADD PUSH2 0x260 JUMP JUMPDEST SWAP2 POP POP SWAP3 SWAP2 POP POP JUMP JUMPDEST PUSH0 PUSH1 0x20 DUP3 DUP5 SUB SLT ISZERO PUSH2 0x30A JUMPI PUSH2 0x309 PUSH2 0x16A JUMP JUMPDEST JUMPDEST PUSH0 DUP3 ADD MLOAD PUSH8 0xFFFFFFFFFFFFFFFF DUP2 GT ISZERO PUSH2 0x327 JUMPI PUSH2 0x326 PUSH2 0x16E JUMP JUMPDEST JUMPDEST PUSH2 0x333 DUP5 DUP3 DUP6 ADD PUSH2 0x2C8 JUMP JUMPDEST SWAP2 POP POP SWAP3 SWAP2 POP POP JUMP JUMPDEST PUSH32 0x4E487B7100000000000000000000000000000000000000000000000000000000 PUSH0 MSTORE PUSH1 0x32 PUSH1 0x4 MSTORE PUSH1 0x24 PUSH0 REVERT JUMPDEST PUSH2 0xFBD DUP1 PUSH2 0x376 PUSH0 CODECOPY PUSH0 RETURN INVALID PUSH1 0x80 PUSH1 0x40 MSTORE CALLVALUE DUP1 ISZERO PUSH2 0xF JUMPI PUSH0 PUSH0 REVERT JUMPDEST POP PUSH1 0x4 CALLDATASIZE LT PUSH2 0x86 JUMPI PUSH0 CALLDATALOAD PUSH1 0xE0 SHR DUP1 PUSH4 0x609FF1BD GT PUSH2 0x59 JUMPI DUP1 PUSH4 0x609FF1BD EQ PUSH2 0x111 JUMPI DUP1 PUSH4 0x9E7B8D61 EQ PUSH2 0x12F JUMPI DUP1 PUSH4 0xA3EC138D EQ PUSH2 0x14B JUMPI DUP1 PUSH4 0xE2BA53F0 EQ PUSH2 0x17E JUMPI PUSH2 0x86 JUMP JUMPDEST DUP1 PUSH4 0x121B93F EQ PUSH2 0x8A JUMPI DUP1 PUSH4 0x13CF08B EQ PUSH2 0xA6 JUMPI DUP1 PUSH4 0x2E4176CF EQ PUSH2 0xD7 JUMPI DUP1 PUSH4 0x5C19A95C EQ PUSH2 0xF5 JUMPI JUMPDEST PUSH0 PUSH0 REVERT JUMPDEST PUSH2 0xA4 PUSH1 0x4 DUP1 CALLDATASIZE SUB DUP2 ADD SWAP1 PUSH2 0x9F SWAP2 SWAP1 PUSH2 0x9CF JUMP JUMPDEST PUSH2 0x19C JUMP JUMPDEST STOP JUMPDEST PUSH2 0xC0 PUSH1 0x4 DUP1 CALLDATASIZE SUB DUP2 ADD SWAP1 PUSH2 0xBB SWAP2 SWAP1 PUSH2 0x9CF JUMP JUMPDEST PUSH2 0x2D7 JUMP JUMPDEST PUSH1 0x40 MLOAD PUSH2 0xCE SWAP3 SWAP2 SWAP1 PUSH2 0xA21 JUMP JUMPDEST PUSH1 0x40 MLOAD DUP1 SWAP2 SUB SWAP1 RETURN JUMPDEST PUSH2 0xDF PUSH2 0x306 JUMP JUMPDEST PUSH1 0x40 MLOAD PUSH2 0xEC SWAP2 SWAP1 PUSH2 0xA87 JUMP JUMPDEST PUSH1 0x40 MLOAD DUP1 SWAP2 SUB SWAP1 RETURN JUMPDEST PUSH2 0x10F PUSH1 0x4 DUP1 CALLDATASIZE SUB DUP2 ADD SWAP1 PUSH2 0x10A SWAP2 SWAP1 PUSH2 0xACA JUMP JUMPDEST PUSH2 0x32A JUMP JUMPDEST STOP JUMPDEST PUSH2 0x119 PUSH2 0x6AF JUMP JUMPDEST PUSH1 0x40 MLOAD PUSH2 0x126 SWAP2 SWAP1 PUSH2 0xAF5 JUMP JUMPDEST PUSH1 0x40 MLOAD DUP1 SWAP2 SUB SWAP1 RETURN JUMPDEST PUSH2 0x149 PUSH1 0x4 DUP1 CALLDATASIZE SUB DUP2 ADD SWAP1 PUSH2 0x144 SWAP2 SWAP1 PUSH2 0xACA JUMP JUMPDEST PUSH2 0x72D JUMP JUMPDEST STOP JUMPDEST PUSH2 0x165 PUSH1 0x4 DUP1 CALLDATASIZE SUB DUP2 ADD SWAP1 PUSH2 0x160 SWAP2 SWAP1 PUSH2 0xACA JUMP JUMPDEST PUSH2 0x910 JUMP JUMPDEST PUSH1 0x40 MLOAD PUSH2 0x175 SWAP5 SWAP4 SWAP3 SWAP2 SWAP1 PUSH2 0xB28 JUMP JUMPDEST PUSH1 0x40 MLOAD DUP1 SWAP2 SUB SWAP1 RETURN JUMPDEST PUSH2 0x186 PUSH2 0x968 JUMP JUMPDEST PUSH1 0x40 MLOAD PUSH2 0x193 SWAP2 SWAP1 PUSH2 0xB6B JUMP JUMPDEST PUSH1 0x40 MLOAD DUP1 SWAP2 SUB SWAP1 RETURN JUMPDEST PUSH0 PUSH1 0x1 PUSH0 CALLER PUSH20 0xFFFFFFFFFFFFFFFFFFFFFFFFFFFFFFFFFFFFFFFF AND PUSH20 0xFFFFFFFFFFFFFFFFFFFFFFFFFFFFFFFFFFFFFFFF AND DUP2 MSTORE PUSH1 0x20 ADD SWAP1 DUP2 MSTORE PUSH1 0x20 ADD PUSH0 KECCAK256 SWAP1 POP PUSH0 DUP2 PUSH0 ADD SLOAD SUB PUSH2 0x221 JUMPI PUSH1 0x40 MLOAD PUSH32 0x8C379A000000000000000000000000000000000000000000000000000000000 DUP2 MSTORE PUSH1 0x4 ADD PUSH2 0x218 SWAP1 PUSH2 0xBDE JUMP JUMPDEST PUSH1 0x40 MLOAD DUP1 SWAP2 SUB SWAP1 REVERT JUMPDEST DUP1 PUSH1 0x1 ADD PUSH0 SWAP1 SLOAD SWAP1 PUSH2 0x100 EXP SWAP1 DIV PUSH1 0xFF AND ISZERO PUSH2 0x272 JUMPI PUSH1 0x40 MLOAD PUSH32 0x8C379A000000000000000000000000000000000000000000000000000000000 DUP2 MSTORE PUSH1 0x4 ADD PUSH2 0x269 SWAP1 PUSH2 0xC46 JUMP JUMPDEST PUSH1 0x40 MLOAD DUP1 SWAP2 SUB SWAP1 REVERT JUMPDEST PUSH1 0x1 DUP2 PUSH1 0x1 ADD PUSH0 PUSH2 0x100 EXP DUP2 SLOAD DUP2 PUSH1 0xFF MUL NOT AND SWAP1 DUP4 ISZERO ISZERO MUL OR SWAP1 SSTORE POP DUP2 DUP2 PUSH1 0x2 ADD DUP2 SWAP1 SSTORE POP DUP1 PUSH0 ADD SLOAD PUSH1 0x2 DUP4 DUP2 SLOAD DUP2 LT PUSH2 0x2AF JUMPI PUSH2 0x2AE PUSH2 0xC64 JUMP JUMPDEST JUMPDEST SWAP1 PUSH0 MSTORE PUSH1 0x20 PUSH0 KECCAK256 SWAP1 PUSH1 0x2 MUL ADD PUSH1 0x1 ADD PUSH0 DUP3 DUP3 SLOAD PUSH2 0x2CC SWAP2 SWAP1 PUSH2 0xCBE JUMP JUMPDEST SWAP3 POP POP DUP2 SWAP1 SSTORE POP POP POP JUMP JUMPDEST PUSH1 0x2 DUP2 DUP2 SLOAD DUP2 LT PUSH2 0x2E6 JUMPI PUSH0 DUP1 REVERT JUMPDEST SWAP1 PUSH0 MSTORE PUSH1 0x20 PUSH0 KECCAK256 SWAP1 PUSH1 0x2 MUL ADD PUSH0 SWAP2 POP SWAP1 POP DUP1 PUSH0 ADD SLOAD SWAP1 DUP1 PUSH1 0x1 ADD SLOAD SWAP1 POP DUP3 JUMP JUMPDEST PUSH0 PUSH0 SWAP1 SLOAD SWAP1 PUSH2 0x100 EXP SWAP1 DIV PUSH20 0xFFFFFFFFFFFFFFFFFFFFFFFFFFFFFFFFFFFFFFFF AND DUP2 JUMP JUMPDEST PUSH0 PUSH1 0x1 PUSH0 CALLER PUSH20 0xFFFFFFFFFFFFFFFFFFFFFFFFFFFFFFFFFFFFFFFF AND PUSH20 0xFFFFFFFFFFFFFFFFFFFFFFFFFFFFFFFFFFFFFFFF AND DUP2 MSTORE PUSH1 0x20 ADD SWAP1 DUP2 MSTORE PUSH1 0x20 ADD PUSH0 KECCAK256 SWAP1 POP DUP1 PUSH1 0x1 ADD PUSH0 SWAP1 SLOAD SWAP1 PUSH2 0x100 EXP SWAP1 DIV PUSH1 0xFF AND ISZERO PUSH2 0x3BB JUMPI PUSH1 0x40 MLOAD PUSH32 0x8C379A000000000000000000000000000000000000000000000000000000000 DUP2 MSTORE PUSH1 0x4 ADD PUSH2 0x3B2 SWAP1 PUSH2 0xD3B JUMP JUMPDEST PUSH1 0x40 MLOAD DUP1 SWAP2 SUB SWAP1 REVERT JUMPDEST CALLER PUSH20 0xFFFFFFFFFFFFFFFFFFFFFFFFFFFFFFFFFFFFFFFF AND DUP3 PUSH20 0xFFFFFFFFFFFFFFFFFFFFFFFFFFFFFFFFFFFFFFFF AND SUB PUSH2 0x429 JUMPI PUSH1 0x40 MLOAD PUSH32 0x8C379A000000000000000000000000000000000000000000000000000000000 DUP2 MSTORE PUSH1 0x4 ADD PUSH2 0x420 SWAP1 PUSH2 0xDA3 JUMP JUMPDEST PUSH1 0x40 MLOAD DUP1 SWAP2 SUB SWAP1 REVERT JUMPDEST JUMPDEST PUSH0 PUSH20 0xFFFFFFFFFFFFFFFFFFFFFFFFFFFFFFFFFFFFFFFF AND PUSH1 0x1 PUSH0 DUP5 PUSH20 0xFFFFFFFFFFFFFFFFFFFFFFFFFFFFFFFFFFFFFFFF AND PUSH20 0xFFFFFFFFFFFFFFFFFFFFFFFFFFFFFFFFFFFFFFFF AND DUP2 MSTORE PUSH1 0x20 ADD SWAP1 DUP2 MSTORE PUSH1 0x20 ADD PUSH0 KECCAK256 PUSH1 0x1 ADD PUSH1 0x1 SWAP1 SLOAD SWAP1 PUSH2 0x100 EXP SWAP1 DIV PUSH20 0xFFFFFFFFFFFFFFFFFFFFFFFFFFFFFFFFFFFFFFFF AND PUSH20 0xFFFFFFFFFFFFFFFFFFFFFFFFFFFFFFFFFFFFFFFF AND EQ PUSH2 0x593 JUMPI PUSH1 0x1 PUSH0 DUP4 PUSH20 0xFFFFFFFFFFFFFFFFFFFFFFFFFFFFFFFFFFFFFFFF AND PUSH20 0xFFFFFFFFFFFFFFFFFFFFFFFFFFFFFFFFFFFFFFFF AND DUP2 MSTORE PUSH1 0x20 ADD SWAP1 DUP2 MSTORE PUSH1 0x20 ADD PUSH0 KECCAK256 PUSH1 0x1 ADD PUSH1 0x1 SWAP1 SLOAD SWAP1 PUSH2 0x100 EXP SWAP1 DIV PUSH20 0xFFFFFFFFFFFFFFFFFFFFFFFFFFFFFFFFFFFFFFFF AND SWAP2 POP CALLER PUSH20 0xFFFFFFFFFFFFFFFFFFFFFFFFFFFFFFFFFFFFFFFF AND DUP3 PUSH20 0xFFFFFFFFFFFFFFFFFFFFFFFFFFFFFFFFFFFFFFFF AND SUB PUSH2 0x58E JUMPI PUSH1 0x40 MLOAD PUSH32 0x8C379A000000000000000000000000000000000000000000000000000000000 DUP2 MSTORE PUSH1 0x4 ADD PUSH2 0x585 SWAP1 PUSH2 0xE0B JUMP JUMPDEST PUSH1 0x40 MLOAD DUP1 SWAP2 SUB SWAP1 REVERT JUMPDEST PUSH2 0x42A JUMP JUMPDEST PUSH1 0x1 DUP2 PUSH1 0x1 ADD PUSH0 PUSH2 0x100 EXP DUP2 SLOAD DUP2 PUSH1 0xFF MUL NOT AND SWAP1 DUP4 ISZERO ISZERO MUL OR SWAP1 SSTORE POP DUP2 DUP2 PUSH1 0x1 ADD PUSH1 0x1 PUSH2 0x100 EXP DUP2 SLOAD DUP2 PUSH20 0xFFFFFFFFFFFFFFFFFFFFFFFFFFFFFFFFFFFFFFFF MUL NOT AND SWAP1 DUP4 PUSH20 0xFFFFFFFFFFFFFFFFFFFFFFFFFFFFFFFFFFFFFFFF AND MUL OR SWAP1 SSTORE POP PUSH0 PUSH1 0x1 PUSH0 DUP5 PUSH20 0xFFFFFFFFFFFFFFFFFFFFFFFFFFFFFFFFFFFFFFFF AND PUSH20 0xFFFFFFFFFFFFFFFFFFFFFFFFFFFFFFFFFFFFFFFF AND DUP2 MSTORE PUSH1 0x20 ADD SWAP1 DUP2 MSTORE PUSH1 0x20 ADD PUSH0 KECCAK256 SWAP1 POP DUP1 PUSH1 0x1 ADD PUSH0 SWAP1 SLOAD SWAP1 PUSH2 0x100 EXP SWAP1 DIV PUSH1 0xFF AND ISZERO PUSH2 0x68D JUMPI DUP2 PUSH0 ADD SLOAD PUSH1 0x2 DUP3 PUSH1 0x2 ADD SLOAD DUP2 SLOAD DUP2 LT PUSH2 0x664 JUMPI PUSH2 0x663 PUSH2 0xC64 JUMP JUMPDEST JUMPDEST SWAP1 PUSH0 MSTORE PUSH1 0x20 PUSH0 KECCAK256 SWAP1 PUSH1 0x2 MUL ADD PUSH1 0x1 ADD PUSH0 DUP3 DUP3 SLOAD PUSH2 0x681 SWAP2 SWAP1 PUSH2 0xCBE JUMP JUMPDEST SWAP3 POP POP DUP2 SWAP1 SSTORE POP PUSH2 0x6AA JUMP JUMPDEST DUP2 PUSH0 ADD SLOAD DUP2 PUSH0 ADD PUSH0 DUP3 DUP3 SLOAD PUSH2 0x6A2 SWAP2 SWAP1 PUSH2 0xCBE JUMP JUMPDEST SWAP3 POP POP DUP2 SWAP1 SSTORE POP JUMPDEST POP POP POP JUMP JUMPDEST PUSH0 PUSH0 PUSH0 SWAP1 POP PUSH0 PUSH0 SWAP1 POP JUMPDEST PUSH1 0x2 DUP1 SLOAD SWAP1 POP DUP2 LT ISZERO PUSH2 0x728 JUMPI DUP2 PUSH1 0x2 DUP3 DUP2 SLOAD DUP2 LT PUSH2 0x6DB JUMPI PUSH2 0x6DA PUSH2 0xC64 JUMP JUMPDEST JUMPDEST SWAP1 PUSH0 MSTORE PUSH1 0x20 PUSH0 KECCAK256 SWAP1 PUSH1 0x2 MUL ADD PUSH1 0x1 ADD SLOAD GT ISZERO PUSH2 0x71B JUMPI PUSH1 0x2 DUP2 DUP2 SLOAD DUP2 LT PUSH2 0x705 JUMPI PUSH2 0x704 PUSH2 0xC64 JUMP JUMPDEST JUMPDEST SWAP1 PUSH0 MSTORE PUSH1 0x20 PUSH0 KECCAK256 SWAP1 PUSH1 0x2 MUL ADD PUSH1 0x1 ADD SLOAD SWAP2 POP DUP1 SWAP3 POP JUMPDEST DUP1 DUP1 PUSH1 0x1 ADD SWAP2 POP POP PUSH2 0x6B9 JUMP JUMPDEST POP POP SWAP1 JUMP JUMPDEST PUSH0 PUSH0 SWAP1 SLOAD SWAP1 PUSH2 0x100 EXP SWAP1 DIV PUSH20 0xFFFFFFFFFFFFFFFFFFFFFFFFFFFFFFFFFFFFFFFF AND PUSH20 0xFFFFFFFFFFFFFFFFFFFFFFFFFFFFFFFFFFFFFFFF AND CALLER PUSH20 0xFFFFFFFFFFFFFFFFFFFFFFFFFFFFFFFFFFFFFFFF AND EQ PUSH2 0x7BB JUMPI PUSH1 0x40 MLOAD PUSH32 0x8C379A000000000000000000000000000000000000000000000000000000000 DUP2 MSTORE PUSH1 0x4 ADD PUSH2 0x7B2 SWAP1 PUSH2 0xE99 JUMP JUMPDEST PUSH1 0x40 MLOAD DUP1 SWAP2 SUB SWAP1 REVERT JUMPDEST PUSH1 0x1 PUSH0 DUP3 PUSH20 0xFFFFFFFFFFFFFFFFFFFFFFFFFFFFFFFFFFFFFFFF AND PUSH20 0xFFFFFFFFFFFFFFFFFFFFFFFFFFFFFFFFFFFFFFFF AND DUP2 MSTORE PUSH1 0x20 ADD SWAP1 DUP2 MSTORE PUSH1 0x20 ADD PUSH0 KECCAK256 PUSH1 0x1 ADD PUSH0 SWAP1 SLOAD SWAP1 PUSH2 0x100 EXP SWAP1 DIV PUSH1 0xFF AND ISZERO PUSH2 0x848 JUMPI PUSH1 0x40 MLOAD PUSH32 0x8C379A000000000000000000000000000000000000000000000000000000000 DUP2 MSTORE PUSH1 0x4 ADD PUSH2 0x83F SWAP1 PUSH2 0xF01 JUMP JUMPDEST PUSH1 0x40 MLOAD DUP1 SWAP2 SUB SWAP1 REVERT JUMPDEST PUSH0 PUSH1 0x1 PUSH0 DUP4 PUSH20 0xFFFFFFFFFFFFFFFFFFFFFFFFFFFFFFFFFFFFFFFF AND PUSH20 0xFFFFFFFFFFFFFFFFFFFFFFFFFFFFFFFFFFFFFFFF AND DUP2 MSTORE PUSH1 0x20 ADD SWAP1 DUP2 MSTORE PUSH1 0x20 ADD PUSH0 KECCAK256 PUSH0 ADD SLOAD EQ PUSH2 0x8C9 JUMPI PUSH1 0x40 MLOAD PUSH32 0x8C379A000000000000000000000000000000000000000000000000000000000 DUP2 MSTORE PUSH1 0x4 ADD PUSH2 0x8C0 SWAP1 PUSH2 0xF69 JUMP JUMPDEST PUSH1 0x40 MLOAD DUP1 SWAP2 SUB SWAP1 REVERT JUMPDEST PUSH1 0x1 DUP1 PUSH0 DUP4 PUSH20 0xFFFFFFFFFFFFFFFFFFFFFFFFFFFFFFFFFFFFFFFF AND PUSH20 0xFFFFFFFFFFFFFFFFFFFFFFFFFFFFFFFFFFFFFFFF AND DUP2 MSTORE PUSH1 0x20 ADD SWAP1 DUP2 MSTORE PUSH1 0x20 ADD PUSH0 KECCAK256 PUSH0 ADD DUP2 SWAP1 SSTORE POP POP JUMP JUMPDEST PUSH1 0x1 PUSH1 0x20 MSTORE DUP1 PUSH0 MSTORE PUSH1 0x40 PUSH0 KECCAK256 PUSH0 SWAP2 POP SWAP1 POP DUP1 PUSH0 ADD SLOAD SWAP1 DUP1 PUSH1 0x1 ADD PUSH0 SWAP1 SLOAD SWAP1 PUSH2 0x100 EXP SWAP1 DIV PUSH1 0xFF AND SWAP1 DUP1 PUSH1 0x1 ADD PUSH1 0x1 SWAP1 SLOAD SWAP1 PUSH2 0x100 EXP SWAP1 DIV PUSH20 0xFFFFFFFFFFFFFFFFFFFFFFFFFFFFFFFFFFFFFFFF AND SWAP1 DUP1 PUSH1 0x2 ADD SLOAD SWAP1 POP DUP5 JUMP JUMPDEST PUSH0 PUSH1 0x2 PUSH2 0x973 PUSH2 0x6AF JUMP JUMPDEST DUP2 SLOAD DUP2 LT PUSH2 0x984 JUMPI PUSH2 0x983 PUSH2 0xC64 JUMP JUMPDEST JUMPDEST SWAP1 PUSH0 MSTORE PUSH1 0x20 PUSH0 KECCAK256 SWAP1 PUSH1 0x2 MUL ADD PUSH0 ADD SLOAD SWAP1 POP SWAP1 JUMP JUMPDEST PUSH0 PUSH0 REVERT JUMPDEST PUSH0 DUP2 SWAP1 POP SWAP2 SWAP1 POP JUMP JUMPDEST PUSH2 0x9AE DUP2 PUSH2 0x99C JUMP JUMPDEST DUP2 EQ PUSH2 0x9B8 JUMPI PUSH0 PUSH0 REVERT JUMPDEST POP JUMP JUMPDEST PUSH0 DUP2 CALLDATALOAD SWAP1 POP PUSH2 0x9C9 DUP2 PUSH2 0x9A5 JUMP JUMPDEST SWAP3 SWAP2 POP POP JUMP JUMPDEST PUSH0 PUSH1 0x20 DUP3 DUP5 SUB SLT ISZERO PUSH2 0x9E4 JUMPI PUSH2 0x9E3 PUSH2 0x998 JUMP JUMPDEST JUMPDEST PUSH0 PUSH2 0x9F1 DUP5 DUP3 DUP6 ADD PUSH2 0x9BB JUMP JUMPDEST SWAP2 POP POP SWAP3 SWAP2 POP POP JUMP JUMPDEST PUSH0 DUP2 SWAP1 POP SWAP2 SWAP1 POP JUMP JUMPDEST PUSH2 0xA0C DUP2 PUSH2 0x9FA JUMP JUMPDEST DUP3 MSTORE POP POP JUMP JUMPDEST PUSH2 0xA1B DUP2 PUSH2 0x99C JUMP JUMPDEST DUP3 MSTORE POP POP JUMP JUMPDEST PUSH0 PUSH1 0x40 DUP3 ADD SWAP1 POP PUSH2 0xA34 PUSH0 DUP4 ADD DUP6 PUSH2 0xA03 JUMP JUMPDEST PUSH2 0xA41 PUSH1 0x20 DUP4 ADD DUP5 PUSH2 0xA12 JUMP JUMPDEST SWAP4 SWAP3 POP POP POP JUMP JUMPDEST PUSH0 PUSH20 0xFFFFFFFFFFFFFFFFFFFFFFFFFFFFFFFFFFFFFFFF DUP3 AND SWAP1 POP SWAP2 SWAP1 POP JUMP JUMPDEST PUSH0 PUSH2 0xA71 DUP3 PUSH2 0xA48 JUMP JUMPDEST SWAP1 POP SWAP2 SWAP1 POP JUMP JUMPDEST PUSH2 0xA81 DUP2 PUSH2 0xA67 JUMP JUMPDEST DUP3 MSTORE POP POP JUMP JUMPDEST PUSH0 PUSH1 0x20 DUP3 ADD SWAP1 POP PUSH2 0xA9A PUSH0 DUP4 ADD DUP5 PUSH2 0xA78 JUMP JUMPDEST SWAP3 SWAP2 POP POP JUMP JUMPDEST PUSH2 0xAA9 DUP2 PUSH2 0xA67 JUMP JUMPDEST DUP2 EQ PUSH2 0xAB3 JUMPI PUSH0 PUSH0 REVERT JUMPDEST POP JUMP JUMPDEST PUSH0 DUP2 CALLDATALOAD SWAP1 POP PUSH2 0xAC4 DUP2 PUSH2 0xAA0 JUMP JUMPDEST SWAP3 SWAP2 POP POP JUMP JUMPDEST PUSH0 PUSH1 0x20 DUP3 DUP5 SUB SLT ISZERO PUSH2 0xADF JUMPI PUSH2 0xADE PUSH2 0x998 JUMP JUMPDEST JUMPDEST PUSH0 PUSH2 0xAEC DUP5 DUP3 DUP6 ADD PUSH2 0xAB6 JUMP JUMPDEST SWAP2 POP POP SWAP3 SWAP2 POP POP JUMP JUMPDEST PUSH0 PUSH1 0x20 DUP3 ADD SWAP1 POP PUSH2 0xB08 PUSH0 DUP4 ADD DUP5 PUSH2 0xA12 JUMP JUMPDEST SWAP3 SWAP2 POP POP JUMP JUMPDEST PUSH0 DUP2 ISZERO ISZERO SWAP1 POP SWAP2 SWAP1 POP JUMP JUMPDEST PUSH2 0xB22 DUP2 PUSH2 0xB0E JUMP JUMPDEST DUP3 MSTORE POP POP JUMP JUMPDEST PUSH0 PUSH1 0x80 DUP3 ADD SWAP1 POP PUSH2 0xB3B PUSH0 DUP4 ADD DUP8 PUSH2 0xA12 JUMP JUMPDEST PUSH2 0xB48 PUSH1 0x20 DUP4 ADD DUP7 PUSH2 0xB19 JUMP JUMPDEST PUSH2 0xB55 PUSH1 0x40 DUP4 ADD DUP6 PUSH2 0xA78 JUMP JUMPDEST PUSH2 0xB62 PUSH1 0x60 DUP4 ADD DUP5 PUSH2 0xA12 JUMP JUMPDEST SWAP6 SWAP5 POP POP POP POP POP JUMP JUMPDEST PUSH0 PUSH1 0x20 DUP3 ADD SWAP1 POP PUSH2 0xB7E PUSH0 DUP4 ADD DUP5 PUSH2 0xA03 JUMP JUMPDEST SWAP3 SWAP2 POP POP JUMP JUMPDEST PUSH0 DUP3 DUP3 MSTORE PUSH1 0x20 DUP3 ADD SWAP1 POP SWAP3 SWAP2 POP POP JUMP JUMPDEST PUSH32 0x486173206E6F20726967687420746F20766F74652E0000000000000000000000 PUSH0 DUP3 ADD MSTORE POP JUMP JUMPDEST PUSH0 PUSH2 0xBC8 PUSH1 0x15 DUP4 PUSH2 0xB84 JUMP JUMPDEST SWAP2 POP PUSH2 0xBD3 DUP3 PUSH2 0xB94 JUMP JUMPDEST PUSH1 0x20 DUP3 ADD SWAP1 POP SWAP2 SWAP1 POP JUMP JUMPDEST PUSH0 PUSH1 0x20 DUP3 ADD SWAP1 POP DUP2 DUP2 SUB PUSH0 DUP4 ADD MSTORE PUSH2 0xBF5 DUP2 PUSH2 0xBBC JUMP JUMPDEST SWAP1 POP SWAP2 SWAP1 POP JUMP JUMPDEST PUSH32 0x416C726561647920766F7465642E000000000000000000000000000000000000 PUSH0 DUP3 ADD MSTORE POP JUMP JUMPDEST PUSH0 PUSH2 0xC30 PUSH1 0xE DUP4 PUSH2 0xB84 JUMP JUMPDEST SWAP2 POP PUSH2 0xC3B DUP3 PUSH2 0xBFC JUMP JUMPDEST PUSH1 0x20 DUP3 ADD SWAP1 POP SWAP2 SWAP1 POP JUMP JUMPDEST PUSH0 PUSH1 0x20 DUP3 ADD SWAP1 POP DUP2 DUP2 SUB PUSH0 DUP4 ADD MSTORE PUSH2 0xC5D DUP2 PUSH2 0xC24 JUMP JUMPDEST SWAP1 POP SWAP2 SWAP1 POP JUMP JUMPDEST PUSH32 0x4E487B7100000000000000000000000000000000000000000000000000000000 PUSH0 MSTORE PUSH1 0x32 PUSH1 0x4 MSTORE PUSH1 0x24 PUSH0 REVERT JUMPDEST PUSH32 0x4E487B7100000000000000000000000000000000000000000000000000000000 PUSH0 MSTORE PUSH1 0x11 PUSH1 0x4 MSTORE PUSH1 0x24 PUSH0 REVERT JUMPDEST PUSH0 PUSH2 0xCC8 DUP3 PUSH2 0x99C JUMP JUMPDEST SWAP2 POP PUSH2 0xCD3 DUP4 PUSH2 0x99C JUMP JUMPDEST SWAP3 POP DUP3 DUP3 ADD SWAP1 POP DUP1 DUP3 GT ISZERO PUSH2 0xCEB JUMPI PUSH2 0xCEA PUSH2 0xC91 JUMP JUMPDEST JUMPDEST SWAP3 SWAP2 POP POP JUMP JUMPDEST PUSH32 0x596F7520616C726561647920766F7465642E0000000000000000000000000000 PUSH0 DUP3 ADD MSTORE POP JUMP JUMPDEST PUSH0 PUSH2 0xD25 PUSH1 0x12 DUP4 PUSH2 0xB84 JUMP JUMPDEST SWAP2 POP PUSH2 0xD30 DUP3 PUSH2 0xCF1 JUMP JUMPDEST PUSH1 0x20 DUP3 ADD SWAP1 POP SWAP2 SWAP1 POP JUMP JUMPDEST PUSH0 PUSH1 0x20 DUP3 ADD SWAP1 POP DUP2 DUP2 SUB PUSH0 DUP4 ADD MSTORE PUSH2 0xD52 DUP2 PUSH2 0xD19 JUMP JUMPDEST SWAP1 POP SWAP2 SWAP1 POP JUMP JUMPDEST PUSH32 0x53656C662D64656C65676174696F6E20697320646973616C6C6F7765642E0000 PUSH0 DUP3 ADD MSTORE POP JUMP JUMPDEST PUSH0 PUSH2 0xD8D PUSH1 0x1E DUP4 PUSH2 0xB84 JUMP JUMPDEST SWAP2 POP PUSH2 0xD98 DUP3 PUSH2 0xD59 JUMP JUMPDEST PUSH1 0x20 DUP3 ADD SWAP1 POP SWAP2 SWAP1 POP JUMP JUMPDEST PUSH0 PUSH1 0x20 DUP3 ADD SWAP1 POP DUP2 DUP2 SUB PUSH0 DUP4 ADD MSTORE PUSH2 0xDBA DUP2 PUSH2 0xD81 JUMP JUMPDEST SWAP1 POP SWAP2 SWAP1 POP JUMP JUMPDEST PUSH32 0x466F756E64206C6F6F7020696E2064656C65676174696F6E2E00000000000000 PUSH0 DUP3 ADD MSTORE POP JUMP JUMPDEST PUSH0 PUSH2 0xDF5 PUSH1 0x19 DUP4 PUSH2 0xB84 JUMP JUMPDEST SWAP2 POP PUSH2 0xE00 DUP3 PUSH2 0xDC1 JUMP JUMPDEST PUSH1 0x20 DUP3 ADD SWAP1 POP SWAP2 SWAP1 POP JUMP JUMPDEST PUSH0 PUSH1 0x20 DUP3 ADD SWAP1 POP DUP2 DUP2 SUB PUSH0 DUP4 ADD MSTORE PUSH2 0xE22 DUP2 PUSH2 0xDE9 JUMP JUMPDEST SWAP1 POP SWAP2 SWAP1 POP JUMP JUMPDEST PUSH32 0x4F6E6C79206368616972706572736F6E2063616E206769766520726967687420 PUSH0 DUP3 ADD MSTORE PUSH32 0x746F20766F74652E000000000000000000000000000000000000000000000000 PUSH1 0x20 DUP3 ADD MSTORE POP JUMP JUMPDEST PUSH0 PUSH2 0xE83 PUSH1 0x28 DUP4 PUSH2 0xB84 JUMP JUMPDEST SWAP2 POP PUSH2 0xE8E DUP3 PUSH2 0xE29 JUMP JUMPDEST PUSH1 0x40 DUP3 ADD SWAP1 POP SWAP2 SWAP1 POP JUMP JUMPDEST PUSH0 PUSH1 0x20 DUP3 ADD SWAP1 POP DUP2 DUP2 SUB PUSH0 DUP4 ADD MSTORE PUSH2 0xEB0 DUP2 PUSH2 0xE77 JUMP JUMPDEST SWAP1 POP SWAP2 SWAP1 POP JUMP JUMPDEST PUSH32 0x54686520766F74657220616C726561647920766F7465642E0000000000000000 PUSH0 DUP3 ADD MSTORE POP JUMP JUMPDEST PUSH0 PUSH2 0xEEB PUSH1 0x18 DUP4 PUSH2 0xB84 JUMP JUMPDEST SWAP2 POP PUSH2 0xEF6 DUP3 PUSH2 0xEB7 JUMP JUMPDEST PUSH1 0x20 DUP3 ADD SWAP1 POP SWAP2 SWAP1 POP JUMP JUMPDEST PUSH0 PUSH1 0x20 DUP3 ADD SWAP1 POP DUP2 DUP2 SUB PUSH0 DUP4 ADD MSTORE PUSH2 0xF18 DUP2 PUSH2 0xEDF JUMP JUMPDEST SWAP1 POP SWAP2 SWAP1 POP JUMP JUMPDEST PUSH32 0x566F74657220616C72656164792068617320726967687420746F20766F74652E PUSH0 DUP3 ADD MSTORE POP JUMP JUMPDEST PUSH0 PUSH2 0xF53 PUSH1 0x20 DUP4 PUSH2 0xB84 JUMP JUMPDEST SWAP2 POP PUSH2 0xF5E DUP3 PUSH2 0xF1F JUMP JUMPDEST PUSH1 0x20 DUP3 ADD SWAP1 POP SWAP2 SWAP1 POP JUMP JUMPDEST PUSH0 PUSH1 0x20 DUP3 ADD SWAP1 POP DUP2 DUP2 SUB PUSH0 DUP4 ADD MSTORE PUSH2 0xF80 DUP2 PUSH2 0xF47 JUMP JUMPDEST SWAP1 POP SWAP2 SWAP1 POP JUMP INVALID LOG2 PUSH5 0x6970667358 0x22 SLT KECCAK256 XOR 0x23 NUMBER INVALID LOG4 PUSH19 0x1F351CDAE920D5DDA056FD63F67096750E197B 0xD6 0xCF REVERT 0x2F JUMPI 0xAD PUSH17 0x64736F6C63430008220033A26469706673 PC 0x22 SLT KECCAK256 POP 0xC8 0xDB DUP10 CALLDATACOPY ISZERO PUSH31 0xCA38697A825A16575528C040ED58C860ACEC203596C2E29B164736F6C6343 STOP ADDMOD 0x22 STOP CALLER "
	},
	"abi": [
		{
			"inputs": [],
			"name": "beforeAll",
			"outputs": [],
			"stateMutability": "nonpayable",
			"type": "function"
		},
		{
			"inputs": [],
			"name": "checkWinninProposalWithReturnValue",
			"outputs": [
				{
					"internalType": "bool",
					"name": "",
					"type": "bool"
				}
			],
			"stateMutability": "view",
			"type": "function"
		},
		{
			"inputs": [],
			"name": "checkWinningProposal",
			"outputs": [],
			"stateMutability": "nonpayable",
			"type": "function"
		}
	],
	"storageLayout": {
		"storage": [
			{
				"astId": 317,
				"contract": "remix_ready/remix-tests/Ballot_test.sol:BallotTest",
				"label": "proposalNames",
				"offset": 0,
				"slot": "0",
				"type": "t_array(t_bytes32)dyn_storage"
			},
			{
				"astId": 320,
				"contract": "remix_ready/remix-tests/Ballot_test.sol:BallotTest",
				"label": "ballotToTest",
				"offset": 0,
				"slot": "1",
				"type": "t_contract(Ballot)310"
			}
		],
		"types": {
			"t_array(t_bytes32)dyn_storage": {
				"base": "t_bytes32",
				"encoding": "dynamic_array",
				"label": "bytes32[]",
				"numberOfBytes": "32"
			},
			"t_bytes32": {
				"encoding": "inplace",
				"label": "bytes32",
				"numberOfBytes": "32"
			},
			"t_contract(Ballot)310": {
				"encoding": "inplace",
				"label": "contract Ballot",
				"numberOfBytes": "20"
			}
		}
	},
	"web3Deploy": "var ballottestContract = new web3.eth.Contract([{\"inputs\":[],\"name\":\"beforeAll\",\"outputs\":[],\"stateMutability\":\"nonpayable\",\"type\":\"function\"},{\"inputs\":[],\"name\":\"checkWinninProposalWithReturnValue\",\"outputs\":[{\"internalType\":\"bool\",\"name\":\"\",\"type\":\"bool\"}],\"stateMutability\":\"view\",\"type\":\"function\"},{\"inputs\":[],\"name\":\"checkWinningProposal\",\"outputs\":[],\"stateMutability\":\"nonpayable\",\"type\":\"function\"}]);\nvar ballottest = ballottestContract.deploy({\n     data: '0x6080604052348015600e575f5ffd5b50611c328061001c5f395ff3fe608060405234801561000f575f5ffd5b506004361061003f575f3560e01c80633439c57b146100435780637fea0d4b14610061578063ed2bee101461006b575b5f5ffd5b61004b610075565b604051610058919061049e565b60405180910390f35b61006961010b565b005b6100736101c2565b005b5f5f60015f9054906101000a900473ffffffffffffffffffffffffffffffffffffffff1673ffffffffffffffffffffffffffffffffffffffff1663609ff1bd6040518163ffffffff1660e01b8152600401602060405180830381865afa1580156100e1573d5f5f3e3d5ffd5b505050506040513d601f19601f8201168201806040525081019061010591906104ee565b14905090565b5f7f63616e6469646174653100000000000000000000000000000000000000000000908060018154018082558091505060019003905f5260205f20015f90919091909150555f60405161015d90610477565b6101679190610622565b604051809103905ff080158015610180573d5f5f3e3d5ffd5b5060015f6101000a81548173ffffffffffffffffffffffffffffffffffffffff021916908373ffffffffffffffffffffffffffffffffffffffff160217905550565b60015f9054906101000a900473ffffffffffffffffffffffffffffffffffffffff1673ffffffffffffffffffffffffffffffffffffffff16630121b93f5f6040518263ffffffff1660e01b815260040161021c9190610684565b5f604051808303815f87803b158015610233575f5ffd5b505af1158015610245573d5f5f3e3d5ffd5b5050505073__$acbfb1c35000d78352310b16a054a6b106$__63abcd796060015f9054906101000a900473ffffffffffffffffffffffffffffffffffffffff1673ffffffffffffffffffffffffffffffffffffffff1663609ff1bd6040518163ffffffff1660e01b8152600401602060405180830381865afa1580156102cd573d5f5f3e3d5ffd5b505050506040513d601f19601f820116820180604052508101906102f191906104ee565b5f6040518363ffffffff1660e01b815260040161030f92919061072c565b602060405180830381865af415801561032a573d5f5f3e3d5ffd5b505050506040513d601f19601f8201168201806040525081019061034e9190610790565b5073__$acbfb1c35000d78352310b16a054a6b106$__63ea79dd7960015f9054906101000a900473ffffffffffffffffffffffffffffffffffffffff1673ffffffffffffffffffffffffffffffffffffffff1663e2ba53f06040518163ffffffff1660e01b8152600401602060405180830381865afa1580156103d3573d5f5f3e3d5ffd5b505050506040513d601f19601f820116820180604052508101906103f791906107e5565b7f63616e64696461746531000000000000000000000000000000000000000000006040518363ffffffff1660e01b815260040161043592919061088f565b602060405180830381865af4158015610450573d5f5f3e3d5ffd5b505050506040513d601f19601f820116820180604052508101906104749190610790565b50565b611333806108ca83390190565b5f8115159050919050565b61049881610484565b82525050565b5f6020820190506104b15f83018461048f565b92915050565b5f5ffd5b5f819050919050565b6104cd816104bb565b81146104d7575f5ffd5b50565b5f815190506104e8816104c4565b92915050565b5f60208284031215610503576105026104b7565b5b5f610510848285016104da565b91505092915050565b5f81549050919050565b5f82825260208201905092915050565b5f819050815f5260205f209050919050565b5f819050919050565b61055781610545565b82525050565b5f610568838361054e565b60208301905092915050565b5f815f1c9050919050565b5f819050919050565b5f61059a61059583610574565b61057f565b9050919050565b5f6105ac8254610588565b9050919050565b5f600182019050919050565b5f6105c982610519565b6105d38185610523565b93506105de83610533565b805f5b83811015610615576105f2826105a1565b6105fc888261055d565b9750610607836105b3565b9250506001810190506105e1565b5085935050505092915050565b5f6020820190508181035f83015261063a81846105bf565b905092915050565b5f819050919050565b5f819050919050565b5f61066e61066961066484610642565b61064b565b6104bb565b9050919050565b61067e81610654565b82525050565b5f6020820190506106975f830184610675565b92915050565b6106a6816104bb565b82525050565b5f82825260208201905092915050565b7f70726f706f73616c20617420696e64657820302073686f756c642062652074685f8201527f652077696e6e696e672070726f706f73616c0000000000000000000000000000602082015250565b5f6107166032836106ac565b9150610721826106bc565b604082019050919050565b5f60608201905061073f5f83018561069d565b61074c602083018461069d565b818103604083015261075d8161070a565b90509392505050565b61076f81610484565b8114610779575f5ffd5b50565b5f8151905061078a81610766565b92915050565b5f602082840312156107a5576107a46104b7565b5b5f6107b28482850161077c565b91505092915050565b6107c481610545565b81146107ce575f5ffd5b50565b5f815190506107df816107bb565b92915050565b5f602082840312156107fa576107f96104b7565b5b5f610807848285016107d1565b91505092915050565b61081981610545565b82525050565b7f63616e646964617465312073686f756c64206265207468652077696e6e6572205f8201527f6e616d6500000000000000000000000000000000000000000000000000000000602082015250565b5f6108796024836106ac565b91506108848261081f565b604082019050919050565b5f6060820190506108a25f830185610810565b6108af6020830184610810565b81810360408301526108c08161086d565b9050939250505056fe608060405234801561000f575f5ffd5b50604051611333380380611333833981810160405281019061003191906102f5565b335f5f6101000a81548173ffffffffffffffffffffffffffffffffffffffff021916908373ffffffffffffffffffffffffffffffffffffffff1602179055506001805f5f5f9054906101000a900473ffffffffffffffffffffffffffffffffffffffff1673ffffffffffffffffffffffffffffffffffffffff1673ffffffffffffffffffffffffffffffffffffffff1681526020019081526020015f205f01819055505f5f90505b815181101561015a57600260405180604001604052808484815181106101025761010161033c565b5b602002602001015181526020015f815250908060018154018082558091505060019003905f5260205f2090600202015f909190919091505f820151815f015560208201518160010155505080806001019150506100d9565b5050610369565b5f604051905090565b5f5ffd5b5f5ffd5b5f5ffd5b5f601f19601f8301169050919050565b7f4e487b71000000000000000000000000000000000000000000000000000000005f52604160045260245ffd5b6101bc82610176565b810181811067ffffffffffffffff821117156101db576101da610186565b5b80604052505050565b5f6101ed610161565b90506101f982826101b3565b919050565b5f67ffffffffffffffff82111561021857610217610186565b5b602082029050602081019050919050565b5f5ffd5b5f819050919050565b61023f8161022d565b8114610249575f5ffd5b50565b5f8151905061025a81610236565b92915050565b5f61027261026d846101fe565b6101e4565b9050808382526020820190506020840283018581111561029557610294610229565b5b835b818110156102be57806102aa888261024c565b845260208401935050602081019050610297565b5050509392505050565b5f82601f8301126102dc576102db610172565b5b81516102ec848260208601610260565b91505092915050565b5f6020828403121561030a5761030961016a565b5b5f82015167ffffffffffffffff8111156103275761032661016e565b5b610333848285016102c8565b91505092915050565b7f4e487b71000000000000000000000000000000000000000000000000000000005f52603260045260245ffd5b610fbd806103765f395ff3fe608060405234801561000f575f5ffd5b5060043610610086575f3560e01c8063609ff1bd11610059578063609ff1bd146101115780639e7b8d611461012f578063a3ec138d1461014b578063e2ba53f01461017e57610086565b80630121b93f1461008a578063013cf08b146100a65780632e4176cf146100d75780635c19a95c146100f5575b5f5ffd5b6100a4600480360381019061009f91906109cf565b61019c565b005b6100c060048036038101906100bb91906109cf565b6102d7565b6040516100ce929190610a21565b60405180910390f35b6100df610306565b6040516100ec9190610a87565b60405180910390f35b61010f600480360381019061010a9190610aca565b61032a565b005b6101196106af565b6040516101269190610af5565b60405180910390f35b61014960048036038101906101449190610aca565b61072d565b005b61016560048036038101906101609190610aca565b610910565b6040516101759493929190610b28565b60405180910390f35b610186610968565b6040516101939190610b6b565b60405180910390f35b5f60015f3373ffffffffffffffffffffffffffffffffffffffff1673ffffffffffffffffffffffffffffffffffffffff1681526020019081526020015f2090505f815f015403610221576040517f08c379a000000000000000000000000000000000000000000000000000000000815260040161021890610bde565b60405180910390fd5b806001015f9054906101000a900460ff1615610272576040517f08c379a000000000000000000000000000000000000000000000000000000000815260040161026990610c46565b60405180910390fd5b6001816001015f6101000a81548160ff021916908315150217905550818160020181905550805f0154600283815481106102af576102ae610c64565b5b905f5260205f2090600202016001015f8282546102cc9190610cbe565b925050819055505050565b600281815481106102e6575f80fd5b905f5260205f2090600202015f91509050805f0154908060010154905082565b5f5f9054906101000a900473ffffffffffffffffffffffffffffffffffffffff1681565b5f60015f3373ffffffffffffffffffffffffffffffffffffffff1673ffffffffffffffffffffffffffffffffffffffff1681526020019081526020015f209050806001015f9054906101000a900460ff16156103bb576040517f08c379a00000000000000000000000000000000000000000000000000000000081526004016103b290610d3b565b60405180910390fd5b3373ffffffffffffffffffffffffffffffffffffffff168273ffffffffffffffffffffffffffffffffffffffff1603610429576040517f08c379a000000000000000000000000000000000000000000000000000000000815260040161042090610da3565b60405180910390fd5b5b5f73ffffffffffffffffffffffffffffffffffffffff1660015f8473ffffffffffffffffffffffffffffffffffffffff1673ffffffffffffffffffffffffffffffffffffffff1681526020019081526020015f2060010160019054906101000a900473ffffffffffffffffffffffffffffffffffffffff1673ffffffffffffffffffffffffffffffffffffffff16146105935760015f8373ffffffffffffffffffffffffffffffffffffffff1673ffffffffffffffffffffffffffffffffffffffff1681526020019081526020015f2060010160019054906101000a900473ffffffffffffffffffffffffffffffffffffffff1691503373ffffffffffffffffffffffffffffffffffffffff168273ffffffffffffffffffffffffffffffffffffffff160361058e576040517f08c379a000000000000000000000000000000000000000000000000000000000815260040161058590610e0b565b60405180910390fd5b61042a565b6001816001015f6101000a81548160ff021916908315150217905550818160010160016101000a81548173ffffffffffffffffffffffffffffffffffffffff021916908373ffffffffffffffffffffffffffffffffffffffff1602179055505f60015f8473ffffffffffffffffffffffffffffffffffffffff1673ffffffffffffffffffffffffffffffffffffffff1681526020019081526020015f209050806001015f9054906101000a900460ff161561068d57815f0154600282600201548154811061066457610663610c64565b5b905f5260205f2090600202016001015f8282546106819190610cbe565b925050819055506106aa565b815f0154815f015f8282546106a29190610cbe565b925050819055505b505050565b5f5f5f90505f5f90505b6002805490508110156107285781600282815481106106db576106da610c64565b5b905f5260205f20906002020160010154111561071b576002818154811061070557610704610c64565b5b905f5260205f2090600202016001015491508092505b80806001019150506106b9565b505090565b5f5f9054906101000a900473ffffffffffffffffffffffffffffffffffffffff1673ffffffffffffffffffffffffffffffffffffffff163373ffffffffffffffffffffffffffffffffffffffff16146107bb576040517f08c379a00000000000000000000000000000000000000000000000000000000081526004016107b290610e99565b60405180910390fd5b60015f8273ffffffffffffffffffffffffffffffffffffffff1673ffffffffffffffffffffffffffffffffffffffff1681526020019081526020015f206001015f9054906101000a900460ff1615610848576040517f08c379a000000000000000000000000000000000000000000000000000000000815260040161083f90610f01565b60405180910390fd5b5f60015f8373ffffffffffffffffffffffffffffffffffffffff1673ffffffffffffffffffffffffffffffffffffffff1681526020019081526020015f205f0154146108c9576040517f08c379a00000000000000000000000000000000000000000000000000000000081526004016108c090610f69565b60405180910390fd5b6001805f8373ffffffffffffffffffffffffffffffffffffffff1673ffffffffffffffffffffffffffffffffffffffff1681526020019081526020015f205f018190555050565b6001602052805f5260405f205f91509050805f015490806001015f9054906101000a900460ff16908060010160019054906101000a900473ffffffffffffffffffffffffffffffffffffffff16908060020154905084565b5f60026109736106af565b8154811061098457610983610c64565b5b905f5260205f2090600202015f0154905090565b5f5ffd5b5f819050919050565b6109ae8161099c565b81146109b8575f5ffd5b50565b5f813590506109c9816109a5565b92915050565b5f602082840312156109e4576109e3610998565b5b5f6109f1848285016109bb565b91505092915050565b5f819050919050565b610a0c816109fa565b82525050565b610a1b8161099c565b82525050565b5f604082019050610a345f830185610a03565b610a416020830184610a12565b9392505050565b5f73ffffffffffffffffffffffffffffffffffffffff82169050919050565b5f610a7182610a48565b9050919050565b610a8181610a67565b82525050565b5f602082019050610a9a5f830184610a78565b92915050565b610aa981610a67565b8114610ab3575f5ffd5b50565b5f81359050610ac481610aa0565b92915050565b5f60208284031215610adf57610ade610998565b5b5f610aec84828501610ab6565b91505092915050565b5f602082019050610b085f830184610a12565b92915050565b5f8115159050919050565b610b2281610b0e565b82525050565b5f608082019050610b3b5f830187610a12565b610b486020830186610b19565b610b556040830185610a78565b610b626060830184610a12565b95945050505050565b5f602082019050610b7e5f830184610a03565b92915050565b5f82825260208201905092915050565b7f486173206e6f20726967687420746f20766f74652e00000000000000000000005f82015250565b5f610bc8601583610b84565b9150610bd382610b94565b602082019050919050565b5f6020820190508181035f830152610bf581610bbc565b9050919050565b7f416c726561647920766f7465642e0000000000000000000000000000000000005f82015250565b5f610c30600e83610b84565b9150610c3b82610bfc565b602082019050919050565b5f6020820190508181035f830152610c5d81610c24565b9050919050565b7f4e487b71000000000000000000000000000000000000000000000000000000005f52603260045260245ffd5b7f4e487b71000000000000000000000000000000000000000000000000000000005f52601160045260245ffd5b5f610cc88261099c565b9150610cd38361099c565b9250828201905080821115610ceb57610cea610c91565b5b92915050565b7f596f7520616c726561647920766f7465642e00000000000000000000000000005f82015250565b5f610d25601283610b84565b9150610d3082610cf1565b602082019050919050565b5f6020820190508181035f830152610d5281610d19565b9050919050565b7f53656c662d64656c65676174696f6e20697320646973616c6c6f7765642e00005f82015250565b5f610d8d601e83610b84565b9150610d9882610d59565b602082019050919050565b5f6020820190508181035f830152610dba81610d81565b9050919050565b7f466f756e64206c6f6f7020696e2064656c65676174696f6e2e000000000000005f82015250565b5f610df5601983610b84565b9150610e0082610dc1565b602082019050919050565b5f6020820190508181035f830152610e2281610de9565b9050919050565b7f4f6e6c79206368616972706572736f6e2063616e2067697665207269676874205f8201527f746f20766f74652e000000000000000000000000000000000000000000000000602082015250565b5f610e83602883610b84565b9150610e8e82610e29565b604082019050919050565b5f6020820190508181035f830152610eb081610e77565b9050919050565b7f54686520766f74657220616c726561647920766f7465642e00000000000000005f82015250565b5f610eeb601883610b84565b9150610ef682610eb7565b602082019050919050565b5f6020820190508181035f830152610f1881610edf565b9050919050565b7f566f74657220616c72656164792068617320726967687420746f20766f74652e5f82015250565b5f610f53602083610b84565b9150610f5e82610f1f565b602082019050919050565b5f6020820190508181035f830152610f8081610f47565b905091905056fea2646970667358221220182343fea4721f351cdae920d5dda056fd63f67096750e197bd6cffd2f57ad7064736f6c63430008220033a264697066735822122050c8db8937157e0ca38697a825a16575528c040ed58c860acec203596c2e29b164736f6c63430008220033', \n     arguments: [\n     ]\n}).send({\n     from: web3.eth.accounts[0], \n     gas: '4700000'\n   }, function (e, contract){\n    console.log(e, contract);\n    if (typeof contract.address !== 'undefined') {\n         console.log('Contract mined! address: ' + contract.address + ' transactionHash: ' + contract.transactionHash);\n    }\n })",
	"functionHashes": {
		"7fea0d4b": "beforeAll()",
		"3439c57b": "checkWinninProposalWithReturnValue()",
		"ed2bee10": "checkWinningProposal()"
	},
	"gasEstimates": {
		"Creation": {
			"codeDepositCost": "1443600",
			"executionCost": "1504",
			"totalCost": "1445104"
		},
		"External": {
			"beforeAll()": "infinite",
			"checkWinninProposalWithReturnValue()": "infinite",
			"checkWinningProposal()": "infinite"
		}
	},
	"devdoc": {
		"kind": "dev",
		"methods": {},
		"version": 1
	},
	"userdoc": {
		"kind": "user",
		"methods": {},
		"version": 1
	},
	"Runtime Bytecode": {
		"immutableReferences": {},
		"linkReferences": {
			"remix_tests.sol": {
				"Assert": [
					{
						"length": 20,
						"start": 587
					},
					{
						"length": 20,
						"start": 849
					}
				]
			}
		},
		"object": "608060405234801561000f575f5ffd5b506004361061003f575f3560e01c80633439c57b146100435780637fea0d4b14610061578063ed2bee101461006b575b5f5ffd5b61004b610075565b604051610058919061049e565b60405180910390f35b61006961010b565b005b6100736101c2565b005b5f5f60015f9054906101000a900473ffffffffffffffffffffffffffffffffffffffff1673ffffffffffffffffffffffffffffffffffffffff1663609ff1bd6040518163ffffffff1660e01b8152600401602060405180830381865afa1580156100e1573d5f5f3e3d5ffd5b505050506040513d601f19601f8201168201806040525081019061010591906104ee565b14905090565b5f7f63616e6469646174653100000000000000000000000000000000000000000000908060018154018082558091505060019003905f5260205f20015f90919091909150555f60405161015d90610477565b6101679190610622565b604051809103905ff080158015610180573d5f5f3e3d5ffd5b5060015f6101000a81548173ffffffffffffffffffffffffffffffffffffffff021916908373ffffffffffffffffffffffffffffffffffffffff160217905550565b60015f9054906101000a900473ffffffffffffffffffffffffffffffffffffffff1673ffffffffffffffffffffffffffffffffffffffff16630121b93f5f6040518263ffffffff1660e01b815260040161021c9190610684565b5f604051808303815f87803b158015610233575f5ffd5b505af1158015610245573d5f5f3e3d5ffd5b5050505073__$acbfb1c35000d78352310b16a054a6b106$__63abcd796060015f9054906101000a900473ffffffffffffffffffffffffffffffffffffffff1673ffffffffffffffffffffffffffffffffffffffff1663609ff1bd6040518163ffffffff1660e01b8152600401602060405180830381865afa1580156102cd573d5f5f3e3d5ffd5b505050506040513d601f19601f820116820180604052508101906102f191906104ee565b5f6040518363ffffffff1660e01b815260040161030f92919061072c565b602060405180830381865af415801561032a573d5f5f3e3d5ffd5b505050506040513d601f19601f8201168201806040525081019061034e9190610790565b5073__$acbfb1c35000d78352310b16a054a6b106$__63ea79dd7960015f9054906101000a900473ffffffffffffffffffffffffffffffffffffffff1673ffffffffffffffffffffffffffffffffffffffff1663e2ba53f06040518163ffffffff1660e01b8152600401602060405180830381865afa1580156103d3573d5f5f3e3d5ffd5b505050506040513d601f19601f820116820180604052508101906103f791906107e5565b7f63616e64696461746531000000000000000000000000000000000000000000006040518363ffffffff1660e01b815260040161043592919061088f565b602060405180830381865af4158015610450573d5f5f3e3d5ffd5b505050506040513d601f19601f820116820180604052508101906104749190610790565b50565b611333806108ca83390190565b5f8115159050919050565b61049881610484565b82525050565b5f6020820190506104b15f83018461048f565b92915050565b5f5ffd5b5f819050919050565b6104cd816104bb565b81146104d7575f5ffd5b50565b5f815190506104e8816104c4565b92915050565b5f60208284031215610503576105026104b7565b5b5f610510848285016104da565b91505092915050565b5f81549050919050565b5f82825260208201905092915050565b5f819050815f5260205f209050919050565b5f819050919050565b61055781610545565b82525050565b5f610568838361054e565b60208301905092915050565b5f815f1c9050919050565b5f819050919050565b5f61059a61059583610574565b61057f565b9050919050565b5f6105ac8254610588565b9050919050565b5f600182019050919050565b5f6105c982610519565b6105d38185610523565b93506105de83610533565b805f5b83811015610615576105f2826105a1565b6105fc888261055d565b9750610607836105b3565b9250506001810190506105e1565b5085935050505092915050565b5f6020820190508181035f83015261063a81846105bf565b905092915050565b5f819050919050565b5f819050919050565b5f61066e61066961066484610642565b61064b565b6104bb565b9050919050565b61067e81610654565b82525050565b5f6020820190506106975f830184610675565b92915050565b6106a6816104bb565b82525050565b5f82825260208201905092915050565b7f70726f706f73616c20617420696e64657820302073686f756c642062652074685f8201527f652077696e6e696e672070726f706f73616c0000000000000000000000000000602082015250565b5f6107166032836106ac565b9150610721826106bc565b604082019050919050565b5f60608201905061073f5f83018561069d565b61074c602083018461069d565b818103604083015261075d8161070a565b90509392505050565b61076f81610484565b8114610779575f5ffd5b50565b5f8151905061078a81610766565b92915050565b5f602082840312156107a5576107a46104b7565b5b5f6107b28482850161077c565b91505092915050565b6107c481610545565b81146107ce575f5ffd5b50565b5f815190506107df816107bb565b92915050565b5f602082840312156107fa576107f96104b7565b5b5f610807848285016107d1565b91505092915050565b61081981610545565b82525050565b7f63616e646964617465312073686f756c64206265207468652077696e6e6572205f8201527f6e616d6500000000000000000000000000000000000000000000000000000000602082015250565b5f6108796024836106ac565b91506108848261081f565b604082019050919050565b5f6060820190506108a25f830185610810565b6108af6020830184610810565b81810360408301526108c08161086d565b9050939250505056fe608060405234801561000f575f5ffd5b50604051611333380380611333833981810160405281019061003191906102f5565b335f5f6101000a81548173ffffffffffffffffffffffffffffffffffffffff021916908373ffffffffffffffffffffffffffffffffffffffff1602179055506001805f5f5f9054906101000a900473ffffffffffffffffffffffffffffffffffffffff1673ffffffffffffffffffffffffffffffffffffffff1673ffffffffffffffffffffffffffffffffffffffff1681526020019081526020015f205f01819055505f5f90505b815181101561015a57600260405180604001604052808484815181106101025761010161033c565b5b602002602001015181526020015f815250908060018154018082558091505060019003905f5260205f2090600202015f909190919091505f820151815f015560208201518160010155505080806001019150506100d9565b5050610369565b5f604051905090565b5f5ffd5b5f5ffd5b5f5ffd5b5f601f19601f8301169050919050565b7f4e487b71000000000000000000000000000000000000000000000000000000005f52604160045260245ffd5b6101bc82610176565b810181811067ffffffffffffffff821117156101db576101da610186565b5b80604052505050565b5f6101ed610161565b90506101f982826101b3565b919050565b5f67ffffffffffffffff82111561021857610217610186565b5b602082029050602081019050919050565b5f5ffd5b5f819050919050565b61023f8161022d565b8114610249575f5ffd5b50565b5f8151905061025a81610236565b92915050565b5f61027261026d846101fe565b6101e4565b9050808382526020820190506020840283018581111561029557610294610229565b5b835b818110156102be57806102aa888261024c565b845260208401935050602081019050610297565b5050509392505050565b5f82601f8301126102dc576102db610172565b5b81516102ec848260208601610260565b91505092915050565b5f6020828403121561030a5761030961016a565b5b5f82015167ffffffffffffffff8111156103275761032661016e565b5b610333848285016102c8565b91505092915050565b7f4e487b71000000000000000000000000000000000000000000000000000000005f52603260045260245ffd5b610fbd806103765f395ff3fe608060405234801561000f575f5ffd5b5060043610610086575f3560e01c8063609ff1bd11610059578063609ff1bd146101115780639e7b8d611461012f578063a3ec138d1461014b578063e2ba53f01461017e57610086565b80630121b93f1461008a578063013cf08b146100a65780632e4176cf146100d75780635c19a95c146100f5575b5f5ffd5b6100a4600480360381019061009f91906109cf565b61019c565b005b6100c060048036038101906100bb91906109cf565b6102d7565b6040516100ce929190610a21565b60405180910390f35b6100df610306565b6040516100ec9190610a87565b60405180910390f35b61010f600480360381019061010a9190610aca565b61032a565b005b6101196106af565b6040516101269190610af5565b60405180910390f35b61014960048036038101906101449190610aca565b61072d565b005b61016560048036038101906101609190610aca565b610910565b6040516101759493929190610b28565b60405180910390f35b610186610968565b6040516101939190610b6b565b60405180910390f35b5f60015f3373ffffffffffffffffffffffffffffffffffffffff1673ffffffffffffffffffffffffffffffffffffffff1681526020019081526020015f2090505f815f015403610221576040517f08c379a000000000000000000000000000000000000000000000000000000000815260040161021890610bde565b60405180910390fd5b806001015f9054906101000a900460ff1615610272576040517f08c379a000000000000000000000000000000000000000000000000000000000815260040161026990610c46565b60405180910390fd5b6001816001015f6101000a81548160ff021916908315150217905550818160020181905550805f0154600283815481106102af576102ae610c64565b5b905f5260205f2090600202016001015f8282546102cc9190610cbe565b925050819055505050565b600281815481106102e6575f80fd5b905f5260205f2090600202015f91509050805f0154908060010154905082565b5f5f9054906101000a900473ffffffffffffffffffffffffffffffffffffffff1681565b5f60015f3373ffffffffffffffffffffffffffffffffffffffff1673ffffffffffffffffffffffffffffffffffffffff1681526020019081526020015f209050806001015f9054906101000a900460ff16156103bb576040517f08c379a00000000000000000000000000000000000000000000000000000000081526004016103b290610d3b565b60405180910390fd5b3373ffffffffffffffffffffffffffffffffffffffff168273ffffffffffffffffffffffffffffffffffffffff1603610429576040517f08c379a000000000000000000000000000000000000000000000000000000000815260040161042090610da3565b60405180910390fd5b5b5f73ffffffffffffffffffffffffffffffffffffffff1660015f8473ffffffffffffffffffffffffffffffffffffffff1673ffffffffffffffffffffffffffffffffffffffff1681526020019081526020015f2060010160019054906101000a900473ffffffffffffffffffffffffffffffffffffffff1673ffffffffffffffffffffffffffffffffffffffff16146105935760015f8373ffffffffffffffffffffffffffffffffffffffff1673ffffffffffffffffffffffffffffffffffffffff1681526020019081526020015f2060010160019054906101000a900473ffffffffffffffffffffffffffffffffffffffff1691503373ffffffffffffffffffffffffffffffffffffffff168273ffffffffffffffffffffffffffffffffffffffff160361058e576040517f08c379a000000000000000000000000000000000000000000000000000000000815260040161058590610e0b565b60405180910390fd5b61042a565b6001816001015f6101000a81548160ff021916908315150217905550818160010160016101000a81548173ffffffffffffffffffffffffffffffffffffffff021916908373ffffffffffffffffffffffffffffffffffffffff1602179055505f60015f8473ffffffffffffffffffffffffffffffffffffffff1673ffffffffffffffffffffffffffffffffffffffff1681526020019081526020015f209050806001015f9054906101000a900460ff161561068d57815f0154600282600201548154811061066457610663610c64565b5b905f5260205f2090600202016001015f8282546106819190610cbe565b925050819055506106aa565b815f0154815f015f8282546106a29190610cbe565b925050819055505b505050565b5f5f5f90505f5f90505b6002805490508110156107285781600282815481106106db576106da610c64565b5b905f5260205f20906002020160010154111561071b576002818154811061070557610704610c64565b5b905f5260205f2090600202016001015491508092505b80806001019150506106b9565b505090565b5f5f9054906101000a900473ffffffffffffffffffffffffffffffffffffffff1673ffffffffffffffffffffffffffffffffffffffff163373ffffffffffffffffffffffffffffffffffffffff16146107bb576040517f08c379a00000000000000000000000000000000000000000000000000000000081526004016107b290610e99565b60405180910390fd5b60015f8273ffffffffffffffffffffffffffffffffffffffff1673ffffffffffffffffffffffffffffffffffffffff1681526020019081526020015f206001015f9054906101000a900460ff1615610848576040517f08c379a000000000000000000000000000000000000000000000000000000000815260040161083f90610f01565b60405180910390fd5b5f60015f8373ffffffffffffffffffffffffffffffffffffffff1673ffffffffffffffffffffffffffffffffffffffff1681526020019081526020015f205f0154146108c9576040517f08c379a00000000000000000000000000000000000000000000000000000000081526004016108c090610f69565b60405180910390fd5b6001805f8373ffffffffffffffffffffffffffffffffffffffff1673ffffffffffffffffffffffffffffffffffffffff1681526020019081526020015f205f018190555050565b6001602052805f5260405f205f91509050805f015490806001015f9054906101000a900460ff16908060010160019054906101000a900473ffffffffffffffffffffffffffffffffffffffff16908060020154905084565b5f60026109736106af565b8154811061098457610983610c64565b5b905f5260205f2090600202015f0154905090565b5f5ffd5b5f819050919050565b6109ae8161099c565b81146109b8575f5ffd5b50565b5f813590506109c9816109a5565b92915050565b5f602082840312156109e4576109e3610998565b5b5f6109f1848285016109bb565b91505092915050565b5f819050919050565b610a0c816109fa565b82525050565b610a1b8161099c565b82525050565b5f604082019050610a345f830185610a03565b610a416020830184610a12565b9392505050565b5f73ffffffffffffffffffffffffffffffffffffffff82169050919050565b5f610a7182610a48565b9050919050565b610a8181610a67565b82525050565b5f602082019050610a9a5f830184610a78565b92915050565b610aa981610a67565b8114610ab3575f5ffd5b50565b5f81359050610ac481610aa0565b92915050565b5f60208284031215610adf57610ade610998565b5b5f610aec84828501610ab6565b91505092915050565b5f602082019050610b085f830184610a12565b92915050565b5f8115159050919050565b610b2281610b0e565b82525050565b5f608082019050610b3b5f830187610a12565b610b486020830186610b19565b610b556040830185610a78565b610b626060830184610a12565b95945050505050565b5f602082019050610b7e5f830184610a03565b92915050565b5f82825260208201905092915050565b7f486173206e6f20726967687420746f20766f74652e00000000000000000000005f82015250565b5f610bc8601583610b84565b9150610bd382610b94565b602082019050919050565b5f6020820190508181035f830152610bf581610bbc565b9050919050565b7f416c726561647920766f7465642e0000000000000000000000000000000000005f82015250565b5f610c30600e83610b84565b9150610c3b82610bfc565b602082019050919050565b5f6020820190508181035f830152610c5d81610c24565b9050919050565b7f4e487b71000000000000000000000000000000000000000000000000000000005f52603260045260245ffd5b7f4e487b71000000000000000000000000000000000000000000000000000000005f52601160045260245ffd5b5f610cc88261099c565b9150610cd38361099c565b9250828201905080821115610ceb57610cea610c91565b5b92915050565b7f596f7520616c726561647920766f7465642e00000000000000000000000000005f82015250565b5f610d25601283610b84565b9150610d3082610cf1565b602082019050919050565b5f6020820190508181035f830152610d5281610d19565b9050919050565b7f53656c662d64656c65676174696f6e20697320646973616c6c6f7765642e00005f82015250565b5f610d8d601e83610b84565b9150610d9882610d59565b602082019050919050565b5f6020820190508181035f830152610dba81610d81565b9050919050565b7f466f756e64206c6f6f7020696e2064656c65676174696f6e2e000000000000005f82015250565b5f610df5601983610b84565b9150610e0082610dc1565b602082019050919050565b5f6020820190508181035f830152610e2281610de9565b9050919050565b7f4f6e6c79206368616972706572736f6e2063616e2067697665207269676874205f8201527f746f20766f74652e000000000000000000000000000000000000000000000000602082015250565b5f610e83602883610b84565b9150610e8e82610e29565b604082019050919050565b5f6020820190508181035f830152610eb081610e77565b9050919050565b7f54686520766f74657220616c726561647920766f7465642e00000000000000005f82015250565b5f610eeb601883610b84565b9150610ef682610eb7565b602082019050919050565b5f6020820190508181035f830152610f1881610edf565b9050919050565b7f566f74657220616c72656164792068617320726967687420746f20766f74652e5f82015250565b5f610f53602083610b84565b9150610f5e82610f1f565b602082019050919050565b5f6020820190508181035f830152610f8081610f47565b905091905056fea2646970667358221220182343fea4721f351cdae920d5dda056fd63f67096750e197bd6cffd2f57ad7064736f6c63430008220033a264697066735822122050c8db8937157e0ca38697a825a16575528c040ed58c860acec203596c2e29b164736f6c63430008220033",
		"opcodes": "PUSH1 0x80 PUSH1 0x40 MSTORE CALLVALUE DUP1 ISZERO PUSH2 0xF JUMPI PUSH0 PUSH0 REVERT JUMPDEST POP PUSH1 0x4 CALLDATASIZE LT PUSH2 0x3F JUMPI PUSH0 CALLDATALOAD PUSH1 0xE0 SHR DUP1 PUSH4 0x3439C57B EQ PUSH2 0x43 JUMPI DUP1 PUSH4 0x7FEA0D4B EQ PUSH2 0x61 JUMPI DUP1 PUSH4 0xED2BEE10 EQ PUSH2 0x6B JUMPI JUMPDEST PUSH0 PUSH0 REVERT JUMPDEST PUSH2 0x4B PUSH2 0x75 JUMP JUMPDEST PUSH1 0x40 MLOAD PUSH2 0x58 SWAP2 SWAP1 PUSH2 0x49E JUMP JUMPDEST PUSH1 0x40 MLOAD DUP1 SWAP2 SUB SWAP1 RETURN JUMPDEST PUSH2 0x69 PUSH2 0x10B JUMP JUMPDEST STOP JUMPDEST PUSH2 0x73 PUSH2 0x1C2 JUMP JUMPDEST STOP JUMPDEST PUSH0 PUSH0 PUSH1 0x1 PUSH0 SWAP1 SLOAD SWAP1 PUSH2 0x100 EXP SWAP1 DIV PUSH20 0xFFFFFFFFFFFFFFFFFFFFFFFFFFFFFFFFFFFFFFFF AND PUSH20 0xFFFFFFFFFFFFFFFFFFFFFFFFFFFFFFFFFFFFFFFF AND PUSH4 0x609FF1BD PUSH1 0x40 MLOAD DUP2 PUSH4 0xFFFFFFFF AND PUSH1 0xE0 SHL DUP2 MSTORE PUSH1 0x4 ADD PUSH1 0x20 PUSH1 0x40 MLOAD DUP1 DUP4 SUB DUP2 DUP7 GAS STATICCALL ISZERO DUP1 ISZERO PUSH2 0xE1 JUMPI RETURNDATASIZE PUSH0 PUSH0 RETURNDATACOPY RETURNDATASIZE PUSH0 REVERT JUMPDEST POP POP POP POP PUSH1 0x40 MLOAD RETURNDATASIZE PUSH1 0x1F NOT PUSH1 0x1F DUP3 ADD AND DUP3 ADD DUP1 PUSH1 0x40 MSTORE POP DUP2 ADD SWAP1 PUSH2 0x105 SWAP2 SWAP1 PUSH2 0x4EE JUMP JUMPDEST EQ SWAP1 POP SWAP1 JUMP JUMPDEST PUSH0 PUSH32 0x63616E6469646174653100000000000000000000000000000000000000000000 SWAP1 DUP1 PUSH1 0x1 DUP2 SLOAD ADD DUP1 DUP3 SSTORE DUP1 SWAP2 POP POP PUSH1 0x1 SWAP1 SUB SWAP1 PUSH0 MSTORE PUSH1 0x20 PUSH0 KECCAK256 ADD PUSH0 SWAP1 SWAP2 SWAP1 SWAP2 SWAP1 SWAP2 POP SSTORE PUSH0 PUSH1 0x40 MLOAD PUSH2 0x15D SWAP1 PUSH2 0x477 JUMP JUMPDEST PUSH2 0x167 SWAP2 SWAP1 PUSH2 0x622 JUMP JUMPDEST PUSH1 0x40 MLOAD DUP1 SWAP2 SUB SWAP1 PUSH0 CREATE DUP1 ISZERO DUP1 ISZERO PUSH2 0x180 JUMPI RETURNDATASIZE PUSH0 PUSH0 RETURNDATACOPY RETURNDATASIZE PUSH0 REVERT JUMPDEST POP PUSH1 0x1 PUSH0 PUSH2 0x100 EXP DUP2 SLOAD DUP2 PUSH20 0xFFFFFFFFFFFFFFFFFFFFFFFFFFFFFFFFFFFFFFFF MUL NOT AND SWAP1 DUP4 PUSH20 0xFFFFFFFFFFFFFFFFFFFFFFFFFFFFFFFFFFFFFFFF AND MUL OR SWAP1 SSTORE POP JUMP JUMPDEST PUSH1 0x1 PUSH0 SWAP1 SLOAD SWAP1 PUSH2 0x100 EXP SWAP1 DIV PUSH20 0xFFFFFFFFFFFFFFFFFFFFFFFFFFFFFFFFFFFFFFFF AND PUSH20 0xFFFFFFFFFFFFFFFFFFFFFFFFFFFFFFFFFFFFFFFF AND PUSH4 0x121B93F PUSH0 PUSH1 0x40 MLOAD DUP3 PUSH4 0xFFFFFFFF AND PUSH1 0xE0 SHL DUP2 MSTORE PUSH1 0x4 ADD PUSH2 0x21C SWAP2 SWAP1 PUSH2 0x684 JUMP JUMPDEST PUSH0 PUSH1 0x40 MLOAD DUP1 DUP4 SUB DUP2 PUSH0 DUP8 DUP1 EXTCODESIZE ISZERO DUP1 ISZERO PUSH2 0x233 JUMPI PUSH0 PUSH0 REVERT JUMPDEST POP GAS CALL ISZERO DUP1 ISZERO PUSH2 0x245 JUMPI RETURNDATASIZE PUSH0 PUSH0 RETURNDATACOPY RETURNDATASIZE PUSH0 REVERT JUMPDEST POP POP POP POP PUSH20 0x0 PUSH4 0xABCD7960 PUSH1 0x1 PUSH0 SWAP1 SLOAD SWAP1 PUSH2 0x100 EXP SWAP1 DIV PUSH20 0xFFFFFFFFFFFFFFFFFFFFFFFFFFFFFFFFFFFFFFFF AND PUSH20 0xFFFFFFFFFFFFFFFFFFFFFFFFFFFFFFFFFFFFFFFF AND PUSH4 0x609FF1BD PUSH1 0x40 MLOAD DUP2 PUSH4 0xFFFFFFFF AND PUSH1 0xE0 SHL DUP2 MSTORE PUSH1 0x4 ADD PUSH1 0x20 PUSH1 0x40 MLOAD DUP1 DUP4 SUB DUP2 DUP7 GAS STATICCALL ISZERO DUP1 ISZERO PUSH2 0x2CD JUMPI RETURNDATASIZE PUSH0 PUSH0 RETURNDATACOPY RETURNDATASIZE PUSH0 REVERT JUMPDEST POP POP POP POP PUSH1 0x40 MLOAD RETURNDATASIZE PUSH1 0x1F NOT PUSH1 0x1F DUP3 ADD AND DUP3 ADD DUP1 PUSH1 0x40 MSTORE POP DUP2 ADD SWAP1 PUSH2 0x2F1 SWAP2 SWAP1 PUSH2 0x4EE JUMP JUMPDEST PUSH0 PUSH1 0x40 MLOAD DUP4 PUSH4 0xFFFFFFFF AND PUSH1 0xE0 SHL DUP2 MSTORE PUSH1 0x4 ADD PUSH2 0x30F SWAP3 SWAP2 SWAP1 PUSH2 0x72C JUMP JUMPDEST PUSH1 0x20 PUSH1 0x40 MLOAD DUP1 DUP4 SUB DUP2 DUP7 GAS DELEGATECALL ISZERO DUP1 ISZERO PUSH2 0x32A JUMPI RETURNDATASIZE PUSH0 PUSH0 RETURNDATACOPY RETURNDATASIZE PUSH0 REVERT JUMPDEST POP POP POP POP PUSH1 0x40 MLOAD RETURNDATASIZE PUSH1 0x1F NOT PUSH1 0x1F DUP3 ADD AND DUP3 ADD DUP1 PUSH1 0x40 MSTORE POP DUP2 ADD SWAP1 PUSH2 0x34E SWAP2 SWAP1 PUSH2 0x790 JUMP JUMPDEST POP PUSH20 0x0 PUSH4 0xEA79DD79 PUSH1 0x1 PUSH0 SWAP1 SLOAD SWAP1 PUSH2 0x100 EXP SWAP1 DIV PUSH20 0xFFFFFFFFFFFFFFFFFFFFFFFFFFFFFFFFFFFFFFFF AND PUSH20 0xFFFFFFFFFFFFFFFFFFFFFFFFFFFFFFFFFFFFFFFF AND PUSH4 0xE2BA53F0 PUSH1 0x40 MLOAD DUP2 PUSH4 0xFFFFFFFF AND PUSH1 0xE0 SHL DUP2 MSTORE PUSH1 0x4 ADD PUSH1 0x20 PUSH1 0x40 MLOAD DUP1 DUP4 SUB DUP2 DUP7 GAS STATICCALL ISZERO DUP1 ISZERO PUSH2 0x3D3 JUMPI RETURNDATASIZE PUSH0 PUSH0 RETURNDATACOPY RETURNDATASIZE PUSH0 REVERT JUMPDEST POP POP POP POP PUSH1 0x40 MLOAD RETURNDATASIZE PUSH1 0x1F NOT PUSH1 0x1F DUP3 ADD AND DUP3 ADD DUP1 PUSH1 0x40 MSTORE POP DUP2 ADD SWAP1 PUSH2 0x3F7 SWAP2 SWAP1 PUSH2 0x7E5 JUMP JUMPDEST PUSH32 0x63616E6469646174653100000000000000000000000000000000000000000000 PUSH1 0x40 MLOAD DUP4 PUSH4 0xFFFFFFFF AND PUSH1 0xE0 SHL DUP2 MSTORE PUSH1 0x4 ADD PUSH2 0x435 SWAP3 SWAP2 SWAP1 PUSH2 0x88F JUMP JUMPDEST PUSH1 0x20 PUSH1 0x40 MLOAD DUP1 DUP4 SUB DUP2 DUP7 GAS DELEGATECALL ISZERO DUP1 ISZERO PUSH2 0x450 JUMPI RETURNDATASIZE PUSH0 PUSH0 RETURNDATACOPY RETURNDATASIZE PUSH0 REVERT JUMPDEST POP POP POP POP PUSH1 0x40 MLOAD RETURNDATASIZE PUSH1 0x1F NOT PUSH1 0x1F DUP3 ADD AND DUP3 ADD DUP1 PUSH1 0x40 MSTORE POP DUP2 ADD SWAP1 PUSH2 0x474 SWAP2 SWAP1 PUSH2 0x790 JUMP JUMPDEST POP JUMP JUMPDEST PUSH2 0x1333 DUP1 PUSH2 0x8CA DUP4 CODECOPY ADD SWAP1 JUMP JUMPDEST PUSH0 DUP2 ISZERO ISZERO SWAP1 POP SWAP2 SWAP1 POP JUMP JUMPDEST PUSH2 0x498 DUP2 PUSH2 0x484 JUMP JUMPDEST DUP3 MSTORE POP POP JUMP JUMPDEST PUSH0 PUSH1 0x20 DUP3 ADD SWAP1 POP PUSH2 0x4B1 PUSH0 DUP4 ADD DUP5 PUSH2 0x48F JUMP JUMPDEST SWAP3 SWAP2 POP POP JUMP JUMPDEST PUSH0 PUSH0 REVERT JUMPDEST PUSH0 DUP2 SWAP1 POP SWAP2 SWAP1 POP JUMP JUMPDEST PUSH2 0x4CD DUP2 PUSH2 0x4BB JUMP JUMPDEST DUP2 EQ PUSH2 0x4D7 JUMPI PUSH0 PUSH0 REVERT JUMPDEST POP JUMP JUMPDEST PUSH0 DUP2 MLOAD SWAP1 POP PUSH2 0x4E8 DUP2 PUSH2 0x4C4 JUMP JUMPDEST SWAP3 SWAP2 POP POP JUMP JUMPDEST PUSH0 PUSH1 0x20 DUP3 DUP5 SUB SLT ISZERO PUSH2 0x503 JUMPI PUSH2 0x502 PUSH2 0x4B7 JUMP JUMPDEST JUMPDEST PUSH0 PUSH2 0x510 DUP5 DUP3 DUP6 ADD PUSH2 0x4DA JUMP JUMPDEST SWAP2 POP POP SWAP3 SWAP2 POP POP JUMP JUMPDEST PUSH0 DUP2 SLOAD SWAP1 POP SWAP2 SWAP1 POP JUMP JUMPDEST PUSH0 DUP3 DUP3 MSTORE PUSH1 0x20 DUP3 ADD SWAP1 POP SWAP3 SWAP2 POP POP JUMP JUMPDEST PUSH0 DUP2 SWAP1 POP DUP2 PUSH0 MSTORE PUSH1 0x20 PUSH0 KECCAK256 SWAP1 POP SWAP2 SWAP1 POP JUMP JUMPDEST PUSH0 DUP2 SWAP1 POP SWAP2 SWAP1 POP JUMP JUMPDEST PUSH2 0x557 DUP2 PUSH2 0x545 JUMP JUMPDEST DUP3 MSTORE POP POP JUMP JUMPDEST PUSH0 PUSH2 0x568 DUP4 DUP4 PUSH2 0x54E JUMP JUMPDEST PUSH1 0x20 DUP4 ADD SWAP1 POP SWAP3 SWAP2 POP POP JUMP JUMPDEST PUSH0 DUP2 PUSH0 SHR SWAP1 POP SWAP2 SWAP1 POP JUMP JUMPDEST PUSH0 DUP2 SWAP1 POP SWAP2 SWAP1 POP JUMP JUMPDEST PUSH0 PUSH2 0x59A PUSH2 0x595 DUP4 PUSH2 0x574 JUMP JUMPDEST PUSH2 0x57F JUMP JUMPDEST SWAP1 POP SWAP2 SWAP1 POP JUMP JUMPDEST PUSH0 PUSH2 0x5AC DUP3 SLOAD PUSH2 0x588 JUMP JUMPDEST SWAP1 POP SWAP2 SWAP1 POP JUMP JUMPDEST PUSH0 PUSH1 0x1 DUP3 ADD SWAP1 POP SWAP2 SWAP1 POP JUMP JUMPDEST PUSH0 PUSH2 0x5C9 DUP3 PUSH2 0x519 JUMP JUMPDEST PUSH2 0x5D3 DUP2 DUP6 PUSH2 0x523 JUMP JUMPDEST SWAP4 POP PUSH2 0x5DE DUP4 PUSH2 0x533 JUMP JUMPDEST DUP1 PUSH0 JUMPDEST DUP4 DUP2 LT ISZERO PUSH2 0x615 JUMPI PUSH2 0x5F2 DUP3 PUSH2 0x5A1 JUMP JUMPDEST PUSH2 0x5FC DUP9 DUP3 PUSH2 0x55D JUMP JUMPDEST SWAP8 POP PUSH2 0x607 DUP4 PUSH2 0x5B3 JUMP JUMPDEST SWAP3 POP POP PUSH1 0x1 DUP2 ADD SWAP1 POP PUSH2 0x5E1 JUMP JUMPDEST POP DUP6 SWAP4 POP POP POP POP SWAP3 SWAP2 POP POP JUMP JUMPDEST PUSH0 PUSH1 0x20 DUP3 ADD SWAP1 POP DUP2 DUP2 SUB PUSH0 DUP4 ADD MSTORE PUSH2 0x63A DUP2 DUP5 PUSH2 0x5BF JUMP JUMPDEST SWAP1 POP SWAP3 SWAP2 POP POP JUMP JUMPDEST PUSH0 DUP2 SWAP1 POP SWAP2 SWAP1 POP JUMP JUMPDEST PUSH0 DUP2 SWAP1 POP SWAP2 SWAP1 POP JUMP JUMPDEST PUSH0 PUSH2 0x66E PUSH2 0x669 PUSH2 0x664 DUP5 PUSH2 0x642 JUMP JUMPDEST PUSH2 0x64B JUMP JUMPDEST PUSH2 0x4BB JUMP JUMPDEST SWAP1 POP SWAP2 SWAP1 POP JUMP JUMPDEST PUSH2 0x67E DUP2 PUSH2 0x654 JUMP JUMPDEST DUP3 MSTORE POP POP JUMP JUMPDEST PUSH0 PUSH1 0x20 DUP3 ADD SWAP1 POP PUSH2 0x697 PUSH0 DUP4 ADD DUP5 PUSH2 0x675 JUMP JUMPDEST SWAP3 SWAP2 POP POP JUMP JUMPDEST PUSH2 0x6A6 DUP2 PUSH2 0x4BB JUMP JUMPDEST DUP3 MSTORE POP POP JUMP JUMPDEST PUSH0 DUP3 DUP3 MSTORE PUSH1 0x20 DUP3 ADD SWAP1 POP SWAP3 SWAP2 POP POP JUMP JUMPDEST PUSH32 0x70726F706F73616C20617420696E64657820302073686F756C64206265207468 PUSH0 DUP3 ADD MSTORE PUSH32 0x652077696E6E696E672070726F706F73616C0000000000000000000000000000 PUSH1 0x20 DUP3 ADD MSTORE POP JUMP JUMPDEST PUSH0 PUSH2 0x716 PUSH1 0x32 DUP4 PUSH2 0x6AC JUMP JUMPDEST SWAP2 POP PUSH2 0x721 DUP3 PUSH2 0x6BC JUMP JUMPDEST PUSH1 0x40 DUP3 ADD SWAP1 POP SWAP2 SWAP1 POP JUMP JUMPDEST PUSH0 PUSH1 0x60 DUP3 ADD SWAP1 POP PUSH2 0x73F PUSH0 DUP4 ADD DUP6 PUSH2 0x69D JUMP JUMPDEST PUSH2 0x74C PUSH1 0x20 DUP4 ADD DUP5 PUSH2 0x69D JUMP JUMPDEST DUP2 DUP2 SUB PUSH1 0x40 DUP4 ADD MSTORE PUSH2 0x75D DUP2 PUSH2 0x70A JUMP JUMPDEST SWAP1 POP SWAP4 SWAP3 POP POP POP JUMP JUMPDEST PUSH2 0x76F DUP2 PUSH2 0x484 JUMP JUMPDEST DUP2 EQ PUSH2 0x779 JUMPI PUSH0 PUSH0 REVERT JUMPDEST POP JUMP JUMPDEST PUSH0 DUP2 MLOAD SWAP1 POP PUSH2 0x78A DUP2 PUSH2 0x766 JUMP JUMPDEST SWAP3 SWAP2 POP POP JUMP JUMPDEST PUSH0 PUSH1 0x20 DUP3 DUP5 SUB SLT ISZERO PUSH2 0x7A5 JUMPI PUSH2 0x7A4 PUSH2 0x4B7 JUMP JUMPDEST JUMPDEST PUSH0 PUSH2 0x7B2 DUP5 DUP3 DUP6 ADD PUSH2 0x77C JUMP JUMPDEST SWAP2 POP POP SWAP3 SWAP2 POP POP JUMP JUMPDEST PUSH2 0x7C4 DUP2 PUSH2 0x545 JUMP JUMPDEST DUP2 EQ PUSH2 0x7CE JUMPI PUSH0 PUSH0 REVERT JUMPDEST POP JUMP JUMPDEST PUSH0 DUP2 MLOAD SWAP1 POP PUSH2 0x7DF DUP2 PUSH2 0x7BB JUMP JUMPDEST SWAP3 SWAP2 POP POP JUMP JUMPDEST PUSH0 PUSH1 0x20 DUP3 DUP5 SUB SLT ISZERO PUSH2 0x7FA JUMPI PUSH2 0x7F9 PUSH2 0x4B7 JUMP JUMPDEST JUMPDEST PUSH0 PUSH2 0x807 DUP5 DUP3 DUP6 ADD PUSH2 0x7D1 JUMP JUMPDEST SWAP2 POP POP SWAP3 SWAP2 POP POP JUMP JUMPDEST PUSH2 0x819 DUP2 PUSH2 0x545 JUMP JUMPDEST DUP3 MSTORE POP POP JUMP JUMPDEST PUSH32 0x63616E646964617465312073686F756C64206265207468652077696E6E657220 PUSH0 DUP3 ADD MSTORE PUSH32 0x6E616D6500000000000000000000000000000000000000000000000000000000 PUSH1 0x20 DUP3 ADD MSTORE POP JUMP JUMPDEST PUSH0 PUSH2 0x879 PUSH1 0x24 DUP4 PUSH2 0x6AC JUMP JUMPDEST SWAP2 POP PUSH2 0x884 DUP3 PUSH2 0x81F JUMP JUMPDEST PUSH1 0x40 DUP3 ADD SWAP1 POP SWAP2 SWAP1 POP JUMP JUMPDEST PUSH0 PUSH1 0x60 DUP3 ADD SWAP1 POP PUSH2 0x8A2 PUSH0 DUP4 ADD DUP6 PUSH2 0x810 JUMP JUMPDEST PUSH2 0x8AF PUSH1 0x20 DUP4 ADD DUP5 PUSH2 0x810 JUMP JUMPDEST DUP2 DUP2 SUB PUSH1 0x40 DUP4 ADD MSTORE PUSH2 0x8C0 DUP2 PUSH2 0x86D JUMP JUMPDEST SWAP1 POP SWAP4 SWAP3 POP POP POP JUMP INVALID PUSH1 0x80 PUSH1 0x40 MSTORE CALLVALUE DUP1 ISZERO PUSH2 0xF JUMPI PUSH0 PUSH0 REVERT JUMPDEST POP PUSH1 0x40 MLOAD PUSH2 0x1333 CODESIZE SUB DUP1 PUSH2 0x1333 DUP4 CODECOPY DUP2 DUP2 ADD PUSH1 0x40 MSTORE DUP2 ADD SWAP1 PUSH2 0x31 SWAP2 SWAP1 PUSH2 0x2F5 JUMP JUMPDEST CALLER PUSH0 PUSH0 PUSH2 0x100 EXP DUP2 SLOAD DUP2 PUSH20 0xFFFFFFFFFFFFFFFFFFFFFFFFFFFFFFFFFFFFFFFF MUL NOT AND SWAP1 DUP4 PUSH20 0xFFFFFFFFFFFFFFFFFFFFFFFFFFFFFFFFFFFFFFFF AND MUL OR SWAP1 SSTORE POP PUSH1 0x1 DUP1 PUSH0 PUSH0 PUSH0 SWAP1 SLOAD SWAP1 PUSH2 0x100 EXP SWAP1 DIV PUSH20 0xFFFFFFFFFFFFFFFFFFFFFFFFFFFFFFFFFFFFFFFF AND PUSH20 0xFFFFFFFFFFFFFFFFFFFFFFFFFFFFFFFFFFFFFFFF AND PUSH20 0xFFFFFFFFFFFFFFFFFFFFFFFFFFFFFFFFFFFFFFFF AND DUP2 MSTORE PUSH1 0x20 ADD SWAP1 DUP2 MSTORE PUSH1 0x20 ADD PUSH0 KECCAK256 PUSH0 ADD DUP2 SWAP1 SSTORE POP PUSH0 PUSH0 SWAP1 POP JUMPDEST DUP2 MLOAD DUP2 LT ISZERO PUSH2 0x15A JUMPI PUSH1 0x2 PUSH1 0x40 MLOAD DUP1 PUSH1 0x40 ADD PUSH1 0x40 MSTORE DUP1 DUP5 DUP5 DUP2 MLOAD DUP2 LT PUSH2 0x102 JUMPI PUSH2 0x101 PUSH2 0x33C JUMP JUMPDEST JUMPDEST PUSH1 0x20 MUL PUSH1 0x20 ADD ADD MLOAD DUP2 MSTORE PUSH1 0x20 ADD PUSH0 DUP2 MSTORE POP SWAP1 DUP1 PUSH1 0x1 DUP2 SLOAD ADD DUP1 DUP3 SSTORE DUP1 SWAP2 POP POP PUSH1 0x1 SWAP1 SUB SWAP1 PUSH0 MSTORE PUSH1 0x20 PUSH0 KECCAK256 SWAP1 PUSH1 0x2 MUL ADD PUSH0 SWAP1 SWAP2 SWAP1 SWAP2 SWAP1 SWAP2 POP PUSH0 DUP3 ADD MLOAD DUP2 PUSH0 ADD SSTORE PUSH1 0x20 DUP3 ADD MLOAD DUP2 PUSH1 0x1 ADD SSTORE POP POP DUP1 DUP1 PUSH1 0x1 ADD SWAP2 POP POP PUSH2 0xD9 JUMP JUMPDEST POP POP PUSH2 0x369 JUMP JUMPDEST PUSH0 PUSH1 0x40 MLOAD SWAP1 POP SWAP1 JUMP JUMPDEST PUSH0 PUSH0 REVERT JUMPDEST PUSH0 PUSH0 REVERT JUMPDEST PUSH0 PUSH0 REVERT JUMPDEST PUSH0 PUSH1 0x1F NOT PUSH1 0x1F DUP4 ADD AND SWAP1 POP SWAP2 SWAP1 POP JUMP JUMPDEST PUSH32 0x4E487B7100000000000000000000000000000000000000000000000000000000 PUSH0 MSTORE PUSH1 0x41 PUSH1 0x4 MSTORE PUSH1 0x24 PUSH0 REVERT JUMPDEST PUSH2 0x1BC DUP3 PUSH2 0x176 JUMP JUMPDEST DUP2 ADD DUP2 DUP2 LT PUSH8 0xFFFFFFFFFFFFFFFF DUP3 GT OR ISZERO PUSH2 0x1DB JUMPI PUSH2 0x1DA PUSH2 0x186 JUMP JUMPDEST JUMPDEST DUP1 PUSH1 0x40 MSTORE POP POP POP JUMP JUMPDEST PUSH0 PUSH2 0x1ED PUSH2 0x161 JUMP JUMPDEST SWAP1 POP PUSH2 0x1F9 DUP3 DUP3 PUSH2 0x1B3 JUMP JUMPDEST SWAP2 SWAP1 POP JUMP JUMPDEST PUSH0 PUSH8 0xFFFFFFFFFFFFFFFF DUP3 GT ISZERO PUSH2 0x218 JUMPI PUSH2 0x217 PUSH2 0x186 JUMP JUMPDEST JUMPDEST PUSH1 0x20 DUP3 MUL SWAP1 POP PUSH1 0x20 DUP2 ADD SWAP1 POP SWAP2 SWAP1 POP JUMP JUMPDEST PUSH0 PUSH0 REVERT JUMPDEST PUSH0 DUP2 SWAP1 POP SWAP2 SWAP1 POP JUMP JUMPDEST PUSH2 0x23F DUP2 PUSH2 0x22D JUMP JUMPDEST DUP2 EQ PUSH2 0x249 JUMPI PUSH0 PUSH0 REVERT JUMPDEST POP JUMP JUMPDEST PUSH0 DUP2 MLOAD SWAP1 POP PUSH2 0x25A DUP2 PUSH2 0x236 JUMP JUMPDEST SWAP3 SWAP2 POP POP JUMP JUMPDEST PUSH0 PUSH2 0x272 PUSH2 0x26D DUP5 PUSH2 0x1FE JUMP JUMPDEST PUSH2 0x1E4 JUMP JUMPDEST SWAP1 POP DUP1 DUP4 DUP3 MSTORE PUSH1 0x20 DUP3 ADD SWAP1 POP PUSH1 0x20 DUP5 MUL DUP4 ADD DUP6 DUP2 GT ISZERO PUSH2 0x295 JUMPI PUSH2 0x294 PUSH2 0x229 JUMP JUMPDEST JUMPDEST DUP4 JUMPDEST DUP2 DUP2 LT ISZERO PUSH2 0x2BE JUMPI DUP1 PUSH2 0x2AA DUP9 DUP3 PUSH2 0x24C JUMP JUMPDEST DUP5 MSTORE PUSH1 0x20 DUP5 ADD SWAP4 POP POP PUSH1 0x20 DUP2 ADD SWAP1 POP PUSH2 0x297 JUMP JUMPDEST POP POP POP SWAP4 SWAP3 POP POP POP JUMP JUMPDEST PUSH0 DUP3 PUSH1 0x1F DUP4 ADD SLT PUSH2 0x2DC JUMPI PUSH2 0x2DB PUSH2 0x172 JUMP JUMPDEST JUMPDEST DUP2 MLOAD PUSH2 0x2EC DUP5 DUP3 PUSH1 0x20 DUP7 ADD PUSH2 0x260 JUMP JUMPDEST SWAP2 POP POP SWAP3 SWAP2 POP POP JUMP JUMPDEST PUSH0 PUSH1 0x20 DUP3 DUP5 SUB SLT ISZERO PUSH2 0x30A JUMPI PUSH2 0x309 PUSH2 0x16A JUMP JUMPDEST JUMPDEST PUSH0 DUP3 ADD MLOAD PUSH8 0xFFFFFFFFFFFFFFFF DUP2 GT ISZERO PUSH2 0x327 JUMPI PUSH2 0x326 PUSH2 0x16E JUMP JUMPDEST JUMPDEST PUSH2 0x333 DUP5 DUP3 DUP6 ADD PUSH2 0x2C8 JUMP JUMPDEST SWAP2 POP POP SWAP3 SWAP2 POP POP JUMP JUMPDEST PUSH32 0x4E487B7100000000000000000000000000000000000000000000000000000000 PUSH0 MSTORE PUSH1 0x32 PUSH1 0x4 MSTORE PUSH1 0x24 PUSH0 REVERT JUMPDEST PUSH2 0xFBD DUP1 PUSH2 0x376 PUSH0 CODECOPY PUSH0 RETURN INVALID PUSH1 0x80 PUSH1 0x40 MSTORE CALLVALUE DUP1 ISZERO PUSH2 0xF JUMPI PUSH0 PUSH0 REVERT JUMPDEST POP PUSH1 0x4 CALLDATASIZE LT PUSH2 0x86 JUMPI PUSH0 CALLDATALOAD PUSH1 0xE0 SHR DUP1 PUSH4 0x609FF1BD GT PUSH2 0x59 JUMPI DUP1 PUSH4 0x609FF1BD EQ PUSH2 0x111 JUMPI DUP1 PUSH4 0x9E7B8D61 EQ PUSH2 0x12F JUMPI DUP1 PUSH4 0xA3EC138D EQ PUSH2 0x14B JUMPI DUP1 PUSH4 0xE2BA53F0 EQ PUSH2 0x17E JUMPI PUSH2 0x86 JUMP JUMPDEST DUP1 PUSH4 0x121B93F EQ PUSH2 0x8A JUMPI DUP1 PUSH4 0x13CF08B EQ PUSH2 0xA6 JUMPI DUP1 PUSH4 0x2E4176CF EQ PUSH2 0xD7 JUMPI DUP1 PUSH4 0x5C19A95C EQ PUSH2 0xF5 JUMPI JUMPDEST PUSH0 PUSH0 REVERT JUMPDEST PUSH2 0xA4 PUSH1 0x4 DUP1 CALLDATASIZE SUB DUP2 ADD SWAP1 PUSH2 0x9F SWAP2 SWAP1 PUSH2 0x9CF JUMP JUMPDEST PUSH2 0x19C JUMP JUMPDEST STOP JUMPDEST PUSH2 0xC0 PUSH1 0x4 DUP1 CALLDATASIZE SUB DUP2 ADD SWAP1 PUSH2 0xBB SWAP2 SWAP1 PUSH2 0x9CF JUMP JUMPDEST PUSH2 0x2D7 JUMP JUMPDEST PUSH1 0x40 MLOAD PUSH2 0xCE SWAP3 SWAP2 SWAP1 PUSH2 0xA21 JUMP JUMPDEST PUSH1 0x40 MLOAD DUP1 SWAP2 SUB SWAP1 RETURN JUMPDEST PUSH2 0xDF PUSH2 0x306 JUMP JUMPDEST PUSH1 0x40 MLOAD PUSH2 0xEC SWAP2 SWAP1 PUSH2 0xA87 JUMP JUMPDEST PUSH1 0x40 MLOAD DUP1 SWAP2 SUB SWAP1 RETURN JUMPDEST PUSH2 0x10F PUSH1 0x4 DUP1 CALLDATASIZE SUB DUP2 ADD SWAP1 PUSH2 0x10A SWAP2 SWAP1 PUSH2 0xACA JUMP JUMPDEST PUSH2 0x32A JUMP JUMPDEST STOP JUMPDEST PUSH2 0x119 PUSH2 0x6AF JUMP JUMPDEST PUSH1 0x40 MLOAD PUSH2 0x126 SWAP2 SWAP1 PUSH2 0xAF5 JUMP JUMPDEST PUSH1 0x40 MLOAD DUP1 SWAP2 SUB SWAP1 RETURN JUMPDEST PUSH2 0x149 PUSH1 0x4 DUP1 CALLDATASIZE SUB DUP2 ADD SWAP1 PUSH2 0x144 SWAP2 SWAP1 PUSH2 0xACA JUMP JUMPDEST PUSH2 0x72D JUMP JUMPDEST STOP JUMPDEST PUSH2 0x165 PUSH1 0x4 DUP1 CALLDATASIZE SUB DUP2 ADD SWAP1 PUSH2 0x160 SWAP2 SWAP1 PUSH2 0xACA JUMP JUMPDEST PUSH2 0x910 JUMP JUMPDEST PUSH1 0x40 MLOAD PUSH2 0x175 SWAP5 SWAP4 SWAP3 SWAP2 SWAP1 PUSH2 0xB28 JUMP JUMPDEST PUSH1 0x40 MLOAD DUP1 SWAP2 SUB SWAP1 RETURN JUMPDEST PUSH2 0x186 PUSH2 0x968 JUMP JUMPDEST PUSH1 0x40 MLOAD PUSH2 0x193 SWAP2 SWAP1 PUSH2 0xB6B JUMP JUMPDEST PUSH1 0x40 MLOAD DUP1 SWAP2 SUB SWAP1 RETURN JUMPDEST PUSH0 PUSH1 0x1 PUSH0 CALLER PUSH20 0xFFFFFFFFFFFFFFFFFFFFFFFFFFFFFFFFFFFFFFFF AND PUSH20 0xFFFFFFFFFFFFFFFFFFFFFFFFFFFFFFFFFFFFFFFF AND DUP2 MSTORE PUSH1 0x20 ADD SWAP1 DUP2 MSTORE PUSH1 0x20 ADD PUSH0 KECCAK256 SWAP1 POP PUSH0 DUP2 PUSH0 ADD SLOAD SUB PUSH2 0x221 JUMPI PUSH1 0x40 MLOAD PUSH32 0x8C379A000000000000000000000000000000000000000000000000000000000 DUP2 MSTORE PUSH1 0x4 ADD PUSH2 0x218 SWAP1 PUSH2 0xBDE JUMP JUMPDEST PUSH1 0x40 MLOAD DUP1 SWAP2 SUB SWAP1 REVERT JUMPDEST DUP1 PUSH1 0x1 ADD PUSH0 SWAP1 SLOAD SWAP1 PUSH2 0x100 EXP SWAP1 DIV PUSH1 0xFF AND ISZERO PUSH2 0x272 JUMPI PUSH1 0x40 MLOAD PUSH32 0x8C379A000000000000000000000000000000000000000000000000000000000 DUP2 MSTORE PUSH1 0x4 ADD PUSH2 0x269 SWAP1 PUSH2 0xC46 JUMP JUMPDEST PUSH1 0x40 MLOAD DUP1 SWAP2 SUB SWAP1 REVERT JUMPDEST PUSH1 0x1 DUP2 PUSH1 0x1 ADD PUSH0 PUSH2 0x100 EXP DUP2 SLOAD DUP2 PUSH1 0xFF MUL NOT AND SWAP1 DUP4 ISZERO ISZERO MUL OR SWAP1 SSTORE POP DUP2 DUP2 PUSH1 0x2 ADD DUP2 SWAP1 SSTORE POP DUP1 PUSH0 ADD SLOAD PUSH1 0x2 DUP4 DUP2 SLOAD DUP2 LT PUSH2 0x2AF JUMPI PUSH2 0x2AE PUSH2 0xC64 JUMP JUMPDEST JUMPDEST SWAP1 PUSH0 MSTORE PUSH1 0x20 PUSH0 KECCAK256 SWAP1 PUSH1 0x2 MUL ADD PUSH1 0x1 ADD PUSH0 DUP3 DUP3 SLOAD PUSH2 0x2CC SWAP2 SWAP1 PUSH2 0xCBE JUMP JUMPDEST SWAP3 POP POP DUP2 SWAP1 SSTORE POP POP POP JUMP JUMPDEST PUSH1 0x2 DUP2 DUP2 SLOAD DUP2 LT PUSH2 0x2E6 JUMPI PUSH0 DUP1 REVERT JUMPDEST SWAP1 PUSH0 MSTORE PUSH1 0x20 PUSH0 KECCAK256 SWAP1 PUSH1 0x2 MUL ADD PUSH0 SWAP2 POP SWAP1 POP DUP1 PUSH0 ADD SLOAD SWAP1 DUP1 PUSH1 0x1 ADD SLOAD SWAP1 POP DUP3 JUMP JUMPDEST PUSH0 PUSH0 SWAP1 SLOAD SWAP1 PUSH2 0x100 EXP SWAP1 DIV PUSH20 0xFFFFFFFFFFFFFFFFFFFFFFFFFFFFFFFFFFFFFFFF AND DUP2 JUMP JUMPDEST PUSH0 PUSH1 0x1 PUSH0 CALLER PUSH20 0xFFFFFFFFFFFFFFFFFFFFFFFFFFFFFFFFFFFFFFFF AND PUSH20 0xFFFFFFFFFFFFFFFFFFFFFFFFFFFFFFFFFFFFFFFF AND DUP2 MSTORE PUSH1 0x20 ADD SWAP1 DUP2 MSTORE PUSH1 0x20 ADD PUSH0 KECCAK256 SWAP1 POP DUP1 PUSH1 0x1 ADD PUSH0 SWAP1 SLOAD SWAP1 PUSH2 0x100 EXP SWAP1 DIV PUSH1 0xFF AND ISZERO PUSH2 0x3BB JUMPI PUSH1 0x40 MLOAD PUSH32 0x8C379A000000000000000000000000000000000000000000000000000000000 DUP2 MSTORE PUSH1 0x4 ADD PUSH2 0x3B2 SWAP1 PUSH2 0xD3B JUMP JUMPDEST PUSH1 0x40 MLOAD DUP1 SWAP2 SUB SWAP1 REVERT JUMPDEST CALLER PUSH20 0xFFFFFFFFFFFFFFFFFFFFFFFFFFFFFFFFFFFFFFFF AND DUP3 PUSH20 0xFFFFFFFFFFFFFFFFFFFFFFFFFFFFFFFFFFFFFFFF AND SUB PUSH2 0x429 JUMPI PUSH1 0x40 MLOAD PUSH32 0x8C379A000000000000000000000000000000000000000000000000000000000 DUP2 MSTORE PUSH1 0x4 ADD PUSH2 0x420 SWAP1 PUSH2 0xDA3 JUMP JUMPDEST PUSH1 0x40 MLOAD DUP1 SWAP2 SUB SWAP1 REVERT JUMPDEST JUMPDEST PUSH0 PUSH20 0xFFFFFFFFFFFFFFFFFFFFFFFFFFFFFFFFFFFFFFFF AND PUSH1 0x1 PUSH0 DUP5 PUSH20 0xFFFFFFFFFFFFFFFFFFFFFFFFFFFFFFFFFFFFFFFF AND PUSH20 0xFFFFFFFFFFFFFFFFFFFFFFFFFFFFFFFFFFFFFFFF AND DUP2 MSTORE PUSH1 0x20 ADD SWAP1 DUP2 MSTORE PUSH1 0x20 ADD PUSH0 KECCAK256 PUSH1 0x1 ADD PUSH1 0x1 SWAP1 SLOAD SWAP1 PUSH2 0x100 EXP SWAP1 DIV PUSH20 0xFFFFFFFFFFFFFFFFFFFFFFFFFFFFFFFFFFFFFFFF AND PUSH20 0xFFFFFFFFFFFFFFFFFFFFFFFFFFFFFFFFFFFFFFFF AND EQ PUSH2 0x593 JUMPI PUSH1 0x1 PUSH0 DUP4 PUSH20 0xFFFFFFFFFFFFFFFFFFFFFFFFFFFFFFFFFFFFFFFF AND PUSH20 0xFFFFFFFFFFFFFFFFFFFFFFFFFFFFFFFFFFFFFFFF AND DUP2 MSTORE PUSH1 0x20 ADD SWAP1 DUP2 MSTORE PUSH1 0x20 ADD PUSH0 KECCAK256 PUSH1 0x1 ADD PUSH1 0x1 SWAP1 SLOAD SWAP1 PUSH2 0x100 EXP SWAP1 DIV PUSH20 0xFFFFFFFFFFFFFFFFFFFFFFFFFFFFFFFFFFFFFFFF AND SWAP2 POP CALLER PUSH20 0xFFFFFFFFFFFFFFFFFFFFFFFFFFFFFFFFFFFFFFFF AND DUP3 PUSH20 0xFFFFFFFFFFFFFFFFFFFFFFFFFFFFFFFFFFFFFFFF AND SUB PUSH2 0x58E JUMPI PUSH1 0x40 MLOAD PUSH32 0x8C379A000000000000000000000000000000000000000000000000000000000 DUP2 MSTORE PUSH1 0x4 ADD PUSH2 0x585 SWAP1 PUSH2 0xE0B JUMP JUMPDEST PUSH1 0x40 MLOAD DUP1 SWAP2 SUB SWAP1 REVERT JUMPDEST PUSH2 0x42A JUMP JUMPDEST PUSH1 0x1 DUP2 PUSH1 0x1 ADD PUSH0 PUSH2 0x100 EXP DUP2 SLOAD DUP2 PUSH1 0xFF MUL NOT AND SWAP1 DUP4 ISZERO ISZERO MUL OR SWAP1 SSTORE POP DUP2 DUP2 PUSH1 0x1 ADD PUSH1 0x1 PUSH2 0x100 EXP DUP2 SLOAD DUP2 PUSH20 0xFFFFFFFFFFFFFFFFFFFFFFFFFFFFFFFFFFFFFFFF MUL NOT AND SWAP1 DUP4 PUSH20 0xFFFFFFFFFFFFFFFFFFFFFFFFFFFFFFFFFFFFFFFF AND MUL OR SWAP1 SSTORE POP PUSH0 PUSH1 0x1 PUSH0 DUP5 PUSH20 0xFFFFFFFFFFFFFFFFFFFFFFFFFFFFFFFFFFFFFFFF AND PUSH20 0xFFFFFFFFFFFFFFFFFFFFFFFFFFFFFFFFFFFFFFFF AND DUP2 MSTORE PUSH1 0x20 ADD SWAP1 DUP2 MSTORE PUSH1 0x20 ADD PUSH0 KECCAK256 SWAP1 POP DUP1 PUSH1 0x1 ADD PUSH0 SWAP1 SLOAD SWAP1 PUSH2 0x100 EXP SWAP1 DIV PUSH1 0xFF AND ISZERO PUSH2 0x68D JUMPI DUP2 PUSH0 ADD SLOAD PUSH1 0x2 DUP3 PUSH1 0x2 ADD SLOAD DUP2 SLOAD DUP2 LT PUSH2 0x664 JUMPI PUSH2 0x663 PUSH2 0xC64 JUMP JUMPDEST JUMPDEST SWAP1 PUSH0 MSTORE PUSH1 0x20 PUSH0 KECCAK256 SWAP1 PUSH1 0x2 MUL ADD PUSH1 0x1 ADD PUSH0 DUP3 DUP3 SLOAD PUSH2 0x681 SWAP2 SWAP1 PUSH2 0xCBE JUMP JUMPDEST SWAP3 POP POP DUP2 SWAP1 SSTORE POP PUSH2 0x6AA JUMP JUMPDEST DUP2 PUSH0 ADD SLOAD DUP2 PUSH0 ADD PUSH0 DUP3 DUP3 SLOAD PUSH2 0x6A2 SWAP2 SWAP1 PUSH2 0xCBE JUMP JUMPDEST SWAP3 POP POP DUP2 SWAP1 SSTORE POP JUMPDEST POP POP POP JUMP JUMPDEST PUSH0 PUSH0 PUSH0 SWAP1 POP PUSH0 PUSH0 SWAP1 POP JUMPDEST PUSH1 0x2 DUP1 SLOAD SWAP1 POP DUP2 LT ISZERO PUSH2 0x728 JUMPI DUP2 PUSH1 0x2 DUP3 DUP2 SLOAD DUP2 LT PUSH2 0x6DB JUMPI PUSH2 0x6DA PUSH2 0xC64 JUMP JUMPDEST JUMPDEST SWAP1 PUSH0 MSTORE PUSH1 0x20 PUSH0 KECCAK256 SWAP1 PUSH1 0x2 MUL ADD PUSH1 0x1 ADD SLOAD GT ISZERO PUSH2 0x71B JUMPI PUSH1 0x2 DUP2 DUP2 SLOAD DUP2 LT PUSH2 0x705 JUMPI PUSH2 0x704 PUSH2 0xC64 JUMP JUMPDEST JUMPDEST SWAP1 PUSH0 MSTORE PUSH1 0x20 PUSH0 KECCAK256 SWAP1 PUSH1 0x2 MUL ADD PUSH1 0x1 ADD SLOAD SWAP2 POP DUP1 SWAP3 POP JUMPDEST DUP1 DUP1 PUSH1 0x1 ADD SWAP2 POP POP PUSH2 0x6B9 JUMP JUMPDEST POP POP SWAP1 JUMP JUMPDEST PUSH0 PUSH0 SWAP1 SLOAD SWAP1 PUSH2 0x100 EXP SWAP1 DIV PUSH20 0xFFFFFFFFFFFFFFFFFFFFFFFFFFFFFFFFFFFFFFFF AND PUSH20 0xFFFFFFFFFFFFFFFFFFFFFFFFFFFFFFFFFFFFFFFF AND CALLER PUSH20 0xFFFFFFFFFFFFFFFFFFFFFFFFFFFFFFFFFFFFFFFF AND EQ PUSH2 0x7BB JUMPI PUSH1 0x40 MLOAD PUSH32 0x8C379A000000000000000000000000000000000000000000000000000000000 DUP2 MSTORE PUSH1 0x4 ADD PUSH2 0x7B2 SWAP1 PUSH2 0xE99 JUMP JUMPDEST PUSH1 0x40 MLOAD DUP1 SWAP2 SUB SWAP1 REVERT JUMPDEST PUSH1 0x1 PUSH0 DUP3 PUSH20 0xFFFFFFFFFFFFFFFFFFFFFFFFFFFFFFFFFFFFFFFF AND PUSH20 0xFFFFFFFFFFFFFFFFFFFFFFFFFFFFFFFFFFFFFFFF AND DUP2 MSTORE PUSH1 0x20 ADD SWAP1 DUP2 MSTORE PUSH1 0x20 ADD PUSH0 KECCAK256 PUSH1 0x1 ADD PUSH0 SWAP1 SLOAD SWAP1 PUSH2 0x100 EXP SWAP1 DIV PUSH1 0xFF AND ISZERO PUSH2 0x848 JUMPI PUSH1 0x40 MLOAD PUSH32 0x8C379A000000000000000000000000000000000000000000000000000000000 DUP2 MSTORE PUSH1 0x4 ADD PUSH2 0x83F SWAP1 PUSH2 0xF01 JUMP JUMPDEST PUSH1 0x40 MLOAD DUP1 SWAP2 SUB SWAP1 REVERT JUMPDEST PUSH0 PUSH1 0x1 PUSH0 DUP4 PUSH20 0xFFFFFFFFFFFFFFFFFFFFFFFFFFFFFFFFFFFFFFFF AND PUSH20 0xFFFFFFFFFFFFFFFFFFFFFFFFFFFFFFFFFFFFFFFF AND DUP2 MSTORE PUSH1 0x20 ADD SWAP1 DUP2 MSTORE PUSH1 0x20 ADD PUSH0 KECCAK256 PUSH0 ADD SLOAD EQ PUSH2 0x8C9 JUMPI PUSH1 0x40 MLOAD PUSH32 0x8C379A000000000000000000000000000000000000000000000000000000000 DUP2 MSTORE PUSH1 0x4 ADD PUSH2 0x8C0 SWAP1 PUSH2 0xF69 JUMP JUMPDEST PUSH1 0x40 MLOAD DUP1 SWAP2 SUB SWAP1 REVERT JUMPDEST PUSH1 0x1 DUP1 PUSH0 DUP4 PUSH20 0xFFFFFFFFFFFFFFFFFFFFFFFFFFFFFFFFFFFFFFFF AND PUSH20 0xFFFFFFFFFFFFFFFFFFFFFFFFFFFFFFFFFFFFFFFF AND DUP2 MSTORE PUSH1 0x20 ADD SWAP1 DUP2 MSTORE PUSH1 0x20 ADD PUSH0 KECCAK256 PUSH0 ADD DUP2 SWAP1 SSTORE POP POP JUMP JUMPDEST PUSH1 0x1 PUSH1 0x20 MSTORE DUP1 PUSH0 MSTORE PUSH1 0x40 PUSH0 KECCAK256 PUSH0 SWAP2 POP SWAP1 POP DUP1 PUSH0 ADD SLOAD SWAP1 DUP1 PUSH1 0x1 ADD PUSH0 SWAP1 SLOAD SWAP1 PUSH2 0x100 EXP SWAP1 DIV PUSH1 0xFF AND SWAP1 DUP1 PUSH1 0x1 ADD PUSH1 0x1 SWAP1 SLOAD SWAP1 PUSH2 0x100 EXP SWAP1 DIV PUSH20 0xFFFFFFFFFFFFFFFFFFFFFFFFFFFFFFFFFFFFFFFF AND SWAP1 DUP1 PUSH1 0x2 ADD SLOAD SWAP1 POP DUP5 JUMP JUMPDEST PUSH0 PUSH1 0x2 PUSH2 0x973 PUSH2 0x6AF JUMP JUMPDEST DUP2 SLOAD DUP2 LT PUSH2 0x984 JUMPI PUSH2 0x983 PUSH2 0xC64 JUMP JUMPDEST JUMPDEST SWAP1 PUSH0 MSTORE PUSH1 0x20 PUSH0 KECCAK256 SWAP1 PUSH1 0x2 MUL ADD PUSH0 ADD SLOAD SWAP1 POP SWAP1 JUMP JUMPDEST PUSH0 PUSH0 REVERT JUMPDEST PUSH0 DUP2 SWAP1 POP SWAP2 SWAP1 POP JUMP JUMPDEST PUSH2 0x9AE DUP2 PUSH2 0x99C JUMP JUMPDEST DUP2 EQ PUSH2 0x9B8 JUMPI PUSH0 PUSH0 REVERT JUMPDEST POP JUMP JUMPDEST PUSH0 DUP2 CALLDATALOAD SWAP1 POP PUSH2 0x9C9 DUP2 PUSH2 0x9A5 JUMP JUMPDEST SWAP3 SWAP2 POP POP JUMP JUMPDEST PUSH0 PUSH1 0x20 DUP3 DUP5 SUB SLT ISZERO PUSH2 0x9E4 JUMPI PUSH2 0x9E3 PUSH2 0x998 JUMP JUMPDEST JUMPDEST PUSH0 PUSH2 0x9F1 DUP5 DUP3 DUP6 ADD PUSH2 0x9BB JUMP JUMPDEST SWAP2 POP POP SWAP3 SWAP2 POP POP JUMP JUMPDEST PUSH0 DUP2 SWAP1 POP SWAP2 SWAP1 POP JUMP JUMPDEST PUSH2 0xA0C DUP2 PUSH2 0x9FA JUMP JUMPDEST DUP3 MSTORE POP POP JUMP JUMPDEST PUSH2 0xA1B DUP2 PUSH2 0x99C JUMP JUMPDEST DUP3 MSTORE POP POP JUMP JUMPDEST PUSH0 PUSH1 0x40 DUP3 ADD SWAP1 POP PUSH2 0xA34 PUSH0 DUP4 ADD DUP6 PUSH2 0xA03 JUMP JUMPDEST PUSH2 0xA41 PUSH1 0x20 DUP4 ADD DUP5 PUSH2 0xA12 JUMP JUMPDEST SWAP4 SWAP3 POP POP POP JUMP JUMPDEST PUSH0 PUSH20 0xFFFFFFFFFFFFFFFFFFFFFFFFFFFFFFFFFFFFFFFF DUP3 AND SWAP1 POP SWAP2 SWAP1 POP JUMP JUMPDEST PUSH0 PUSH2 0xA71 DUP3 PUSH2 0xA48 JUMP JUMPDEST SWAP1 POP SWAP2 SWAP1 POP JUMP JUMPDEST PUSH2 0xA81 DUP2 PUSH2 0xA67 JUMP JUMPDEST DUP3 MSTORE POP POP JUMP JUMPDEST PUSH0 PUSH1 0x20 DUP3 ADD SWAP1 POP PUSH2 0xA9A PUSH0 DUP4 ADD DUP5 PUSH2 0xA78 JUMP JUMPDEST SWAP3 SWAP2 POP POP JUMP JUMPDEST PUSH2 0xAA9 DUP2 PUSH2 0xA67 JUMP JUMPDEST DUP2 EQ PUSH2 0xAB3 JUMPI PUSH0 PUSH0 REVERT JUMPDEST POP JUMP JUMPDEST PUSH0 DUP2 CALLDATALOAD SWAP1 POP PUSH2 0xAC4 DUP2 PUSH2 0xAA0 JUMP JUMPDEST SWAP3 SWAP2 POP POP JUMP JUMPDEST PUSH0 PUSH1 0x20 DUP3 DUP5 SUB SLT ISZERO PUSH2 0xADF JUMPI PUSH2 0xADE PUSH2 0x998 JUMP JUMPDEST JUMPDEST PUSH0 PUSH2 0xAEC DUP5 DUP3 DUP6 ADD PUSH2 0xAB6 JUMP JUMPDEST SWAP2 POP POP SWAP3 SWAP2 POP POP JUMP JUMPDEST PUSH0 PUSH1 0x20 DUP3 ADD SWAP1 POP PUSH2 0xB08 PUSH0 DUP4 ADD DUP5 PUSH2 0xA12 JUMP JUMPDEST SWAP3 SWAP2 POP POP JUMP JUMPDEST PUSH0 DUP2 ISZERO ISZERO SWAP1 POP SWAP2 SWAP1 POP JUMP JUMPDEST PUSH2 0xB22 DUP2 PUSH2 0xB0E JUMP JUMPDEST DUP3 MSTORE POP POP JUMP JUMPDEST PUSH0 PUSH1 0x80 DUP3 ADD SWAP1 POP PUSH2 0xB3B PUSH0 DUP4 ADD DUP8 PUSH2 0xA12 JUMP JUMPDEST PUSH2 0xB48 PUSH1 0x20 DUP4 ADD DUP7 PUSH2 0xB19 JUMP JUMPDEST PUSH2 0xB55 PUSH1 0x40 DUP4 ADD DUP6 PUSH2 0xA78 JUMP JUMPDEST PUSH2 0xB62 PUSH1 0x60 DUP4 ADD DUP5 PUSH2 0xA12 JUMP JUMPDEST SWAP6 SWAP5 POP POP POP POP POP JUMP JUMPDEST PUSH0 PUSH1 0x20 DUP3 ADD SWAP1 POP PUSH2 0xB7E PUSH0 DUP4 ADD DUP5 PUSH2 0xA03 JUMP JUMPDEST SWAP3 SWAP2 POP POP JUMP JUMPDEST PUSH0 DUP3 DUP3 MSTORE PUSH1 0x20 DUP3 ADD SWAP1 POP SWAP3 SWAP2 POP POP JUMP JUMPDEST PUSH32 0x486173206E6F20726967687420746F20766F74652E0000000000000000000000 PUSH0 DUP3 ADD MSTORE POP JUMP JUMPDEST PUSH0 PUSH2 0xBC8 PUSH1 0x15 DUP4 PUSH2 0xB84 JUMP JUMPDEST SWAP2 POP PUSH2 0xBD3 DUP3 PUSH2 0xB94 JUMP JUMPDEST PUSH1 0x20 DUP3 ADD SWAP1 POP SWAP2 SWAP1 POP JUMP JUMPDEST PUSH0 PUSH1 0x20 DUP3 ADD SWAP1 POP DUP2 DUP2 SUB PUSH0 DUP4 ADD MSTORE PUSH2 0xBF5 DUP2 PUSH2 0xBBC JUMP JUMPDEST SWAP1 POP SWAP2 SWAP1 POP JUMP JUMPDEST PUSH32 0x416C726561647920766F7465642E000000000000000000000000000000000000 PUSH0 DUP3 ADD MSTORE POP JUMP JUMPDEST PUSH0 PUSH2 0xC30 PUSH1 0xE DUP4 PUSH2 0xB84 JUMP JUMPDEST SWAP2 POP PUSH2 0xC3B DUP3 PUSH2 0xBFC JUMP JUMPDEST PUSH1 0x20 DUP3 ADD SWAP1 POP SWAP2 SWAP1 POP JUMP JUMPDEST PUSH0 PUSH1 0x20 DUP3 ADD SWAP1 POP DUP2 DUP2 SUB PUSH0 DUP4 ADD MSTORE PUSH2 0xC5D DUP2 PUSH2 0xC24 JUMP JUMPDEST SWAP1 POP SWAP2 SWAP1 POP JUMP JUMPDEST PUSH32 0x4E487B7100000000000000000000000000000000000000000000000000000000 PUSH0 MSTORE PUSH1 0x32 PUSH1 0x4 MSTORE PUSH1 0x24 PUSH0 REVERT JUMPDEST PUSH32 0x4E487B7100000000000000000000000000000000000000000000000000000000 PUSH0 MSTORE PUSH1 0x11 PUSH1 0x4 MSTORE PUSH1 0x24 PUSH0 REVERT JUMPDEST PUSH0 PUSH2 0xCC8 DUP3 PUSH2 0x99C JUMP JUMPDEST SWAP2 POP PUSH2 0xCD3 DUP4 PUSH2 0x99C JUMP JUMPDEST SWAP3 POP DUP3 DUP3 ADD SWAP1 POP DUP1 DUP3 GT ISZERO PUSH2 0xCEB JUMPI PUSH2 0xCEA PUSH2 0xC91 JUMP JUMPDEST JUMPDEST SWAP3 SWAP2 POP POP JUMP JUMPDEST PUSH32 0x596F7520616C726561647920766F7465642E0000000000000000000000000000 PUSH0 DUP3 ADD MSTORE POP JUMP JUMPDEST PUSH0 PUSH2 0xD25 PUSH1 0x12 DUP4 PUSH2 0xB84 JUMP JUMPDEST SWAP2 POP PUSH2 0xD30 DUP3 PUSH2 0xCF1 JUMP JUMPDEST PUSH1 0x20 DUP3 ADD SWAP1 POP SWAP2 SWAP1 POP JUMP JUMPDEST PUSH0 PUSH1 0x20 DUP3 ADD SWAP1 POP DUP2 DUP2 SUB PUSH0 DUP4 ADD MSTORE PUSH2 0xD52 DUP2 PUSH2 0xD19 JUMP JUMPDEST SWAP1 POP SWAP2 SWAP1 POP JUMP JUMPDEST PUSH32 0x53656C662D64656C65676174696F6E20697320646973616C6C6F7765642E0000 PUSH0 DUP3 ADD MSTORE POP JUMP JUMPDEST PUSH0 PUSH2 0xD8D PUSH1 0x1E DUP4 PUSH2 0xB84 JUMP JUMPDEST SWAP2 POP PUSH2 0xD98 DUP3 PUSH2 0xD59 JUMP JUMPDEST PUSH1 0x20 DUP3 ADD SWAP1 POP SWAP2 SWAP1 POP JUMP JUMPDEST PUSH0 PUSH1 0x20 DUP3 ADD SWAP1 POP DUP2 DUP2 SUB PUSH0 DUP4 ADD MSTORE PUSH2 0xDBA DUP2 PUSH2 0xD81 JUMP JUMPDEST SWAP1 POP SWAP2 SWAP1 POP JUMP JUMPDEST PUSH32 0x466F756E64206C6F6F7020696E2064656C65676174696F6E2E00000000000000 PUSH0 DUP3 ADD MSTORE POP JUMP JUMPDEST PUSH0 PUSH2 0xDF5 PUSH1 0x19 DUP4 PUSH2 0xB84 JUMP JUMPDEST SWAP2 POP PUSH2 0xE00 DUP3 PUSH2 0xDC1 JUMP JUMPDEST PUSH1 0x20 DUP3 ADD SWAP1 POP SWAP2 SWAP1 POP JUMP JUMPDEST PUSH0 PUSH1 0x20 DUP3 ADD SWAP1 POP DUP2 DUP2 SUB PUSH0 DUP4 ADD MSTORE PUSH2 0xE22 DUP2 PUSH2 0xDE9 JUMP JUMPDEST SWAP1 POP SWAP2 SWAP1 POP JUMP JUMPDEST PUSH32 0x4F6E6C79206368616972706572736F6E2063616E206769766520726967687420 PUSH0 DUP3 ADD MSTORE PUSH32 0x746F20766F74652E000000000000000000000000000000000000000000000000 PUSH1 0x20 DUP3 ADD MSTORE POP JUMP JUMPDEST PUSH0 PUSH2 0xE83 PUSH1 0x28 DUP4 PUSH2 0xB84 JUMP JUMPDEST SWAP2 POP PUSH2 0xE8E DUP3 PUSH2 0xE29 JUMP JUMPDEST PUSH1 0x40 DUP3 ADD SWAP1 POP SWAP2 SWAP1 POP JUMP JUMPDEST PUSH0 PUSH1 0x20 DUP3 ADD SWAP1 POP DUP2 DUP2 SUB PUSH0 DUP4 ADD MSTORE PUSH2 0xEB0 DUP2 PUSH2 0xE77 JUMP JUMPDEST SWAP1 POP SWAP2 SWAP1 POP JUMP JUMPDEST PUSH32 0x54686520766F74657220616C726561647920766F7465642E0000000000000000 PUSH0 DUP3 ADD MSTORE POP JUMP JUMPDEST PUSH0 PUSH2 0xEEB PUSH1 0x18 DUP4 PUSH2 0xB84 JUMP JUMPDEST SWAP2 POP PUSH2 0xEF6 DUP3 PUSH2 0xEB7 JUMP JUMPDEST PUSH1 0x20 DUP3 ADD SWAP1 POP SWAP2 SWAP1 POP JUMP JUMPDEST PUSH0 PUSH1 0x20 DUP3 ADD SWAP1 POP DUP2 DUP2 SUB PUSH0 DUP4 ADD MSTORE PUSH2 0xF18 DUP2 PUSH2 0xEDF JUMP JUMPDEST SWAP1 POP SWAP2 SWAP1 POP JUMP JUMPDEST PUSH32 0x566F74657220616C72656164792068617320726967687420746F20766F74652E PUSH0 DUP3 ADD MSTORE POP JUMP JUMPDEST PUSH0 PUSH2 0xF53 PUSH1 0x20 DUP4 PUSH2 0xB84 JUMP JUMPDEST SWAP2 POP PUSH2 0xF5E DUP3 PUSH2 0xF1F JUMP JUMPDEST PUSH1 0x20 DUP3 ADD SWAP1 POP SWAP2 SWAP1 POP JUMP JUMPDEST PUSH0 PUSH1 0x20 DUP3 ADD SWAP1 POP DUP2 DUP2 SUB PUSH0 DUP4 ADD MSTORE PUSH2 0xF80 DUP2 PUSH2 0xF47 JUMP JUMPDEST SWAP1 POP SWAP2 SWAP1 POP JUMP INVALID LOG2 PUSH5 0x6970667358 0x22 SLT KECCAK256 XOR 0x23 NUMBER INVALID LOG4 PUSH19 0x1F351CDAE920D5DDA056FD63F67096750E197B 0xD6 0xCF REVERT 0x2F JUMPI 0xAD PUSH17 0x64736F6C63430008220033A26469706673 PC 0x22 SLT KECCAK256 POP 0xC8 0xDB DUP10 CALLDATACOPY ISZERO PUSH31 0xCA38697A825A16575528C040ED58C860ACEC203596C2E29B164736F6C6343 STOP ADDMOD 0x22 STOP CALLER "
	},
	"Assembly": ".code\n  PUSH 80\t\t\tcontract BallotTest {\\n    byt...\n  PUSH 40\t\t\tcontract BallotTest {\\n    byt...\n  MSTORE \t\t\tcontract BallotTest {\\n    byt...\n  CALLVALUE \t\t\tcontract BallotTest {\\n    byt...\n  DUP1 \t\t\tcontract BallotTest {\\n    byt...\n  ISZERO \t\t\tcontract BallotTest {\\n    byt...\n  PUSH [tag] 1\t\t\tcontract BallotTest {\\n    byt...\n  JUMPI \t\t\tcontract BallotTest {\\n    byt...\n  PUSH 0\t\t\tcontract BallotTest {\\n    byt...\n  PUSH 0\t\t\tcontract BallotTest {\\n    byt...\n  REVERT \t\t\tcontract BallotTest {\\n    byt...\ntag 1\t\t\tcontract BallotTest {\\n    byt...\n  JUMPDEST \t\t\tcontract BallotTest {\\n    byt...\n  POP \t\t\tcontract BallotTest {\\n    byt...\n  PUSH #[$] 0000000000000000000000000000000000000000000000000000000000000000\t\t\tcontract BallotTest {\\n    byt...\n  DUP1 \t\t\tcontract BallotTest {\\n    byt...\n  PUSH [$] 0000000000000000000000000000000000000000000000000000000000000000\t\t\tcontract BallotTest {\\n    byt...\n  PUSH 0\t\t\tcontract BallotTest {\\n    byt...\n  CODECOPY \t\t\tcontract BallotTest {\\n    byt...\n  PUSH 0\t\t\tcontract BallotTest {\\n    byt...\n  RETURN \t\t\tcontract BallotTest {\\n    byt...\n.data\n  0:\n    .code\n      PUSH 80\t\t\tcontract BallotTest {\\n    byt...\n      PUSH 40\t\t\tcontract BallotTest {\\n    byt...\n      MSTORE \t\t\tcontract BallotTest {\\n    byt...\n      CALLVALUE \t\t\tcontract BallotTest {\\n    byt...\n      DUP1 \t\t\tcontract BallotTest {\\n    byt...\n      ISZERO \t\t\tcontract BallotTest {\\n    byt...\n      PUSH [tag] 1\t\t\tcontract BallotTest {\\n    byt...\n      JUMPI \t\t\tcontract BallotTest {\\n    byt...\n      PUSH 0\t\t\tcontract BallotTest {\\n    byt...\n      PUSH 0\t\t\tcontract BallotTest {\\n    byt...\n      REVERT \t\t\tcontract BallotTest {\\n    byt...\n    tag 1\t\t\tcontract BallotTest {\\n    byt...\n      JUMPDEST \t\t\tcontract BallotTest {\\n    byt...\n      POP \t\t\tcontract BallotTest {\\n    byt...\n      PUSH 4\t\t\tcontract BallotTest {\\n    byt...\n      CALLDATASIZE \t\t\tcontract BallotTest {\\n    byt...\n      LT \t\t\tcontract BallotTest {\\n    byt...\n      PUSH [tag] 2\t\t\tcontract BallotTest {\\n    byt...\n      JUMPI \t\t\tcontract BallotTest {\\n    byt...\n      PUSH 0\t\t\tcontract BallotTest {\\n    byt...\n      CALLDATALOAD \t\t\tcontract BallotTest {\\n    byt...\n      PUSH E0\t\t\tcontract BallotTest {\\n    byt...\n      SHR \t\t\tcontract BallotTest {\\n    byt...\n      DUP1 \t\t\tcontract BallotTest {\\n    byt...\n      PUSH 3439C57B\t\t\tcontract BallotTest {\\n    byt...\n      EQ \t\t\tcontract BallotTest {\\n    byt...\n      PUSH [tag] 3\t\t\tcontract BallotTest {\\n    byt...\n      JUMPI \t\t\tcontract BallotTest {\\n    byt...\n      DUP1 \t\t\tcontract BallotTest {\\n    byt...\n      PUSH 7FEA0D4B\t\t\tcontract BallotTest {\\n    byt...\n      EQ \t\t\tcontract BallotTest {\\n    byt...\n      PUSH [tag] 4\t\t\tcontract BallotTest {\\n    byt...\n      JUMPI \t\t\tcontract BallotTest {\\n    byt...\n      DUP1 \t\t\tcontract BallotTest {\\n    byt...\n      PUSH ED2BEE10\t\t\tcontract BallotTest {\\n    byt...\n      EQ \t\t\tcontract BallotTest {\\n    byt...\n      PUSH [tag] 5\t\t\tcontract BallotTest {\\n    byt...\n      JUMPI \t\t\tcontract BallotTest {\\n    byt...\n    tag 2\t\t\tcontract BallotTest {\\n    byt...\n      JUMPDEST \t\t\tcontract BallotTest {\\n    byt...\n      PUSH 0\t\t\tcontract BallotTest {\\n    byt...\n      PUSH 0\t\t\tcontract BallotTest {\\n    byt...\n      REVERT \t\t\tcontract BallotTest {\\n    byt...\n    tag 3\t\t\tfunction checkWinninProposalWi...\n      JUMPDEST \t\t\tfunction checkWinninProposalWi...\n      PUSH [tag] 6\t\t\tfunction checkWinninProposalWi...\n      PUSH [tag] 7\t\t\tfunction checkWinninProposalWi...\n      JUMP \t\t\tfunction checkWinninProposalWi...\n    tag 6\t\t\tfunction checkWinninProposalWi...\n      JUMPDEST \t\t\tfunction checkWinninProposalWi...\n      PUSH 40\t\t\tfunction checkWinninProposalWi...\n      MLOAD \t\t\tfunction checkWinninProposalWi...\n      PUSH [tag] 8\t\t\tfunction checkWinninProposalWi...\n      SWAP2 \t\t\tfunction checkWinninProposalWi...\n      SWAP1 \t\t\tfunction checkWinninProposalWi...\n      PUSH [tag] 9\t\t\tfunction checkWinninProposalWi...\n      JUMP \t\t\tfunction checkWinninProposalWi...\n    tag 8\t\t\tfunction checkWinninProposalWi...\n      JUMPDEST \t\t\tfunction checkWinninProposalWi...\n      PUSH 40\t\t\tfunction checkWinninProposalWi...\n      MLOAD \t\t\tfunction checkWinninProposalWi...\n      DUP1 \t\t\tfunction checkWinninProposalWi...\n      SWAP2 \t\t\tfunction checkWinninProposalWi...\n      SUB \t\t\tfunction checkWinninProposalWi...\n      SWAP1 \t\t\tfunction checkWinninProposalWi...\n      RETURN \t\t\tfunction checkWinninProposalWi...\n    tag 4\t\t\tfunction beforeAll() public {\\...\n      JUMPDEST \t\t\tfunction beforeAll() public {\\...\n      PUSH [tag] 10\t\t\tfunction beforeAll() public {\\...\n      PUSH [tag] 11\t\t\tfunction beforeAll() public {\\...\n      JUMP \t\t\tfunction beforeAll() public {\\...\n    tag 10\t\t\tfunction beforeAll() public {\\...\n      JUMPDEST \t\t\tfunction beforeAll() public {\\...\n      STOP \t\t\tfunction beforeAll() public {\\...\n    tag 5\t\t\tfunction checkWinningProposal(...\n      JUMPDEST \t\t\tfunction checkWinningProposal(...\n      PUSH [tag] 12\t\t\tfunction checkWinningProposal(...\n      PUSH [tag] 13\t\t\tfunction checkWinningProposal(...\n      JUMP \t\t\tfunction checkWinningProposal(...\n    tag 12\t\t\tfunction checkWinningProposal(...\n      JUMPDEST \t\t\tfunction checkWinningProposal(...\n      STOP \t\t\tfunction checkWinningProposal(...\n    tag 7\t\t\tfunction checkWinninProposalWi...\n      JUMPDEST \t\t\tfunction checkWinninProposalWi...\n      PUSH 0\t\t\tbool\n      PUSH 0\t\t\t0\n      PUSH 1\t\t\tballotToTest\n      PUSH 0\t\t\tballotToTest\n      SWAP1 \t\t\tballotToTest\n      SLOAD \t\t\tballotToTest\n      SWAP1 \t\t\tballotToTest\n      PUSH 100\t\t\tballotToTest\n      EXP \t\t\tballotToTest\n      SWAP1 \t\t\tballotToTest\n      DIV \t\t\tballotToTest\n      PUSH FFFFFFFFFFFFFFFFFFFFFFFFFFFFFFFFFFFFFFFF\t\t\tballotToTest\n      AND \t\t\tballotToTest\n      PUSH FFFFFFFFFFFFFFFFFFFFFFFFFFFFFFFFFFFFFFFF\t\t\tballotToTest.winningProposal\n      AND \t\t\tballotToTest.winningProposal\n      PUSH 609FF1BD\t\t\tballotToTest.winningProposal\n      PUSH 40\t\t\tballotToTest.winningProposal()\n      MLOAD \t\t\tballotToTest.winningProposal()\n      DUP2 \t\t\tballotToTest.winningProposal()\n      PUSH FFFFFFFF\t\t\tballotToTest.winningProposal()\n      AND \t\t\tballotToTest.winningProposal()\n      PUSH E0\t\t\tballotToTest.winningProposal()\n      SHL \t\t\tballotToTest.winningProposal()\n      DUP2 \t\t\tballotToTest.winningProposal()\n      MSTORE \t\t\tballotToTest.winningProposal()\n      PUSH 4\t\t\tballotToTest.winningProposal()\n      ADD \t\t\tballotToTest.winningProposal()\n      PUSH 20\t\t\tballotToTest.winningProposal()\n      PUSH 40\t\t\tballotToTest.winningProposal()\n      MLOAD \t\t\tballotToTest.winningProposal()\n      DUP1 \t\t\tballotToTest.winningProposal()\n      DUP4 \t\t\tballotToTest.winningProposal()\n      SUB \t\t\tballotToTest.winningProposal()\n      DUP2 \t\t\tballotToTest.winningProposal()\n      DUP7 \t\t\tballotToTest.winningProposal()\n      GAS \t\t\tballotToTest.winningProposal()\n      STATICCALL \t\t\tballotToTest.winningProposal()\n      ISZERO \t\t\tballotToTest.winningProposal()\n      DUP1 \t\t\tballotToTest.winningProposal()\n      ISZERO \t\t\tballotToTest.winningProposal()\n      PUSH [tag] 16\t\t\tballotToTest.winningProposal()\n      JUMPI \t\t\tballotToTest.winningProposal()\n      RETURNDATASIZE \t\t\tballotToTest.winningProposal()\n      PUSH 0\t\t\tballotToTest.winningProposal()\n      PUSH 0\t\t\tballotToTest.winningProposal()\n      RETURNDATACOPY \t\t\tballotToTest.winningProposal()\n      RETURNDATASIZE \t\t\tballotToTest.winningProposal()\n      PUSH 0\t\t\tballotToTest.winningProposal()\n      REVERT \t\t\tballotToTest.winningProposal()\n    tag 16\t\t\tballotToTest.winningProposal()\n      JUMPDEST \t\t\tballotToTest.winningProposal()\n      POP \t\t\tballotToTest.winningProposal()\n      POP \t\t\tballotToTest.winningProposal()\n      POP \t\t\tballotToTest.winningProposal()\n      POP \t\t\tballotToTest.winningProposal()\n      PUSH 40\t\t\tballotToTest.winningProposal()\n      MLOAD \t\t\tballotToTest.winningProposal()\n      RETURNDATASIZE \t\t\tballotToTest.winningProposal()\n      PUSH 1F\t\t\tballotToTest.winningProposal()\n      NOT \t\t\tballotToTest.winningProposal()\n      PUSH 1F\t\t\tballotToTest.winningProposal()\n      DUP3 \t\t\tballotToTest.winningProposal()\n      ADD \t\t\tballotToTest.winningProposal()\n      AND \t\t\tballotToTest.winningProposal()\n      DUP3 \t\t\tballotToTest.winningProposal()\n      ADD \t\t\tballotToTest.winningProposal()\n      DUP1 \t\t\tballotToTest.winningProposal()\n      PUSH 40\t\t\tballotToTest.winningProposal()\n      MSTORE \t\t\tballotToTest.winningProposal()\n      POP \t\t\tballotToTest.winningProposal()\n      DUP2 \t\t\tballotToTest.winningProposal()\n      ADD \t\t\tballotToTest.winningProposal()\n      SWAP1 \t\t\tballotToTest.winningProposal()\n      PUSH [tag] 17\t\t\tballotToTest.winningProposal()\n      SWAP2 \t\t\tballotToTest.winningProposal()\n      SWAP1 \t\t\tballotToTest.winningProposal()\n      PUSH [tag] 18\t\t\tballotToTest.winningProposal()\n      JUMP \t\t\tballotToTest.winningProposal()\n    tag 17\t\t\tballotToTest.winningProposal()\n      JUMPDEST \t\t\tballotToTest.winningProposal()\n      EQ \t\t\tballotToTest.winningProposal()...\n      SWAP1 \t\t\treturn ballotToTest.winningPro...\n      POP \t\t\treturn ballotToTest.winningPro...\n      SWAP1 \t\t\tfunction checkWinninProposalWi...\n      JUMP \t\t\tfunction checkWinninProposalWi...\n    tag 11\t\t\tfunction beforeAll() public {\\...\n      JUMPDEST \t\t\tfunction beforeAll() public {\\...\n      PUSH 0\t\t\tproposalNames\n      PUSH 63616E6469646174653100000000000000000000000000000000000000000000\t\t\tbytes32(\"candidate1\")\n      SWAP1 \t\t\tproposalNames.push(bytes32(\"ca...\n      DUP1 \t\t\tproposalNames.push(bytes32(\"ca...\n      PUSH 1\t\t\tproposalNames.push(bytes32(\"ca...\n      DUP2 \t\t\tproposalNames.push(bytes32(\"ca...\n      SLOAD \t\t\tproposalNames.push(bytes32(\"ca...\n      ADD \t\t\tproposalNames.push(bytes32(\"ca...\n      DUP1 \t\t\tproposalNames.push(bytes32(\"ca...\n      DUP3 \t\t\tproposalNames.push(bytes32(\"ca...\n      SSTORE \t\t\tproposalNames.push(bytes32(\"ca...\n      DUP1 \t\t\tproposalNames.push(bytes32(\"ca...\n      SWAP2 \t\t\tproposalNames.push(bytes32(\"ca...\n      POP \t\t\tproposalNames.push(bytes32(\"ca...\n      POP \t\t\tproposalNames.push(bytes32(\"ca...\n      PUSH 1\t\t\tproposalNames.push(bytes32(\"ca...\n      SWAP1 \t\t\tproposalNames.push(bytes32(\"ca...\n      SUB \t\t\tproposalNames.push(bytes32(\"ca...\n      SWAP1 \t\t\tproposalNames.push(bytes32(\"ca...\n      PUSH 0\t\t\tproposalNames.push(bytes32(\"ca...\n      MSTORE \t\t\tproposalNames.push(bytes32(\"ca...\n      PUSH 20\t\t\tproposalNames.push(bytes32(\"ca...\n      PUSH 0\t\t\tproposalNames.push(bytes32(\"ca...\n      KECCAK256 \t\t\tproposalNames.push(bytes32(\"ca...\n      ADD \t\t\tproposalNames.push(bytes32(\"ca...\n      PUSH 0\t\t\tproposalNames.push(bytes32(\"ca...\n      SWAP1 \t\t\tproposalNames.push(bytes32(\"ca...\n      SWAP2 \t\t\tproposalNames.push(bytes32(\"ca...\n      SWAP1 \t\t\tproposalNames.push(bytes32(\"ca...\n      SWAP2 \t\t\tproposalNames.push(bytes32(\"ca...\n      SWAP1 \t\t\tproposalNames.push(bytes32(\"ca...\n      SWAP2 \t\t\tproposalNames.push(bytes32(\"ca...\n      POP \t\t\tproposalNames.push(bytes32(\"ca...\n      SSTORE \t\t\tproposalNames.push(bytes32(\"ca...\n      PUSH 0\t\t\tproposalNames\n      PUSH 40\t\t\tnew Ballot(proposalNames)\n      MLOAD \t\t\tnew Ballot(proposalNames)\n      PUSH [tag] 21\t\t\tnew Ballot(proposalNames)\n      SWAP1 \t\t\tnew Ballot(proposalNames)\n      PUSH [tag] 22\t\t\tnew Ballot(proposalNames)\n      JUMP \t\t\tnew Ballot(proposalNames)\n    tag 21\t\t\tnew Ballot(proposalNames)\n      JUMPDEST \t\t\tnew Ballot(proposalNames)\n      PUSH [tag] 23\t\t\tnew Ballot(proposalNames)\n      SWAP2 \t\t\tnew Ballot(proposalNames)\n      SWAP1 \t\t\tnew Ballot(proposalNames)\n      PUSH [tag] 24\t\t\tnew Ballot(proposalNames)\n      JUMP \t\t\tnew Ballot(proposalNames)\n    tag 23\t\t\tnew Ballot(proposalNames)\n      JUMPDEST \t\t\tnew Ballot(proposalNames)\n      PUSH 40\t\t\tnew Ballot(proposalNames)\n      MLOAD \t\t\tnew Ballot(proposalNames)\n      DUP1 \t\t\tnew Ballot(proposalNames)\n      SWAP2 \t\t\tnew Ballot(proposalNames)\n      SUB \t\t\tnew Ballot(proposalNames)\n      SWAP1 \t\t\tnew Ballot(proposalNames)\n      PUSH 0\t\t\tnew Ballot(proposalNames)\n      CREATE \t\t\tnew Ballot(proposalNames)\n      DUP1 \t\t\tnew Ballot(proposalNames)\n      ISZERO \t\t\tnew Ballot(proposalNames)\n      DUP1 \t\t\tnew Ballot(proposalNames)\n      ISZERO \t\t\tnew Ballot(proposalNames)\n      PUSH [tag] 25\t\t\tnew Ballot(proposalNames)\n      JUMPI \t\t\tnew Ballot(proposalNames)\n      RETURNDATASIZE \t\t\tnew Ballot(proposalNames)\n      PUSH 0\t\t\tnew Ballot(proposalNames)\n      PUSH 0\t\t\tnew Ballot(proposalNames)\n      RETURNDATACOPY \t\t\tnew Ballot(proposalNames)\n      RETURNDATASIZE \t\t\tnew Ballot(proposalNames)\n      PUSH 0\t\t\tnew Ballot(proposalNames)\n      REVERT \t\t\tnew Ballot(proposalNames)\n    tag 25\t\t\tnew Ballot(proposalNames)\n      JUMPDEST \t\t\tnew Ballot(proposalNames)\n      POP \t\t\tnew Ballot(proposalNames)\n      PUSH 1\t\t\tballotToTest\n      PUSH 0\t\t\tballotToTest\n      PUSH 100\t\t\tballotToTest = new Ballot(prop...\n      EXP \t\t\tballotToTest = new Ballot(prop...\n      DUP2 \t\t\tballotToTest = new Ballot(prop...\n      SLOAD \t\t\tballotToTest = new Ballot(prop...\n      DUP2 \t\t\tballotToTest = new Ballot(prop...\n      PUSH FFFFFFFFFFFFFFFFFFFFFFFFFFFFFFFFFFFFFFFF\t\t\tballotToTest = new Ballot(prop...\n      MUL \t\t\tballotToTest = new Ballot(prop...\n      NOT \t\t\tballotToTest = new Ballot(prop...\n      AND \t\t\tballotToTest = new Ballot(prop...\n      SWAP1 \t\t\tballotToTest = new Ballot(prop...\n      DUP4 \t\t\tballotToTest = new Ballot(prop...\n      PUSH FFFFFFFFFFFFFFFFFFFFFFFFFFFFFFFFFFFFFFFF\t\t\tballotToTest = new Ballot(prop...\n      AND \t\t\tballotToTest = new Ballot(prop...\n      MUL \t\t\tballotToTest = new Ballot(prop...\n      OR \t\t\tballotToTest = new Ballot(prop...\n      SWAP1 \t\t\tballotToTest = new Ballot(prop...\n      SSTORE \t\t\tballotToTest = new Ballot(prop...\n      POP \t\t\tballotToTest = new Ballot(prop...\n      JUMP \t\t\tfunction beforeAll() public {\\...\n    tag 13\t\t\tfunction checkWinningProposal(...\n      JUMPDEST \t\t\tfunction checkWinningProposal(...\n      PUSH 1\t\t\tballotToTest\n      PUSH 0\t\t\tballotToTest\n      SWAP1 \t\t\tballotToTest\n      SLOAD \t\t\tballotToTest\n      SWAP1 \t\t\tballotToTest\n      PUSH 100\t\t\tballotToTest\n      EXP \t\t\tballotToTest\n      SWAP1 \t\t\tballotToTest\n      DIV \t\t\tballotToTest\n      PUSH FFFFFFFFFFFFFFFFFFFFFFFFFFFFFFFFFFFFFFFF\t\t\tballotToTest\n      AND \t\t\tballotToTest\n      PUSH FFFFFFFFFFFFFFFFFFFFFFFFFFFFFFFFFFFFFFFF\t\t\tballotToTest.vote\n      AND \t\t\tballotToTest.vote\n      PUSH 121B93F\t\t\tballotToTest.vote\n      PUSH 0\t\t\t0\n      PUSH 40\t\t\tballotToTest.vote(0)\n      MLOAD \t\t\tballotToTest.vote(0)\n      DUP3 \t\t\tballotToTest.vote(0)\n      PUSH FFFFFFFF\t\t\tballotToTest.vote(0)\n      AND \t\t\tballotToTest.vote(0)\n      PUSH E0\t\t\tballotToTest.vote(0)\n      SHL \t\t\tballotToTest.vote(0)\n      DUP2 \t\t\tballotToTest.vote(0)\n      MSTORE \t\t\tballotToTest.vote(0)\n      PUSH 4\t\t\tballotToTest.vote(0)\n      ADD \t\t\tballotToTest.vote(0)\n      PUSH [tag] 27\t\t\tballotToTest.vote(0)\n      SWAP2 \t\t\tballotToTest.vote(0)\n      SWAP1 \t\t\tballotToTest.vote(0)\n      PUSH [tag] 28\t\t\tballotToTest.vote(0)\n      JUMP \t\t\tballotToTest.vote(0)\n    tag 27\t\t\tballotToTest.vote(0)\n      JUMPDEST \t\t\tballotToTest.vote(0)\n      PUSH 0\t\t\tballotToTest.vote(0)\n      PUSH 40\t\t\tballotToTest.vote(0)\n      MLOAD \t\t\tballotToTest.vote(0)\n      DUP1 \t\t\tballotToTest.vote(0)\n      DUP4 \t\t\tballotToTest.vote(0)\n      SUB \t\t\tballotToTest.vote(0)\n      DUP2 \t\t\tballotToTest.vote(0)\n      PUSH 0\t\t\tballotToTest.vote(0)\n      DUP8 \t\t\tballotToTest.vote(0)\n      DUP1 \t\t\tballotToTest.vote(0)\n      EXTCODESIZE \t\t\tballotToTest.vote(0)\n      ISZERO \t\t\tballotToTest.vote(0)\n      DUP1 \t\t\tballotToTest.vote(0)\n      ISZERO \t\t\tballotToTest.vote(0)\n      PUSH [tag] 29\t\t\tballotToTest.vote(0)\n      JUMPI \t\t\tballotToTest.vote(0)\n      PUSH 0\t\t\tballotToTest.vote(0)\n      PUSH 0\t\t\tballotToTest.vote(0)\n      REVERT \t\t\tballotToTest.vote(0)\n    tag 29\t\t\tballotToTest.vote(0)\n      JUMPDEST \t\t\tballotToTest.vote(0)\n      POP \t\t\tballotToTest.vote(0)\n      GAS \t\t\tballotToTest.vote(0)\n      CALL \t\t\tballotToTest.vote(0)\n      ISZERO \t\t\tballotToTest.vote(0)\n      DUP1 \t\t\tballotToTest.vote(0)\n      ISZERO \t\t\tballotToTest.vote(0)\n      PUSH [tag] 31\t\t\tballotToTest.vote(0)\n      JUMPI \t\t\tballotToTest.vote(0)\n      RETURNDATASIZE \t\t\tballotToTest.vote(0)\n      PUSH 0\t\t\tballotToTest.vote(0)\n      PUSH 0\t\t\tballotToTest.vote(0)\n      RETURNDATACOPY \t\t\tballotToTest.vote(0)\n      RETURNDATASIZE \t\t\tballotToTest.vote(0)\n      PUSH 0\t\t\tballotToTest.vote(0)\n      REVERT \t\t\tballotToTest.vote(0)\n    tag 31\t\t\tballotToTest.vote(0)\n      JUMPDEST \t\t\tballotToTest.vote(0)\n      POP \t\t\tballotToTest.vote(0)\n      POP \t\t\tballotToTest.vote(0)\n      POP \t\t\tballotToTest.vote(0)\n      POP \t\t\tballotToTest.vote(0)\n      PUSHLIB remix_tests.sol:Assert\t\t\tAssert\n      PUSH ABCD7960\t\t\tAssert.equal\n      PUSH 1\t\t\tballotToTest\n      PUSH 0\t\t\tballotToTest\n      SWAP1 \t\t\tballotToTest\n      SLOAD \t\t\tballotToTest\n      SWAP1 \t\t\tballotToTest\n      PUSH 100\t\t\tballotToTest\n      EXP \t\t\tballotToTest\n      SWAP1 \t\t\tballotToTest\n      DIV \t\t\tballotToTest\n      PUSH FFFFFFFFFFFFFFFFFFFFFFFFFFFFFFFFFFFFFFFF\t\t\tballotToTest\n      AND \t\t\tballotToTest\n      PUSH FFFFFFFFFFFFFFFFFFFFFFFFFFFFFFFFFFFFFFFF\t\t\tballotToTest.winningProposal\n      AND \t\t\tballotToTest.winningProposal\n      PUSH 609FF1BD\t\t\tballotToTest.winningProposal\n      PUSH 40\t\t\tballotToTest.winningProposal()\n      MLOAD \t\t\tballotToTest.winningProposal()\n      DUP2 \t\t\tballotToTest.winningProposal()\n      PUSH FFFFFFFF\t\t\tballotToTest.winningProposal()\n      AND \t\t\tballotToTest.winningProposal()\n      PUSH E0\t\t\tballotToTest.winningProposal()\n      SHL \t\t\tballotToTest.winningProposal()\n      DUP2 \t\t\tballotToTest.winningProposal()\n      MSTORE \t\t\tballotToTest.winningProposal()\n      PUSH 4\t\t\tballotToTest.winningProposal()\n      ADD \t\t\tballotToTest.winningProposal()\n      PUSH 20\t\t\tballotToTest.winningProposal()\n      PUSH 40\t\t\tballotToTest.winningProposal()\n      MLOAD \t\t\tballotToTest.winningProposal()\n      DUP1 \t\t\tballotToTest.winningProposal()\n      DUP4 \t\t\tballotToTest.winningProposal()\n      SUB \t\t\tballotToTest.winningProposal()\n      DUP2 \t\t\tballotToTest.winningProposal()\n      DUP7 \t\t\tballotToTest.winningProposal()\n      GAS \t\t\tballotToTest.winningProposal()\n      STATICCALL \t\t\tballotToTest.winningProposal()\n      ISZERO \t\t\tballotToTest.winningProposal()\n      DUP1 \t\t\tballotToTest.winningProposal()\n      ISZERO \t\t\tballotToTest.winningProposal()\n      PUSH [tag] 33\t\t\tballotToTest.winningProposal()\n      JUMPI \t\t\tballotToTest.winningProposal()\n      RETURNDATASIZE \t\t\tballotToTest.winningProposal()\n      PUSH 0\t\t\tballotToTest.winningProposal()\n      PUSH 0\t\t\tballotToTest.winningProposal()\n      RETURNDATACOPY \t\t\tballotToTest.winningProposal()\n      RETURNDATASIZE \t\t\tballotToTest.winningProposal()\n      PUSH 0\t\t\tballotToTest.winningProposal()\n      REVERT \t\t\tballotToTest.winningProposal()\n    tag 33\t\t\tballotToTest.winningProposal()\n      JUMPDEST \t\t\tballotToTest.winningProposal()\n      POP \t\t\tballotToTest.winningProposal()\n      POP \t\t\tballotToTest.winningProposal()\n      POP \t\t\tballotToTest.winningProposal()\n      POP \t\t\tballotToTest.winningProposal()\n      PUSH 40\t\t\tballotToTest.winningProposal()\n      MLOAD \t\t\tballotToTest.winningProposal()\n      RETURNDATASIZE \t\t\tballotToTest.winningProposal()\n      PUSH 1F\t\t\tballotToTest.winningProposal()\n      NOT \t\t\tballotToTest.winningProposal()\n      PUSH 1F\t\t\tballotToTest.winningProposal()\n      DUP3 \t\t\tballotToTest.winningProposal()\n      ADD \t\t\tballotToTest.winningProposal()\n      AND \t\t\tballotToTest.winningProposal()\n      DUP3 \t\t\tballotToTest.winningProposal()\n      ADD \t\t\tballotToTest.winningProposal()\n      DUP1 \t\t\tballotToTest.winningProposal()\n      PUSH 40\t\t\tballotToTest.winningProposal()\n      MSTORE \t\t\tballotToTest.winningProposal()\n      POP \t\t\tballotToTest.winningProposal()\n      DUP2 \t\t\tballotToTest.winningProposal()\n      ADD \t\t\tballotToTest.winningProposal()\n      SWAP1 \t\t\tballotToTest.winningProposal()\n      PUSH [tag] 34\t\t\tballotToTest.winningProposal()\n      SWAP2 \t\t\tballotToTest.winningProposal()\n      SWAP1 \t\t\tballotToTest.winningProposal()\n      PUSH [tag] 18\t\t\tballotToTest.winningProposal()\n      JUMP \t\t\tballotToTest.winningProposal()\n    tag 34\t\t\tballotToTest.winningProposal()\n      JUMPDEST \t\t\tballotToTest.winningProposal()\n      PUSH 0\t\t\t0\n      PUSH 40\t\t\tAssert.equal(ballotToTest.winn...\n      MLOAD \t\t\tAssert.equal(ballotToTest.winn...\n      DUP4 \t\t\tAssert.equal(ballotToTest.winn...\n      PUSH FFFFFFFF\t\t\tAssert.equal(ballotToTest.winn...\n      AND \t\t\tAssert.equal(ballotToTest.winn...\n      PUSH E0\t\t\tAssert.equal(ballotToTest.winn...\n      SHL \t\t\tAssert.equal(ballotToTest.winn...\n      DUP2 \t\t\tAssert.equal(ballotToTest.winn...\n      MSTORE \t\t\tAssert.equal(ballotToTest.winn...\n      PUSH 4\t\t\tAssert.equal(ballotToTest.winn...\n      ADD \t\t\tAssert.equal(ballotToTest.winn...\n      PUSH [tag] 35\t\t\tAssert.equal(ballotToTest.winn...\n      SWAP3 \t\t\tAssert.equal(ballotToTest.winn...\n      SWAP2 \t\t\tAssert.equal(ballotToTest.winn...\n      SWAP1 \t\t\tAssert.equal(ballotToTest.winn...\n      PUSH [tag] 36\t\t\tAssert.equal(ballotToTest.winn...\n      JUMP \t\t\tAssert.equal(ballotToTest.winn...\n    tag 35\t\t\tAssert.equal(ballotToTest.winn...\n      JUMPDEST \t\t\tAssert.equal(ballotToTest.winn...\n      PUSH 20\t\t\tAssert.equal(ballotToTest.winn...\n      PUSH 40\t\t\tAssert.equal(ballotToTest.winn...\n      MLOAD \t\t\tAssert.equal(ballotToTest.winn...\n      DUP1 \t\t\tAssert.equal(ballotToTest.winn...\n      DUP4 \t\t\tAssert.equal(ballotToTest.winn...\n      SUB \t\t\tAssert.equal(ballotToTest.winn...\n      DUP2 \t\t\tAssert.equal(ballotToTest.winn...\n      DUP7 \t\t\tAssert.equal(ballotToTest.winn...\n      GAS \t\t\tAssert.equal(ballotToTest.winn...\n      DELEGATECALL \t\t\tAssert.equal(ballotToTest.winn...\n      ISZERO \t\t\tAssert.equal(ballotToTest.winn...\n      DUP1 \t\t\tAssert.equal(ballotToTest.winn...\n      ISZERO \t\t\tAssert.equal(ballotToTest.winn...\n      PUSH [tag] 38\t\t\tAssert.equal(ballotToTest.winn...\n      JUMPI \t\t\tAssert.equal(ballotToTest.winn...\n      RETURNDATASIZE \t\t\tAssert.equal(ballotToTest.winn...\n      PUSH 0\t\t\tAssert.equal(ballotToTest.winn...\n      PUSH 0\t\t\tAssert.equal(ballotToTest.winn...\n      RETURNDATACOPY \t\t\tAssert.equal(ballotToTest.winn...\n      RETURNDATASIZE \t\t\tAssert.equal(ballotToTest.winn...\n      PUSH 0\t\t\tAssert.equal(ballotToTest.winn...\n      REVERT \t\t\tAssert.equal(ballotToTest.winn...\n    tag 38\t\t\tAssert.equal(ballotToTest.winn...\n      JUMPDEST \t\t\tAssert.equal(ballotToTest.winn...\n      POP \t\t\tAssert.equal(ballotToTest.winn...\n      POP \t\t\tAssert.equal(ballotToTest.winn...\n      POP \t\t\tAssert.equal(ballotToTest.winn...\n      POP \t\t\tAssert.equal(ballotToTest.winn...\n      PUSH 40\t\t\tAssert.equal(ballotToTest.winn...\n      MLOAD \t\t\tAssert.equal(ballotToTest.winn...\n      RETURNDATASIZE \t\t\tAssert.equal(ballotToTest.winn...\n      PUSH 1F\t\t\tAssert.equal(ballotToTest.winn...\n      NOT \t\t\tAssert.equal(ballotToTest.winn...\n      PUSH 1F\t\t\tAssert.equal(ballotToTest.winn...\n      DUP3 \t\t\tAssert.equal(ballotToTest.winn...\n      ADD \t\t\tAssert.equal(ballotToTest.winn...\n      AND \t\t\tAssert.equal(ballotToTest.winn...\n      DUP3 \t\t\tAssert.equal(ballotToTest.winn...\n      ADD \t\t\tAssert.equal(ballotToTest.winn...\n      DUP1 \t\t\tAssert.equal(ballotToTest.winn...\n      PUSH 40\t\t\tAssert.equal(ballotToTest.winn...\n      MSTORE \t\t\tAssert.equal(ballotToTest.winn...\n      POP \t\t\tAssert.equal(ballotToTest.winn...\n      DUP2 \t\t\tAssert.equal(ballotToTest.winn...\n      ADD \t\t\tAssert.equal(ballotToTest.winn...\n      SWAP1 \t\t\tAssert.equal(ballotToTest.winn...\n      PUSH [tag] 39\t\t\tAssert.equal(ballotToTest.winn...\n      SWAP2 \t\t\tAssert.equal(ballotToTest.winn...\n      SWAP1 \t\t\tAssert.equal(ballotToTest.winn...\n      PUSH [tag] 40\t\t\tAssert.equal(ballotToTest.winn...\n      JUMP \t\t\tAssert.equal(ballotToTest.winn...\n    tag 39\t\t\tAssert.equal(ballotToTest.winn...\n      JUMPDEST \t\t\tAssert.equal(ballotToTest.winn...\n      POP \t\t\tAssert.equal(ballotToTest.winn...\n      PUSHLIB remix_tests.sol:Assert\t\t\tAssert\n      PUSH EA79DD79\t\t\tAssert.equal\n      PUSH 1\t\t\tballotToTest\n      PUSH 0\t\t\tballotToTest\n      SWAP1 \t\t\tballotToTest\n      SLOAD \t\t\tballotToTest\n      SWAP1 \t\t\tballotToTest\n      PUSH 100\t\t\tballotToTest\n      EXP \t\t\tballotToTest\n      SWAP1 \t\t\tballotToTest\n      DIV \t\t\tballotToTest\n      PUSH FFFFFFFFFFFFFFFFFFFFFFFFFFFFFFFFFFFFFFFF\t\t\tballotToTest\n      AND \t\t\tballotToTest\n      PUSH FFFFFFFFFFFFFFFFFFFFFFFFFFFFFFFFFFFFFFFF\t\t\tballotToTest.winnerName\n      AND \t\t\tballotToTest.winnerName\n      PUSH E2BA53F0\t\t\tballotToTest.winnerName\n      PUSH 40\t\t\tballotToTest.winnerName()\n      MLOAD \t\t\tballotToTest.winnerName()\n      DUP2 \t\t\tballotToTest.winnerName()\n      PUSH FFFFFFFF\t\t\tballotToTest.winnerName()\n      AND \t\t\tballotToTest.winnerName()\n      PUSH E0\t\t\tballotToTest.winnerName()\n      SHL \t\t\tballotToTest.winnerName()\n      DUP2 \t\t\tballotToTest.winnerName()\n      MSTORE \t\t\tballotToTest.winnerName()\n      PUSH 4\t\t\tballotToTest.winnerName()\n      ADD \t\t\tballotToTest.winnerName()\n      PUSH 20\t\t\tballotToTest.winnerName()\n      PUSH 40\t\t\tballotToTest.winnerName()\n      MLOAD \t\t\tballotToTest.winnerName()\n      DUP1 \t\t\tballotToTest.winnerName()\n      DUP4 \t\t\tballotToTest.winnerName()\n      SUB \t\t\tballotToTest.winnerName()\n      DUP2 \t\t\tballotToTest.winnerName()\n      DUP7 \t\t\tballotToTest.winnerName()\n      GAS \t\t\tballotToTest.winnerName()\n      STATICCALL \t\t\tballotToTest.winnerName()\n      ISZERO \t\t\tballotToTest.winnerName()\n      DUP1 \t\t\tballotToTest.winnerName()\n      ISZERO \t\t\tballotToTest.winnerName()\n      PUSH [tag] 42\t\t\tballotToTest.winnerName()\n      JUMPI \t\t\tballotToTest.winnerName()\n      RETURNDATASIZE \t\t\tballotToTest.winnerName()\n      PUSH 0\t\t\tballotToTest.winnerName()\n      PUSH 0\t\t\tballotToTest.winnerName()\n      RETURNDATACOPY \t\t\tballotToTest.winnerName()\n      RETURNDATASIZE \t\t\tballotToTest.winnerName()\n      PUSH 0\t\t\tballotToTest.winnerName()\n      REVERT \t\t\tballotToTest.winnerName()\n    tag 42\t\t\tballotToTest.winnerName()\n      JUMPDEST \t\t\tballotToTest.winnerName()\n      POP \t\t\tballotToTest.winnerName()\n      POP \t\t\tballotToTest.winnerName()\n      POP \t\t\tballotToTest.winnerName()\n      POP \t\t\tballotToTest.winnerName()\n      PUSH 40\t\t\tballotToTest.winnerName()\n      MLOAD \t\t\tballotToTest.winnerName()\n      RETURNDATASIZE \t\t\tballotToTest.winnerName()\n      PUSH 1F\t\t\tballotToTest.winnerName()\n      NOT \t\t\tballotToTest.winnerName()\n      PUSH 1F\t\t\tballotToTest.winnerName()\n      DUP3 \t\t\tballotToTest.winnerName()\n      ADD \t\t\tballotToTest.winnerName()\n      AND \t\t\tballotToTest.winnerName()\n      DUP3 \t\t\tballotToTest.winnerName()\n      ADD \t\t\tballotToTest.winnerName()\n      DUP1 \t\t\tballotToTest.winnerName()\n      PUSH 40\t\t\tballotToTest.winnerName()\n      MSTORE \t\t\tballotToTest.winnerName()\n      POP \t\t\tballotToTest.winnerName()\n      DUP2 \t\t\tballotToTest.winnerName()\n      ADD \t\t\tballotToTest.winnerName()\n      SWAP1 \t\t\tballotToTest.winnerName()\n      PUSH [tag] 43\t\t\tballotToTest.winnerName()\n      SWAP2 \t\t\tballotToTest.winnerName()\n      SWAP1 \t\t\tballotToTest.winnerName()\n      PUSH [tag] 44\t\t\tballotToTest.winnerName()\n      JUMP \t\t\tballotToTest.winnerName()\n    tag 43\t\t\tballotToTest.winnerName()\n      JUMPDEST \t\t\tballotToTest.winnerName()\n      PUSH 63616E6469646174653100000000000000000000000000000000000000000000\t\t\tbytes32(\"candidate1\")\n      PUSH 40\t\t\tAssert.equal(ballotToTest.winn...\n      MLOAD \t\t\tAssert.equal(ballotToTest.winn...\n      DUP4 \t\t\tAssert.equal(ballotToTest.winn...\n      PUSH FFFFFFFF\t\t\tAssert.equal(ballotToTest.winn...\n      AND \t\t\tAssert.equal(ballotToTest.winn...\n      PUSH E0\t\t\tAssert.equal(ballotToTest.winn...\n      SHL \t\t\tAssert.equal(ballotToTest.winn...\n      DUP2 \t\t\tAssert.equal(ballotToTest.winn...\n      MSTORE \t\t\tAssert.equal(ballotToTest.winn...\n      PUSH 4\t\t\tAssert.equal(ballotToTest.winn...\n      ADD \t\t\tAssert.equal(ballotToTest.winn...\n      PUSH [tag] 45\t\t\tAssert.equal(ballotToTest.winn...\n      SWAP3 \t\t\tAssert.equal(ballotToTest.winn...\n      SWAP2 \t\t\tAssert.equal(ballotToTest.winn...\n      SWAP1 \t\t\tAssert.equal(ballotToTest.winn...\n      PUSH [tag] 46\t\t\tAssert.equal(ballotToTest.winn...\n      JUMP \t\t\tAssert.equal(ballotToTest.winn...\n    tag 45\t\t\tAssert.equal(ballotToTest.winn...\n      JUMPDEST \t\t\tAssert.equal(ballotToTest.winn...\n      PUSH 20\t\t\tAssert.equal(ballotToTest.winn...\n      PUSH 40\t\t\tAssert.equal(ballotToTest.winn...\n      MLOAD \t\t\tAssert.equal(ballotToTest.winn...\n      DUP1 \t\t\tAssert.equal(ballotToTest.winn...\n      DUP4 \t\t\tAssert.equal(ballotToTest.winn...\n      SUB \t\t\tAssert.equal(ballotToTest.winn...\n      DUP2 \t\t\tAssert.equal(ballotToTest.winn...\n      DUP7 \t\t\tAssert.equal(ballotToTest.winn...\n      GAS \t\t\tAssert.equal(ballotToTest.winn...\n      DELEGATECALL \t\t\tAssert.equal(ballotToTest.winn...\n      ISZERO \t\t\tAssert.equal(ballotToTest.winn...\n      DUP1 \t\t\tAssert.equal(ballotToTest.winn...\n      ISZERO \t\t\tAssert.equal(ballotToTest.winn...\n      PUSH [tag] 48\t\t\tAssert.equal(ballotToTest.winn...\n      JUMPI \t\t\tAssert.equal(ballotToTest.winn...\n      RETURNDATASIZE \t\t\tAssert.equal(ballotToTest.winn...\n      PUSH 0\t\t\tAssert.equal(ballotToTest.winn...\n      PUSH 0\t\t\tAssert.equal(ballotToTest.winn...\n      RETURNDATACOPY \t\t\tAssert.equal(ballotToTest.winn...\n      RETURNDATASIZE \t\t\tAssert.equal(ballotToTest.winn...\n      PUSH 0\t\t\tAssert.equal(ballotToTest.winn...\n      REVERT \t\t\tAssert.equal(ballotToTest.winn...\n    tag 48\t\t\tAssert.equal(ballotToTest.winn...\n      JUMPDEST \t\t\tAssert.equal(ballotToTest.winn...\n      POP \t\t\tAssert.equal(ballotToTest.winn...\n      POP \t\t\tAssert.equal(ballotToTest.winn...\n      POP \t\t\tAssert.equal(ballotToTest.winn...\n      POP \t\t\tAssert.equal(ballotToTest.winn...\n      PUSH 40\t\t\tAssert.equal(ballotToTest.winn...\n      MLOAD \t\t\tAssert.equal(ballotToTest.winn...\n      RETURNDATASIZE \t\t\tAssert.equal(ballotToTest.winn...\n      PUSH 1F\t\t\tAssert.equal(ballotToTest.winn...\n      NOT \t\t\tAssert.equal(ballotToTest.winn...\n      PUSH 1F\t\t\tAssert.equal(ballotToTest.winn...\n      DUP3 \t\t\tAssert.equal(ballotToTest.winn...\n      ADD \t\t\tAssert.equal(ballotToTest.winn...\n      AND \t\t\tAssert.equal(ballotToTest.winn...\n      DUP3 \t\t\tAssert.equal(ballotToTest.winn...\n      ADD \t\t\tAssert.equal(ballotToTest.winn...\n      DUP1 \t\t\tAssert.equal(ballotToTest.winn...\n      PUSH 40\t\t\tAssert.equal(ballotToTest.winn...\n      MSTORE \t\t\tAssert.equal(ballotToTest.winn...\n      POP \t\t\tAssert.equal(ballotToTest.winn...\n      DUP2 \t\t\tAssert.equal(ballotToTest.winn...\n      ADD \t\t\tAssert.equal(ballotToTest.winn...\n      SWAP1 \t\t\tAssert.equal(ballotToTest.winn...\n      PUSH [tag] 49\t\t\tAssert.equal(ballotToTest.winn...\n      SWAP2 \t\t\tAssert.equal(ballotToTest.winn...\n      SWAP1 \t\t\tAssert.equal(ballotToTest.winn...\n      PUSH [tag] 40\t\t\tAssert.equal(ballotToTest.winn...\n      JUMP \t\t\tAssert.equal(ballotToTest.winn...\n    tag 49\t\t\tAssert.equal(ballotToTest.winn...\n      JUMPDEST \t\t\tAssert.equal(ballotToTest.winn...\n      POP \t\t\tAssert.equal(ballotToTest.winn...\n      JUMP \t\t\tfunction checkWinningProposal(...\n    tag 22\t\t\t\n      JUMPDEST \t\t\t\n      PUSH #[$] 0000000000000000000000000000000000000000000000000000000000000000\t\t\t\n      DUP1 \t\t\t\n      PUSH [$] 0000000000000000000000000000000000000000000000000000000000000000\t\t\t\n      DUP4 \t\t\t\n      CODECOPY \t\t\t\n      ADD \t\t\t\n      SWAP1 \t\t\t\n      JUMP \t\t\t\n    tag 50\t\t\t-License-Identifier: GPL-3.0\\n...\n      JUMPDEST \t\t\t-License-Identifier: GPL-3.0\\n...\n      PUSH 0\t\t\ta solid\n      DUP2 \t\t\tests.\n      ISZERO \t\t\tremix_tests.s\n      ISZERO \t\t\tmport \"remix_tests.so\n      SWAP1 \t\t\t <0.9.0;\\n\\nimport \"remix_test...\n      POP \t\t\t <0.9.0;\\n\\nimport \"remix_test...\n      SWAP2 \t\t\t-License-Identifier: GPL-3.0\\n...\n      SWAP1 \t\t\t-License-Identifier: GPL-3.0\\n...\n      POP \t\t\t-License-Identifier: GPL-3.0\\n...\n      JUMP \t\t\t-License-Identifier: GPL-3.0\\n...\n    tag 51\t\t\t../contracts/3_Ballot.sol\";\\n\\...\n      JUMPDEST \t\t\t../contracts/3_Ballot.sol\";\\n\\...\n      PUSH [tag] 88\t\t\t   Ballot ballotToTes\n      DUP2 \t\t\ttToTe\n      PUSH [tag] 50\t\t\t   Ballot ballotToTes\n      JUMP \t\t\t   Ballot ballotToTes\n    tag 88\t\t\t   Ballot ballotToTes\n      JUMPDEST \t\t\t   Ballot ballotToTes\n      DUP3 \t\t\tes;\n      MSTORE \t\t\tosalNames;\\n    Ballot ballotT...\n      POP \t\t\t../contracts/3_Ballot.sol\";\\n\\...\n      POP \t\t\t../contracts/3_Ballot.sol\";\\n\\...\n      JUMP \t\t\t../contracts/3_Ballot.sol\";\\n\\...\n    tag 9\t\t\tion beforeAll() public {\\n    ...\n      JUMPDEST \t\t\tion beforeAll() public {\\n    ...\n      PUSH 0\t\t\tlotT\n      PUSH 20\t\t\t\\n \n      DUP3 \t\t\tosalNames\n      ADD \t\t\tproposalNames);\\n  \n      SWAP1 \t\t\t Ballot(proposalNames);\\n  \n      POP \t\t\t Ballot(proposalNames);\\n  \n      PUSH [tag] 90\t\t\tunction checkWinningProposal()...\n      PUSH 0\t\t\to\n      DUP4 \t\t\tlotToTest\n      ADD \t\t\t ballotToTest.vot\n      DUP5 \t\t\t{\\n    \n      PUSH [tag] 51\t\t\tunction checkWinningProposal()...\n      JUMP \t\t\tunction checkWinningProposal()...\n    tag 90\t\t\tunction checkWinningProposal()...\n      JUMPDEST \t\t\tunction checkWinningProposal()...\n      SWAP3 \t\t\tion beforeAll() public {\\n    ...\n      SWAP2 \t\t\tion beforeAll() public {\\n    ...\n      POP \t\t\tion beforeAll() public {\\n    ...\n      POP \t\t\tion beforeAll() public {\\n    ...\n      JUMP \t\t\tion beforeAll() public {\\n    ...\n    tag 53\t\t\tuld be the winning proposal\");...\n      JUMPDEST \t\t\tuld be the winning proposal\");...\n      PUSH 0\t\t\ta\n      PUSH 0\t\t\td\n      REVERT \t\t\t), \"candidat\n    tag 55\t\t\tllotToTest.winningProposal() =...\n      JUMPDEST \t\t\tllotToTest.winningProposal() =...\n      PUSH 0\t\t\t  }\\n}\\n\n      DUP2 \t\t\t\n      SWAP1 \t\t\t\n      POP \t\t\t\n      SWAP2 \t\t\tllotToTest.winningProposal() =...\n      SWAP1 \t\t\tllotToTest.winningProposal() =...\n      POP \t\t\tllotToTest.winningProposal() =...\n      JUMP \t\t\tllotToTest.winningProposal() =...\n    tag 56\t\t\t\n      JUMPDEST \t\t\t\n      PUSH [tag] 96\t\t\t\n      DUP2 \t\t\t\n      PUSH [tag] 55\t\t\t\n      JUMP \t\t\t\n    tag 96\t\t\t\n      JUMPDEST \t\t\t\n      DUP2 \t\t\t\n      EQ \t\t\t\n      PUSH [tag] 97\t\t\t\n      JUMPI \t\t\t\n      PUSH 0\t\t\t\n      PUSH 0\t\t\t\n      REVERT \t\t\t\n    tag 97\t\t\t\n      JUMPDEST \t\t\t\n      POP \t\t\t\n      JUMP \t\t\t\n    tag 57\t\t\t\n      JUMPDEST \t\t\t\n      PUSH 0\t\t\t\n      DUP2 \t\t\t\n      MLOAD \t\t\t\n      SWAP1 \t\t\t\n      POP \t\t\t\n      PUSH [tag] 99\t\t\t\n      DUP2 \t\t\t\n      PUSH [tag] 56\t\t\t\n      JUMP \t\t\t\n    tag 99\t\t\t\n      JUMPDEST \t\t\t\n      SWAP3 \t\t\t\n      SWAP2 \t\t\t\n      POP \t\t\t\n      POP \t\t\t\n      JUMP \t\t\t\n    tag 18\t\t\t\n      JUMPDEST \t\t\t\n      PUSH 0\t\t\t\n      PUSH 20\t\t\t\n      DUP3 \t\t\t\n      DUP5 \t\t\t\n      SUB \t\t\t\n      SLT \t\t\t\n      ISZERO \t\t\t\n      PUSH [tag] 101\t\t\t\n      JUMPI \t\t\t\n      PUSH [tag] 102\t\t\t\n      PUSH [tag] 53\t\t\t\n      JUMP \t\t\t\n    tag 102\t\t\t\n      JUMPDEST \t\t\t\n    tag 101\t\t\t\n      JUMPDEST \t\t\t\n      PUSH 0\t\t\t\n      PUSH [tag] 103\t\t\t\n      DUP5 \t\t\t\n      DUP3 \t\t\t\n      DUP6 \t\t\t\n      ADD \t\t\t\n      PUSH [tag] 57\t\t\t\n      JUMP \t\t\t\n    tag 103\t\t\t\n      JUMPDEST \t\t\t\n      SWAP2 \t\t\t\n      POP \t\t\t\n      POP \t\t\t\n      SWAP3 \t\t\t\n      SWAP2 \t\t\t\n      POP \t\t\t\n      POP \t\t\t\n      JUMP \t\t\t\n    tag 58\t\t\t\n      JUMPDEST \t\t\t\n      PUSH 0\t\t\t\n      DUP2 \t\t\t\n      SLOAD \t\t\t\n      SWAP1 \t\t\t\n      POP \t\t\t\n      SWAP2 \t\t\t\n      SWAP1 \t\t\t\n      POP \t\t\t\n      JUMP \t\t\t\n    tag 59\t\t\t\n      JUMPDEST \t\t\t\n      PUSH 0\t\t\t\n      DUP3 \t\t\t\n      DUP3 \t\t\t\n      MSTORE \t\t\t\n      PUSH 20\t\t\t\n      DUP3 \t\t\t\n      ADD \t\t\t\n      SWAP1 \t\t\t\n      POP \t\t\t\n      SWAP3 \t\t\t\n      SWAP2 \t\t\t\n      POP \t\t\t\n      POP \t\t\t\n      JUMP \t\t\t\n    tag 60\t\t\t\n      JUMPDEST \t\t\t\n      PUSH 0\t\t\t\n      DUP2 \t\t\t\n      SWAP1 \t\t\t\n      POP \t\t\t\n      DUP2 \t\t\t\n      PUSH 0\t\t\t\n      MSTORE \t\t\t\n      PUSH 20\t\t\t\n      PUSH 0\t\t\t\n      KECCAK256 \t\t\t\n      SWAP1 \t\t\t\n      POP \t\t\t\n      SWAP2 \t\t\t\n      SWAP1 \t\t\t\n      POP \t\t\t\n      JUMP \t\t\t\n    tag 61\t\t\t\n      JUMPDEST \t\t\t\n      PUSH 0\t\t\t\n      DUP2 \t\t\t\n      SWAP1 \t\t\t\n      POP \t\t\t\n      SWAP2 \t\t\t\n      SWAP1 \t\t\t\n      POP \t\t\t\n      JUMP \t\t\t\n    tag 62\t\t\t\n      JUMPDEST \t\t\t\n      PUSH [tag] 109\t\t\t\n      DUP2 \t\t\t\n      PUSH [tag] 61\t\t\t\n      JUMP \t\t\t\n    tag 109\t\t\t\n      JUMPDEST \t\t\t\n      DUP3 \t\t\t\n      MSTORE \t\t\t\n      POP \t\t\t\n      POP \t\t\t\n      JUMP \t\t\t\n    tag 63\t\t\t\n      JUMPDEST \t\t\t\n      PUSH 0\t\t\t\n      PUSH [tag] 111\t\t\t\n      DUP4 \t\t\t\n      DUP4 \t\t\t\n      PUSH [tag] 62\t\t\t\n      JUMP \t\t\t\n    tag 111\t\t\t\n      JUMPDEST \t\t\t\n      PUSH 20\t\t\t\n      DUP4 \t\t\t\n      ADD \t\t\t\n      SWAP1 \t\t\t\n      POP \t\t\t\n      SWAP3 \t\t\t\n      SWAP2 \t\t\t\n      POP \t\t\t\n      POP \t\t\t\n      JUMP \t\t\t\n    tag 64\t\t\t\n      JUMPDEST \t\t\t\n      PUSH 0\t\t\t\n      DUP2 \t\t\t\n      PUSH 0\t\t\t\n      SHR \t\t\t\n      SWAP1 \t\t\t\n      POP \t\t\t\n      SWAP2 \t\t\t\n      SWAP1 \t\t\t\n      POP \t\t\t\n      JUMP \t\t\t\n    tag 65\t\t\t\n      JUMPDEST \t\t\t\n      PUSH 0\t\t\t\n      DUP2 \t\t\t\n      SWAP1 \t\t\t\n      POP \t\t\t\n      SWAP2 \t\t\t\n      SWAP1 \t\t\t\n      POP \t\t\t\n      JUMP \t\t\t\n    tag 66\t\t\t\n      JUMPDEST \t\t\t\n      PUSH 0\t\t\t\n      PUSH [tag] 115\t\t\t\n      PUSH [tag] 116\t\t\t\n      DUP4 \t\t\t\n      PUSH [tag] 64\t\t\t\n      JUMP \t\t\t\n    tag 116\t\t\t\n      JUMPDEST \t\t\t\n      PUSH [tag] 65\t\t\t\n      JUMP \t\t\t\n    tag 115\t\t\t\n      JUMPDEST \t\t\t\n      SWAP1 \t\t\t\n      POP \t\t\t\n      SWAP2 \t\t\t\n      SWAP1 \t\t\t\n      POP \t\t\t\n      JUMP \t\t\t\n    tag 67\t\t\t\n      JUMPDEST \t\t\t\n      PUSH 0\t\t\t\n      PUSH [tag] 118\t\t\t\n      DUP3 \t\t\t\n      SLOAD \t\t\t\n      PUSH [tag] 66\t\t\t\n      JUMP \t\t\t\n    tag 118\t\t\t\n      JUMPDEST \t\t\t\n      SWAP1 \t\t\t\n      POP \t\t\t\n      SWAP2 \t\t\t\n      SWAP1 \t\t\t\n      POP \t\t\t\n      JUMP \t\t\t\n    tag 68\t\t\t\n      JUMPDEST \t\t\t\n      PUSH 0\t\t\t\n      PUSH 1\t\t\t\n      DUP3 \t\t\t\n      ADD \t\t\t\n      SWAP1 \t\t\t\n      POP \t\t\t\n      SWAP2 \t\t\t\n      SWAP1 \t\t\t\n      POP \t\t\t\n      JUMP \t\t\t\n    tag 69\t\t\t\n      JUMPDEST \t\t\t\n      PUSH 0\t\t\t\n      PUSH [tag] 121\t\t\t\n      DUP3 \t\t\t\n      PUSH [tag] 58\t\t\t\n      JUMP \t\t\t\n    tag 121\t\t\t\n      JUMPDEST \t\t\t\n      PUSH [tag] 122\t\t\t\n      DUP2 \t\t\t\n      DUP6 \t\t\t\n      PUSH [tag] 59\t\t\t\n      JUMP \t\t\t\n    tag 122\t\t\t\n      JUMPDEST \t\t\t\n      SWAP4 \t\t\t\n      POP \t\t\t\n      PUSH [tag] 123\t\t\t\n      DUP4 \t\t\t\n      PUSH [tag] 60\t\t\t\n      JUMP \t\t\t\n    tag 123\t\t\t\n      JUMPDEST \t\t\t\n      DUP1 \t\t\t\n      PUSH 0\t\t\t\n    tag 124\t\t\t\n      JUMPDEST \t\t\t\n      DUP4 \t\t\t\n      DUP2 \t\t\t\n      LT \t\t\t\n      ISZERO \t\t\t\n      PUSH [tag] 126\t\t\t\n      JUMPI \t\t\t\n      PUSH [tag] 127\t\t\t\n      DUP3 \t\t\t\n      PUSH [tag] 67\t\t\t\n      JUMP \t\t\t\n    tag 127\t\t\t\n      JUMPDEST \t\t\t\n      PUSH [tag] 128\t\t\t\n      DUP9 \t\t\t\n      DUP3 \t\t\t\n      PUSH [tag] 63\t\t\t\n      JUMP \t\t\t\n    tag 128\t\t\t\n      JUMPDEST \t\t\t\n      SWAP8 \t\t\t\n      POP \t\t\t\n      PUSH [tag] 129\t\t\t\n      DUP4 \t\t\t\n      PUSH [tag] 68\t\t\t\n      JUMP \t\t\t\n    tag 129\t\t\t\n      JUMPDEST \t\t\t\n      SWAP3 \t\t\t\n      POP \t\t\t\n      POP \t\t\t\n      PUSH 1\t\t\t\n      DUP2 \t\t\t\n      ADD \t\t\t\n      SWAP1 \t\t\t\n      POP \t\t\t\n      PUSH [tag] 124\t\t\t\n      JUMP \t\t\t\n    tag 126\t\t\t\n      JUMPDEST \t\t\t\n      POP \t\t\t\n      DUP6 \t\t\t\n      SWAP4 \t\t\t\n      POP \t\t\t\n      POP \t\t\t\n      POP \t\t\t\n      POP \t\t\t\n      SWAP3 \t\t\t\n      SWAP2 \t\t\t\n      POP \t\t\t\n      POP \t\t\t\n      JUMP \t\t\t\n    tag 24\t\t\t\n      JUMPDEST \t\t\t\n      PUSH 0\t\t\t\n      PUSH 20\t\t\t\n      DUP3 \t\t\t\n      ADD \t\t\t\n      SWAP1 \t\t\t\n      POP \t\t\t\n      DUP2 \t\t\t\n      DUP2 \t\t\t\n      SUB \t\t\t\n      PUSH 0\t\t\t\n      DUP4 \t\t\t\n      ADD \t\t\t\n      MSTORE \t\t\t\n      PUSH [tag] 131\t\t\t\n      DUP2 \t\t\t\n      DUP5 \t\t\t\n      PUSH [tag] 69\t\t\t\n      JUMP \t\t\t\n    tag 131\t\t\t\n      JUMPDEST \t\t\t\n      SWAP1 \t\t\t\n      POP \t\t\t\n      SWAP3 \t\t\t\n      SWAP2 \t\t\t\n      POP \t\t\t\n      POP \t\t\t\n      JUMP \t\t\t\n    tag 70\t\t\t\n      JUMPDEST \t\t\t\n      PUSH 0\t\t\t\n      DUP2 \t\t\t\n      SWAP1 \t\t\t\n      POP \t\t\t\n      SWAP2 \t\t\t\n      SWAP1 \t\t\t\n      POP \t\t\t\n      JUMP \t\t\t\n    tag 71\t\t\t\n      JUMPDEST \t\t\t\n      PUSH 0\t\t\t\n      DUP2 \t\t\t\n      SWAP1 \t\t\t\n      POP \t\t\t\n      SWAP2 \t\t\t\n      SWAP1 \t\t\t\n      POP \t\t\t\n      JUMP \t\t\t\n    tag 72\t\t\t\n      JUMPDEST \t\t\t\n      PUSH 0\t\t\t\n      PUSH [tag] 135\t\t\t\n      PUSH [tag] 136\t\t\t\n      PUSH [tag] 137\t\t\t\n      DUP5 \t\t\t\n      PUSH [tag] 70\t\t\t\n      JUMP \t\t\t\n    tag 137\t\t\t\n      JUMPDEST \t\t\t\n      PUSH [tag] 71\t\t\t\n      JUMP \t\t\t\n    tag 136\t\t\t\n      JUMPDEST \t\t\t\n      PUSH [tag] 55\t\t\t\n      JUMP \t\t\t\n    tag 135\t\t\t\n      JUMPDEST \t\t\t\n      SWAP1 \t\t\t\n      POP \t\t\t\n      SWAP2 \t\t\t\n      SWAP1 \t\t\t\n      POP \t\t\t\n      JUMP \t\t\t\n    tag 73\t\t\t\n      JUMPDEST \t\t\t\n      PUSH [tag] 139\t\t\t\n      DUP2 \t\t\t\n      PUSH [tag] 72\t\t\t\n      JUMP \t\t\t\n    tag 139\t\t\t\n      JUMPDEST \t\t\t\n      DUP3 \t\t\t\n      MSTORE \t\t\t\n      POP \t\t\t\n      POP \t\t\t\n      JUMP \t\t\t\n    tag 28\t\t\t\n      JUMPDEST \t\t\t\n      PUSH 0\t\t\t\n      PUSH 20\t\t\t\n      DUP3 \t\t\t\n      ADD \t\t\t\n      SWAP1 \t\t\t\n      POP \t\t\t\n      PUSH [tag] 141\t\t\t\n      PUSH 0\t\t\t\n      DUP4 \t\t\t\n      ADD \t\t\t\n      DUP5 \t\t\t\n      PUSH [tag] 73\t\t\t\n      JUMP \t\t\t\n    tag 141\t\t\t\n      JUMPDEST \t\t\t\n      SWAP3 \t\t\t\n      SWAP2 \t\t\t\n      POP \t\t\t\n      POP \t\t\t\n      JUMP \t\t\t\n    tag 74\t\t\t\n      JUMPDEST \t\t\t\n      PUSH [tag] 143\t\t\t\n      DUP2 \t\t\t\n      PUSH [tag] 55\t\t\t\n      JUMP \t\t\t\n    tag 143\t\t\t\n      JUMPDEST \t\t\t\n      DUP3 \t\t\t\n      MSTORE \t\t\t\n      POP \t\t\t\n      POP \t\t\t\n      JUMP \t\t\t\n    tag 75\t\t\t\n      JUMPDEST \t\t\t\n      PUSH 0\t\t\t\n      DUP3 \t\t\t\n      DUP3 \t\t\t\n      MSTORE \t\t\t\n      PUSH 20\t\t\t\n      DUP3 \t\t\t\n      ADD \t\t\t\n      SWAP1 \t\t\t\n      POP \t\t\t\n      SWAP3 \t\t\t\n      SWAP2 \t\t\t\n      POP \t\t\t\n      POP \t\t\t\n      JUMP \t\t\t\n    tag 76\t\t\t\n      JUMPDEST \t\t\t\n      PUSH 70726F706F73616C20617420696E64657820302073686F756C64206265207468\t\t\t\n      PUSH 0\t\t\t\n      DUP3 \t\t\t\n      ADD \t\t\t\n      MSTORE \t\t\t\n      PUSH 652077696E6E696E672070726F706F73616C0000000000000000000000000000\t\t\t\n      PUSH 20\t\t\t\n      DUP3 \t\t\t\n      ADD \t\t\t\n      MSTORE \t\t\t\n      POP \t\t\t\n      JUMP \t\t\t\n    tag 77\t\t\t\n      JUMPDEST \t\t\t\n      PUSH 0\t\t\t\n      PUSH [tag] 147\t\t\t\n      PUSH 32\t\t\t\n      DUP4 \t\t\t\n      PUSH [tag] 75\t\t\t\n      JUMP \t\t\t\n    tag 147\t\t\t\n      JUMPDEST \t\t\t\n      SWAP2 \t\t\t\n      POP \t\t\t\n      PUSH [tag] 148\t\t\t\n      DUP3 \t\t\t\n      PUSH [tag] 76\t\t\t\n      JUMP \t\t\t\n    tag 148\t\t\t\n      JUMPDEST \t\t\t\n      PUSH 40\t\t\t\n      DUP3 \t\t\t\n      ADD \t\t\t\n      SWAP1 \t\t\t\n      POP \t\t\t\n      SWAP2 \t\t\t\n      SWAP1 \t\t\t\n      POP \t\t\t\n      JUMP \t\t\t\n    tag 36\t\t\t\n      JUMPDEST \t\t\t\n      PUSH 0\t\t\t\n      PUSH 60\t\t\t\n      DUP3 \t\t\t\n      ADD \t\t\t\n      SWAP1 \t\t\t\n      POP \t\t\t\n      PUSH [tag] 150\t\t\t\n      PUSH 0\t\t\t\n      DUP4 \t\t\t\n      ADD \t\t\t\n      DUP6 \t\t\t\n      PUSH [tag] 74\t\t\t\n      JUMP \t\t\t\n    tag 150\t\t\t\n      JUMPDEST \t\t\t\n      PUSH [tag] 151\t\t\t\n      PUSH 20\t\t\t\n      DUP4 \t\t\t\n      ADD \t\t\t\n      DUP5 \t\t\t\n      PUSH [tag] 74\t\t\t\n      JUMP \t\t\t\n    tag 151\t\t\t\n      JUMPDEST \t\t\t\n      DUP2 \t\t\t\n      DUP2 \t\t\t\n      SUB \t\t\t\n      PUSH 40\t\t\t\n      DUP4 \t\t\t\n      ADD \t\t\t\n      MSTORE \t\t\t\n      PUSH [tag] 152\t\t\t\n      DUP2 \t\t\t\n      PUSH [tag] 77\t\t\t\n      JUMP \t\t\t\n    tag 152\t\t\t\n      JUMPDEST \t\t\t\n      SWAP1 \t\t\t\n      POP \t\t\t\n      SWAP4 \t\t\t\n      SWAP3 \t\t\t\n      POP \t\t\t\n      POP \t\t\t\n      POP \t\t\t\n      JUMP \t\t\t\n    tag 78\t\t\t\n      JUMPDEST \t\t\t\n      PUSH [tag] 154\t\t\t\n      DUP2 \t\t\t\n      PUSH [tag] 50\t\t\t\n      JUMP \t\t\t\n    tag 154\t\t\t\n      JUMPDEST \t\t\t\n      DUP2 \t\t\t\n      EQ \t\t\t\n      PUSH [tag] 155\t\t\t\n      JUMPI \t\t\t\n      PUSH 0\t\t\t\n      PUSH 0\t\t\t\n      REVERT \t\t\t\n    tag 155\t\t\t\n      JUMPDEST \t\t\t\n      POP \t\t\t\n      JUMP \t\t\t\n    tag 79\t\t\t\n      JUMPDEST \t\t\t\n      PUSH 0\t\t\t\n      DUP2 \t\t\t\n      MLOAD \t\t\t\n      SWAP1 \t\t\t\n      POP \t\t\t\n      PUSH [tag] 157\t\t\t\n      DUP2 \t\t\t\n      PUSH [tag] 78\t\t\t\n      JUMP \t\t\t\n    tag 157\t\t\t\n      JUMPDEST \t\t\t\n      SWAP3 \t\t\t\n      SWAP2 \t\t\t\n      POP \t\t\t\n      POP \t\t\t\n      JUMP \t\t\t\n    tag 40\t\t\t\n      JUMPDEST \t\t\t\n      PUSH 0\t\t\t\n      PUSH 20\t\t\t\n      DUP3 \t\t\t\n      DUP5 \t\t\t\n      SUB \t\t\t\n      SLT \t\t\t\n      ISZERO \t\t\t\n      PUSH [tag] 159\t\t\t\n      JUMPI \t\t\t\n      PUSH [tag] 160\t\t\t\n      PUSH [tag] 53\t\t\t\n      JUMP \t\t\t\n    tag 160\t\t\t\n      JUMPDEST \t\t\t\n    tag 159\t\t\t\n      JUMPDEST \t\t\t\n      PUSH 0\t\t\t\n      PUSH [tag] 161\t\t\t\n      DUP5 \t\t\t\n      DUP3 \t\t\t\n      DUP6 \t\t\t\n      ADD \t\t\t\n      PUSH [tag] 79\t\t\t\n      JUMP \t\t\t\n    tag 161\t\t\t\n      JUMPDEST \t\t\t\n      SWAP2 \t\t\t\n      POP \t\t\t\n      POP \t\t\t\n      SWAP3 \t\t\t\n      SWAP2 \t\t\t\n      POP \t\t\t\n      POP \t\t\t\n      JUMP \t\t\t\n    tag 80\t\t\t\n      JUMPDEST \t\t\t\n      PUSH [tag] 163\t\t\t\n      DUP2 \t\t\t\n      PUSH [tag] 61\t\t\t\n      JUMP \t\t\t\n    tag 163\t\t\t\n      JUMPDEST \t\t\t\n      DUP2 \t\t\t\n      EQ \t\t\t\n      PUSH [tag] 164\t\t\t\n      JUMPI \t\t\t\n      PUSH 0\t\t\t\n      PUSH 0\t\t\t\n      REVERT \t\t\t\n    tag 164\t\t\t\n      JUMPDEST \t\t\t\n      POP \t\t\t\n      JUMP \t\t\t\n    tag 81\t\t\t\n      JUMPDEST \t\t\t\n      PUSH 0\t\t\t\n      DUP2 \t\t\t\n      MLOAD \t\t\t\n      SWAP1 \t\t\t\n      POP \t\t\t\n      PUSH [tag] 166\t\t\t\n      DUP2 \t\t\t\n      PUSH [tag] 80\t\t\t\n      JUMP \t\t\t\n    tag 166\t\t\t\n      JUMPDEST \t\t\t\n      SWAP3 \t\t\t\n      SWAP2 \t\t\t\n      POP \t\t\t\n      POP \t\t\t\n      JUMP \t\t\t\n    tag 44\t\t\t\n      JUMPDEST \t\t\t\n      PUSH 0\t\t\t\n      PUSH 20\t\t\t\n      DUP3 \t\t\t\n      DUP5 \t\t\t\n      SUB \t\t\t\n      SLT \t\t\t\n      ISZERO \t\t\t\n      PUSH [tag] 168\t\t\t\n      JUMPI \t\t\t\n      PUSH [tag] 169\t\t\t\n      PUSH [tag] 53\t\t\t\n      JUMP \t\t\t\n    tag 169\t\t\t\n      JUMPDEST \t\t\t\n    tag 168\t\t\t\n      JUMPDEST \t\t\t\n      PUSH 0\t\t\t\n      PUSH [tag] 170\t\t\t\n      DUP5 \t\t\t\n      DUP3 \t\t\t\n      DUP6 \t\t\t\n      ADD \t\t\t\n      PUSH [tag] 81\t\t\t\n      JUMP \t\t\t\n    tag 170\t\t\t\n      JUMPDEST \t\t\t\n      SWAP2 \t\t\t\n      POP \t\t\t\n      POP \t\t\t\n      SWAP3 \t\t\t\n      SWAP2 \t\t\t\n      POP \t\t\t\n      POP \t\t\t\n      JUMP \t\t\t\n    tag 82\t\t\t\n      JUMPDEST \t\t\t\n      PUSH [tag] 172\t\t\t\n      DUP2 \t\t\t\n      PUSH [tag] 61\t\t\t\n      JUMP \t\t\t\n    tag 172\t\t\t\n      JUMPDEST \t\t\t\n      DUP3 \t\t\t\n      MSTORE \t\t\t\n      POP \t\t\t\n      POP \t\t\t\n      JUMP \t\t\t\n    tag 83\t\t\t\n      JUMPDEST \t\t\t\n      PUSH 63616E646964617465312073686F756C64206265207468652077696E6E657220\t\t\t\n      PUSH 0\t\t\t\n      DUP3 \t\t\t\n      ADD \t\t\t\n      MSTORE \t\t\t\n      PUSH 6E616D6500000000000000000000000000000000000000000000000000000000\t\t\t\n      PUSH 20\t\t\t\n      DUP3 \t\t\t\n      ADD \t\t\t\n      MSTORE \t\t\t\n      POP \t\t\t\n      JUMP \t\t\t\n    tag 84\t\t\t\n      JUMPDEST \t\t\t\n      PUSH 0\t\t\t\n      PUSH [tag] 175\t\t\t\n      PUSH 24\t\t\t\n      DUP4 \t\t\t\n      PUSH [tag] 75\t\t\t\n      JUMP \t\t\t\n    tag 175\t\t\t\n      JUMPDEST \t\t\t\n      SWAP2 \t\t\t\n      POP \t\t\t\n      PUSH [tag] 176\t\t\t\n      DUP3 \t\t\t\n      PUSH [tag] 83\t\t\t\n      JUMP \t\t\t\n    tag 176\t\t\t\n      JUMPDEST \t\t\t\n      PUSH 40\t\t\t\n      DUP3 \t\t\t\n      ADD \t\t\t\n      SWAP1 \t\t\t\n      POP \t\t\t\n      SWAP2 \t\t\t\n      SWAP1 \t\t\t\n      POP \t\t\t\n      JUMP \t\t\t\n    tag 46\t\t\t\n      JUMPDEST \t\t\t\n      PUSH 0\t\t\t\n      PUSH 60\t\t\t\n      DUP3 \t\t\t\n      ADD \t\t\t\n      SWAP1 \t\t\t\n      POP \t\t\t\n      PUSH [tag] 178\t\t\t\n      PUSH 0\t\t\t\n      DUP4 \t\t\t\n      ADD \t\t\t\n      DUP6 \t\t\t\n      PUSH [tag] 82\t\t\t\n      JUMP \t\t\t\n    tag 178\t\t\t\n      JUMPDEST \t\t\t\n      PUSH [tag] 179\t\t\t\n      PUSH 20\t\t\t\n      DUP4 \t\t\t\n      ADD \t\t\t\n      DUP5 \t\t\t\n      PUSH [tag] 82\t\t\t\n      JUMP \t\t\t\n    tag 179\t\t\t\n      JUMPDEST \t\t\t\n      DUP2 \t\t\t\n      DUP2 \t\t\t\n      SUB \t\t\t\n      PUSH 40\t\t\t\n      DUP4 \t\t\t\n      ADD \t\t\t\n      MSTORE \t\t\t\n      PUSH [tag] 180\t\t\t\n      DUP2 \t\t\t\n      PUSH [tag] 84\t\t\t\n      JUMP \t\t\t\n    tag 180\t\t\t\n      JUMPDEST \t\t\t\n      SWAP1 \t\t\t\n      POP \t\t\t\n      SWAP4 \t\t\t\n      SWAP3 \t\t\t\n      POP \t\t\t\n      POP \t\t\t\n      POP \t\t\t\n      JUMP \t\t\t\n    .data\n      0:\n        .code\n          PUSH 80\t\t\timport \"remix_tests.sol\";\\nimp...\n          PUSH 40\t\t\timport \"remix_tests.sol\";\\nimp...\n          MSTORE \t\t\timport \"remix_tests.sol\";\\nimp...\n          CALLVALUE \t\t\t      ballotToTest.vote(0);\\n ...\n          DUP1 \t\t\t      ballotToTest.vote(0);\\n ...\n          ISZERO \t\t\t      ballotToTest.vote(0);\\n ...\n          PUSH [tag] 1\t\t\t      ballotToTest.vote(0);\\n ...\n          JUMPI \t\t\t      ballotToTest.vote(0);\\n ...\n          PUSH 0\t\t\t      ballotToTest.vote(0);\\n ...\n          PUSH 0\t\t\t      ballotToTest.vote(0);\\n ...\n          REVERT \t\t\t      ballotToTest.vote(0);\\n ...\n        tag 1\t\t\t      ballotToTest.vote(0);\\n ...\n          JUMPDEST \t\t\t      ballotToTest.vote(0);\\n ...\n          POP \t\t\t      ballotToTest.vote(0);\\n ...\n          PUSH 40\t\t\t      ballotToTest.vote(0);\\n ...\n          MLOAD \t\t\t      ballotToTest.vote(0);\\n ...\n          PUSHSIZE \t\t\t      ballotToTest.vote(0);\\n ...\n          CODESIZE \t\t\t      ballotToTest.vote(0);\\n ...\n          SUB \t\t\t      ballotToTest.vote(0);\\n ...\n          DUP1 \t\t\t      ballotToTest.vote(0);\\n ...\n          PUSHSIZE \t\t\t      ballotToTest.vote(0);\\n ...\n          DUP4 \t\t\t      ballotToTest.vote(0);\\n ...\n          CODECOPY \t\t\t      ballotToTest.vote(0);\\n ...\n          DUP2 \t\t\t      ballotToTest.vote(0);\\n ...\n          DUP2 \t\t\t      ballotToTest.vote(0);\\n ...\n          ADD \t\t\t      ballotToTest.vote(0);\\n ...\n          PUSH 40\t\t\t      ballotToTest.vote(0);\\n ...\n          MSTORE \t\t\t      ballotToTest.vote(0);\\n ...\n          DUP2 \t\t\t      ballotToTest.vote(0);\\n ...\n          ADD \t\t\t      ballotToTest.vote(0);\\n ...\n          SWAP1 \t\t\t      ballotToTest.vote(0);\\n ...\n          PUSH [tag] 2\t\t\t      ballotToTest.vote(0);\\n ...\n          SWAP2 \t\t\t      ballotToTest.vote(0);\\n ...\n          SWAP1 \t\t\t      ballotToTest.vote(0);\\n ...\n          PUSH [tag] 3\t\t\t      ballotToTest.vote(0);\\n ...\n          JUMP \t\t\t      ballotToTest.vote(0);\\n ...\n        tag 2\t\t\t      ballotToTest.vote(0);\\n ...\n          JUMPDEST \t\t\t      ballotToTest.vote(0);\\n ...\n          CALLER \t\t\tgProposal(\n          PUSH 0\t\t\ttToTest.win\n          PUSH 0\t\t\ttToTest.win\n          PUSH 100\t\t\ttToTest.winningProposal(\n          EXP \t\t\ttToTest.winningProposal(\n          DUP2 \t\t\ttToTest.winningProposal(\n          SLOAD \t\t\ttToTest.winningProposal(\n          DUP2 \t\t\ttToTest.winningProposal(\n          PUSH FFFFFFFFFFFFFFFFFFFFFFFFFFFFFFFFFFFFFFFF\t\t\ttToTest.winningProposal(\n          MUL \t\t\ttToTest.winningProposal(\n          NOT \t\t\ttToTest.winningProposal(\n          AND \t\t\ttToTest.winningProposal(\n          SWAP1 \t\t\ttToTest.winningProposal(\n          DUP4 \t\t\ttToTest.winningProposal(\n          PUSH FFFFFFFFFFFFFFFFFFFFFFFFFFFFFFFFFFFFFFFF\t\t\ttToTest.winningProposal(\n          AND \t\t\ttToTest.winningProposal(\n          MUL \t\t\ttToTest.winningProposal(\n          OR \t\t\ttToTest.winningProposal(\n          SWAP1 \t\t\ttToTest.winningProposal(\n          SSTORE \t\t\ttToTest.winningProposal(\n          POP \t\t\ttToTest.winningProposal(\n          PUSH 1\t\t\tu\n          DUP1 \t\t\t(0), \"\n          PUSH 0\t\t\t(0), \"proposal at i\n          PUSH 0\t\t\troposal at \n          PUSH 0\t\t\troposal at \n          SWAP1 \t\t\troposal at \n          SLOAD \t\t\troposal at \n          SWAP1 \t\t\troposal at \n          PUSH 100\t\t\troposal at \n          EXP \t\t\troposal at \n          SWAP1 \t\t\troposal at \n          DIV \t\t\troposal at \n          PUSH FFFFFFFFFFFFFFFFFFFFFFFFFFFFFFFFFFFFFFFF\t\t\troposal at \n          AND \t\t\troposal at \n          PUSH FFFFFFFFFFFFFFFFFFFFFFFFFFFFFFFFFFFFFFFF\t\t\t(0), \"proposal at i\n          AND \t\t\t(0), \"proposal at i\n          PUSH FFFFFFFFFFFFFFFFFFFFFFFFFFFFFFFFFFFFFFFF\t\t\t(0), \"proposal at i\n          AND \t\t\t(0), \"proposal at i\n          DUP2 \t\t\t(0), \"proposal at i\n          MSTORE \t\t\t(0), \"proposal at i\n          PUSH 20\t\t\t(0), \"proposal at i\n          ADD \t\t\t(0), \"proposal at i\n          SWAP1 \t\t\t(0), \"proposal at i\n          DUP2 \t\t\t(0), \"proposal at i\n          MSTORE \t\t\t(0), \"proposal at i\n          PUSH 20\t\t\t(0), \"proposal at i\n          ADD \t\t\t(0), \"proposal at i\n          PUSH 0\t\t\t(0), \"proposal at i\n          KECCAK256 \t\t\t(0), \"proposal at i\n          PUSH 0\t\t\t(0), \"proposal at index 0 \n          ADD \t\t\t(0), \"proposal at index 0 \n          DUP2 \t\t\t(0), \"proposal at index 0 shou\n          SWAP1 \t\t\t(0), \"proposal at index 0 shou\n          SSTORE \t\t\t(0), \"proposal at index 0 shou\n          POP \t\t\t(0), \"proposal at index 0 shou\n          PUSH 0\t\t\tg proposa\n          PUSH 0\t\t\t;\n          SWAP1 \t\t\tg proposal\");\n          POP \t\t\tg proposal\");\n        tag 6\t\t\tinning proposal\");\\n        As...\n          JUMPDEST \t\t\tinning proposal\");\\n        As...\n          DUP2 \t\t\t   Assert.equ\n          MLOAD \t\t\t   Assert.equal(ball\n          DUP2 \t\t\t \n          LT \t\t\t       Assert.equal(ball\n          ISZERO \t\t\tinning proposal\");\\n        As...\n          PUSH [tag] 7\t\t\tinning proposal\");\\n        As...\n          JUMPI \t\t\tinning proposal\");\\n        As...\n          PUSH 2\t\t\t, bytes32\n          PUSH 40\t\t\tidate1\"), \"candidate1 should b...\n          MLOAD \t\t\tidate1\"), \"candidate1 should b...\n          DUP1 \t\t\tidate1\"), \"candidate1 should b...\n          PUSH 40\t\t\tidate1\"), \"candidate1 should b...\n          ADD \t\t\tidate1\"), \"candidate1 should b...\n          PUSH 40\t\t\tidate1\"), \"candidate1 should b...\n          MSTORE \t\t\tidate1\"), \"candidate1 should b...\n          DUP1 \t\t\tidate1\"), \"candidate1 should b...\n          DUP5 \t\t\tdate1 should \n          DUP5 \t\t\te\n          DUP2 \t\t\tdate1 should be \n          MLOAD \t\t\tdate1 should be \n          DUP2 \t\t\tdate1 should be \n          LT \t\t\tdate1 should be \n          PUSH [tag] 9\t\t\tdate1 should be \n          JUMPI \t\t\tdate1 should be \n          PUSH [tag] 10\t\t\tdate1 should be \n          PUSH [tag] 11\t\t\tdate1 should be \n          JUMP \t\t\tdate1 should be \n        tag 10\t\t\tdate1 should be \n          JUMPDEST \t\t\tdate1 should be \n        tag 9\t\t\tdate1 should be \n          JUMPDEST \t\t\tdate1 should be \n          PUSH 20\t\t\tdate1 should be \n          MUL \t\t\tdate1 should be \n          PUSH 20\t\t\tdate1 should be \n          ADD \t\t\tdate1 should be \n          ADD \t\t\tdate1 should be \n          MLOAD \t\t\tdate1 should be \n          DUP2 \t\t\tidate1\"), \"candidate1 should b...\n          MSTORE \t\t\tidate1\"), \"candidate1 should b...\n          PUSH 20\t\t\tidate1\"), \"candidate1 should b...\n          ADD \t\t\tidate1\"), \"candidate1 should b...\n          PUSH 0\t\t\tm\n          DUP2 \t\t\tidate1\"), \"candidate1 should b...\n          MSTORE \t\t\tidate1\"), \"candidate1 should b...\n          POP \t\t\tidate1\"), \"candidate1 should b...\n          SWAP1 \t\t\t, bytes32(\"candidate1\"), \"cand...\n          DUP1 \t\t\t, bytes32(\"candidate1\"), \"cand...\n          PUSH 1\t\t\t, bytes32(\"candidate1\"), \"cand...\n          DUP2 \t\t\t, bytes32(\"candidate1\"), \"cand...\n          SLOAD \t\t\t, bytes32(\"candidate1\"), \"cand...\n          ADD \t\t\t, bytes32(\"candidate1\"), \"cand...\n          DUP1 \t\t\t, bytes32(\"candidate1\"), \"cand...\n          DUP3 \t\t\t, bytes32(\"candidate1\"), \"cand...\n          SSTORE \t\t\t, bytes32(\"candidate1\"), \"cand...\n          DUP1 \t\t\t, bytes32(\"candidate1\"), \"cand...\n          SWAP2 \t\t\t, bytes32(\"candidate1\"), \"cand...\n          POP \t\t\t, bytes32(\"candidate1\"), \"cand...\n          POP \t\t\t, bytes32(\"candidate1\"), \"cand...\n          PUSH 1\t\t\t, bytes32(\"candidate1\"), \"cand...\n          SWAP1 \t\t\t, bytes32(\"candidate1\"), \"cand...\n          SUB \t\t\t, bytes32(\"candidate1\"), \"cand...\n          SWAP1 \t\t\t, bytes32(\"candidate1\"), \"cand...\n          PUSH 0\t\t\t, bytes32(\"candidate1\"), \"cand...\n          MSTORE \t\t\t, bytes32(\"candidate1\"), \"cand...\n          PUSH 20\t\t\t, bytes32(\"candidate1\"), \"cand...\n          PUSH 0\t\t\t, bytes32(\"candidate1\"), \"cand...\n          KECCAK256 \t\t\t, bytes32(\"candidate1\"), \"cand...\n          SWAP1 \t\t\t, bytes32(\"candidate1\"), \"cand...\n          PUSH 2\t\t\t, bytes32(\"candidate1\"), \"cand...\n          MUL \t\t\t, bytes32(\"candidate1\"), \"cand...\n          ADD \t\t\t, bytes32(\"candidate1\"), \"cand...\n          PUSH 0\t\t\t, bytes32(\"candidate1\"), \"cand...\n          SWAP1 \t\t\t, bytes32(\"candidate1\"), \"cand...\n          SWAP2 \t\t\t, bytes32(\"candidate1\"), \"cand...\n          SWAP1 \t\t\t, bytes32(\"candidate1\"), \"cand...\n          SWAP2 \t\t\t, bytes32(\"candidate1\"), \"cand...\n          SWAP1 \t\t\t, bytes32(\"candidate1\"), \"cand...\n          SWAP2 \t\t\t, bytes32(\"candidate1\"), \"cand...\n          POP \t\t\t, bytes32(\"candidate1\"), \"cand...\n          PUSH 0\t\t\t, bytes32(\"candidate1\"), \"cand...\n          DUP3 \t\t\t, bytes32(\"candidate1\"), \"cand...\n          ADD \t\t\t, bytes32(\"candidate1\"), \"cand...\n          MLOAD \t\t\t, bytes32(\"candidate1\"), \"cand...\n          DUP2 \t\t\t, bytes32(\"candidate1\"), \"cand...\n          PUSH 0\t\t\t, bytes32(\"candidate1\"), \"cand...\n          ADD \t\t\t, bytes32(\"candidate1\"), \"cand...\n          SSTORE \t\t\t, bytes32(\"candidate1\"), \"cand...\n          PUSH 20\t\t\t, bytes32(\"candidate1\"), \"cand...\n          DUP3 \t\t\t, bytes32(\"candidate1\"), \"cand...\n          ADD \t\t\t, bytes32(\"candidate1\"), \"cand...\n          MLOAD \t\t\t, bytes32(\"candidate1\"), \"cand...\n          DUP2 \t\t\t, bytes32(\"candidate1\"), \"cand...\n          PUSH 1\t\t\t, bytes32(\"candidate1\"), \"cand...\n          ADD \t\t\t, bytes32(\"candidate1\"), \"cand...\n          SSTORE \t\t\t, bytes32(\"candidate1\"), \"cand...\n          POP \t\t\t, bytes32(\"candidate1\"), \"cand...\n          POP \t\t\t, bytes32(\"candidate1\"), \"cand...\n          DUP1 \t\t\tToT\n          DUP1 \t\t\tToT\n          PUSH 1\t\t\tToT\n          ADD \t\t\tToT\n          SWAP2 \t\t\tToT\n          POP \t\t\tToT\n          POP \t\t\tToT\n          PUSH [tag] 6\t\t\tinning proposal\");\\n        As...\n          JUMP \t\t\tinning proposal\");\\n        As...\n        tag 7\t\t\tinning proposal\");\\n        As...\n          JUMPDEST \t\t\tinning proposal\");\\n        As...\n          POP \t\t\tinning proposal\");\\n        As...\n          POP \t\t\t      ballotToTest.vote(0);\\n ...\n          PUSH [tag] 13\t\t\timport \"remix_tests.sol\";\\nimp...\n          JUMP \t\t\timport \"remix_tests.sol\";\\nimp...\n        tag 14\t\t\t-License-Identifier: GPL-3.0\\n...\n          JUMPDEST \t\t\t-License-Identifier: GPL-3.0\\n...\n          PUSH 0\t\t\tma sol\n          PUSH 40\t\t\trt\n          MLOAD \t\t\t\\n\\nimport \n          SWAP1 \t\t\t.0 <0.9.0;\\n\\nimport \n          POP \t\t\t.0 <0.9.0;\\n\\nimport \n          SWAP1 \t\t\t-License-Identifier: GPL-3.0\\n...\n          JUMP \t\t\t-License-Identifier: GPL-3.0\\n...\n        tag 15\t\t\t.sol\";\\nimport \"../contracts/3...\n          JUMPDEST \t\t\t.sol\";\\nimport \"../contracts/3...\n          PUSH 0\t\t\tl\n          PUSH 0\t\t\tb\n          REVERT \t\t\tBallot ballo\n        tag 16\t\t\t  function beforeAll() public ...\n          JUMPDEST \t\t\t  function beforeAll() public ...\n          PUSH 0\t\t\t \n          PUSH 0\t\t\tn\n          REVERT \t\t\tTest = new B\n        tag 17\t\t\talNames);\\n    }\\n\\n    functi...\n          JUMPDEST \t\t\talNames);\\n    }\\n\\n    functi...\n          PUSH 0\t\t\tu\n          PUSH 0\t\t\t.\n          REVERT \t\t\t Assert.equa\n        tag 18\t\t\tst.winningProposal(), uint256(...\n          JUMPDEST \t\t\tst.winningProposal(), uint256(...\n          PUSH 0\t\t\tal at \n          PUSH 1F\t\t\t  \n          NOT \t\t\t\\n      \n          PUSH 1F\t\t\tal\n          DUP4 \t\t\t prop\n          ADD \t\t\tning proposal\"\n          AND \t\t\t winning proposal\");\\n       \n          SWAP1 \t\t\tuld be the winning proposal\");...\n          POP \t\t\tuld be the winning proposal\");...\n          SWAP2 \t\t\tst.winningProposal(), uint256(...\n          SWAP1 \t\t\tst.winningProposal(), uint256(...\n          POP \t\t\tst.winningProposal(), uint256(...\n          JUMP \t\t\tst.winningProposal(), uint256(...\n        tag 19\t\t\tl(ballotToTest.winnerName(), b...\n          JUMPDEST \t\t\tl(ballotToTest.winnerName(), b...\n          PUSH 4E487B7100000000000000000000000000000000000000000000000000000000\t\t\t\"), \"candidate1 should be the ...\n          PUSH 0\t\t\tt\n          MSTORE \t\t\tcandidate1\"), \"candidate1 shou...\n          PUSH 41\t\t\tue()\n          PUSH 4\t\t\tV\n          MSTORE \t\t\thReturnValue() \n          PUSH 24\t\t\t (bo\n          PUSH 0\t\t\tr\n          REVERT \t\t\tew returns (boo\n        tag 20\t\t\t return ballotToTest.winningPr...\n          JUMPDEST \t\t\t return ballotToTest.winningPr...\n          PUSH [tag] 37\t\t\t\n          DUP3 \t\t\t\n          PUSH [tag] 18\t\t\t\n          JUMP \t\t\t\n        tag 37\t\t\t\n          JUMPDEST \t\t\t\n          DUP2 \t\t\t\n          ADD \t\t\t\n          DUP2 \t\t\t\n          DUP2 \t\t\t\n          LT \t\t\t\n          PUSH FFFFFFFFFFFFFFFF\t\t\t\n          DUP3 \t\t\t\n          GT \t\t\t\n          OR \t\t\t\n          ISZERO \t\t\t\n          PUSH [tag] 38\t\t\t\n          JUMPI \t\t\t\n          PUSH [tag] 39\t\t\t\n          PUSH [tag] 19\t\t\t\n          JUMP \t\t\t\n        tag 39\t\t\t\n          JUMPDEST \t\t\t\n        tag 38\t\t\t\n          JUMPDEST \t\t\t\n          DUP1 \t\t\t\n          PUSH 40\t\t\t\n          MSTORE \t\t\t\n          POP \t\t\t;\\n    }\\n}\\n\n          POP \t\t\t return ballotToTest.winningPr...\n          POP \t\t\t return ballotToTest.winningPr...\n          JUMP \t\t\t return ballotToTest.winningPr...\n        tag 21\t\t\t\n          JUMPDEST \t\t\t\n          PUSH 0\t\t\t\n          PUSH [tag] 41\t\t\t\n          PUSH [tag] 14\t\t\t\n          JUMP \t\t\t\n        tag 41\t\t\t\n          JUMPDEST \t\t\t\n          SWAP1 \t\t\t\n          POP \t\t\t\n          PUSH [tag] 42\t\t\t\n          DUP3 \t\t\t\n          DUP3 \t\t\t\n          PUSH [tag] 20\t\t\t\n          JUMP \t\t\t\n        tag 42\t\t\t\n          JUMPDEST \t\t\t\n          SWAP2 \t\t\t\n          SWAP1 \t\t\t\n          POP \t\t\t\n          JUMP \t\t\t\n        tag 22\t\t\t\n          JUMPDEST \t\t\t\n          PUSH 0\t\t\t\n          PUSH FFFFFFFFFFFFFFFF\t\t\t\n          DUP3 \t\t\t\n          GT \t\t\t\n          ISZERO \t\t\t\n          PUSH [tag] 44\t\t\t\n          JUMPI \t\t\t\n          PUSH [tag] 45\t\t\t\n          PUSH [tag] 19\t\t\t\n          JUMP \t\t\t\n        tag 45\t\t\t\n          JUMPDEST \t\t\t\n        tag 44\t\t\t\n          JUMPDEST \t\t\t\n          PUSH 20\t\t\t\n          DUP3 \t\t\t\n          MUL \t\t\t\n          SWAP1 \t\t\t\n          POP \t\t\t\n          PUSH 20\t\t\t\n          DUP2 \t\t\t\n          ADD \t\t\t\n          SWAP1 \t\t\t\n          POP \t\t\t\n          SWAP2 \t\t\t\n          SWAP1 \t\t\t\n          POP \t\t\t\n          JUMP \t\t\t\n        tag 23\t\t\t\n          JUMPDEST \t\t\t\n          PUSH 0\t\t\t\n          PUSH 0\t\t\t\n          REVERT \t\t\t\n        tag 24\t\t\t\n          JUMPDEST \t\t\t\n          PUSH 0\t\t\t\n          DUP2 \t\t\t\n          SWAP1 \t\t\t\n          POP \t\t\t\n          SWAP2 \t\t\t\n          SWAP1 \t\t\t\n          POP \t\t\t\n          JUMP \t\t\t\n        tag 25\t\t\t\n          JUMPDEST \t\t\t\n          PUSH [tag] 49\t\t\t\n          DUP2 \t\t\t\n          PUSH [tag] 24\t\t\t\n          JUMP \t\t\t\n        tag 49\t\t\t\n          JUMPDEST \t\t\t\n          DUP2 \t\t\t\n          EQ \t\t\t\n          PUSH [tag] 50\t\t\t\n          JUMPI \t\t\t\n          PUSH 0\t\t\t\n          PUSH 0\t\t\t\n          REVERT \t\t\t\n        tag 50\t\t\t\n          JUMPDEST \t\t\t\n          POP \t\t\t\n          JUMP \t\t\t\n        tag 26\t\t\t\n          JUMPDEST \t\t\t\n          PUSH 0\t\t\t\n          DUP2 \t\t\t\n          MLOAD \t\t\t\n          SWAP1 \t\t\t\n          POP \t\t\t\n          PUSH [tag] 52\t\t\t\n          DUP2 \t\t\t\n          PUSH [tag] 25\t\t\t\n          JUMP \t\t\t\n        tag 52\t\t\t\n          JUMPDEST \t\t\t\n          SWAP3 \t\t\t\n          SWAP2 \t\t\t\n          POP \t\t\t\n          POP \t\t\t\n          JUMP \t\t\t\n        tag 27\t\t\t\n          JUMPDEST \t\t\t\n          PUSH 0\t\t\t\n          PUSH [tag] 54\t\t\t\n          PUSH [tag] 55\t\t\t\n          DUP5 \t\t\t\n          PUSH [tag] 22\t\t\t\n          JUMP \t\t\t\n        tag 55\t\t\t\n          JUMPDEST \t\t\t\n          PUSH [tag] 21\t\t\t\n          JUMP \t\t\t\n        tag 54\t\t\t\n          JUMPDEST \t\t\t\n          SWAP1 \t\t\t\n          POP \t\t\t\n          DUP1 \t\t\t\n          DUP4 \t\t\t\n          DUP3 \t\t\t\n          MSTORE \t\t\t\n          PUSH 20\t\t\t\n          DUP3 \t\t\t\n          ADD \t\t\t\n          SWAP1 \t\t\t\n          POP \t\t\t\n          PUSH 20\t\t\t\n          DUP5 \t\t\t\n          MUL \t\t\t\n          DUP4 \t\t\t\n          ADD \t\t\t\n          DUP6 \t\t\t\n          DUP2 \t\t\t\n          GT \t\t\t\n          ISZERO \t\t\t\n          PUSH [tag] 56\t\t\t\n          JUMPI \t\t\t\n          PUSH [tag] 57\t\t\t\n          PUSH [tag] 23\t\t\t\n          JUMP \t\t\t\n        tag 57\t\t\t\n          JUMPDEST \t\t\t\n        tag 56\t\t\t\n          JUMPDEST \t\t\t\n          DUP4 \t\t\t\n        tag 58\t\t\t\n          JUMPDEST \t\t\t\n          DUP2 \t\t\t\n          DUP2 \t\t\t\n          LT \t\t\t\n          ISZERO \t\t\t\n          PUSH [tag] 60\t\t\t\n          JUMPI \t\t\t\n          DUP1 \t\t\t\n          PUSH [tag] 61\t\t\t\n          DUP9 \t\t\t\n          DUP3 \t\t\t\n          PUSH [tag] 26\t\t\t\n          JUMP \t\t\t\n        tag 61\t\t\t\n          JUMPDEST \t\t\t\n          DUP5 \t\t\t\n          MSTORE \t\t\t\n          PUSH 20\t\t\t\n          DUP5 \t\t\t\n          ADD \t\t\t\n          SWAP4 \t\t\t\n          POP \t\t\t\n          POP \t\t\t\n          PUSH 20\t\t\t\n          DUP2 \t\t\t\n          ADD \t\t\t\n          SWAP1 \t\t\t\n          POP \t\t\t\n          PUSH [tag] 58\t\t\t\n          JUMP \t\t\t\n        tag 60\t\t\t\n          JUMPDEST \t\t\t\n          POP \t\t\t\n          POP \t\t\t\n          POP \t\t\t\n          SWAP4 \t\t\t\n          SWAP3 \t\t\t\n          POP \t\t\t\n          POP \t\t\t\n          POP \t\t\t\n          JUMP \t\t\t\n        tag 28\t\t\t\n          JUMPDEST \t\t\t\n          PUSH 0\t\t\t\n          DUP3 \t\t\t\n          PUSH 1F\t\t\t\n          DUP4 \t\t\t\n          ADD \t\t\t\n          SLT \t\t\t\n          PUSH [tag] 63\t\t\t\n          JUMPI \t\t\t\n          PUSH [tag] 64\t\t\t\n          PUSH [tag] 17\t\t\t\n          JUMP \t\t\t\n        tag 64\t\t\t\n          JUMPDEST \t\t\t\n        tag 63\t\t\t\n          JUMPDEST \t\t\t\n          DUP2 \t\t\t\n          MLOAD \t\t\t\n          PUSH [tag] 65\t\t\t\n          DUP5 \t\t\t\n          DUP3 \t\t\t\n          PUSH 20\t\t\t\n          DUP7 \t\t\t\n          ADD \t\t\t\n          PUSH [tag] 27\t\t\t\n          JUMP \t\t\t\n        tag 65\t\t\t\n          JUMPDEST \t\t\t\n          SWAP2 \t\t\t\n          POP \t\t\t\n          POP \t\t\t\n          SWAP3 \t\t\t\n          SWAP2 \t\t\t\n          POP \t\t\t\n          POP \t\t\t\n          JUMP \t\t\t\n        tag 3\t\t\t\n          JUMPDEST \t\t\t\n          PUSH 0\t\t\t\n          PUSH 20\t\t\t\n          DUP3 \t\t\t\n          DUP5 \t\t\t\n          SUB \t\t\t\n          SLT \t\t\t\n          ISZERO \t\t\t\n          PUSH [tag] 67\t\t\t\n          JUMPI \t\t\t\n          PUSH [tag] 68\t\t\t\n          PUSH [tag] 15\t\t\t\n          JUMP \t\t\t\n        tag 68\t\t\t\n          JUMPDEST \t\t\t\n        tag 67\t\t\t\n          JUMPDEST \t\t\t\n          PUSH 0\t\t\t\n          DUP3 \t\t\t\n          ADD \t\t\t\n          MLOAD \t\t\t\n          PUSH FFFFFFFFFFFFFFFF\t\t\t\n          DUP2 \t\t\t\n          GT \t\t\t\n          ISZERO \t\t\t\n          PUSH [tag] 69\t\t\t\n          JUMPI \t\t\t\n          PUSH [tag] 70\t\t\t\n          PUSH [tag] 16\t\t\t\n          JUMP \t\t\t\n        tag 70\t\t\t\n          JUMPDEST \t\t\t\n        tag 69\t\t\t\n          JUMPDEST \t\t\t\n          PUSH [tag] 71\t\t\t\n          DUP5 \t\t\t\n          DUP3 \t\t\t\n          DUP6 \t\t\t\n          ADD \t\t\t\n          PUSH [tag] 28\t\t\t\n          JUMP \t\t\t\n        tag 71\t\t\t\n          JUMPDEST \t\t\t\n          SWAP2 \t\t\t\n          POP \t\t\t\n          POP \t\t\t\n          SWAP3 \t\t\t\n          SWAP2 \t\t\t\n          POP \t\t\t\n          POP \t\t\t\n          JUMP \t\t\t\n        tag 11\t\t\t\n          JUMPDEST \t\t\t\n          PUSH 4E487B7100000000000000000000000000000000000000000000000000000000\t\t\t\n          PUSH 0\t\t\t\n          MSTORE \t\t\t\n          PUSH 32\t\t\t\n          PUSH 4\t\t\t\n          MSTORE \t\t\t\n          PUSH 24\t\t\t\n          PUSH 0\t\t\t\n          REVERT \t\t\t\n        tag 13\t\t\timport \"remix_tests.sol\";\\nimp...\n          JUMPDEST \t\t\timport \"remix_tests.sol\";\\nimp...\n          PUSH #[$] 0000000000000000000000000000000000000000000000000000000000000000\t\t\timport \"remix_tests.sol\";\\nimp...\n          DUP1 \t\t\timport \"remix_tests.sol\";\\nimp...\n          PUSH [$] 0000000000000000000000000000000000000000000000000000000000000000\t\t\timport \"remix_tests.sol\";\\nimp...\n          PUSH 0\t\t\timport \"remix_tests.sol\";\\nimp...\n          CODECOPY \t\t\timport \"remix_tests.sol\";\\nimp...\n          PUSH 0\t\t\timport \"remix_tests.sol\";\\nimp...\n          RETURN \t\t\timport \"remix_tests.sol\";\\nimp...\n        .data\n          0:\n            .code\n              PUSH 80\t\t\timport \"remix_tests.sol\";\\nimp...\n              PUSH 40\t\t\timport \"remix_tests.sol\";\\nimp...\n              MSTORE \t\t\timport \"remix_tests.sol\";\\nimp...\n              CALLVALUE \t\t\timport \"remix_tests.sol\";\\nimp...\n              DUP1 \t\t\timport \"remix_tests.sol\";\\nimp...\n              ISZERO \t\t\timport \"remix_tests.sol\";\\nimp...\n              PUSH [tag] 1\t\t\timport \"remix_tests.sol\";\\nimp...\n              JUMPI \t\t\timport \"remix_tests.sol\";\\nimp...\n              PUSH 0\t\t\timport \"remix_tests.sol\";\\nimp...\n              PUSH 0\t\t\timport \"remix_tests.sol\";\\nimp...\n              REVERT \t\t\timport \"remix_tests.sol\";\\nimp...\n            tag 1\t\t\timport \"remix_tests.sol\";\\nimp...\n              JUMPDEST \t\t\timport \"remix_tests.sol\";\\nimp...\n              POP \t\t\timport \"remix_tests.sol\";\\nimp...\n              PUSH 4\t\t\timport \"remix_tests.sol\";\\nimp...\n              CALLDATASIZE \t\t\timport \"remix_tests.sol\";\\nimp...\n              LT \t\t\timport \"remix_tests.sol\";\\nimp...\n              PUSH [tag] 2\t\t\timport \"remix_tests.sol\";\\nimp...\n              JUMPI \t\t\timport \"remix_tests.sol\";\\nimp...\n              PUSH 0\t\t\timport \"remix_tests.sol\";\\nimp...\n              CALLDATALOAD \t\t\timport \"remix_tests.sol\";\\nimp...\n              PUSH E0\t\t\timport \"remix_tests.sol\";\\nimp...\n              SHR \t\t\timport \"remix_tests.sol\";\\nimp...\n              DUP1 \t\t\timport \"remix_tests.sol\";\\nimp...\n              PUSH 609FF1BD\t\t\timport \"remix_tests.sol\";\\nimp...\n              GT \t\t\timport \"remix_tests.sol\";\\nimp...\n              PUSH [tag] 11\t\t\timport \"remix_tests.sol\";\\nimp...\n              JUMPI \t\t\timport \"remix_tests.sol\";\\nimp...\n              DUP1 \t\t\timport \"remix_tests.sol\";\\nimp...\n              PUSH 609FF1BD\t\t\timport \"remix_tests.sol\";\\nimp...\n              EQ \t\t\timport \"remix_tests.sol\";\\nimp...\n              PUSH [tag] 7\t\t\timport \"remix_tests.sol\";\\nimp...\n              JUMPI \t\t\timport \"remix_tests.sol\";\\nimp...\n              DUP1 \t\t\timport \"remix_tests.sol\";\\nimp...\n              PUSH 9E7B8D61\t\t\timport \"remix_tests.sol\";\\nimp...\n              EQ \t\t\timport \"remix_tests.sol\";\\nimp...\n              PUSH [tag] 8\t\t\timport \"remix_tests.sol\";\\nimp...\n              JUMPI \t\t\timport \"remix_tests.sol\";\\nimp...\n              DUP1 \t\t\timport \"remix_tests.sol\";\\nimp...\n              PUSH A3EC138D\t\t\timport \"remix_tests.sol\";\\nimp...\n              EQ \t\t\timport \"remix_tests.sol\";\\nimp...\n              PUSH [tag] 9\t\t\timport \"remix_tests.sol\";\\nimp...\n              JUMPI \t\t\timport \"remix_tests.sol\";\\nimp...\n              DUP1 \t\t\timport \"remix_tests.sol\";\\nimp...\n              PUSH E2BA53F0\t\t\timport \"remix_tests.sol\";\\nimp...\n              EQ \t\t\timport \"remix_tests.sol\";\\nimp...\n              PUSH [tag] 10\t\t\timport \"remix_tests.sol\";\\nimp...\n              JUMPI \t\t\timport \"remix_tests.sol\";\\nimp...\n              PUSH [tag] 2\t\t\timport \"remix_tests.sol\";\\nimp...\n              JUMP \t\t\timport \"remix_tests.sol\";\\nimp...\n            tag 11\t\t\timport \"remix_tests.sol\";\\nimp...\n              JUMPDEST \t\t\timport \"remix_tests.sol\";\\nimp...\n              DUP1 \t\t\timport \"remix_tests.sol\";\\nimp...\n              PUSH 121B93F\t\t\timport \"remix_tests.sol\";\\nimp...\n              EQ \t\t\timport \"remix_tests.sol\";\\nimp...\n              PUSH [tag] 3\t\t\timport \"remix_tests.sol\";\\nimp...\n              JUMPI \t\t\timport \"remix_tests.sol\";\\nimp...\n              DUP1 \t\t\timport \"remix_tests.sol\";\\nimp...\n              PUSH 13CF08B\t\t\timport \"remix_tests.sol\";\\nimp...\n              EQ \t\t\timport \"remix_tests.sol\";\\nimp...\n              PUSH [tag] 4\t\t\timport \"remix_tests.sol\";\\nimp...\n              JUMPI \t\t\timport \"remix_tests.sol\";\\nimp...\n              DUP1 \t\t\timport \"remix_tests.sol\";\\nimp...\n              PUSH 2E4176CF\t\t\timport \"remix_tests.sol\";\\nimp...\n              EQ \t\t\timport \"remix_tests.sol\";\\nimp...\n              PUSH [tag] 5\t\t\timport \"remix_tests.sol\";\\nimp...\n              JUMPI \t\t\timport \"remix_tests.sol\";\\nimp...\n              DUP1 \t\t\timport \"remix_tests.sol\";\\nimp...\n              PUSH 5C19A95C\t\t\timport \"remix_tests.sol\";\\nimp...\n              EQ \t\t\timport \"remix_tests.sol\";\\nimp...\n              PUSH [tag] 6\t\t\timport \"remix_tests.sol\";\\nimp...\n              JUMPI \t\t\timport \"remix_tests.sol\";\\nimp...\n            tag 2\t\t\timport \"remix_tests.sol\";\\nimp...\n              JUMPDEST \t\t\timport \"remix_tests.sol\";\\nimp...\n              PUSH 0\t\t\timport \"remix_tests.sol\";\\nimp...\n              PUSH 0\t\t\timport \"remix_tests.sol\";\\nimp...\n              REVERT \t\t\timport \"remix_tests.sol\";\\nimp...\n            tag 3\t\t\t\n              JUMPDEST \t\t\t\n              PUSH [tag] 12\t\t\t\n              PUSH 4\t\t\t\n              DUP1 \t\t\t\n              CALLDATASIZE \t\t\t\n              SUB \t\t\t\n              DUP2 \t\t\t\n              ADD \t\t\t\n              SWAP1 \t\t\t\n              PUSH [tag] 13\t\t\t\n              SWAP2 \t\t\t\n              SWAP1 \t\t\t\n              PUSH [tag] 14\t\t\t\n              JUMP \t\t\t\n            tag 13\t\t\t\n              JUMPDEST \t\t\t\n              PUSH [tag] 15\t\t\t\n              JUMP \t\t\t\n            tag 12\t\t\t\n              JUMPDEST \t\t\t\n              STOP \t\t\t\n            tag 4\t\t\tcheckWinningProposal() publ\n              JUMPDEST \t\t\tcheckWinningProposal() publ\n              PUSH [tag] 16\t\t\tcheckWinningProposal() publ\n              PUSH 4\t\t\tcheckWinningProposal() publ\n              DUP1 \t\t\tcheckWinningProposal() publ\n              CALLDATASIZE \t\t\tcheckWinningProposal() publ\n              SUB \t\t\tcheckWinningProposal() publ\n              DUP2 \t\t\tcheckWinningProposal() publ\n              ADD \t\t\tcheckWinningProposal() publ\n              SWAP1 \t\t\tcheckWinningProposal() publ\n              PUSH [tag] 17\t\t\tcheckWinningProposal() publ\n              SWAP2 \t\t\tcheckWinningProposal() publ\n              SWAP1 \t\t\tcheckWinningProposal() publ\n              PUSH [tag] 14\t\t\tcheckWinningProposal() publ\n              JUMP \t\t\tcheckWinningProposal() publ\n            tag 17\t\t\tcheckWinningProposal() publ\n              JUMPDEST \t\t\tcheckWinningProposal() publ\n              PUSH [tag] 18\t\t\tcheckWinningProposal() publ\n              JUMP \t\t\tcheckWinningProposal() publ\n            tag 16\t\t\tcheckWinningProposal() publ\n              JUMPDEST \t\t\tcheckWinningProposal() publ\n              PUSH 40\t\t\tcheckWinningProposal() publ\n              MLOAD \t\t\tcheckWinningProposal() publ\n              PUSH [tag] 19\t\t\tcheckWinningProposal() publ\n              SWAP3 \t\t\tcheckWinningProposal() publ\n              SWAP2 \t\t\tcheckWinningProposal() publ\n              SWAP1 \t\t\tcheckWinningProposal() publ\n              PUSH [tag] 20\t\t\tcheckWinningProposal() publ\n              JUMP \t\t\tcheckWinningProposal() publ\n            tag 19\t\t\tcheckWinningProposal() publ\n              JUMPDEST \t\t\tcheckWinningProposal() publ\n              PUSH 40\t\t\tcheckWinningProposal() publ\n              MLOAD \t\t\tcheckWinningProposal() publ\n              DUP1 \t\t\tcheckWinningProposal() publ\n              SWAP2 \t\t\tcheckWinningProposal() publ\n              SUB \t\t\tcheckWinningProposal() publ\n              SWAP1 \t\t\tcheckWinningProposal() publ\n              RETURN \t\t\tcheckWinningProposal() publ\n            tag 5\t\t\te1\"));\\n        ballotToTes\n              JUMPDEST \t\t\te1\"));\\n        ballotToTes\n              PUSH [tag] 21\t\t\te1\"));\\n        ballotToTes\n              PUSH [tag] 22\t\t\te1\"));\\n        ballotToTes\n              JUMP \t\t\te1\"));\\n        ballotToTes\n            tag 21\t\t\te1\"));\\n        ballotToTes\n              JUMPDEST \t\t\te1\"));\\n        ballotToTes\n              PUSH 40\t\t\te1\"));\\n        ballotToTes\n              MLOAD \t\t\te1\"));\\n        ballotToTes\n              PUSH [tag] 23\t\t\te1\"));\\n        ballotToTes\n              SWAP2 \t\t\te1\"));\\n        ballotToTes\n              SWAP1 \t\t\te1\"));\\n        ballotToTes\n              PUSH [tag] 24\t\t\te1\"));\\n        ballotToTes\n              JUMP \t\t\te1\"));\\n        ballotToTes\n            tag 23\t\t\te1\"));\\n        ballotToTes\n              JUMPDEST \t\t\te1\"));\\n        ballotToTes\n              PUSH 40\t\t\te1\"));\\n        ballotToTes\n              MLOAD \t\t\te1\"));\\n        ballotToTes\n              DUP1 \t\t\te1\"));\\n        ballotToTes\n              SWAP2 \t\t\te1\"));\\n        ballotToTes\n              SUB \t\t\te1\"));\\n        ballotToTes\n              SWAP1 \t\t\te1\"));\\n        ballotToTes\n              RETURN \t\t\te1\"));\\n        ballotToTes\n            tag 6\t\t\t\n              JUMPDEST \t\t\t\n              PUSH [tag] 25\t\t\t\n              PUSH 4\t\t\t\n              DUP1 \t\t\t\n              CALLDATASIZE \t\t\t\n              SUB \t\t\t\n              DUP2 \t\t\t\n              ADD \t\t\t\n              SWAP1 \t\t\t\n              PUSH [tag] 26\t\t\t\n              SWAP2 \t\t\t\n              SWAP1 \t\t\t\n              PUSH [tag] 27\t\t\t\n              JUMP \t\t\t\n            tag 26\t\t\t\n              JUMPDEST \t\t\t\n              PUSH [tag] 28\t\t\t\n              JUMP \t\t\t\n            tag 25\t\t\t\n              JUMPDEST \t\t\t\n              STOP \t\t\t\n            tag 7\t\t\t\n              JUMPDEST \t\t\t\n              PUSH [tag] 29\t\t\t\n              PUSH [tag] 30\t\t\t\n              JUMP \t\t\t\n            tag 29\t\t\t\n              JUMPDEST \t\t\t\n              PUSH 40\t\t\t\n              MLOAD \t\t\t\n              PUSH [tag] 31\t\t\t\n              SWAP2 \t\t\t\n              SWAP1 \t\t\t\n              PUSH [tag] 32\t\t\t\n              JUMP \t\t\t\n            tag 31\t\t\t\n              JUMPDEST \t\t\t\n              PUSH 40\t\t\t\n              MLOAD \t\t\t\n              DUP1 \t\t\t\n              SWAP2 \t\t\t\n              SUB \t\t\t\n              SWAP1 \t\t\t\n              RETURN \t\t\t\n            tag 8\t\t\theckWinninProposalWithReturnVa...\n              JUMPDEST \t\t\theckWinninProposalWithReturnVa...\n              PUSH [tag] 33\t\t\theckWinninProposalWithReturnVa...\n              PUSH 4\t\t\theckWinninProposalWithReturnVa...\n              DUP1 \t\t\theckWinninProposalWithReturnVa...\n              CALLDATASIZE \t\t\theckWinninProposalWithReturnVa...\n              SUB \t\t\theckWinninProposalWithReturnVa...\n              DUP2 \t\t\theckWinninProposalWithReturnVa...\n              ADD \t\t\theckWinninProposalWithReturnVa...\n              SWAP1 \t\t\theckWinninProposalWithReturnVa...\n              PUSH [tag] 34\t\t\theckWinninProposalWithReturnVa...\n              SWAP2 \t\t\theckWinninProposalWithReturnVa...\n              SWAP1 \t\t\theckWinninProposalWithReturnVa...\n              PUSH [tag] 27\t\t\theckWinninProposalWithReturnVa...\n              JUMP \t\t\theckWinninProposalWithReturnVa...\n            tag 34\t\t\theckWinninProposalWithReturnVa...\n              JUMPDEST \t\t\theckWinninProposalWithReturnVa...\n              PUSH [tag] 35\t\t\theckWinninProposalWithReturnVa...\n              JUMP \t\t\theckWinninProposalWithReturnVa...\n            tag 33\t\t\theckWinninProposalWithReturnVa...\n              JUMPDEST \t\t\theckWinninProposalWithReturnVa...\n              STOP \t\t\theckWinninProposalWithReturnVa...\n            tag 9\t\t\tw Ballot(proposalNames);\\n    ...\n              JUMPDEST \t\t\tw Ballot(proposalNames);\\n    ...\n              PUSH [tag] 36\t\t\tw Ballot(proposalNames);\\n    ...\n              PUSH 4\t\t\tw Ballot(proposalNames);\\n    ...\n              DUP1 \t\t\tw Ballot(proposalNames);\\n    ...\n              CALLDATASIZE \t\t\tw Ballot(proposalNames);\\n    ...\n              SUB \t\t\tw Ballot(proposalNames);\\n    ...\n              DUP2 \t\t\tw Ballot(proposalNames);\\n    ...\n              ADD \t\t\tw Ballot(proposalNames);\\n    ...\n              SWAP1 \t\t\tw Ballot(proposalNames);\\n    ...\n              PUSH [tag] 37\t\t\tw Ballot(proposalNames);\\n    ...\n              SWAP2 \t\t\tw Ballot(proposalNames);\\n    ...\n              SWAP1 \t\t\tw Ballot(proposalNames);\\n    ...\n              PUSH [tag] 27\t\t\tw Ballot(proposalNames);\\n    ...\n              JUMP \t\t\tw Ballot(proposalNames);\\n    ...\n            tag 37\t\t\tw Ballot(proposalNames);\\n    ...\n              JUMPDEST \t\t\tw Ballot(proposalNames);\\n    ...\n              PUSH [tag] 38\t\t\tw Ballot(proposalNames);\\n    ...\n              JUMP \t\t\tw Ballot(proposalNames);\\n    ...\n            tag 36\t\t\tw Ballot(proposalNames);\\n    ...\n              JUMPDEST \t\t\tw Ballot(proposalNames);\\n    ...\n              PUSH 40\t\t\tw Ballot(proposalNames);\\n    ...\n              MLOAD \t\t\tw Ballot(proposalNames);\\n    ...\n              PUSH [tag] 39\t\t\tw Ballot(proposalNames);\\n    ...\n              SWAP5 \t\t\tw Ballot(proposalNames);\\n    ...\n              SWAP4 \t\t\tw Ballot(proposalNames);\\n    ...\n              SWAP3 \t\t\tw Ballot(proposalNames);\\n    ...\n              SWAP2 \t\t\tw Ballot(proposalNames);\\n    ...\n              SWAP1 \t\t\tw Ballot(proposalNames);\\n    ...\n              PUSH [tag] 40\t\t\tw Ballot(proposalNames);\\n    ...\n              JUMP \t\t\tw Ballot(proposalNames);\\n    ...\n            tag 39\t\t\tw Ballot(proposalNames);\\n    ...\n              JUMPDEST \t\t\tw Ballot(proposalNames);\\n    ...\n              PUSH 40\t\t\tw Ballot(proposalNames);\\n    ...\n              MLOAD \t\t\tw Ballot(proposalNames);\\n    ...\n              DUP1 \t\t\tw Ballot(proposalNames);\\n    ...\n              SWAP2 \t\t\tw Ballot(proposalNames);\\n    ...\n              SUB \t\t\tw Ballot(proposalNames);\\n    ...\n              SWAP1 \t\t\tw Ballot(proposalNames);\\n    ...\n              RETURN \t\t\tw Ballot(proposalNames);\\n    ...\n            tag 10\t\t\t\n              JUMPDEST \t\t\t\n              PUSH [tag] 41\t\t\t\n              PUSH [tag] 42\t\t\t\n              JUMP \t\t\t\n            tag 41\t\t\t\n              JUMPDEST \t\t\t\n              PUSH 40\t\t\t\n              MLOAD \t\t\t\n              PUSH [tag] 43\t\t\t\n              SWAP2 \t\t\t\n              SWAP1 \t\t\t\n              PUSH [tag] 44\t\t\t\n              JUMP \t\t\t\n            tag 43\t\t\t\n              JUMPDEST \t\t\t\n              PUSH 40\t\t\t\n              MLOAD \t\t\t\n              DUP1 \t\t\t\n              SWAP2 \t\t\t\n              SUB \t\t\t\n              SWAP1 \t\t\t\n              RETURN \t\t\t\n            tag 15\t\t\t\n              JUMPDEST \t\t\t\n              PUSH 0\t\t\t\n              PUSH 1\t\t\t\n              PUSH 0\t\t\t\n              CALLER \t\t\t\n              PUSH FFFFFFFFFFFFFFFFFFFFFFFFFFFFFFFFFFFFFFFF\t\t\t\n              AND \t\t\t\n              PUSH FFFFFFFFFFFFFFFFFFFFFFFFFFFFFFFFFFFFFFFF\t\t\t\n              AND \t\t\t\n              DUP2 \t\t\t\n              MSTORE \t\t\t\n              PUSH 20\t\t\t\n              ADD \t\t\t\n              SWAP1 \t\t\t\n              DUP2 \t\t\t\n              MSTORE \t\t\t\n              PUSH 20\t\t\t\n              ADD \t\t\t\n              PUSH 0\t\t\t\n              KECCAK256 \t\t\t\n              SWAP1 \t\t\t\n              POP \t\t\t\n              PUSH 0\t\t\t\n              DUP2 \t\t\t\n              PUSH 0\t\t\t\n              ADD \t\t\t\n              SLOAD \t\t\t\n              SUB \t\t\t\n              PUSH [tag] 46\t\t\t\n              JUMPI \t\t\t\n              PUSH 40\t\t\t\n              MLOAD \t\t\t\n              PUSH 8C379A000000000000000000000000000000000000000000000000000000000\t\t\t\n              DUP2 \t\t\t\n              MSTORE \t\t\t\n              PUSH 4\t\t\t\n              ADD \t\t\t\n              PUSH [tag] 47\t\t\t\n              SWAP1 \t\t\t\n              PUSH [tag] 48\t\t\t\n              JUMP \t\t\t\n            tag 47\t\t\t\n              JUMPDEST \t\t\t\n              PUSH 40\t\t\t\n              MLOAD \t\t\t\n              DUP1 \t\t\t\n              SWAP2 \t\t\t\n              SUB \t\t\t\n              SWAP1 \t\t\t\n              REVERT \t\t\t\n            tag 46\t\t\t\n              JUMPDEST \t\t\t\n              DUP1 \t\t\t\n              PUSH 1\t\t\t\n              ADD \t\t\t\n              PUSH 0\t\t\t\n              SWAP1 \t\t\t\n              SLOAD \t\t\t\n              SWAP1 \t\t\t\n              PUSH 100\t\t\t\n              EXP \t\t\t\n              SWAP1 \t\t\t\n              DIV \t\t\t\n              PUSH FF\t\t\t\n              AND \t\t\t\n              ISZERO \t\t\t\n              PUSH [tag] 49\t\t\t\n              JUMPI \t\t\t\n              PUSH 40\t\t\t\n              MLOAD \t\t\t\n              PUSH 8C379A000000000000000000000000000000000000000000000000000000000\t\t\t\n              DUP2 \t\t\t\n              MSTORE \t\t\t\n              PUSH 4\t\t\t\n              ADD \t\t\t\n              PUSH [tag] 50\t\t\t\n              SWAP1 \t\t\t\n              PUSH [tag] 51\t\t\t\n              JUMP \t\t\t\n            tag 50\t\t\t\n              JUMPDEST \t\t\t\n              PUSH 40\t\t\t\n              MLOAD \t\t\t\n              DUP1 \t\t\t\n              SWAP2 \t\t\t\n              SUB \t\t\t\n              SWAP1 \t\t\t\n              REVERT \t\t\t\n            tag 49\t\t\t\n              JUMPDEST \t\t\t\n              PUSH 1\t\t\t\n              DUP2 \t\t\t\n              PUSH 1\t\t\t\n              ADD \t\t\t\n              PUSH 0\t\t\t\n              PUSH 100\t\t\t\n              EXP \t\t\t\n              DUP2 \t\t\t\n              SLOAD \t\t\t\n              DUP2 \t\t\t\n              PUSH FF\t\t\t\n              MUL \t\t\t\n              NOT \t\t\t\n              AND \t\t\t\n              SWAP1 \t\t\t\n              DUP4 \t\t\t\n              ISZERO \t\t\t\n              ISZERO \t\t\t\n              MUL \t\t\t\n              OR \t\t\t\n              SWAP1 \t\t\t\n              SSTORE \t\t\t\n              POP \t\t\t\n              DUP2 \t\t\t\n              DUP2 \t\t\t\n              PUSH 2\t\t\t\n              ADD \t\t\t\n              DUP2 \t\t\t\n              SWAP1 \t\t\t\n              SSTORE \t\t\t\n              POP \t\t\t\n              DUP1 \t\t\t\n              PUSH 0\t\t\t\n              ADD \t\t\t\n              SLOAD \t\t\t\n              PUSH 2\t\t\t\n              DUP4 \t\t\t\n              DUP2 \t\t\t\n              SLOAD \t\t\t\n              DUP2 \t\t\t\n              LT \t\t\t\n              PUSH [tag] 52\t\t\t\n              JUMPI \t\t\t\n              PUSH [tag] 53\t\t\t\n              PUSH [tag] 54\t\t\t\n              JUMP \t\t\t\n            tag 53\t\t\t\n              JUMPDEST \t\t\t\n            tag 52\t\t\t\n              JUMPDEST \t\t\t\n              SWAP1 \t\t\t\n              PUSH 0\t\t\t\n              MSTORE \t\t\t\n              PUSH 20\t\t\t\n              PUSH 0\t\t\t\n              KECCAK256 \t\t\t\n              SWAP1 \t\t\t\n              PUSH 2\t\t\t\n              MUL \t\t\t\n              ADD \t\t\t\n              PUSH 1\t\t\t\n              ADD \t\t\t\n              PUSH 0\t\t\t\n              DUP3 \t\t\t\n              DUP3 \t\t\t\n              SLOAD \t\t\t\n              PUSH [tag] 56\t\t\t\n              SWAP2 \t\t\t\n              SWAP1 \t\t\t\n              PUSH [tag] 57\t\t\t\n              JUMP \t\t\t\n            tag 56\t\t\t\n              JUMPDEST \t\t\t\n              SWAP3 \t\t\t\n              POP \t\t\t\n              POP \t\t\t\n              DUP2 \t\t\t\n              SWAP1 \t\t\t\n              SSTORE \t\t\t\n              POP \t\t\t\n              POP \t\t\t\n              POP \t\t\t\n              JUMP \t\t\t\n            tag 18\t\t\tcheckWinningProposal() publ\n              JUMPDEST \t\t\tcheckWinningProposal() publ\n              PUSH 2\t\t\tcheckWinningProposal() publ\n              DUP2 \t\t\tcheckWinningProposal() publ\n              DUP2 \t\t\tcheckWinningProposal() publ\n              SLOAD \t\t\tcheckWinningProposal() publ\n              DUP2 \t\t\tcheckWinningProposal() publ\n              LT \t\t\tcheckWinningProposal() publ\n              PUSH [tag] 58\t\t\tcheckWinningProposal() publ\n              JUMPI \t\t\tcheckWinningProposal() publ\n              PUSH 0\t\t\tcheckWinningProposal() publ\n              DUP1 \t\t\tcheckWinningProposal() publ\n              REVERT \t\t\tcheckWinningProposal() publ\n            tag 58\t\t\tcheckWinningProposal() publ\n              JUMPDEST \t\t\tcheckWinningProposal() publ\n              SWAP1 \t\t\tcheckWinningProposal() publ\n              PUSH 0\t\t\tcheckWinningProposal() publ\n              MSTORE \t\t\tcheckWinningProposal() publ\n              PUSH 20\t\t\tcheckWinningProposal() publ\n              PUSH 0\t\t\tcheckWinningProposal() publ\n              KECCAK256 \t\t\tcheckWinningProposal() publ\n              SWAP1 \t\t\tcheckWinningProposal() publ\n              PUSH 2\t\t\tcheckWinningProposal() publ\n              MUL \t\t\tcheckWinningProposal() publ\n              ADD \t\t\tcheckWinningProposal() publ\n              PUSH 0\t\t\tcheckWinningProposal() publ\n              SWAP2 \t\t\tcheckWinningProposal() publ\n              POP \t\t\tcheckWinningProposal() publ\n              SWAP1 \t\t\tcheckWinningProposal() publ\n              POP \t\t\tcheckWinningProposal() publ\n              DUP1 \t\t\tcheckWinningProposal() publ\n              PUSH 0\t\t\tcheckWinningProposal() publ\n              ADD \t\t\tcheckWinningProposal() publ\n              SLOAD \t\t\tcheckWinningProposal() publ\n              SWAP1 \t\t\tcheckWinningProposal() publ\n              DUP1 \t\t\tcheckWinningProposal() publ\n              PUSH 1\t\t\tcheckWinningProposal() publ\n              ADD \t\t\tcheckWinningProposal() publ\n              SLOAD \t\t\tcheckWinningProposal() publ\n              SWAP1 \t\t\tcheckWinningProposal() publ\n              POP \t\t\tcheckWinningProposal() publ\n              DUP3 \t\t\tcheckWinningProposal() publ\n              JUMP \t\t\tcheckWinningProposal() publ\n            tag 22\t\t\te1\"));\\n        ballotToTes\n              JUMPDEST \t\t\te1\"));\\n        ballotToTes\n              PUSH 0\t\t\te1\"));\\n        ballotToTes\n              PUSH 0\t\t\te1\"));\\n        ballotToTes\n              SWAP1 \t\t\te1\"));\\n        ballotToTes\n              SLOAD \t\t\te1\"));\\n        ballotToTes\n              SWAP1 \t\t\te1\"));\\n        ballotToTes\n              PUSH 100\t\t\te1\"));\\n        ballotToTes\n              EXP \t\t\te1\"));\\n        ballotToTes\n              SWAP1 \t\t\te1\"));\\n        ballotToTes\n              DIV \t\t\te1\"));\\n        ballotToTes\n              PUSH FFFFFFFFFFFFFFFFFFFFFFFFFFFFFFFFFFFFFFFF\t\t\te1\"));\\n        ballotToTes\n              AND \t\t\te1\"));\\n        ballotToTes\n              DUP2 \t\t\te1\"));\\n        ballotToTes\n              JUMP \t\t\te1\"));\\n        ballotToTes\n            tag 28\t\t\t\n              JUMPDEST \t\t\t\n              PUSH 0\t\t\t\n              PUSH 1\t\t\t\n              PUSH 0\t\t\t\n              CALLER \t\t\t\n              PUSH FFFFFFFFFFFFFFFFFFFFFFFFFFFFFFFFFFFFFFFF\t\t\t\n              AND \t\t\t\n              PUSH FFFFFFFFFFFFFFFFFFFFFFFFFFFFFFFFFFFFFFFF\t\t\t\n              AND \t\t\t\n              DUP2 \t\t\t\n              MSTORE \t\t\t\n              PUSH 20\t\t\t\n              ADD \t\t\t\n              SWAP1 \t\t\t\n              DUP2 \t\t\t\n              MSTORE \t\t\t\n              PUSH 20\t\t\t\n              ADD \t\t\t\n              PUSH 0\t\t\t\n              KECCAK256 \t\t\t\n              SWAP1 \t\t\t\n              POP \t\t\t\n              DUP1 \t\t\t\n              PUSH 1\t\t\t\n              ADD \t\t\t\n              PUSH 0\t\t\t\n              SWAP1 \t\t\t\n              SLOAD \t\t\t\n              SWAP1 \t\t\t\n              PUSH 100\t\t\t\n              EXP \t\t\t\n              SWAP1 \t\t\t\n              DIV \t\t\t\n              PUSH FF\t\t\t\n              AND \t\t\t\n              ISZERO \t\t\t\n              PUSH [tag] 61\t\t\t\n              JUMPI \t\t\t\n              PUSH 40\t\t\t\n              MLOAD \t\t\t\n              PUSH 8C379A000000000000000000000000000000000000000000000000000000000\t\t\t\n              DUP2 \t\t\t\n              MSTORE \t\t\t\n              PUSH 4\t\t\t\n              ADD \t\t\t\n              PUSH [tag] 62\t\t\t\n              SWAP1 \t\t\t\n              PUSH [tag] 63\t\t\t\n              JUMP \t\t\t\n            tag 62\t\t\t\n              JUMPDEST \t\t\t\n              PUSH 40\t\t\t\n              MLOAD \t\t\t\n              DUP1 \t\t\t\n              SWAP2 \t\t\t\n              SUB \t\t\t\n              SWAP1 \t\t\t\n              REVERT \t\t\t\n            tag 61\t\t\t\n              JUMPDEST \t\t\t\n              CALLER \t\t\t\n              PUSH FFFFFFFFFFFFFFFFFFFFFFFFFFFFFFFFFFFFFFFF\t\t\t\n              AND \t\t\t\n              DUP3 \t\t\t\n              PUSH FFFFFFFFFFFFFFFFFFFFFFFFFFFFFFFFFFFFFFFF\t\t\t\n              AND \t\t\t\n              SUB \t\t\t\n              PUSH [tag] 64\t\t\t\n              JUMPI \t\t\t\n              PUSH 40\t\t\t\n              MLOAD \t\t\t\n              PUSH 8C379A000000000000000000000000000000000000000000000000000000000\t\t\t\n              DUP2 \t\t\t\n              MSTORE \t\t\t\n              PUSH 4\t\t\t\n              ADD \t\t\t\n              PUSH [tag] 65\t\t\t\n              SWAP1 \t\t\t\n              PUSH [tag] 66\t\t\t\n              JUMP \t\t\t\n            tag 65\t\t\t\n              JUMPDEST \t\t\t\n              PUSH 40\t\t\t\n              MLOAD \t\t\t\n              DUP1 \t\t\t\n              SWAP2 \t\t\t\n              SUB \t\t\t\n              SWAP1 \t\t\t\n              REVERT \t\t\t\n            tag 64\t\t\t\n              JUMPDEST \t\t\t\n            tag 67\t\t\t\n              JUMPDEST \t\t\t\n              PUSH 0\t\t\t\n              PUSH FFFFFFFFFFFFFFFFFFFFFFFFFFFFFFFFFFFFFFFF\t\t\t\n              AND \t\t\t\n              PUSH 1\t\t\t\n              PUSH 0\t\t\t\n              DUP5 \t\t\t\n              PUSH FFFFFFFFFFFFFFFFFFFFFFFFFFFFFFFFFFFFFFFF\t\t\t\n              AND \t\t\t\n              PUSH FFFFFFFFFFFFFFFFFFFFFFFFFFFFFFFFFFFFFFFF\t\t\t\n              AND \t\t\t\n              DUP2 \t\t\t\n              MSTORE \t\t\t\n              PUSH 20\t\t\t\n              ADD \t\t\t\n              SWAP1 \t\t\t\n              DUP2 \t\t\t\n              MSTORE \t\t\t\n              PUSH 20\t\t\t\n              ADD \t\t\t\n              PUSH 0\t\t\t\n              KECCAK256 \t\t\t\n              PUSH 1\t\t\t\n              ADD \t\t\t\n              PUSH 1\t\t\t\n              SWAP1 \t\t\t\n              SLOAD \t\t\t\n              SWAP1 \t\t\t\n              PUSH 100\t\t\t\n              EXP \t\t\t\n              SWAP1 \t\t\t\n              DIV \t\t\t\n              PUSH FFFFFFFFFFFFFFFFFFFFFFFFFFFFFFFFFFFFFFFF\t\t\t\n              AND \t\t\t\n              PUSH FFFFFFFFFFFFFFFFFFFFFFFFFFFFFFFFFFFFFFFF\t\t\t\n              AND \t\t\t\n              EQ \t\t\t\n              PUSH [tag] 68\t\t\t\n              JUMPI \t\t\t\n              PUSH 1\t\t\t\n              PUSH 0\t\t\t\n              DUP4 \t\t\t\n              PUSH FFFFFFFFFFFFFFFFFFFFFFFFFFFFFFFFFFFFFFFF\t\t\t\n              AND \t\t\t\n              PUSH FFFFFFFFFFFFFFFFFFFFFFFFFFFFFFFFFFFFFFFF\t\t\t\n              AND \t\t\t\n              DUP2 \t\t\t\n              MSTORE \t\t\t\n              PUSH 20\t\t\t\n              ADD \t\t\t\n              SWAP1 \t\t\t\n              DUP2 \t\t\t\n              MSTORE \t\t\t\n              PUSH 20\t\t\t\n              ADD \t\t\t\n              PUSH 0\t\t\t\n              KECCAK256 \t\t\t\n              PUSH 1\t\t\t\n              ADD \t\t\t\n              PUSH 1\t\t\t\n              SWAP1 \t\t\t\n              SLOAD \t\t\t\n              SWAP1 \t\t\t\n              PUSH 100\t\t\t\n              EXP \t\t\t\n              SWAP1 \t\t\t\n              DIV \t\t\t\n              PUSH FFFFFFFFFFFFFFFFFFFFFFFFFFFFFFFFFFFFFFFF\t\t\t\n              AND \t\t\t\n              SWAP2 \t\t\t\n              POP \t\t\t\n              CALLER \t\t\t\n              PUSH FFFFFFFFFFFFFFFFFFFFFFFFFFFFFFFFFFFFFFFF\t\t\t\n              AND \t\t\t\n              DUP3 \t\t\t\n              PUSH FFFFFFFFFFFFFFFFFFFFFFFFFFFFFFFFFFFFFFFF\t\t\t\n              AND \t\t\t\n              SUB \t\t\t\n              PUSH [tag] 69\t\t\t\n              JUMPI \t\t\t\n              PUSH 40\t\t\t\n              MLOAD \t\t\t\n              PUSH 8C379A000000000000000000000000000000000000000000000000000000000\t\t\t\n              DUP2 \t\t\t\n              MSTORE \t\t\t\n              PUSH 4\t\t\t\n              ADD \t\t\t\n              PUSH [tag] 70\t\t\t\n              SWAP1 \t\t\t\n              PUSH [tag] 71\t\t\t\n              JUMP \t\t\t\n            tag 70\t\t\t\n              JUMPDEST \t\t\t\n              PUSH 40\t\t\t\n              MLOAD \t\t\t\n              DUP1 \t\t\t\n              SWAP2 \t\t\t\n              SUB \t\t\t\n              SWAP1 \t\t\t\n              REVERT \t\t\t\n            tag 69\t\t\t\n              JUMPDEST \t\t\t\n              PUSH [tag] 67\t\t\t\n              JUMP \t\t\t\n            tag 68\t\t\t\n              JUMPDEST \t\t\t\n              PUSH 1\t\t\t\n              DUP2 \t\t\t\n              PUSH 1\t\t\t\n              ADD \t\t\t\n              PUSH 0\t\t\t\n              PUSH 100\t\t\t\n              EXP \t\t\t\n              DUP2 \t\t\t\n              SLOAD \t\t\t\n              DUP2 \t\t\t\n              PUSH FF\t\t\t\n              MUL \t\t\t\n              NOT \t\t\t\n              AND \t\t\t\n              SWAP1 \t\t\t\n              DUP4 \t\t\t\n              ISZERO \t\t\t\n              ISZERO \t\t\t\n              MUL \t\t\t\n              OR \t\t\t\n              SWAP1 \t\t\t\n              SSTORE \t\t\t\n              POP \t\t\t\n              DUP2 \t\t\t\n              DUP2 \t\t\t\n              PUSH 1\t\t\t\n              ADD \t\t\t\n              PUSH 1\t\t\t\n              PUSH 100\t\t\t\n              EXP \t\t\t\n              DUP2 \t\t\t\n              SLOAD \t\t\t\n              DUP2 \t\t\t\n              PUSH FFFFFFFFFFFFFFFFFFFFFFFFFFFFFFFFFFFFFFFF\t\t\t\n              MUL \t\t\t\n              NOT \t\t\t\n              AND \t\t\t\n              SWAP1 \t\t\t\n              DUP4 \t\t\t\n              PUSH FFFFFFFFFFFFFFFFFFFFFFFFFFFFFFFFFFFFFFFF\t\t\t\n              AND \t\t\t\n              MUL \t\t\t\n              OR \t\t\t\n              SWAP1 \t\t\t\n              SSTORE \t\t\t\n              POP \t\t\t\n              PUSH 0\t\t\t\n              PUSH 1\t\t\t\n              PUSH 0\t\t\t\n              DUP5 \t\t\t\n              PUSH FFFFFFFFFFFFFFFFFFFFFFFFFFFFFFFFFFFFFFFF\t\t\t\n              AND \t\t\t\n              PUSH FFFFFFFFFFFFFFFFFFFFFFFFFFFFFFFFFFFFFFFF\t\t\t\n              AND \t\t\t\n              DUP2 \t\t\t\n              MSTORE \t\t\t\n              PUSH 20\t\t\t\n              ADD \t\t\t\n              SWAP1 \t\t\t\n              DUP2 \t\t\t\n              MSTORE \t\t\t\n              PUSH 20\t\t\t\n              ADD \t\t\t\n              PUSH 0\t\t\t\n              KECCAK256 \t\t\t\n              SWAP1 \t\t\t\n              POP \t\t\t\n              DUP1 \t\t\t\n              PUSH 1\t\t\t\n              ADD \t\t\t\n              PUSH 0\t\t\t\n              SWAP1 \t\t\t\n              SLOAD \t\t\t\n              SWAP1 \t\t\t\n              PUSH 100\t\t\t\n              EXP \t\t\t\n              SWAP1 \t\t\t\n              DIV \t\t\t\n              PUSH FF\t\t\t\n              AND \t\t\t\n              ISZERO \t\t\t\n              PUSH [tag] 72\t\t\t\n              JUMPI \t\t\t\n              DUP2 \t\t\t\n              PUSH 0\t\t\t\n              ADD \t\t\t\n              SLOAD \t\t\t\n              PUSH 2\t\t\t\n              DUP3 \t\t\t\n              PUSH 2\t\t\t\n              ADD \t\t\t\n              SLOAD \t\t\t\n              DUP2 \t\t\t\n              SLOAD \t\t\t\n              DUP2 \t\t\t\n              LT \t\t\t\n              PUSH [tag] 73\t\t\t\n              JUMPI \t\t\t\n              PUSH [tag] 74\t\t\t\n              PUSH [tag] 54\t\t\t\n              JUMP \t\t\t\n            tag 74\t\t\t\n              JUMPDEST \t\t\t\n            tag 73\t\t\t\n              JUMPDEST \t\t\t\n              SWAP1 \t\t\t\n              PUSH 0\t\t\t\n              MSTORE \t\t\t\n              PUSH 20\t\t\t\n              PUSH 0\t\t\t\n              KECCAK256 \t\t\t\n              SWAP1 \t\t\t\n              PUSH 2\t\t\t\n              MUL \t\t\t\n              ADD \t\t\t\n              PUSH 1\t\t\t\n              ADD \t\t\t\n              PUSH 0\t\t\t\n              DUP3 \t\t\t\n              DUP3 \t\t\t\n              SLOAD \t\t\t\n              PUSH [tag] 76\t\t\t\n              SWAP2 \t\t\t\n              SWAP1 \t\t\t\n              PUSH [tag] 57\t\t\t\n              JUMP \t\t\t\n            tag 76\t\t\t\n              JUMPDEST \t\t\t\n              SWAP3 \t\t\t\n              POP \t\t\t\n              POP \t\t\t\n              DUP2 \t\t\t\n              SWAP1 \t\t\t\n              SSTORE \t\t\t\n              POP \t\t\t\n              PUSH [tag] 77\t\t\t\n              JUMP \t\t\t\n            tag 72\t\t\t\n              JUMPDEST \t\t\t\n              DUP2 \t\t\t\n              PUSH 0\t\t\t\n              ADD \t\t\t\n              SLOAD \t\t\t\n              DUP2 \t\t\t\n              PUSH 0\t\t\t\n              ADD \t\t\t\n              PUSH 0\t\t\t\n              DUP3 \t\t\t\n              DUP3 \t\t\t\n              SLOAD \t\t\t\n              PUSH [tag] 78\t\t\t\n              SWAP2 \t\t\t\n              SWAP1 \t\t\t\n              PUSH [tag] 57\t\t\t\n              JUMP \t\t\t\n            tag 78\t\t\t\n              JUMPDEST \t\t\t\n              SWAP3 \t\t\t\n              POP \t\t\t\n              POP \t\t\t\n              DUP2 \t\t\t\n              SWAP1 \t\t\t\n              SSTORE \t\t\t\n              POP \t\t\t\n            tag 77\t\t\t\n              JUMPDEST \t\t\t\n              POP \t\t\t\n              POP \t\t\t\n              POP \t\t\t\n              JUMP \t\t\t\n            tag 30\t\t\t\n              JUMPDEST \t\t\t\n              PUSH 0\t\t\t\n              PUSH 0\t\t\t\n              PUSH 0\t\t\t\n              SWAP1 \t\t\t\n              POP \t\t\t\n              PUSH 0\t\t\t\n              PUSH 0\t\t\t\n              SWAP1 \t\t\t\n              POP \t\t\t\n            tag 80\t\t\t\n              JUMPDEST \t\t\t\n              PUSH 2\t\t\t\n              DUP1 \t\t\t\n              SLOAD \t\t\t\n              SWAP1 \t\t\t\n              POP \t\t\t\n              DUP2 \t\t\t\n              LT \t\t\t\n              ISZERO \t\t\t\n              PUSH [tag] 81\t\t\t\n              JUMPI \t\t\t\n              DUP2 \t\t\t\n              PUSH 2\t\t\t\n              DUP3 \t\t\t\n              DUP2 \t\t\t\n              SLOAD \t\t\t\n              DUP2 \t\t\t\n              LT \t\t\t\n              PUSH [tag] 83\t\t\t\n              JUMPI \t\t\t\n              PUSH [tag] 84\t\t\t\n              PUSH [tag] 54\t\t\t\n              JUMP \t\t\t\n            tag 84\t\t\t\n              JUMPDEST \t\t\t\n            tag 83\t\t\t\n              JUMPDEST \t\t\t\n              SWAP1 \t\t\t\n              PUSH 0\t\t\t\n              MSTORE \t\t\t\n              PUSH 20\t\t\t\n              PUSH 0\t\t\t\n              KECCAK256 \t\t\t\n              SWAP1 \t\t\t\n              PUSH 2\t\t\t\n              MUL \t\t\t\n              ADD \t\t\t\n              PUSH 1\t\t\t\n              ADD \t\t\t\n              SLOAD \t\t\t\n              GT \t\t\t\n              ISZERO \t\t\t\n              PUSH [tag] 86\t\t\t\n              JUMPI \t\t\t\n              PUSH 2\t\t\t\n              DUP2 \t\t\t\n              DUP2 \t\t\t\n              SLOAD \t\t\t\n              DUP2 \t\t\t\n              LT \t\t\t\n              PUSH [tag] 87\t\t\t\n              JUMPI \t\t\t\n              PUSH [tag] 88\t\t\t\n              PUSH [tag] 54\t\t\t\n              JUMP \t\t\t\n            tag 88\t\t\t\n              JUMPDEST \t\t\t\n            tag 87\t\t\t\n              JUMPDEST \t\t\t\n              SWAP1 \t\t\t\n              PUSH 0\t\t\t\n              MSTORE \t\t\t\n              PUSH 20\t\t\t\n              PUSH 0\t\t\t\n              KECCAK256 \t\t\t\n              SWAP1 \t\t\t\n              PUSH 2\t\t\t\n              MUL \t\t\t\n              ADD \t\t\t\n              PUSH 1\t\t\t\n              ADD \t\t\t\n              SLOAD \t\t\t\n              SWAP2 \t\t\t\n              POP \t\t\t\n              DUP1 \t\t\t\n              SWAP3 \t\t\t\n              POP \t\t\t\n            tag 86\t\t\t\n              JUMPDEST \t\t\t\n              DUP1 \t\t\t\n              DUP1 \t\t\t\n              PUSH 1\t\t\t\n              ADD \t\t\t\n              SWAP2 \t\t\t\n              POP \t\t\t\n              POP \t\t\t\n              PUSH [tag] 80\t\t\t\n              JUMP \t\t\t\n            tag 81\t\t\t\n              JUMPDEST \t\t\t\n              POP \t\t\t\n              POP \t\t\t\n              SWAP1 \t\t\t\n              JUMP \t\t\t\n            tag 35\t\t\theckWinninProposalWithReturnVa...\n              JUMPDEST \t\t\theckWinninProposalWithReturnVa...\n              PUSH 0\t\t\t ballotToTe\n              PUSH 0\t\t\t ballotToTe\n              SWAP1 \t\t\t ballotToTe\n              SLOAD \t\t\t ballotToTe\n              SWAP1 \t\t\t ballotToTe\n              PUSH 100\t\t\t ballotToTe\n              EXP \t\t\t ballotToTe\n              SWAP1 \t\t\t ballotToTe\n              DIV \t\t\t ballotToTe\n              PUSH FFFFFFFFFFFFFFFFFFFFFFFFFFFFFFFFFFFFFFFF\t\t\t ballotToTe\n              AND \t\t\t ballotToTe\n              PUSH FFFFFFFFFFFFFFFFFFFFFFFFFFFFFFFFFFFFFFFF\t\t\t        return ballotToTe\n              AND \t\t\t        return ballotToTe\n              CALLER \t\t\t        re\n              PUSH FFFFFFFFFFFFFFFFFFFFFFFFFFFFFFFFFFFFFFFF\t\t\t        return ballotToTe\n              AND \t\t\t        return ballotToTe\n              EQ \t\t\t        return ballotToTe\n              PUSH [tag] 91\t\t\tbool) {\\n        return ballot...\n              JUMPI \t\t\tbool) {\\n        return ballot...\n              PUSH 40\t\t\tbool) {\\n        return ballot...\n              MLOAD \t\t\tbool) {\\n        return ballot...\n              PUSH 8C379A000000000000000000000000000000000000000000000000000000000\t\t\tbool) {\\n        return ballot...\n              DUP2 \t\t\tbool) {\\n        return ballot...\n              MSTORE \t\t\tbool) {\\n        return ballot...\n              PUSH 4\t\t\tbool) {\\n        return ballot...\n              ADD \t\t\tbool) {\\n        return ballot...\n              PUSH [tag] 92\t\t\tbool) {\\n        return ballot...\n              SWAP1 \t\t\tbool) {\\n        return ballot...\n              PUSH [tag] 93\t\t\tbool) {\\n        return ballot...\n              JUMP \t\t\tbool) {\\n        return ballot...\n            tag 92\t\t\tbool) {\\n        return ballot...\n              JUMPDEST \t\t\tbool) {\\n        return ballot...\n              PUSH 40\t\t\tbool) {\\n        return ballot...\n              MLOAD \t\t\tbool) {\\n        return ballot...\n              DUP1 \t\t\tbool) {\\n        return ballot...\n              SWAP2 \t\t\tbool) {\\n        return ballot...\n              SUB \t\t\tbool) {\\n        return ballot...\n              SWAP1 \t\t\tbool) {\\n        return ballot...\n              REVERT \t\t\tbool) {\\n        return ballot...\n            tag 91\t\t\tbool) {\\n        return ballot...\n              JUMPDEST \t\t\tbool) {\\n        return ballot...\n              PUSH 1\t\t\t\n              PUSH 0\t\t\t\n              DUP3 \t\t\t\n              PUSH FFFFFFFFFFFFFFFFFFFFFFFFFFFFFFFFFFFFFFFF\t\t\t\n              AND \t\t\t\n              PUSH FFFFFFFFFFFFFFFFFFFFFFFFFFFFFFFFFFFFFFFF\t\t\t\n              AND \t\t\t\n              DUP2 \t\t\t\n              MSTORE \t\t\t\n              PUSH 20\t\t\t\n              ADD \t\t\t\n              SWAP1 \t\t\t\n              DUP2 \t\t\t\n              MSTORE \t\t\t\n              PUSH 20\t\t\t\n              ADD \t\t\t\n              PUSH 0\t\t\t\n              KECCAK256 \t\t\t\n              PUSH 1\t\t\t\n              ADD \t\t\t\n              PUSH 0\t\t\t\n              SWAP1 \t\t\t\n              SLOAD \t\t\t\n              SWAP1 \t\t\t\n              PUSH 100\t\t\t\n              EXP \t\t\t\n              SWAP1 \t\t\t\n              DIV \t\t\t\n              PUSH FF\t\t\t\n              AND \t\t\t\n              ISZERO \t\t\t\n              PUSH [tag] 94\t\t\t\n              JUMPI \t\t\t\n              PUSH 40\t\t\t\n              MLOAD \t\t\t\n              PUSH 8C379A000000000000000000000000000000000000000000000000000000000\t\t\t\n              DUP2 \t\t\t\n              MSTORE \t\t\t\n              PUSH 4\t\t\t\n              ADD \t\t\t\n              PUSH [tag] 95\t\t\t\n              SWAP1 \t\t\t\n              PUSH [tag] 96\t\t\t\n              JUMP \t\t\t\n            tag 95\t\t\t\n              JUMPDEST \t\t\t\n              PUSH 40\t\t\t\n              MLOAD \t\t\t\n              DUP1 \t\t\t\n              SWAP2 \t\t\t\n              SUB \t\t\t\n              SWAP1 \t\t\t\n              REVERT \t\t\t\n            tag 94\t\t\t\n              JUMPDEST \t\t\t\n              PUSH 0\t\t\t\n              PUSH 1\t\t\t\n              PUSH 0\t\t\t\n              DUP4 \t\t\t\n              PUSH FFFFFFFFFFFFFFFFFFFFFFFFFFFFFFFFFFFFFFFF\t\t\t\n              AND \t\t\t\n              PUSH FFFFFFFFFFFFFFFFFFFFFFFFFFFFFFFFFFFFFFFF\t\t\t\n              AND \t\t\t\n              DUP2 \t\t\t\n              MSTORE \t\t\t\n              PUSH 20\t\t\t\n              ADD \t\t\t\n              SWAP1 \t\t\t\n              DUP2 \t\t\t\n              MSTORE \t\t\t\n              PUSH 20\t\t\t\n              ADD \t\t\t\n              PUSH 0\t\t\t\n              KECCAK256 \t\t\t\n              PUSH 0\t\t\t\n              ADD \t\t\t\n              SLOAD \t\t\t\n              EQ \t\t\t\n              PUSH [tag] 97\t\t\t\n              JUMPI \t\t\t\n              PUSH 40\t\t\t\n              MLOAD \t\t\t\n              PUSH 8C379A000000000000000000000000000000000000000000000000000000000\t\t\t\n              DUP2 \t\t\t\n              MSTORE \t\t\t\n              PUSH 4\t\t\t\n              ADD \t\t\t\n              PUSH [tag] 98\t\t\t\n              SWAP1 \t\t\t\n              PUSH [tag] 99\t\t\t\n              JUMP \t\t\t\n            tag 98\t\t\t\n              JUMPDEST \t\t\t\n              PUSH 40\t\t\t\n              MLOAD \t\t\t\n              DUP1 \t\t\t\n              SWAP2 \t\t\t\n              SUB \t\t\t\n              SWAP1 \t\t\t\n              REVERT \t\t\t\n            tag 97\t\t\t\n              JUMPDEST \t\t\t\n              PUSH 1\t\t\t\n              DUP1 \t\t\t\n              PUSH 0\t\t\t\n              DUP4 \t\t\t\n              PUSH FFFFFFFFFFFFFFFFFFFFFFFFFFFFFFFFFFFFFFFF\t\t\t\n              AND \t\t\t\n              PUSH FFFFFFFFFFFFFFFFFFFFFFFFFFFFFFFFFFFFFFFF\t\t\t\n              AND \t\t\t\n              DUP2 \t\t\t\n              MSTORE \t\t\t\n              PUSH 20\t\t\t\n              ADD \t\t\t\n              SWAP1 \t\t\t\n              DUP2 \t\t\t\n              MSTORE \t\t\t\n              PUSH 20\t\t\t\n              ADD \t\t\t\n              PUSH 0\t\t\t\n              KECCAK256 \t\t\t\n              PUSH 0\t\t\t\n              ADD \t\t\t\n              DUP2 \t\t\t\n              SWAP1 \t\t\t\n              SSTORE \t\t\t\n              POP \t\t\t\n              POP \t\t\theckWinninProposalWithReturnVa...\n              JUMP \t\t\theckWinninProposalWithReturnVa...\n            tag 38\t\t\tw Ballot(proposalNames);\\n    ...\n              JUMPDEST \t\t\tw Ballot(proposalNames);\\n    ...\n              PUSH 1\t\t\tw Ballot(proposalNames);\\n    ...\n              PUSH 20\t\t\tw Ballot(proposalNames);\\n    ...\n              MSTORE \t\t\tw Ballot(proposalNames);\\n    ...\n              DUP1 \t\t\tw Ballot(proposalNames);\\n    ...\n              PUSH 0\t\t\tw Ballot(proposalNames);\\n    ...\n              MSTORE \t\t\tw Ballot(proposalNames);\\n    ...\n              PUSH 40\t\t\tw Ballot(proposalNames);\\n    ...\n              PUSH 0\t\t\tw Ballot(proposalNames);\\n    ...\n              KECCAK256 \t\t\tw Ballot(proposalNames);\\n    ...\n              PUSH 0\t\t\tw Ballot(proposalNames);\\n    ...\n              SWAP2 \t\t\tw Ballot(proposalNames);\\n    ...\n              POP \t\t\tw Ballot(proposalNames);\\n    ...\n              SWAP1 \t\t\tw Ballot(proposalNames);\\n    ...\n              POP \t\t\tw Ballot(proposalNames);\\n    ...\n              DUP1 \t\t\tw Ballot(proposalNames);\\n    ...\n              PUSH 0\t\t\tw Ballot(proposalNames);\\n    ...\n              ADD \t\t\tw Ballot(proposalNames);\\n    ...\n              SLOAD \t\t\tw Ballot(proposalNames);\\n    ...\n              SWAP1 \t\t\tw Ballot(proposalNames);\\n    ...\n              DUP1 \t\t\tw Ballot(proposalNames);\\n    ...\n              PUSH 1\t\t\tw Ballot(proposalNames);\\n    ...\n              ADD \t\t\tw Ballot(proposalNames);\\n    ...\n              PUSH 0\t\t\tw Ballot(proposalNames);\\n    ...\n              SWAP1 \t\t\tw Ballot(proposalNames);\\n    ...\n              SLOAD \t\t\tw Ballot(proposalNames);\\n    ...\n              SWAP1 \t\t\tw Ballot(proposalNames);\\n    ...\n              PUSH 100\t\t\tw Ballot(proposalNames);\\n    ...\n              EXP \t\t\tw Ballot(proposalNames);\\n    ...\n              SWAP1 \t\t\tw Ballot(proposalNames);\\n    ...\n              DIV \t\t\tw Ballot(proposalNames);\\n    ...\n              PUSH FF\t\t\tw Ballot(proposalNames);\\n    ...\n              AND \t\t\tw Ballot(proposalNames);\\n    ...\n              SWAP1 \t\t\tw Ballot(proposalNames);\\n    ...\n              DUP1 \t\t\tw Ballot(proposalNames);\\n    ...\n              PUSH 1\t\t\tw Ballot(proposalNames);\\n    ...\n              ADD \t\t\tw Ballot(proposalNames);\\n    ...\n              PUSH 1\t\t\tw Ballot(proposalNames);\\n    ...\n              SWAP1 \t\t\tw Ballot(proposalNames);\\n    ...\n              SLOAD \t\t\tw Ballot(proposalNames);\\n    ...\n              SWAP1 \t\t\tw Ballot(proposalNames);\\n    ...\n              PUSH 100\t\t\tw Ballot(proposalNames);\\n    ...\n              EXP \t\t\tw Ballot(proposalNames);\\n    ...\n              SWAP1 \t\t\tw Ballot(proposalNames);\\n    ...\n              DIV \t\t\tw Ballot(proposalNames);\\n    ...\n              PUSH FFFFFFFFFFFFFFFFFFFFFFFFFFFFFFFFFFFFFFFF\t\t\tw Ballot(proposalNames);\\n    ...\n              AND \t\t\tw Ballot(proposalNames);\\n    ...\n              SWAP1 \t\t\tw Ballot(proposalNames);\\n    ...\n              DUP1 \t\t\tw Ballot(proposalNames);\\n    ...\n              PUSH 2\t\t\tw Ballot(proposalNames);\\n    ...\n              ADD \t\t\tw Ballot(proposalNames);\\n    ...\n              SLOAD \t\t\tw Ballot(proposalNames);\\n    ...\n              SWAP1 \t\t\tw Ballot(proposalNames);\\n    ...\n              POP \t\t\tw Ballot(proposalNames);\\n    ...\n              DUP5 \t\t\tw Ballot(proposalNames);\\n    ...\n              JUMP \t\t\tw Ballot(proposalNames);\\n    ...\n            tag 42\t\t\t\n              JUMPDEST \t\t\t\n              PUSH 0\t\t\t\n              PUSH 2\t\t\t\n              PUSH [tag] 101\t\t\t\n              PUSH [tag] 30\t\t\t\n              JUMP \t\t\t\n            tag 101\t\t\t\n              JUMPDEST \t\t\t\n              DUP2 \t\t\t\n              SLOAD \t\t\t\n              DUP2 \t\t\t\n              LT \t\t\t\n              PUSH [tag] 102\t\t\t\n              JUMPI \t\t\t\n              PUSH [tag] 103\t\t\t\n              PUSH [tag] 54\t\t\t\n              JUMP \t\t\t\n            tag 103\t\t\t\n              JUMPDEST \t\t\t\n            tag 102\t\t\t\n              JUMPDEST \t\t\t\n              SWAP1 \t\t\t\n              PUSH 0\t\t\t\n              MSTORE \t\t\t\n              PUSH 20\t\t\t\n              PUSH 0\t\t\t\n              KECCAK256 \t\t\t\n              SWAP1 \t\t\t\n              PUSH 2\t\t\t\n              MUL \t\t\t\n              ADD \t\t\t\n              PUSH 0\t\t\t\n              ADD \t\t\t\n              SLOAD \t\t\t\n              SWAP1 \t\t\t\n              POP \t\t\t\n              SWAP1 \t\t\t\n              JUMP \t\t\t\n            tag 106\t\t\t.sol\";\\nimport \"../contracts/3...\n              JUMPDEST \t\t\t.sol\";\\nimport \"../contracts/3...\n              PUSH 0\t\t\tl\n              PUSH 0\t\t\tb\n              REVERT \t\t\tBallot ballo\n            tag 108\t\t\talNames);\\n    }\\n\\n    functi...\n              JUMPDEST \t\t\talNames);\\n    }\\n\\n    functi...\n              PUSH 0\t\t\tnningPr\n              DUP2 \t\t\t    b\n              SWAP1 \t\t\tblic {\\n        b\n              POP \t\t\tblic {\\n        b\n              SWAP2 \t\t\talNames);\\n    }\\n\\n    functi...\n              SWAP1 \t\t\talNames);\\n    }\\n\\n    functi...\n              POP \t\t\talNames);\\n    }\\n\\n    functi...\n              JUMP \t\t\talNames);\\n    }\\n\\n    functi...\n            tag 109\t\t\tvote(0);\\n        Assert.equal...\n              JUMPDEST \t\t\tvote(0);\\n        Assert.equal...\n              PUSH [tag] 145\t\t\t \"proposal at index 0 sh\n              DUP2 \t\t\tx 0 s\n              PUSH [tag] 108\t\t\t \"proposal at index 0 sh\n              JUMP \t\t\t \"proposal at index 0 sh\n            tag 145\t\t\t \"proposal at index 0 sh\n              JUMPDEST \t\t\t \"proposal at index 0 sh\n              DUP2 \t\t\t256(0\n              EQ \t\t\tint256(0), \"proposal at index ...\n              PUSH [tag] 146\t\t\tposal(), uint256(0), \"proposal...\n              JUMPI \t\t\tposal(), uint256(0), \"proposal...\n              PUSH 0\t\t\tn\n              PUSH 0\t\t\tw\n              REVERT \t\t\tbe the winni\n            tag 146\t\t\tposal(), uint256(0), \"proposal...\n              JUMPDEST \t\t\tposal(), uint256(0), \"proposal...\n              POP \t\t\tvote(0);\\n        Assert.equal...\n              JUMP \t\t\tvote(0);\\n        Assert.equal...\n            tag 110\t\t\t\\n        Assert.equal(ballotT...\n              JUMPDEST \t\t\t\\n        Assert.equal(ballotT...\n              PUSH 0\t\t\t), by\n              DUP2 \t\t\tshould\n              CALLDATALOAD \t\t\t \"candidate1 should \n              SWAP1 \t\t\tidate1\"), \"candidate1 should \n              POP \t\t\tidate1\"), \"candidate1 should \n              PUSH [tag] 148\t\t\tnner name\");\\n    }\\n\\n    fun...\n              DUP2 \t\t\tction\n              PUSH [tag] 109\t\t\tnner name\");\\n    }\\n\\n    fun...\n              JUMP \t\t\tnner name\");\\n    }\\n\\n    fun...\n            tag 148\t\t\tnner name\");\\n    }\\n\\n    fun...\n              JUMPDEST \t\t\tnner name\");\\n    }\\n\\n    fun...\n              SWAP3 \t\t\t\\n        Assert.equal(ballotT...\n              SWAP2 \t\t\t\\n        Assert.equal(ballotT...\n              POP \t\t\t\\n        Assert.equal(ballotT...\n              POP \t\t\t\\n        Assert.equal(ballotT...\n              JUMP \t\t\t\\n        Assert.equal(ballotT...\n            tag 14\t\t\troposalWithReturnValue() publi...\n              JUMPDEST \t\t\troposalWithReturnValue() publi...\n              PUSH 0\t\t\t   ret\n              PUSH 20\t\t\t  \n              DUP3 \t\t\tl() == 0;\n              DUP5 \t\t\tngPropo\n              SUB \t\t\tinningProposal() == 0;\\n\n              SLT \t\t\tst.winningProposal() == 0;\\n  ...\n              ISZERO \t\t\toTest.winningProposal() == 0;\\...\n              PUSH [tag] 150\t\t\toTest.winningProposal() == 0;\\...\n              JUMPI \t\t\toTest.winningProposal() == 0;\\...\n              PUSH [tag] 151\t\t\t\n              PUSH [tag] 106\t\t\t\n              JUMP \t\t\t\n            tag 151\t\t\t\n              JUMPDEST \t\t\t\n            tag 150\t\t\toTest.winningProposal() == 0;\\...\n              JUMPDEST \t\t\toTest.winningProposal() == 0;\\...\n              PUSH 0\t\t\t\n              PUSH [tag] 152\t\t\t\n              DUP5 \t\t\t\n              DUP3 \t\t\t\n              DUP6 \t\t\t\n              ADD \t\t\t\n              PUSH [tag] 110\t\t\t\n              JUMP \t\t\t\n            tag 152\t\t\t\n              JUMPDEST \t\t\t\n              SWAP2 \t\t\t\n              POP \t\t\t\n              POP \t\t\t\n              SWAP3 \t\t\troposalWithReturnValue() publi...\n              SWAP2 \t\t\troposalWithReturnValue() publi...\n              POP \t\t\troposalWithReturnValue() publi...\n              POP \t\t\troposalWithReturnValue() publi...\n              JUMP \t\t\troposalWithReturnValue() publi...\n            tag 111\t\t\t\n              JUMPDEST \t\t\t\n              PUSH 0\t\t\t\n              DUP2 \t\t\t\n              SWAP1 \t\t\t\n              POP \t\t\t\n              SWAP2 \t\t\t\n              SWAP1 \t\t\t\n              POP \t\t\t\n              JUMP \t\t\t\n            tag 112\t\t\t\n              JUMPDEST \t\t\t\n              PUSH [tag] 155\t\t\t\n              DUP2 \t\t\t\n              PUSH [tag] 111\t\t\t\n              JUMP \t\t\t\n            tag 155\t\t\t\n              JUMPDEST \t\t\t\n              DUP3 \t\t\t\n              MSTORE \t\t\t\n              POP \t\t\t\n              POP \t\t\t\n              JUMP \t\t\t\n            tag 113\t\t\t\n              JUMPDEST \t\t\t\n              PUSH [tag] 157\t\t\t\n              DUP2 \t\t\t\n              PUSH [tag] 108\t\t\t\n              JUMP \t\t\t\n            tag 157\t\t\t\n              JUMPDEST \t\t\t\n              DUP3 \t\t\t\n              MSTORE \t\t\t\n              POP \t\t\t\n              POP \t\t\t\n              JUMP \t\t\t\n            tag 20\t\t\t\n              JUMPDEST \t\t\t\n              PUSH 0\t\t\t\n              PUSH 40\t\t\t\n              DUP3 \t\t\t\n              ADD \t\t\t\n              SWAP1 \t\t\t\n              POP \t\t\t\n              PUSH [tag] 159\t\t\t\n              PUSH 0\t\t\t\n              DUP4 \t\t\t\n              ADD \t\t\t\n              DUP6 \t\t\t\n              PUSH [tag] 112\t\t\t\n              JUMP \t\t\t\n            tag 159\t\t\t\n              JUMPDEST \t\t\t\n              PUSH [tag] 160\t\t\t\n              PUSH 20\t\t\t\n              DUP4 \t\t\t\n              ADD \t\t\t\n              DUP5 \t\t\t\n              PUSH [tag] 113\t\t\t\n              JUMP \t\t\t\n            tag 160\t\t\t\n              JUMPDEST \t\t\t\n              SWAP4 \t\t\t\n              SWAP3 \t\t\t\n              POP \t\t\t\n              POP \t\t\t\n              POP \t\t\t\n              JUMP \t\t\t\n            tag 114\t\t\t\n              JUMPDEST \t\t\t\n              PUSH 0\t\t\t\n              PUSH FFFFFFFFFFFFFFFFFFFFFFFFFFFFFFFFFFFFFFFF\t\t\t\n              DUP3 \t\t\t\n              AND \t\t\t\n              SWAP1 \t\t\t\n              POP \t\t\t\n              SWAP2 \t\t\t\n              SWAP1 \t\t\t\n              POP \t\t\t\n              JUMP \t\t\t\n            tag 115\t\t\t\n              JUMPDEST \t\t\t\n              PUSH 0\t\t\t\n              PUSH [tag] 163\t\t\t\n              DUP3 \t\t\t\n              PUSH [tag] 114\t\t\t\n              JUMP \t\t\t\n            tag 163\t\t\t\n              JUMPDEST \t\t\t\n              SWAP1 \t\t\t\n              POP \t\t\t\n              SWAP2 \t\t\t\n              SWAP1 \t\t\t\n              POP \t\t\t\n              JUMP \t\t\t\n            tag 116\t\t\t\n              JUMPDEST \t\t\t\n              PUSH [tag] 165\t\t\t\n              DUP2 \t\t\t\n              PUSH [tag] 115\t\t\t\n              JUMP \t\t\t\n            tag 165\t\t\t\n              JUMPDEST \t\t\t\n              DUP3 \t\t\t\n              MSTORE \t\t\t\n              POP \t\t\t\n              POP \t\t\t\n              JUMP \t\t\t\n            tag 24\t\t\t\n              JUMPDEST \t\t\t\n              PUSH 0\t\t\t\n              PUSH 20\t\t\t\n              DUP3 \t\t\t\n              ADD \t\t\t\n              SWAP1 \t\t\t\n              POP \t\t\t\n              PUSH [tag] 167\t\t\t\n              PUSH 0\t\t\t\n              DUP4 \t\t\t\n              ADD \t\t\t\n              DUP5 \t\t\t\n              PUSH [tag] 116\t\t\t\n              JUMP \t\t\t\n            tag 167\t\t\t\n              JUMPDEST \t\t\t\n              SWAP3 \t\t\t\n              SWAP2 \t\t\t\n              POP \t\t\t\n              POP \t\t\t\n              JUMP \t\t\t\n            tag 117\t\t\t\n              JUMPDEST \t\t\t\n              PUSH [tag] 169\t\t\t\n              DUP2 \t\t\t\n              PUSH [tag] 115\t\t\t\n              JUMP \t\t\t\n            tag 169\t\t\t\n              JUMPDEST \t\t\t\n              DUP2 \t\t\t\n              EQ \t\t\t\n              PUSH [tag] 170\t\t\t\n              JUMPI \t\t\t\n              PUSH 0\t\t\t\n              PUSH 0\t\t\t\n              REVERT \t\t\t\n            tag 170\t\t\t\n              JUMPDEST \t\t\t\n              POP \t\t\t\n              JUMP \t\t\t\n            tag 118\t\t\t\n              JUMPDEST \t\t\t\n              PUSH 0\t\t\t\n              DUP2 \t\t\t\n              CALLDATALOAD \t\t\t\n              SWAP1 \t\t\t\n              POP \t\t\t\n              PUSH [tag] 172\t\t\t\n              DUP2 \t\t\t\n              PUSH [tag] 117\t\t\t\n              JUMP \t\t\t\n            tag 172\t\t\t\n              JUMPDEST \t\t\t\n              SWAP3 \t\t\t\n              SWAP2 \t\t\t\n              POP \t\t\t\n              POP \t\t\t\n              JUMP \t\t\t\n            tag 27\t\t\t\n              JUMPDEST \t\t\t\n              PUSH 0\t\t\t\n              PUSH 20\t\t\t\n              DUP3 \t\t\t\n              DUP5 \t\t\t\n              SUB \t\t\t\n              SLT \t\t\t\n              ISZERO \t\t\t\n              PUSH [tag] 174\t\t\t\n              JUMPI \t\t\t\n              PUSH [tag] 175\t\t\t\n              PUSH [tag] 106\t\t\t\n              JUMP \t\t\t\n            tag 175\t\t\t\n              JUMPDEST \t\t\t\n            tag 174\t\t\t\n              JUMPDEST \t\t\t\n              PUSH 0\t\t\t\n              PUSH [tag] 176\t\t\t\n              DUP5 \t\t\t\n              DUP3 \t\t\t\n              DUP6 \t\t\t\n              ADD \t\t\t\n              PUSH [tag] 118\t\t\t\n              JUMP \t\t\t\n            tag 176\t\t\t\n              JUMPDEST \t\t\t\n              SWAP2 \t\t\t\n              POP \t\t\t\n              POP \t\t\t\n              SWAP3 \t\t\t\n              SWAP2 \t\t\t\n              POP \t\t\t\n              POP \t\t\t\n              JUMP \t\t\t\n            tag 32\t\t\t\n              JUMPDEST \t\t\t\n              PUSH 0\t\t\t\n              PUSH 20\t\t\t\n              DUP3 \t\t\t\n              ADD \t\t\t\n              SWAP1 \t\t\t\n              POP \t\t\t\n              PUSH [tag] 178\t\t\t\n              PUSH 0\t\t\t\n              DUP4 \t\t\t\n              ADD \t\t\t\n              DUP5 \t\t\t\n              PUSH [tag] 113\t\t\t\n              JUMP \t\t\t\n            tag 178\t\t\t\n              JUMPDEST \t\t\t\n              SWAP3 \t\t\t\n              SWAP2 \t\t\t\n              POP \t\t\t\n              POP \t\t\t\n              JUMP \t\t\t\n            tag 119\t\t\t\n              JUMPDEST \t\t\t\n              PUSH 0\t\t\t\n              DUP2 \t\t\t\n              ISZERO \t\t\t\n              ISZERO \t\t\t\n              SWAP1 \t\t\t\n              POP \t\t\t\n              SWAP2 \t\t\t\n              SWAP1 \t\t\t\n              POP \t\t\t\n              JUMP \t\t\t\n            tag 120\t\t\t\n              JUMPDEST \t\t\t\n              PUSH [tag] 181\t\t\t\n              DUP2 \t\t\t\n              PUSH [tag] 119\t\t\t\n              JUMP \t\t\t\n            tag 181\t\t\t\n              JUMPDEST \t\t\t\n              DUP3 \t\t\t\n              MSTORE \t\t\t\n              POP \t\t\t\n              POP \t\t\t\n              JUMP \t\t\t\n            tag 40\t\t\t\n              JUMPDEST \t\t\t\n              PUSH 0\t\t\t\n              PUSH 80\t\t\t\n              DUP3 \t\t\t\n              ADD \t\t\t\n              SWAP1 \t\t\t\n              POP \t\t\t\n              PUSH [tag] 183\t\t\t\n              PUSH 0\t\t\t\n              DUP4 \t\t\t\n              ADD \t\t\t\n              DUP8 \t\t\t\n              PUSH [tag] 113\t\t\t\n              JUMP \t\t\t\n            tag 183\t\t\t\n              JUMPDEST \t\t\t\n              PUSH [tag] 184\t\t\t\n              PUSH 20\t\t\t\n              DUP4 \t\t\t\n              ADD \t\t\t\n              DUP7 \t\t\t\n              PUSH [tag] 120\t\t\t\n              JUMP \t\t\t\n            tag 184\t\t\t\n              JUMPDEST \t\t\t\n              PUSH [tag] 185\t\t\t\n              PUSH 40\t\t\t\n              DUP4 \t\t\t\n              ADD \t\t\t\n              DUP6 \t\t\t\n              PUSH [tag] 116\t\t\t\n              JUMP \t\t\t\n            tag 185\t\t\t\n              JUMPDEST \t\t\t\n              PUSH [tag] 186\t\t\t\n              PUSH 60\t\t\t\n              DUP4 \t\t\t\n              ADD \t\t\t\n              DUP5 \t\t\t\n              PUSH [tag] 113\t\t\t\n              JUMP \t\t\t\n            tag 186\t\t\t\n              JUMPDEST \t\t\t\n              SWAP6 \t\t\t\n              SWAP5 \t\t\t\n              POP \t\t\t\n              POP \t\t\t\n              POP \t\t\t\n              POP \t\t\t\n              POP \t\t\t\n              JUMP \t\t\t\n            tag 44\t\t\t\n              JUMPDEST \t\t\t\n              PUSH 0\t\t\t\n              PUSH 20\t\t\t\n              DUP3 \t\t\t\n              ADD \t\t\t\n              SWAP1 \t\t\t\n              POP \t\t\t\n              PUSH [tag] 188\t\t\t\n              PUSH 0\t\t\t\n              DUP4 \t\t\t\n              ADD \t\t\t\n              DUP5 \t\t\t\n              PUSH [tag] 112\t\t\t\n              JUMP \t\t\t\n            tag 188\t\t\t\n              JUMPDEST \t\t\t\n              SWAP3 \t\t\t\n              SWAP2 \t\t\t\n              POP \t\t\t\n              POP \t\t\t\n              JUMP \t\t\t\n            tag 121\t\t\t\n              JUMPDEST \t\t\t\n              PUSH 0\t\t\t\n              DUP3 \t\t\t\n              DUP3 \t\t\t\n              MSTORE \t\t\t\n              PUSH 20\t\t\t\n              DUP3 \t\t\t\n              ADD \t\t\t\n              SWAP1 \t\t\t\n              POP \t\t\t\n              SWAP3 \t\t\t\n              SWAP2 \t\t\t\n              POP \t\t\t\n              POP \t\t\t\n              JUMP \t\t\t\n            tag 122\t\t\t\n              JUMPDEST \t\t\t\n              PUSH 486173206E6F20726967687420746F20766F74652E0000000000000000000000\t\t\t\n              PUSH 0\t\t\t\n              DUP3 \t\t\t\n              ADD \t\t\t\n              MSTORE \t\t\t\n              POP \t\t\t\n              JUMP \t\t\t\n            tag 123\t\t\t\n              JUMPDEST \t\t\t\n              PUSH 0\t\t\t\n              PUSH [tag] 192\t\t\t\n              PUSH 15\t\t\t\n              DUP4 \t\t\t\n              PUSH [tag] 121\t\t\t\n              JUMP \t\t\t\n            tag 192\t\t\t\n              JUMPDEST \t\t\t\n              SWAP2 \t\t\t\n              POP \t\t\t\n              PUSH [tag] 193\t\t\t\n              DUP3 \t\t\t\n              PUSH [tag] 122\t\t\t\n              JUMP \t\t\t\n            tag 193\t\t\t\n              JUMPDEST \t\t\t\n              PUSH 20\t\t\t\n              DUP3 \t\t\t\n              ADD \t\t\t\n              SWAP1 \t\t\t\n              POP \t\t\t\n              SWAP2 \t\t\t\n              SWAP1 \t\t\t\n              POP \t\t\t\n              JUMP \t\t\t\n            tag 48\t\t\t\n              JUMPDEST \t\t\t\n              PUSH 0\t\t\t\n              PUSH 20\t\t\t\n              DUP3 \t\t\t\n              ADD \t\t\t\n              SWAP1 \t\t\t\n              POP \t\t\t\n              DUP2 \t\t\t\n              DUP2 \t\t\t\n              SUB \t\t\t\n              PUSH 0\t\t\t\n              DUP4 \t\t\t\n              ADD \t\t\t\n              MSTORE \t\t\t\n              PUSH [tag] 195\t\t\t\n              DUP2 \t\t\t\n              PUSH [tag] 123\t\t\t\n              JUMP \t\t\t\n            tag 195\t\t\t\n              JUMPDEST \t\t\t\n              SWAP1 \t\t\t\n              POP \t\t\t\n              SWAP2 \t\t\t\n              SWAP1 \t\t\t\n              POP \t\t\t\n              JUMP \t\t\t\n            tag 124\t\t\t\n              JUMPDEST \t\t\t\n              PUSH 416C726561647920766F7465642E000000000000000000000000000000000000\t\t\t\n              PUSH 0\t\t\t\n              DUP3 \t\t\t\n              ADD \t\t\t\n              MSTORE \t\t\t\n              POP \t\t\t\n              JUMP \t\t\t\n            tag 125\t\t\t\n              JUMPDEST \t\t\t\n              PUSH 0\t\t\t\n              PUSH [tag] 198\t\t\t\n              PUSH E\t\t\t\n              DUP4 \t\t\t\n              PUSH [tag] 121\t\t\t\n              JUMP \t\t\t\n            tag 198\t\t\t\n              JUMPDEST \t\t\t\n              SWAP2 \t\t\t\n              POP \t\t\t\n              PUSH [tag] 199\t\t\t\n              DUP3 \t\t\t\n              PUSH [tag] 124\t\t\t\n              JUMP \t\t\t\n            tag 199\t\t\t\n              JUMPDEST \t\t\t\n              PUSH 20\t\t\t\n              DUP3 \t\t\t\n              ADD \t\t\t\n              SWAP1 \t\t\t\n              POP \t\t\t\n              SWAP2 \t\t\t\n              SWAP1 \t\t\t\n              POP \t\t\t\n              JUMP \t\t\t\n            tag 51\t\t\t\n              JUMPDEST \t\t\t\n              PUSH 0\t\t\t\n              PUSH 20\t\t\t\n              DUP3 \t\t\t\n              ADD \t\t\t\n              SWAP1 \t\t\t\n              POP \t\t\t\n              DUP2 \t\t\t\n              DUP2 \t\t\t\n              SUB \t\t\t\n              PUSH 0\t\t\t\n              DUP4 \t\t\t\n              ADD \t\t\t\n              MSTORE \t\t\t\n              PUSH [tag] 201\t\t\t\n              DUP2 \t\t\t\n              PUSH [tag] 125\t\t\t\n              JUMP \t\t\t\n            tag 201\t\t\t\n              JUMPDEST \t\t\t\n              SWAP1 \t\t\t\n              POP \t\t\t\n              SWAP2 \t\t\t\n              SWAP1 \t\t\t\n              POP \t\t\t\n              JUMP \t\t\t\n            tag 54\t\t\t\n              JUMPDEST \t\t\t\n              PUSH 4E487B7100000000000000000000000000000000000000000000000000000000\t\t\t\n              PUSH 0\t\t\t\n              MSTORE \t\t\t\n              PUSH 32\t\t\t\n              PUSH 4\t\t\t\n              MSTORE \t\t\t\n              PUSH 24\t\t\t\n              PUSH 0\t\t\t\n              REVERT \t\t\t\n            tag 126\t\t\t\n              JUMPDEST \t\t\t\n              PUSH 4E487B7100000000000000000000000000000000000000000000000000000000\t\t\t\n              PUSH 0\t\t\t\n              MSTORE \t\t\t\n              PUSH 11\t\t\t\n              PUSH 4\t\t\t\n              MSTORE \t\t\t\n              PUSH 24\t\t\t\n              PUSH 0\t\t\t\n              REVERT \t\t\t\n            tag 57\t\t\t\n              JUMPDEST \t\t\t\n              PUSH 0\t\t\t\n              PUSH [tag] 205\t\t\t\n              DUP3 \t\t\t\n              PUSH [tag] 108\t\t\t\n              JUMP \t\t\t\n            tag 205\t\t\t\n              JUMPDEST \t\t\t\n              SWAP2 \t\t\t\n              POP \t\t\t\n              PUSH [tag] 206\t\t\t\n              DUP4 \t\t\t\n              PUSH [tag] 108\t\t\t\n              JUMP \t\t\t\n            tag 206\t\t\t\n              JUMPDEST \t\t\t\n              SWAP3 \t\t\t\n              POP \t\t\t\n              DUP3 \t\t\t\n              DUP3 \t\t\t\n              ADD \t\t\t\n              SWAP1 \t\t\t\n              POP \t\t\t\n              DUP1 \t\t\t\n              DUP3 \t\t\t\n              GT \t\t\t\n              ISZERO \t\t\t\n              PUSH [tag] 207\t\t\t\n              JUMPI \t\t\t\n              PUSH [tag] 208\t\t\t\n              PUSH [tag] 126\t\t\t\n              JUMP \t\t\t\n            tag 208\t\t\t\n              JUMPDEST \t\t\t\n            tag 207\t\t\t\n              JUMPDEST \t\t\t\n              SWAP3 \t\t\t\n              SWAP2 \t\t\t\n              POP \t\t\t\n              POP \t\t\t\n              JUMP \t\t\t\n            tag 127\t\t\t\n              JUMPDEST \t\t\t\n              PUSH 596F7520616C726561647920766F7465642E0000000000000000000000000000\t\t\t\n              PUSH 0\t\t\t\n              DUP3 \t\t\t\n              ADD \t\t\t\n              MSTORE \t\t\t\n              POP \t\t\t\n              JUMP \t\t\t\n            tag 128\t\t\t\n              JUMPDEST \t\t\t\n              PUSH 0\t\t\t\n              PUSH [tag] 211\t\t\t\n              PUSH 12\t\t\t\n              DUP4 \t\t\t\n              PUSH [tag] 121\t\t\t\n              JUMP \t\t\t\n            tag 211\t\t\t\n              JUMPDEST \t\t\t\n              SWAP2 \t\t\t\n              POP \t\t\t\n              PUSH [tag] 212\t\t\t\n              DUP3 \t\t\t\n              PUSH [tag] 127\t\t\t\n              JUMP \t\t\t\n            tag 212\t\t\t\n              JUMPDEST \t\t\t\n              PUSH 20\t\t\t\n              DUP3 \t\t\t\n              ADD \t\t\t\n              SWAP1 \t\t\t\n              POP \t\t\t\n              SWAP2 \t\t\t\n              SWAP1 \t\t\t\n              POP \t\t\t\n              JUMP \t\t\t\n            tag 63\t\t\t\n              JUMPDEST \t\t\t\n              PUSH 0\t\t\t\n              PUSH 20\t\t\t\n              DUP3 \t\t\t\n              ADD \t\t\t\n              SWAP1 \t\t\t\n              POP \t\t\t\n              DUP2 \t\t\t\n              DUP2 \t\t\t\n              SUB \t\t\t\n              PUSH 0\t\t\t\n              DUP4 \t\t\t\n              ADD \t\t\t\n              MSTORE \t\t\t\n              PUSH [tag] 214\t\t\t\n              DUP2 \t\t\t\n              PUSH [tag] 128\t\t\t\n              JUMP \t\t\t\n            tag 214\t\t\t\n              JUMPDEST \t\t\t\n              SWAP1 \t\t\t\n              POP \t\t\t\n              SWAP2 \t\t\t\n              SWAP1 \t\t\t\n              POP \t\t\t\n              JUMP \t\t\t\n            tag 129\t\t\t\n              JUMPDEST \t\t\t\n              PUSH 53656C662D64656C65676174696F6E20697320646973616C6C6F7765642E0000\t\t\t\n              PUSH 0\t\t\t\n              DUP3 \t\t\t\n              ADD \t\t\t\n              MSTORE \t\t\t\n              POP \t\t\t\n              JUMP \t\t\t\n            tag 130\t\t\t\n              JUMPDEST \t\t\t\n              PUSH 0\t\t\t\n              PUSH [tag] 217\t\t\t\n              PUSH 1E\t\t\t\n              DUP4 \t\t\t\n              PUSH [tag] 121\t\t\t\n              JUMP \t\t\t\n            tag 217\t\t\t\n              JUMPDEST \t\t\t\n              SWAP2 \t\t\t\n              POP \t\t\t\n              PUSH [tag] 218\t\t\t\n              DUP3 \t\t\t\n              PUSH [tag] 129\t\t\t\n              JUMP \t\t\t\n            tag 218\t\t\t\n              JUMPDEST \t\t\t\n              PUSH 20\t\t\t\n              DUP3 \t\t\t\n              ADD \t\t\t\n              SWAP1 \t\t\t\n              POP \t\t\t\n              SWAP2 \t\t\t\n              SWAP1 \t\t\t\n              POP \t\t\t\n              JUMP \t\t\t\n            tag 66\t\t\t\n              JUMPDEST \t\t\t\n              PUSH 0\t\t\t\n              PUSH 20\t\t\t\n              DUP3 \t\t\t\n              ADD \t\t\t\n              SWAP1 \t\t\t\n              POP \t\t\t\n              DUP2 \t\t\t\n              DUP2 \t\t\t\n              SUB \t\t\t\n              PUSH 0\t\t\t\n              DUP4 \t\t\t\n              ADD \t\t\t\n              MSTORE \t\t\t\n              PUSH [tag] 220\t\t\t\n              DUP2 \t\t\t\n              PUSH [tag] 130\t\t\t\n              JUMP \t\t\t\n            tag 220\t\t\t\n              JUMPDEST \t\t\t\n              SWAP1 \t\t\t\n              POP \t\t\t\n              SWAP2 \t\t\t\n              SWAP1 \t\t\t\n              POP \t\t\t\n              JUMP \t\t\t\n            tag 131\t\t\t\n              JUMPDEST \t\t\t\n              PUSH 466F756E64206C6F6F7020696E2064656C65676174696F6E2E00000000000000\t\t\t\n              PUSH 0\t\t\t\n              DUP3 \t\t\t\n              ADD \t\t\t\n              MSTORE \t\t\t\n              POP \t\t\t\n              JUMP \t\t\t\n            tag 132\t\t\t\n              JUMPDEST \t\t\t\n              PUSH 0\t\t\t\n              PUSH [tag] 223\t\t\t\n              PUSH 19\t\t\t\n              DUP4 \t\t\t\n              PUSH [tag] 121\t\t\t\n              JUMP \t\t\t\n            tag 223\t\t\t\n              JUMPDEST \t\t\t\n              SWAP2 \t\t\t\n              POP \t\t\t\n              PUSH [tag] 224\t\t\t\n              DUP3 \t\t\t\n              PUSH [tag] 131\t\t\t\n              JUMP \t\t\t\n            tag 224\t\t\t\n              JUMPDEST \t\t\t\n              PUSH 20\t\t\t\n              DUP3 \t\t\t\n              ADD \t\t\t\n              SWAP1 \t\t\t\n              POP \t\t\t\n              SWAP2 \t\t\t\n              SWAP1 \t\t\t\n              POP \t\t\t\n              JUMP \t\t\t\n            tag 71\t\t\t\n              JUMPDEST \t\t\t\n              PUSH 0\t\t\t\n              PUSH 20\t\t\t\n              DUP3 \t\t\t\n              ADD \t\t\t\n              SWAP1 \t\t\t\n              POP \t\t\t\n              DUP2 \t\t\t\n              DUP2 \t\t\t\n              SUB \t\t\t\n              PUSH 0\t\t\t\n              DUP4 \t\t\t\n              ADD \t\t\t\n              MSTORE \t\t\t\n              PUSH [tag] 226\t\t\t\n              DUP2 \t\t\t\n              PUSH [tag] 132\t\t\t\n              JUMP \t\t\t\n            tag 226\t\t\t\n              JUMPDEST \t\t\t\n              SWAP1 \t\t\t\n              POP \t\t\t\n              SWAP2 \t\t\t\n              SWAP1 \t\t\t\n              POP \t\t\t\n              JUMP \t\t\t\n            tag 133\t\t\t\n              JUMPDEST \t\t\t\n              PUSH 4F6E6C79206368616972706572736F6E2063616E206769766520726967687420\t\t\t\n              PUSH 0\t\t\t\n              DUP3 \t\t\t\n              ADD \t\t\t\n              MSTORE \t\t\t\n              PUSH 746F20766F74652E000000000000000000000000000000000000000000000000\t\t\t\n              PUSH 20\t\t\t\n              DUP3 \t\t\t\n              ADD \t\t\t\n              MSTORE \t\t\t\n              POP \t\t\t\n              JUMP \t\t\t\n            tag 134\t\t\t\n              JUMPDEST \t\t\t\n              PUSH 0\t\t\t\n              PUSH [tag] 229\t\t\t\n              PUSH 28\t\t\t\n              DUP4 \t\t\t\n              PUSH [tag] 121\t\t\t\n              JUMP \t\t\t\n            tag 229\t\t\t\n              JUMPDEST \t\t\t\n              SWAP2 \t\t\t\n              POP \t\t\t\n              PUSH [tag] 230\t\t\t\n              DUP3 \t\t\t\n              PUSH [tag] 133\t\t\t\n              JUMP \t\t\t\n            tag 230\t\t\t\n              JUMPDEST \t\t\t\n              PUSH 40\t\t\t\n              DUP3 \t\t\t\n              ADD \t\t\t\n              SWAP1 \t\t\t\n              POP \t\t\t\n              SWAP2 \t\t\t\n              SWAP1 \t\t\t\n              POP \t\t\t\n              JUMP \t\t\t\n            tag 93\t\t\t\n              JUMPDEST \t\t\t\n              PUSH 0\t\t\t\n              PUSH 20\t\t\t\n              DUP3 \t\t\t\n              ADD \t\t\t\n              SWAP1 \t\t\t\n              POP \t\t\t\n              DUP2 \t\t\t\n              DUP2 \t\t\t\n              SUB \t\t\t\n              PUSH 0\t\t\t\n              DUP4 \t\t\t\n              ADD \t\t\t\n              MSTORE \t\t\t\n              PUSH [tag] 232\t\t\t\n              DUP2 \t\t\t\n              PUSH [tag] 134\t\t\t\n              JUMP \t\t\t\n            tag 232\t\t\t\n              JUMPDEST \t\t\t\n              SWAP1 \t\t\t\n              POP \t\t\t\n              SWAP2 \t\t\t\n              SWAP1 \t\t\t\n              POP \t\t\t\n              JUMP \t\t\t\n            tag 135\t\t\t\n              JUMPDEST \t\t\t\n              PUSH 54686520766F74657220616C726561647920766F7465642E0000000000000000\t\t\t\n              PUSH 0\t\t\t\n              DUP3 \t\t\t\n              ADD \t\t\t\n              MSTORE \t\t\t\n              POP \t\t\t\n              JUMP \t\t\t\n            tag 136\t\t\t\n              JUMPDEST \t\t\t\n              PUSH 0\t\t\t\n              PUSH [tag] 235\t\t\t\n              PUSH 18\t\t\t\n              DUP4 \t\t\t\n              PUSH [tag] 121\t\t\t\n              JUMP \t\t\t\n            tag 235\t\t\t\n              JUMPDEST \t\t\t\n              SWAP2 \t\t\t\n              POP \t\t\t\n              PUSH [tag] 236\t\t\t\n              DUP3 \t\t\t\n              PUSH [tag] 135\t\t\t\n              JUMP \t\t\t\n            tag 236\t\t\t\n              JUMPDEST \t\t\t\n              PUSH 20\t\t\t\n              DUP3 \t\t\t\n              ADD \t\t\t\n              SWAP1 \t\t\t\n              POP \t\t\t\n              SWAP2 \t\t\t\n              SWAP1 \t\t\t\n              POP \t\t\t\n              JUMP \t\t\t\n            tag 96\t\t\t\n              JUMPDEST \t\t\t\n              PUSH 0\t\t\t\n              PUSH 20\t\t\t\n              DUP3 \t\t\t\n              ADD \t\t\t\n              SWAP1 \t\t\t\n              POP \t\t\t\n              DUP2 \t\t\t\n              DUP2 \t\t\t\n              SUB \t\t\t\n              PUSH 0\t\t\t\n              DUP4 \t\t\t\n              ADD \t\t\t\n              MSTORE \t\t\t\n              PUSH [tag] 238\t\t\t\n              DUP2 \t\t\t\n              PUSH [tag] 136\t\t\t\n              JUMP \t\t\t\n            tag 238\t\t\t\n              JUMPDEST \t\t\t\n              SWAP1 \t\t\t\n              POP \t\t\t\n              SWAP2 \t\t\t\n              SWAP1 \t\t\t\n              POP \t\t\t\n              JUMP \t\t\t\n            tag 137\t\t\t\n              JUMPDEST \t\t\t\n              PUSH 566F74657220616C72656164792068617320726967687420746F20766F74652E\t\t\t\n              PUSH 0\t\t\t\n              DUP3 \t\t\t\n              ADD \t\t\t\n              MSTORE \t\t\t\n              POP \t\t\t\n              JUMP \t\t\t\n            tag 138\t\t\t\n              JUMPDEST \t\t\t\n              PUSH 0\t\t\t\n              PUSH [tag] 241\t\t\t\n              PUSH 20\t\t\t\n              DUP4 \t\t\t\n              PUSH [tag] 121\t\t\t\n              JUMP \t\t\t\n            tag 241\t\t\t\n              JUMPDEST \t\t\t\n              SWAP2 \t\t\t\n              POP \t\t\t\n              PUSH [tag] 242\t\t\t\n              DUP3 \t\t\t\n              PUSH [tag] 137\t\t\t\n              JUMP \t\t\t\n            tag 242\t\t\t\n              JUMPDEST \t\t\t\n              PUSH 20\t\t\t\n              DUP3 \t\t\t\n              ADD \t\t\t\n              SWAP1 \t\t\t\n              POP \t\t\t\n              SWAP2 \t\t\t\n              SWAP1 \t\t\t\n              POP \t\t\t\n              JUMP \t\t\t\n            tag 99\t\t\t\n              JUMPDEST \t\t\t\n              PUSH 0\t\t\t\n              PUSH 20\t\t\t\n              DUP3 \t\t\t\n              ADD \t\t\t\n              SWAP1 \t\t\t\n              POP \t\t\t\n              DUP2 \t\t\t\n              DUP2 \t\t\t\n              SUB \t\t\t\n              PUSH 0\t\t\t\n              DUP4 \t\t\t\n              ADD \t\t\t\n              MSTORE \t\t\t\n              PUSH [tag] 244\t\t\t\n              DUP2 \t\t\t\n              PUSH [tag] 138\t\t\t\n              JUMP \t\t\t\n            tag 244\t\t\t\n              JUMPDEST \t\t\t\n              SWAP1 \t\t\t\n              POP \t\t\t\n              SWAP2 \t\t\t\n              SWAP1 \t\t\t\n              POP \t\t\t\n              JUMP \t\t\t\n            .data\n"
}