{
	"compilerInput": "{\"language\":\"Solidity\",\"sources\":{\"remix_ready/remix-tests/Storage_test.sol\":{\"content\":\"// SPDX-License-Identifier: GPL-3.0\\npragma solidity >=0.7.0 <0.9.0;\\n\\nimport \\\"remix_tests.sol\\\";\\nimport \\\"../contracts/1_Storage.sol\\\";\\n\\ncontract StorageTest {\\n    Storage storageToTest;\\n\\n    function beforeAll() public {\\n        storageToTest = new Storage();\\n    }\\n\\n    function checkWriteRead() public {\\n        storageToTest.store(42);\\n        Assert.equal(storageToTest.retrieve(), uint256(42), \\\"proposal retrieve should be 42\\\");\\n    }\\n}\\n\"},\"remix_tests.sol\":{\"content\":\"// SPDX-License-Identifier: GPL-3.0\\n\\npragma solidity >=0.4.22 <0.9.0;\\n\\nlibrary Assert {\\n\\n  event AssertionEvent(\\n    bool passed,\\n    string message,\\n    string methodName\\n  );\\n\\n  event AssertionEventUint(\\n    bool passed,\\n    string message,\\n    string methodName,\\n    uint256 returned,\\n    uint256 expected\\n  );\\n\\n  event AssertionEventInt(\\n    bool passed,\\n    string message,\\n    string methodName,\\n    int256 returned,\\n    int256 expected\\n  );\\n\\n  event AssertionEventBool(\\n    bool passed,\\n    string message,\\n    string methodName,\\n    bool returned,\\n    bool expected\\n  );\\n\\n  event AssertionEventAddress(\\n    bool passed,\\n    string message,\\n    string methodName,\\n    address returned,\\n    address expected\\n  );\\n\\n  event AssertionEventBytes32(\\n    bool passed,\\n    string message,\\n    string methodName,\\n    bytes32 returned,\\n    bytes32 expected\\n  );\\n\\n  event AssertionEventString(\\n    bool passed,\\n    string message,\\n    string methodName,\\n    string returned,\\n    string expected\\n  );\\n\\n  event AssertionEventUintInt(\\n    bool passed,\\n    string message,\\n    string methodName,\\n    uint256 returned,\\n    int256 expected\\n  );\\n\\n  event AssertionEventIntUint(\\n    bool passed,\\n    string message,\\n    string methodName,\\n    int256 returned,\\n    uint256 expected\\n  );\\n\\n  function ok(bool a, string memory message) public returns (bool result) {\\n    result = a;\\n    emit AssertionEvent(result, message, \\\"ok\\\");\\n  }\\n\\n  function equal(uint256 a, uint256 b, string memory message) public returns (bool result) {\\n    result = (a == b);\\n    emit AssertionEventUint(result, message, \\\"equal\\\", a, b);\\n  }\\n\\n  function equal(int256 a, int256 b, string memory message) public returns (bool result) {\\n    result = (a == b);\\n    emit AssertionEventInt(result, message, \\\"equal\\\", a, b);\\n  }\\n\\n  function equal(bool a, bool b, string memory message) public returns (bool result) {\\n    result = (a == b);\\n    emit AssertionEventBool(result, message, \\\"equal\\\", a, b);\\n  }\\n\\n  // TODO: only for certain versions of solc\\n  //function equal(fixed a, fixed b, string message) public returns (bool result) {\\n  //  result = (a == b);\\n  //  emit AssertionEvent(result, message);\\n  //}\\n\\n  // TODO: only for certain versions of solc\\n  //function equal(ufixed a, ufixed b, string message) public returns (bool result) {\\n  //  result = (a == b);\\n  //  emit AssertionEvent(result, message);\\n  //}\\n\\n  function equal(address a, address b, string memory message) public returns (bool result) {\\n    result = (a == b);\\n    emit AssertionEventAddress(result, message, \\\"equal\\\", a, b);\\n  }\\n\\n  function equal(bytes32 a, bytes32 b, string memory message) public returns (bool result) {\\n    result = (a == b);\\n    emit AssertionEventBytes32(result, message, \\\"equal\\\", a, b);\\n  }\\n\\n  function equal(string memory a, string memory b, string memory message) public returns (bool result) {\\n     result = (keccak256(abi.encodePacked(a)) == keccak256(abi.encodePacked(b)));\\n     emit AssertionEventString(result, message, \\\"equal\\\", a, b);\\n  }\\n\\n  function notEqual(uint256 a, uint256 b, string memory message) public returns (bool result) {\\n    result = (a != b);\\n    emit AssertionEventUint(result, message, \\\"notEqual\\\", a, b);\\n  }\\n\\n  function notEqual(int256 a, int256 b, string memory message) public returns (bool result) {\\n    result = (a != b);\\n    emit AssertionEventInt(result, message, \\\"notEqual\\\", a, b);\\n  }\\n\\n  function notEqual(bool a, bool b, string memory message) public returns (bool result) {\\n    result = (a != b);\\n    emit AssertionEventBool(result, message, \\\"notEqual\\\", a, b);\\n  }\\n\\n  // TODO: only for certain versions of solc\\n  //function notEqual(fixed a, fixed b, string message) public returns (bool result) {\\n  //  result = (a != b);\\n  //  emit AssertionEvent(result, message);\\n  //}\\n\\n  // TODO: only for certain versions of solc\\n  //function notEqual(ufixed a, ufixed b, string message) public returns (bool result) {\\n  //  result = (a != b);\\n  //  emit AssertionEvent(result, message);\\n  //}\\n\\n  function notEqual(address a, address b, string memory message) public returns (bool result) {\\n    result = (a != b);\\n    emit AssertionEventAddress(result, message, \\\"notEqual\\\", a, b);\\n  }\\n\\n  function notEqual(bytes32 a, bytes32 b, string memory message) public returns (bool result) {\\n    result = (a != b);\\n    emit AssertionEventBytes32(result, message, \\\"notEqual\\\", a, b);\\n  }\\n\\n  function notEqual(string memory a, string memory b, string memory message) public returns (bool result) {\\n    result = (keccak256(abi.encodePacked(a)) != keccak256(abi.encodePacked(b)));\\n    emit AssertionEventString(result, message, \\\"notEqual\\\", a, b);\\n  }\\n\\n  /*----------------- Greater than --------------------*/\\n  function greaterThan(uint256 a, uint256 b, string memory message) public returns (bool result) {\\n    result = (a > b);\\n    emit AssertionEventUint(result, message, \\\"greaterThan\\\", a, b);\\n  }\\n\\n  function greaterThan(int256 a, int256 b, string memory message) public returns (bool result) {\\n    result = (a > b);\\n    emit AssertionEventInt(result, message, \\\"greaterThan\\\", a, b);\\n  }\\n  // TODO: safely compare between uint and int\\n  function greaterThan(uint256 a, int256 b, string memory message) public returns (bool result) {\\n    if(b < int(0)) {\\n      // int is negative uint \\\"a\\\" always greater\\n      result = true;\\n    } else {\\n      result = (a > uint(b));\\n    }\\n    emit AssertionEventUintInt(result, message, \\\"greaterThan\\\", a, b);\\n  }\\n  function greaterThan(int256 a, uint256 b, string memory message) public returns (bool result) {\\n    if(a < int(0)) {\\n      // int is negative uint \\\"b\\\" always greater\\n      result = false;\\n    } else {\\n      result = (uint(a) > b);\\n    }\\n    emit AssertionEventIntUint(result, message, \\\"greaterThan\\\", a, b);\\n  }\\n  /*----------------- Lesser than --------------------*/\\n  function lesserThan(uint256 a, uint256 b, string memory message) public returns (bool result) {\\n    result = (a < b);\\n    emit AssertionEventUint(result, message, \\\"lesserThan\\\", a, b);\\n  }\\n\\n  function lesserThan(int256 a, int256 b, string memory message) public returns (bool result) {\\n    result = (a < b);\\n    emit AssertionEventInt(result, message, \\\"lesserThan\\\", a, b);\\n  }\\n  // TODO: safely compare between uint and int\\n  function lesserThan(uint256 a, int256 b, string memory message) public returns (bool result) {\\n    if(b < int(0)) {\\n      // int is negative int \\\"b\\\" always lesser\\n      result = false;\\n    } else {\\n      result = (a < uint(b));\\n    }\\n    emit AssertionEventUintInt(result, message, \\\"lesserThan\\\", a, b);\\n  }\\n\\n  function lesserThan(int256 a, uint256 b, string memory message) public returns (bool result) {\\n    if(a < int(0)) {\\n      // int is negative int \\\"a\\\" always lesser\\n      result = true;\\n    } else {\\n      result = (uint(a) < b);\\n    }\\n    emit AssertionEventIntUint(result, message, \\\"lesserThan\\\", a, b);\\n  }\\n}\\n\"},\"remix_ready/contracts/1_Storage.sol\":{\"content\":\"// SPDX-License-Identifier: GPL-3.0\\npragma solidity >=0.7.0 <0.9.0;\\n\\ncontract Storage {\\n    uint256 private number;\\n\\n    function store(uint256 num) public {\\n        number = num;\\n    }\\n\\n    function retrieve() public view returns (uint256) {\\n        return number;\\n    }\\n}\\n\"}},\"settings\":{\"optimizer\":{\"enabled\":false,\"runs\":200},\"outputSelection\":{\"*\":{\"\":[\"ast\"],\"*\":[\"abi\",\"metadata\",\"devdoc\",\"userdoc\",\"storageLayout\",\"evm.legacyAssembly\",\"evm.bytecode\",\"evm.deployedBytecode\",\"evm.methodIdentifiers\",\"evm.gasEstimates\",\"evm.assembly\"]}},\"remappings\":[]}}",
	"name": "StorageTest",
	"bytecode": {
		"linkReferences": {
			"remix_tests.sol": {
				"Assert": [
					{
						"length": 20,
						"start": 241
					}
				]
			}
		},
		"object": "6080604052348015600e575f5ffd5b506105898061001c5f395ff3fe608060405234801561000f575f5ffd5b5060043610610034575f3560e01c8063396e6f2a146100385780637fea0d4b14610042575b5f5ffd5b61004061004c565b005b61004a6101db565b005b5f5f9054906101000a900473ffffffffffffffffffffffffffffffffffffffff1673ffffffffffffffffffffffffffffffffffffffff16636057361d602a6040518263ffffffff1660e01b81526004016100a69190610299565b5f604051808303815f87803b1580156100bd575f5ffd5b505af11580156100cf573d5f5f3e3d5ffd5b5050505073__$acbfb1c35000d78352310b16a054a6b106$__63abcd79605f5f9054906101000a900473ffffffffffffffffffffffffffffffffffffffff1673ffffffffffffffffffffffffffffffffffffffff16632e64cec16040518163ffffffff1660e01b8152600401602060405180830381865afa158015610156573d5f5f3e3d5ffd5b505050506040513d601f19601f8201168201806040525081019061017a91906102e0565b602a6040518363ffffffff1660e01b8152600401610199929190610374565b602060405180830381865af41580156101b4573d5f5f3e3d5ffd5b505050506040513d601f19601f820116820180604052508101906101d891906103e3565b50565b6040516101e790610241565b604051809103905ff080158015610200573d5f5f3e3d5ffd5b505f5f6101000a81548173ffffffffffffffffffffffffffffffffffffffff021916908373ffffffffffffffffffffffffffffffffffffffff160217905550565b6101458061040f83390190565b5f819050919050565b5f819050919050565b5f819050919050565b5f61028361027e6102798461024e565b610260565b610257565b9050919050565b61029381610269565b82525050565b5f6020820190506102ac5f83018461028a565b92915050565b5f5ffd5b6102bf81610257565b81146102c9575f5ffd5b50565b5f815190506102da816102b6565b92915050565b5f602082840312156102f5576102f46102b2565b5b5f610302848285016102cc565b91505092915050565b61031481610257565b82525050565b5f82825260208201905092915050565b7f70726f706f73616c2072657472696576652073686f756c6420626520343200005f82015250565b5f61035e601e8361031a565b91506103698261032a565b602082019050919050565b5f6060820190506103875f83018561030b565b610394602083018461030b565b81810360408301526103a581610352565b90509392505050565b5f8115159050919050565b6103c2816103ae565b81146103cc575f5ffd5b50565b5f815190506103dd816103b9565b92915050565b5f602082840312156103f8576103f76102b2565b5b5f610405848285016103cf565b9150509291505056fe6080604052348015600e575f5ffd5b506101298061001c5f395ff3fe6080604052348015600e575f5ffd5b50600436106030575f3560e01c80632e64cec11460345780636057361d14604e575b5f5ffd5b603a6066565b60405160459190608d565b60405180910390f35b606460048036038101906060919060cd565b606e565b005b5f5f54905090565b805f8190555050565b5f819050919050565b6087816077565b82525050565b5f602082019050609e5f8301846080565b92915050565b5f5ffd5b60af816077565b811460b8575f5ffd5b50565b5f8135905060c78160a8565b92915050565b5f6020828403121560df5760de60a4565b5b5f60ea8482850160bb565b9150509291505056fea264697066735822122012c480346274b5eb236d2b0576fb8594f0919abb00e5c6c8609cabe893ed002264736f6c63430008220033a2646970667358221220b2c09bd49f415cd6ad1e71db8980993cf086fe855e134218e7348e63f995f7ab64736f6c63430008220033",
		"opcodes": "PUSH1 0x80 PUSH1 0x40 MSTORE CALLVALUE DUP1 ISZERO PUSH1 0xE JUMPI PUSH0 PUSH0 REVERT JUMPDEST POP PUSH2 0x589 DUP1 PUSH2 0x1C PUSH0 CODECOPY PUSH0 RETURN INVALID PUSH1 0x80 PUSH1 0x40 MSTORE CALLVALUE DUP1 ISZERO PUSH2 0xF JUMPI PUSH0 PUSH0 REVERT JUMPDEST POP PUSH1 0x4 CALLDATASIZE LT PUSH2 0x34 JUMPI PUSH0 CALLDATALOAD PUSH1 0xE0 SHR DUP1 PUSH4 0x396E6F2A EQ PUSH2 0x38 JUMPI DUP1 PUSH4 0x7FEA0D4B EQ PUSH2 0x42 JUMPI JUMPDEST PUSH0 PUSH0 REVERT JUMPDEST PUSH2 0x40 PUSH2 0x4C JUMP JUMPDEST STOP JUMPDEST PUSH2 0x4A PUSH2 0x1DB JUMP JUMPDEST STOP JUMPDEST PUSH0 PUSH0 SWAP1 SLOAD SWAP1 PUSH2 0x100 EXP SWAP1 DIV PUSH20 0xFFFFFFFFFFFFFFFFFFFFFFFFFFFFFFFFFFFFFFFF AND PUSH20 0xFFFFFFFFFFFFFFFFFFFFFFFFFFFFFFFFFFFFFFFF AND PUSH4 0x6057361D PUSH1 0x2A PUSH1 0x40 MLOAD DUP3 PUSH4 0xFFFFFFFF AND PUSH1 0xE0 SHL DUP2 MSTORE PUSH1 0x4 ADD PUSH2 0xA6 SWAP2 SWAP1 PUSH2 0x299 JUMP JUMPDEST PUSH0 PUSH1 0x40 MLOAD DUP1 DUP4 SUB DUP2 PUSH0 DUP8 DUP1 EXTCODESIZE ISZERO DUP1 ISZERO PUSH2 0xBD JUMPI PUSH0 PUSH0 REVERT JUMPDEST POP GAS CALL ISZERO DUP1 ISZERO PUSH2 0xCF JUMPI RETURNDATASIZE PUSH0 PUSH0 RETURNDATACOPY RETURNDATASIZE PUSH0 REVERT JUMPDEST POP POP POP POP PUSH20 0x0 PUSH4 0xABCD7960 PUSH0 PUSH0 SWAP1 SLOAD SWAP1 PUSH2 0x100 EXP SWAP1 DIV PUSH20 0xFFFFFFFFFFFFFFFFFFFFFFFFFFFFFFFFFFFFFFFF AND PUSH20 0xFFFFFFFFFFFFFFFFFFFFFFFFFFFFFFFFFFFFFFFF AND PUSH4 0x2E64CEC1 PUSH1 0x40 MLOAD DUP2 PUSH4 0xFFFFFFFF AND PUSH1 0xE0 SHL DUP2 MSTORE PUSH1 0x4 ADD PUSH1 0x20 PUSH1 0x40 MLOAD DUP1 DUP4 SUB DUP2 DUP7 GAS STATICCALL ISZERO DUP1 ISZERO PUSH2 0x156 JUMPI RETURNDATASIZE PUSH0 PUSH0 RETURNDATACOPY RETURNDATASIZE PUSH0 REVERT JUMPDEST POP POP POP POP PUSH1 0x40 MLOAD RETURNDATASIZE PUSH1 0x1F NOT PUSH1 0x1F DUP3 ADD AND DUP3 ADD DUP1 PUSH1 0x40 MSTORE POP DUP2 ADD SWAP1 PUSH2 0x17A SWAP2 SWAP1 PUSH2 0x2E0 JUMP JUMPDEST PUSH1 0x2A PUSH1 0x40 MLOAD DUP4 PUSH4 0xFFFFFFFF AND PUSH1 0xE0 SHL DUP2 MSTORE PUSH1 0x4 ADD PUSH2 0x199 SWAP3 SWAP2 SWAP1 PUSH2 0x374 JUMP JUMPDEST PUSH1 0x20 PUSH1 0x40 MLOAD DUP1 DUP4 SUB DUP2 DUP7 GAS DELEGATECALL ISZERO DUP1 ISZERO PUSH2 0x1B4 JUMPI RETURNDATASIZE PUSH0 PUSH0 RETURNDATACOPY RETURNDATASIZE PUSH0 REVERT JUMPDEST POP POP POP POP PUSH1 0x40 MLOAD RETURNDATASIZE PUSH1 0x1F NOT PUSH1 0x1F DUP3 ADD AND DUP3 ADD DUP1 PUSH1 0x40 MSTORE POP DUP2 ADD SWAP1 PUSH2 0x1D8 SWAP2 SWAP1 PUSH2 0x3E3 JUMP JUMPDEST POP JUMP JUMPDEST PUSH1 0x40 MLOAD PUSH2 0x1E7 SWAP1 PUSH2 0x241 JUMP JUMPDEST PUSH1 0x40 MLOAD DUP1 SWAP2 SUB SWAP1 PUSH0 CREATE DUP1 ISZERO DUP1 ISZERO PUSH2 0x200 JUMPI RETURNDATASIZE PUSH0 PUSH0 RETURNDATACOPY RETURNDATASIZE PUSH0 REVERT JUMPDEST POP PUSH0 PUSH0 PUSH2 0x100 EXP DUP2 SLOAD DUP2 PUSH20 0xFFFFFFFFFFFFFFFFFFFFFFFFFFFFFFFFFFFFFFFF MUL NOT AND SWAP1 DUP4 PUSH20 0xFFFFFFFFFFFFFFFFFFFFFFFFFFFFFFFFFFFFFFFF AND MUL OR SWAP1 SSTORE POP JUMP JUMPDEST PUSH2 0x145 DUP1 PUSH2 0x40F DUP4 CODECOPY ADD SWAP1 JUMP JUMPDEST PUSH0 DUP2 SWAP1 POP SWAP2 SWAP1 POP JUMP JUMPDEST PUSH0 DUP2 SWAP1 POP SWAP2 SWAP1 POP JUMP JUMPDEST PUSH0 DUP2 SWAP1 POP SWAP2 SWAP1 POP JUMP JUMPDEST PUSH0 PUSH2 0x283 PUSH2 0x27E PUSH2 0x279 DUP5 PUSH2 0x24E JUMP JUMPDEST PUSH2 0x260 JUMP JUMPDEST PUSH2 0x257 JUMP JUMPDEST SWAP1 POP SWAP2 SWAP1 POP JUMP JUMPDEST PUSH2 0x293 DUP2 PUSH2 0x269 JUMP JUMPDEST DUP3 MSTORE POP POP JUMP JUMPDEST PUSH0 PUSH1 0x20 DUP3 ADD SWAP1 POP PUSH2 0x2AC PUSH0 DUP4 ADD DUP5 PUSH2 0x28A JUMP JUMPDEST SWAP3 SWAP2 POP POP JUMP JUMPDEST PUSH0 PUSH0 REVERT JUMPDEST PUSH2 0x2BF DUP2 PUSH2 0x257 JUMP JUMPDEST DUP2 EQ PUSH2 0x2C9 JUMPI PUSH0 PUSH0 REVERT JUMPDEST POP JUMP JUMPDEST PUSH0 DUP2 MLOAD SWAP1 POP PUSH2 0x2DA DUP2 PUSH2 0x2B6 JUMP JUMPDEST SWAP3 SWAP2 POP POP JUMP JUMPDEST PUSH0 PUSH1 0x20 DUP3 DUP5 SUB SLT ISZERO PUSH2 0x2F5 JUMPI PUSH2 0x2F4 PUSH2 0x2B2 JUMP JUMPDEST JUMPDEST PUSH0 PUSH2 0x302 DUP5 DUP3 DUP6 ADD PUSH2 0x2CC JUMP JUMPDEST SWAP2 POP POP SWAP3 SWAP2 POP POP JUMP JUMPDEST PUSH2 0x314 DUP2 PUSH2 0x257 JUMP JUMPDEST DUP3 MSTORE POP POP JUMP JUMPDEST PUSH0 DUP3 DUP3 MSTORE PUSH1 0x20 DUP3 ADD SWAP1 POP SWAP3 SWAP2 POP POP JUMP JUMPDEST PUSH32 0x70726F706F73616C2072657472696576652073686F756C642062652034320000 PUSH0 DUP3 ADD MSTORE POP JUMP JUMPDEST PUSH0 PUSH2 0x35E PUSH1 0x1E DUP4 PUSH2 0x31A JUMP JUMPDEST SWAP2 POP PUSH2 0x369 DUP3 PUSH2 0x32A JUMP JUMPDEST PUSH1 0x20 DUP3 ADD SWAP1 POP SWAP2 SWAP1 POP JUMP JUMPDEST PUSH0 PUSH1 0x60 DUP3 ADD SWAP1 POP PUSH2 0x387 PUSH0 DUP4 ADD DUP6 PUSH2 0x30B JUMP JUMPDEST PUSH2 0x394 PUSH1 0x20 DUP4 ADD DUP5 PUSH2 0x30B JUMP JUMPDEST DUP2 DUP2 SUB PUSH1 0x40 DUP4 ADD MSTORE PUSH2 0x3A5 DUP2 PUSH2 0x352 JUMP JUMPDEST SWAP1 POP SWAP4 SWAP3 POP POP POP JUMP JUMPDEST PUSH0 DUP2 ISZERO ISZERO SWAP1 POP SWAP2 SWAP1 POP JUMP JUMPDEST PUSH2 0x3C2 DUP2 PUSH2 0x3AE JUMP JUMPDEST DUP2 EQ PUSH2 0x3CC JUMPI PUSH0 PUSH0 REVERT JUMPDEST POP JUMP JUMPDEST PUSH0 DUP2 MLOAD SWAP1 POP PUSH2 0x3DD DUP2 PUSH2 0x3B9 JUMP JUMPDEST SWAP3 SWAP2 POP POP JUMP JUMPDEST PUSH0 PUSH1 0x20 DUP3 DUP5 SUB SLT ISZERO PUSH2 0x3F8 JUMPI PUSH2 0x3F7 PUSH2 0x2B2 JUMP JUMPDEST JUMPDEST PUSH0 PUSH2 0x405 DUP5 DUP3 DUP6 ADD PUSH2 0x3CF JUMP JUMPDEST SWAP2 POP POP SWAP3 SWAP2 POP POP JUMP INVALID PUSH1 0x80 PUSH1 0x40 MSTORE CALLVALUE DUP1 ISZERO PUSH1 0xE JUMPI PUSH0 PUSH0 REVERT JUMPDEST POP PUSH2 0x129 DUP1 PUSH2 0x1C PUSH0 CODECOPY PUSH0 RETURN INVALID PUSH1 0x80 PUSH1 0x40 MSTORE CALLVALUE DUP1 ISZERO PUSH1 0xE JUMPI PUSH0 PUSH0 REVERT JUMPDEST POP PUSH1 0x4 CALLDATASIZE LT PUSH1 0x30 JUMPI PUSH0 CALLDATALOAD PUSH1 0xE0 SHR DUP1 PUSH4 0x2E64CEC1 EQ PUSH1 0x34 JUMPI DUP1 PUSH4 0x6057361D EQ PUSH1 0x4E JUMPI JUMPDEST PUSH0 PUSH0 REVERT JUMPDEST PUSH1 0x3A PUSH1 0x66 JUMP JUMPDEST PUSH1 0x40 MLOAD PUSH1 0x45 SWAP2 SWAP1 PUSH1 0x8D JUMP JUMPDEST PUSH1 0x40 MLOAD DUP1 SWAP2 SUB SWAP1 RETURN JUMPDEST PUSH1 0x64 PUSH1 0x4 DUP1 CALLDATASIZE SUB DUP2 ADD SWAP1 PUSH1 0x60 SWAP2 SWAP1 PUSH1 0xCD JUMP JUMPDEST PUSH1 0x6E JUMP JUMPDEST STOP JUMPDEST PUSH0 PUSH0 SLOAD SWAP1 POP SWAP1 JUMP JUMPDEST DUP1 PUSH0 DUP2 SWAP1 SSTORE POP POP JUMP JUMPDEST PUSH0 DUP2 SWAP1 POP SWAP2 SWAP1 POP JUMP JUMPDEST PUSH1 0x87 DUP2 PUSH1 0x77 JUMP JUMPDEST DUP3 MSTORE POP POP JUMP JUMPDEST PUSH0 PUSH1 0x20 DUP3 ADD SWAP1 POP PUSH1 0x9E PUSH0 DUP4 ADD DUP5 PUSH1 0x80 JUMP JUMPDEST SWAP3 SWAP2 POP POP JUMP JUMPDEST PUSH0 PUSH0 REVERT JUMPDEST PUSH1 0xAF DUP2 PUSH1 0x77 JUMP JUMPDEST DUP2 EQ PUSH1 0xB8 JUMPI PUSH0 PUSH0 REVERT JUMPDEST POP JUMP JUMPDEST PUSH0 DUP2 CALLDATALOAD SWAP1 POP PUSH1 0xC7 DUP2 PUSH1 0xA8 JUMP JUMPDEST SWAP3 SWAP2 POP POP JUMP JUMPDEST PUSH0 PUSH1 0x20 DUP3 DUP5 SUB SLT ISZERO PUSH1 0xDF JUMPI PUSH1 0xDE PUSH1 0xA4 JUMP JUMPDEST JUMPDEST PUSH0 PUSH1 0xEA DUP5 DUP3 DUP6 ADD PUSH1 0xBB JUMP JUMPDEST SWAP2 POP POP SWAP3 SWAP2 POP POP JUMP INVALID LOG2 PUSH5 0x6970667358 0x22 SLT KECCAK256 SLT 0xC4 DUP1 CALLVALUE PUSH3 0x74B5EB 0x23 PUSH14 0x2B0576FB8594F0919ABB00E5C6C8 PUSH1 0x9C 0xAB 0xE8 SWAP4 0xED STOP 0x22 PUSH5 0x736F6C6343 STOP ADDMOD 0x22 STOP CALLER LOG2 PUSH5 0x6970667358 0x22 SLT KECCAK256 0xB2 0xC0 SWAP12 0xD4 SWAP16 COINBASE TLOAD 0xD6 0xAD CLZ PUSH18 0xDB8980993CF086FE855E134218E7348E63F9 SWAP6 0xF7 0xAB PUSH5 0x736F6C6343 STOP ADDMOD 0x22 STOP CALLER "
	},
	"abi": [
		{
			"inputs": [],
			"name": "beforeAll",
			"outputs": [],
			"stateMutability": "nonpayable",
			"type": "function"
		},
		{
			"inputs": [],
			"name": "checkWriteRead",
			"outputs": [],
			"stateMutability": "nonpayable",
			"type": "function"
		}
	],
	"storageLayout": {
		"storage": [
			{
				"astId": 29,
				"contract": "remix_ready/remix-tests/Storage_test.sol:StorageTest",
				"label": "storageToTest",
				"offset": 0,
				"slot": "0",
				"type": "t_contract(Storage)22"
			}
		],
		"types": {
			"t_contract(Storage)22": {
				"encoding": "inplace",
				"label": "contract Storage",
				"numberOfBytes": "20"
			}
		}
	},
	"web3Deploy": "var storagetestContract = new web3.eth.Contract([{\"inputs\":[],\"name\":\"beforeAll\",\"outputs\":[],\"stateMutability\":\"nonpayable\",\"type\":\"function\"},{\"inputs\":[],\"name\":\"checkWriteRead\",\"outputs\":[],\"stateMutability\":\"nonpayable\",\"type\":\"function\"}]);\nvar storagetest = storagetestContract.deploy({\n     data: '0x6080604052348015600e575f5ffd5b506105898061001c5f395ff3fe608060405234801561000f575f5ffd5b5060043610610034575f3560e01c8063396e6f2a146100385780637fea0d4b14610042575b5f5ffd5b61004061004c565b005b61004a6101db565b005b5f5f9054906101000a900473ffffffffffffffffffffffffffffffffffffffff1673ffffffffffffffffffffffffffffffffffffffff16636057361d602a6040518263ffffffff1660e01b81526004016100a69190610299565b5f604051808303815f87803b1580156100bd575f5ffd5b505af11580156100cf573d5f5f3e3d5ffd5b5050505073__$acbfb1c35000d78352310b16a054a6b106$__63abcd79605f5f9054906101000a900473ffffffffffffffffffffffffffffffffffffffff1673ffffffffffffffffffffffffffffffffffffffff16632e64cec16040518163ffffffff1660e01b8152600401602060405180830381865afa158015610156573d5f5f3e3d5ffd5b505050506040513d601f19601f8201168201806040525081019061017a91906102e0565b602a6040518363ffffffff1660e01b8152600401610199929190610374565b602060405180830381865af41580156101b4573d5f5f3e3d5ffd5b505050506040513d601f19601f820116820180604052508101906101d891906103e3565b50565b6040516101e790610241565b604051809103905ff080158015610200573d5f5f3e3d5ffd5b505f5f6101000a81548173ffffffffffffffffffffffffffffffffffffffff021916908373ffffffffffffffffffffffffffffffffffffffff160217905550565b6101458061040f83390190565b5f819050919050565b5f819050919050565b5f819050919050565b5f61028361027e6102798461024e565b610260565b610257565b9050919050565b61029381610269565b82525050565b5f6020820190506102ac5f83018461028a565b92915050565b5f5ffd5b6102bf81610257565b81146102c9575f5ffd5b50565b5f815190506102da816102b6565b92915050565b5f602082840312156102f5576102f46102b2565b5b5f610302848285016102cc565b91505092915050565b61031481610257565b82525050565b5f82825260208201905092915050565b7f70726f706f73616c2072657472696576652073686f756c6420626520343200005f82015250565b5f61035e601e8361031a565b91506103698261032a565b602082019050919050565b5f6060820190506103875f83018561030b565b610394602083018461030b565b81810360408301526103a581610352565b90509392505050565b5f8115159050919050565b6103c2816103ae565b81146103cc575f5ffd5b50565b5f815190506103dd816103b9565b92915050565b5f602082840312156103f8576103f76102b2565b5b5f610405848285016103cf565b9150509291505056fe6080604052348015600e575f5ffd5b506101298061001c5f395ff3fe6080604052348015600e575f5ffd5b50600436106030575f3560e01c80632e64cec11460345780636057361d14604e575b5f5ffd5b603a6066565b60405160459190608d565b60405180910390f35b606460048036038101906060919060cd565b606e565b005b5f5f54905090565b805f8190555050565b5f819050919050565b6087816077565b82525050565b5f602082019050609e5f8301846080565b92915050565b5f5ffd5b60af816077565b811460b8575f5ffd5b50565b5f8135905060c78160a8565b92915050565b5f6020828403121560df5760de60a4565b5b5f60ea8482850160bb565b9150509291505056fea264697066735822122012c480346274b5eb236d2b0576fb8594f0919abb00e5c6c8609cabe893ed002264736f6c63430008220033a2646970667358221220b2c09bd49f415cd6ad1e71db8980993cf086fe855e134218e7348e63f995f7ab64736f6c63430008220033', \n     arguments: [\n     ]\n}).send({\n     from: web3.eth.accounts[0], \n     gas: '4700000'\n   }, function (e, contract){\n    console.log(e, contract);\n    if (typeof contract.address !== 'undefined') {\n         console.log('Contract mined! address: ' + contract.address + ' transactionHash: ' + contract.transactionHash);\n    }\n })",
	"functionHashes": {
		"7fea0d4b": "beforeAll()",
		"396e6f2a": "checkWriteRead()"
	},
	"gasEstimates": {
		"Creation": {
			"codeDepositCost": "283400",
			"executionCost": "322",
			"totalCost": "283722"
		},
		"External": {
			"beforeAll()": "infinite",
			"checkWriteRead()": "infinite"
		}
	},
	"devdoc": {
		"kind": "dev",
		"methods": {},
		"version": 1
	},
	"userdoc": {
		"kind": "user",
		"methods": {},
		"version": 1
	},
	"Runtime Bytecode": {
		"immutableReferences": {},
		"linkReferences": {
			"remix_tests.sol": {
				"Assert": [
					{
						"length": 20,
						"start": 213
					}
				]
			}
		},
		"object": "608060405234801561000f575f5ffd5b5060043610610034575f3560e01c8063396e6f2a146100385780637fea0d4b14610042575b5f5ffd5b61004061004c565b005b61004a6101db565b005b5f5f9054906101000a900473ffffffffffffffffffffffffffffffffffffffff1673ffffffffffffffffffffffffffffffffffffffff16636057361d602a6040518263ffffffff1660e01b81526004016100a69190610299565b5f604051808303815f87803b1580156100bd575f5ffd5b505af11580156100cf573d5f5f3e3d5ffd5b5050505073__$acbfb1c35000d78352310b16a054a6b106$__63abcd79605f5f9054906101000a900473ffffffffffffffffffffffffffffffffffffffff1673ffffffffffffffffffffffffffffffffffffffff16632e64cec16040518163ffffffff1660e01b8152600401602060405180830381865afa158015610156573d5f5f3e3d5ffd5b505050506040513d601f19601f8201168201806040525081019061017a91906102e0565b602a6040518363ffffffff1660e01b8152600401610199929190610374565b602060405180830381865af41580156101b4573d5f5f3e3d5ffd5b505050506040513d601f19601f820116820180604052508101906101d891906103e3565b50565b6040516101e790610241565b604051809103905ff080158015610200573d5f5f3e3d5ffd5b505f5f6101000a81548173ffffffffffffffffffffffffffffffffffffffff021916908373ffffffffffffffffffffffffffffffffffffffff160217905550565b6101458061040f83390190565b5f819050919050565b5f819050919050565b5f819050919050565b5f61028361027e6102798461024e565b610260565b610257565b9050919050565b61029381610269565b82525050565b5f6020820190506102ac5f83018461028a565b92915050565b5f5ffd5b6102bf81610257565b81146102c9575f5ffd5b50565b5f815190506102da816102b6565b92915050565b5f602082840312156102f5576102f46102b2565b5b5f610302848285016102cc565b91505092915050565b61031481610257565b82525050565b5f82825260208201905092915050565b7f70726f706f73616c2072657472696576652073686f756c6420626520343200005f82015250565b5f61035e601e8361031a565b91506103698261032a565b602082019050919050565b5f6060820190506103875f83018561030b565b610394602083018461030b565b81810360408301526103a581610352565b90509392505050565b5f8115159050919050565b6103c2816103ae565b81146103cc575f5ffd5b50565b5f815190506103dd816103b9565b92915050565b5f602082840312156103f8576103f76102b2565b5b5f610405848285016103cf565b9150509291505056fe6080604052348015600e575f5ffd5b506101298061001c5f395ff3fe6080604052348015600e575f5ffd5b50600436106030575f3560e01c80632e64cec11460345780636057361d14604e575b5f5ffd5b603a6066565b60405160459190608d565b60405180910390f35b606460048036038101906060919060cd565b606e565b005b5f5f54905090565b805f8190555050565b5f819050919050565b6087816077565b82525050565b5f602082019050609e5f8301846080565b92915050565b5f5ffd5b60af816077565b811460b8575f5ffd5b50565b5f8135905060c78160a8565b92915050565b5f6020828403121560df5760de60a4565b5b5f60ea8482850160bb565b9150509291505056fea264697066735822122012c480346274b5eb236d2b0576fb8594f0919abb00e5c6c8609cabe893ed002264736f6c63430008220033a2646970667358221220b2c09bd49f415cd6ad1e71db8980993cf086fe855e134218e7348e63f995f7ab64736f6c63430008220033",
		"opcodes": "PUSH1 0x80 PUSH1 0x40 MSTORE CALLVALUE DUP1 ISZERO PUSH2 0xF JUMPI PUSH0 PUSH0 REVERT JUMPDEST POP PUSH1 0x4 CALLDATASIZE LT PUSH2 0x34 JUMPI PUSH0 CALLDATALOAD PUSH1 0xE0 SHR DUP1 PUSH4 0x396E6F2A EQ PUSH2 0x38 JUMPI DUP1 PUSH4 0x7FEA0D4B EQ PUSH2 0x42 JUMPI JUMPDEST PUSH0 PUSH0 REVERT JUMPDEST PUSH2 0x40 PUSH2 0x4C JUMP JUMPDEST STOP JUMPDEST PUSH2 0x4A PUSH2 0x1DB JUMP JUMPDEST STOP JUMPDEST PUSH0 PUSH0 SWAP1 SLOAD SWAP1 PUSH2 0x100 EXP SWAP1 DIV PUSH20 0xFFFFFFFFFFFFFFFFFFFFFFFFFFFFFFFFFFFFFFFF AND PUSH20 0xFFFFFFFFFFFFFFFFFFFFFFFFFFFFFFFFFFFFFFFF AND PUSH4 0x6057361D PUSH1 0x2A PUSH1 0x40 MLOAD DUP3 PUSH4 0xFFFFFFFF AND PUSH1 0xE0 SHL DUP2 MSTORE PUSH1 0x4 ADD PUSH2 0xA6 SWAP2 SWAP1 PUSH2 0x299 JUMP JUMPDEST PUSH0 PUSH1 0x40 MLOAD DUP1 DUP4 SUB DUP2 PUSH0 DUP8 DUP1 EXTCODESIZE ISZERO DUP1 ISZERO PUSH2 0xBD JUMPI PUSH0 PUSH0 REVERT JUMPDEST POP GAS CALL ISZERO DUP1 ISZERO PUSH2 0xCF JUMPI RETURNDATASIZE PUSH0 PUSH0 RETURNDATACOPY RETURNDATASIZE PUSH0 REVERT JUMPDEST POP POP POP POP PUSH20 0x0 PUSH4 0xABCD7960 PUSH0 PUSH0 SWAP1 SLOAD SWAP1 PUSH2 0x100 EXP SWAP1 DIV PUSH20 0xFFFFFFFFFFFFFFFFFFFFFFFFFFFFFFFFFFFFFFFF AND PUSH20 0xFFFFFFFFFFFFFFFFFFFFFFFFFFFFFFFFFFFFFFFF AND PUSH4 0x2E64CEC1 PUSH1 0x40 MLOAD DUP2 PUSH4 0xFFFFFFFF AND PUSH1 0xE0 SHL DUP2 MSTORE PUSH1 0x4 ADD PUSH1 0x20 PUSH1 0x40 MLOAD DUP1 DUP4 SUB DUP2 DUP7 GAS STATICCALL ISZERO DUP1 ISZERO PUSH2 0x156 JUMPI RETURNDATASIZE PUSH0 PUSH0 RETURNDATACOPY RETURNDATASIZE PUSH0 REVERT JUMPDEST POP POP POP POP PUSH1 0x40 MLOAD RETURNDATASIZE PUSH1 0x1F NOT PUSH1 0x1F DUP3 ADD AND DUP3 ADD DUP1 PUSH1 0x40 MSTORE POP DUP2 ADD SWAP1 PUSH2 0x17A SWAP2 SWAP1 PUSH2 0x2E0 JUMP JUMPDEST PUSH1 0x2A PUSH1 0x40 MLOAD DUP4 PUSH4 0xFFFFFFFF AND PUSH1 0xE0 SHL DUP2 MSTORE PUSH1 0x4 ADD PUSH2 0x199 SWAP3 SWAP2 SWAP1 PUSH2 0x374 JUMP JUMPDEST PUSH1 0x20 PUSH1 0x40 MLOAD DUP1 DUP4 SUB DUP2 DUP7 GAS DELEGATECALL ISZERO DUP1 ISZERO PUSH2 0x1B4 JUMPI RETURNDATASIZE PUSH0 PUSH0 RETURNDATACOPY RETURNDATASIZE PUSH0 REVERT JUMPDEST POP POP POP POP PUSH1 0x40 MLOAD RETURNDATASIZE PUSH1 0x1F NOT PUSH1 0x1F DUP3 ADD AND DUP3 ADD DUP1 PUSH1 0x40 MSTORE POP DUP2 ADD SWAP1 PUSH2 0x1D8 SWAP2 SWAP1 PUSH2 0x3E3 JUMP JUMPDEST POP JUMP JUMPDEST PUSH1 0x40 MLOAD PUSH2 0x1E7 SWAP1 PUSH2 0x241 JUMP JUMPDEST PUSH1 0x40 MLOAD DUP1 SWAP2 SUB SWAP1 PUSH0 CREATE DUP1 ISZERO DUP1 ISZERO PUSH2 0x200 JUMPI RETURNDATASIZE PUSH0 PUSH0 RETURNDATACOPY RETURNDATASIZE PUSH0 REVERT JUMPDEST POP PUSH0 PUSH0 PUSH2 0x100 EXP DUP2 SLOAD DUP2 PUSH20 0xFFFFFFFFFFFFFFFFFFFFFFFFFFFFFFFFFFFFFFFF MUL NOT AND SWAP1 DUP4 PUSH20 0xFFFFFFFFFFFFFFFFFFFFFFFFFFFFFFFFFFFFFFFF AND MUL OR SWAP1 SSTORE POP JUMP JUMPDEST PUSH2 0x145 DUP1 PUSH2 0x40F DUP4 CODECOPY ADD SWAP1 JUMP JUMPDEST PUSH0 DUP2 SWAP1 POP SWAP2 SWAP1 POP JUMP JUMPDEST PUSH0 DUP2 SWAP1 POP SWAP2 SWAP1 POP JUMP JUMPDEST PUSH0 DUP2 SWAP1 POP SWAP2 SWAP1 POP JUMP JUMPDEST PUSH0 PUSH2 0x283 PUSH2 0x27E PUSH2 0x279 DUP5 PUSH2 0x24E JUMP JUMPDEST PUSH2 0x260 JUMP JUMPDEST PUSH2 0x257 JUMP JUMPDEST SWAP1 POP SWAP2 SWAP1 POP JUMP JUMPDEST PUSH2 0x293 DUP2 PUSH2 0x269 JUMP JUMPDEST DUP3 MSTORE POP POP JUMP JUMPDEST PUSH0 PUSH1 0x20 DUP3 ADD SWAP1 POP PUSH2 0x2AC PUSH0 DUP4 ADD DUP5 PUSH2 0x28A JUMP JUMPDEST SWAP3 SWAP2 POP POP JUMP JUMPDEST PUSH0 PUSH0 REVERT JUMPDEST PUSH2 0x2BF DUP2 PUSH2 0x257 JUMP JUMPDEST DUP2 EQ PUSH2 0x2C9 JUMPI PUSH0 PUSH0 REVERT JUMPDEST POP JUMP JUMPDEST PUSH0 DUP2 MLOAD SWAP1 POP PUSH2 0x2DA DUP2 PUSH2 0x2B6 JUMP JUMPDEST SWAP3 SWAP2 POP POP JUMP JUMPDEST PUSH0 PUSH1 0x20 DUP3 DUP5 SUB SLT ISZERO PUSH2 0x2F5 JUMPI PUSH2 0x2F4 PUSH2 0x2B2 JUMP JUMPDEST JUMPDEST PUSH0 PUSH2 0x302 DUP5 DUP3 DUP6 ADD PUSH2 0x2CC JUMP JUMPDEST SWAP2 POP POP SWAP3 SWAP2 POP POP JUMP JUMPDEST PUSH2 0x314 DUP2 PUSH2 0x257 JUMP JUMPDEST DUP3 MSTORE POP POP JUMP JUMPDEST PUSH0 DUP3 DUP3 MSTORE PUSH1 0x20 DUP3 ADD SWAP1 POP SWAP3 SWAP2 POP POP JUMP JUMPDEST PUSH32 0x70726F706F73616C2072657472696576652073686F756C642062652034320000 PUSH0 DUP3 ADD MSTORE POP JUMP JUMPDEST PUSH0 PUSH2 0x35E PUSH1 0x1E DUP4 PUSH2 0x31A JUMP JUMPDEST SWAP2 POP PUSH2 0x369 DUP3 PUSH2 0x32A JUMP JUMPDEST PUSH1 0x20 DUP3 ADD SWAP1 POP SWAP2 SWAP1 POP JUMP JUMPDEST PUSH0 PUSH1 0x60 DUP3 ADD SWAP1 POP PUSH2 0x387 PUSH0 DUP4 ADD DUP6 PUSH2 0x30B JUMP JUMPDEST PUSH2 0x394 PUSH1 0x20 DUP4 ADD DUP5 PUSH2 0x30B JUMP JUMPDEST DUP2 DUP2 SUB PUSH1 0x40 DUP4 ADD MSTORE PUSH2 0x3A5 DUP2 PUSH2 0x352 JUMP JUMPDEST SWAP1 POP SWAP4 SWAP3 POP POP POP JUMP JUMPDEST PUSH0 DUP2 ISZERO ISZERO SWAP1 POP SWAP2 SWAP1 POP JUMP JUMPDEST PUSH2 0x3C2 DUP2 PUSH2 0x3AE JUMP JUMPDEST DUP2 EQ PUSH2 0x3CC JUMPI PUSH0 PUSH0 REVERT JUMPDEST POP JUMP JUMPDEST PUSH0 DUP2 MLOAD SWAP1 POP PUSH2 0x3DD DUP2 PUSH2 0x3B9 JUMP JUMPDEST SWAP3 SWAP2 POP POP JUMP JUMPDEST PUSH0 PUSH1 0x20 DUP3 DUP5 SUB SLT ISZERO PUSH2 0x3F8 JUMPI PUSH2 0x3F7 PUSH2 0x2B2 JUMP JUMPDEST JUMPDEST PUSH0 PUSH2 0x405 DUP5 DUP3 DUP6 ADD PUSH2 0x3CF JUMP JUMPDEST SWAP2 POP POP SWAP3 SWAP2 POP POP JUMP INVALID PUSH1 0x80 PUSH1 0x40 MSTORE CALLVALUE DUP1 ISZERO PUSH1 0xE JUMPI PUSH0 PUSH0 REVERT JUMPDEST POP PUSH2 0x129 DUP1 PUSH2 0x1C PUSH0 CODECOPY PUSH0 RETURN INVALID PUSH1 0x80 PUSH1 0x40 MSTORE CALLVALUE DUP1 ISZERO PUSH1 0xE JUMPI PUSH0 PUSH0 REVERT JUMPDEST POP PUSH1 0x4 CALLDATASIZE LT PUSH1 0x30 JUMPI PUSH0 CALLDATALOAD PUSH1 0xE0 SHR DUP1 PUSH4 0x2E64CEC1 EQ PUSH1 0x34 JUMPI DUP1 PUSH4 0x6057361D EQ PUSH1 0x4E JUMPI JUMPDEST PUSH0 PUSH0 REVERT JUMPDEST PUSH1 0x3A PUSH1 0x66 JUMP JUMPDEST PUSH1 0x40 MLOAD PUSH1 0x45 SWAP2 SWAP1 PUSH1 0x8D JUMP JUMPDEST PUSH1 0x40 MLOAD DUP1 SWAP2 SUB SWAP1 RETURN JUMPDEST PUSH1 0x64 PUSH1 0x4 DUP1 CALLDATASIZE SUB DUP2 ADD SWAP1 PUSH1 0x60 SWAP2 SWAP1 PUSH1 0xCD JUMP JUMPDEST PUSH1 0x6E JUMP JUMPDEST STOP JUMPDEST PUSH0 PUSH0 SLOAD SWAP1 POP SWAP1 JUMP JUMPDEST DUP1 PUSH0 DUP2 SWAP1 SSTORE POP POP JUMP JUMPDEST PUSH0 DUP2 SWAP1 POP SWAP2 SWAP1 POP JUMP JUMPDEST PUSH1 0x87 DUP2 PUSH1 0x77 JUMP JUMPDEST DUP3 MSTORE POP POP JUMP JUMPDEST PUSH0 PUSH1 0x20 DUP3 ADD SWAP1 POP PUSH1 0x9E PUSH0 DUP4 ADD DUP5 PUSH1 0x80 JUMP JUMPDEST SWAP3 SWAP2 POP POP JUMP JUMPDEST PUSH0 PUSH0 REVERT JUMPDEST PUSH1 0xAF DUP2 PUSH1 0x77 JUMP JUMPDEST DUP2 EQ PUSH1 0xB8 JUMPI PUSH0 PUSH0 REVERT JUMPDEST POP JUMP JUMPDEST PUSH0 DUP2 CALLDATALOAD SWAP1 POP PUSH1 0xC7 DUP2 PUSH1 0xA8 JUMP JUMPDEST SWAP3 SWAP2 POP POP JUMP JUMPDEST PUSH0 PUSH1 0x20 DUP3 DUP5 SUB SLT ISZERO PUSH1 0xDF JUMPI PUSH1 0xDE PUSH1 0xA4 JUMP JUMPDEST JUMPDEST PUSH0 PUSH1 0xEA DUP5 DUP3 DUP6 ADD PUSH1 0xBB JUMP JUMPDEST SWAP2 POP POP SWAP3 SWAP2 POP POP JUMP INVALID LOG2 PUSH5 0x6970667358 0x22 SLT KECCAK256 SLT 0xC4 DUP1 CALLVALUE PUSH3 0x74B5EB 0x23 PUSH14 0x2B0576FB8594F0919ABB00E5C6C8 PUSH1 0x9C 0xAB 0xE8 SWAP4 0xED STOP 0x22 PUSH5 0x736F6C6343 STOP ADDMOD 0x22 STOP CALLER LOG2 PUSH5 0x6970667358 0x22 SLT KECCAK256 0xB2 0xC0 SWAP12 0xD4 SWAP16 COINBASE TLOAD 0xD6 0xAD CLZ PUSH18 0xDB8980993CF086FE855E134218E7348E63F9 SWAP6 0xF7 0xAB PUSH5 0x736F6C6343 STOP ADDMOD 0x22 STOP CALLER "
	},
	"Assembly": ".code\n  PUSH 80\t\t\tcontract StorageTest {\\n    St...\n  PUSH 40\t\t\tcontract StorageTest {\\n    St...\n  MSTORE \t\t\tcontract StorageTest {\\n    St...\n  CALLVALUE \t\t\tcontract StorageTest {\\n    St...\n  DUP1 \t\t\tcontract StorageTest {\\n    St...\n  ISZERO \t\t\tcontract StorageTest {\\n    St...\n  PUSH [tag] 1\t\t\tcontract StorageTest {\\n    St...\n  JUMPI \t\t\tcontract StorageTest {\\n    St...\n  PUSH 0\t\t\tcontract StorageTest {\\n    St...\n  PUSH 0\t\t\tcontract StorageTest {\\n    St...\n  REVERT \t\t\tcontract StorageTest {\\n    St...\ntag 1\t\t\tcontract StorageTest {\\n    St...\n  JUMPDEST \t\t\tcontract StorageTest {\\n    St...\n  POP \t\t\tcontract StorageTest {\\n    St...\n  PUSH #[$] 0000000000000000000000000000000000000000000000000000000000000000\t\t\tcontract StorageTest {\\n    St...\n  DUP1 \t\t\tcontract StorageTest {\\n    St...\n  PUSH [$] 0000000000000000000000000000000000000000000000000000000000000000\t\t\tcontract StorageTest {\\n    St...\n  PUSH 0\t\t\tcontract StorageTest {\\n    St...\n  CODECOPY \t\t\tcontract StorageTest {\\n    St...\n  PUSH 0\t\t\tcontract StorageTest {\\n    St...\n  RETURN \t\t\tcontract StorageTest {\\n    St...\n.data\n  0:\n    .code\n      PUSH 80\t\t\tcontract StorageTest {\\n    St...\n      PUSH 40\t\t\tcontract StorageTest {\\n    St...\n      MSTORE \t\t\tcontract StorageTest {\\n    St...\n      CALLVALUE \t\t\tcontract StorageTest {\\n    St...\n      DUP1 \t\t\tcontract StorageTest {\\n    St...\n      ISZERO \t\t\tcontract StorageTest {\\n    St...\n      PUSH [tag] 1\t\t\tcontract StorageTest {\\n    St...\n      JUMPI \t\t\tcontract StorageTest {\\n    St...\n      PUSH 0\t\t\tcontract StorageTest {\\n    St...\n      PUSH 0\t\t\tcontract StorageTest {\\n    St...\n      REVERT \t\t\tcontract StorageTest {\\n    St...\n    tag 1\t\t\tcontract StorageTest {\\n    St...\n      JUMPDEST \t\t\tcontract StorageTest {\\n    St...\n      POP \t\t\tcontract StorageTest {\\n    St...\n      PUSH 4\t\t\tcontract StorageTest {\\n    St...\n      CALLDATASIZE \t\t\tcontract StorageTest {\\n    St...\n      LT \t\t\tcontract StorageTest {\\n    St...\n      PUSH [tag] 2\t\t\tcontract StorageTest {\\n    St...\n      JUMPI \t\t\tcontract StorageTest {\\n    St...\n      PUSH 0\t\t\tcontract StorageTest {\\n    St...\n      CALLDATALOAD \t\t\tcontract StorageTest {\\n    St...\n      PUSH E0\t\t\tcontract StorageTest {\\n    St...\n      SHR \t\t\tcontract StorageTest {\\n    St...\n      DUP1 \t\t\tcontract StorageTest {\\n    St...\n      PUSH 396E6F2A\t\t\tcontract StorageTest {\\n    St...\n      EQ \t\t\tcontract StorageTest {\\n    St...\n      PUSH [tag] 3\t\t\tcontract StorageTest {\\n    St...\n      JUMPI \t\t\tcontract StorageTest {\\n    St...\n      DUP1 \t\t\tcontract StorageTest {\\n    St...\n      PUSH 7FEA0D4B\t\t\tcontract StorageTest {\\n    St...\n      EQ \t\t\tcontract StorageTest {\\n    St...\n      PUSH [tag] 4\t\t\tcontract StorageTest {\\n    St...\n      JUMPI \t\t\tcontract StorageTest {\\n    St...\n    tag 2\t\t\tcontract StorageTest {\\n    St...\n      JUMPDEST \t\t\tcontract StorageTest {\\n    St...\n      PUSH 0\t\t\tcontract StorageTest {\\n    St...\n      PUSH 0\t\t\tcontract StorageTest {\\n    St...\n      REVERT \t\t\tcontract StorageTest {\\n    St...\n    tag 3\t\t\tfunction checkWriteRead() publ...\n      JUMPDEST \t\t\tfunction checkWriteRead() publ...\n      PUSH [tag] 5\t\t\tfunction checkWriteRead() publ...\n      PUSH [tag] 6\t\t\tfunction checkWriteRead() publ...\n      JUMP \t\t\tfunction checkWriteRead() publ...\n    tag 5\t\t\tfunction checkWriteRead() publ...\n      JUMPDEST \t\t\tfunction checkWriteRead() publ...\n      STOP \t\t\tfunction checkWriteRead() publ...\n    tag 4\t\t\tfunction beforeAll() public {\\...\n      JUMPDEST \t\t\tfunction beforeAll() public {\\...\n      PUSH [tag] 7\t\t\tfunction beforeAll() public {\\...\n      PUSH [tag] 8\t\t\tfunction beforeAll() public {\\...\n      JUMP \t\t\tfunction beforeAll() public {\\...\n    tag 7\t\t\tfunction beforeAll() public {\\...\n      JUMPDEST \t\t\tfunction beforeAll() public {\\...\n      STOP \t\t\tfunction beforeAll() public {\\...\n    tag 6\t\t\tfunction checkWriteRead() publ...\n      JUMPDEST \t\t\tfunction checkWriteRead() publ...\n      PUSH 0\t\t\tstorageToTest\n      PUSH 0\t\t\tstorageToTest\n      SWAP1 \t\t\tstorageToTest\n      SLOAD \t\t\tstorageToTest\n      SWAP1 \t\t\tstorageToTest\n      PUSH 100\t\t\tstorageToTest\n      EXP \t\t\tstorageToTest\n      SWAP1 \t\t\tstorageToTest\n      DIV \t\t\tstorageToTest\n      PUSH FFFFFFFFFFFFFFFFFFFFFFFFFFFFFFFFFFFFFFFF\t\t\tstorageToTest\n      AND \t\t\tstorageToTest\n      PUSH FFFFFFFFFFFFFFFFFFFFFFFFFFFFFFFFFFFFFFFF\t\t\tstorageToTest.store\n      AND \t\t\tstorageToTest.store\n      PUSH 6057361D\t\t\tstorageToTest.store\n      PUSH 2A\t\t\t42\n      PUSH 40\t\t\tstorageToTest.store(42)\n      MLOAD \t\t\tstorageToTest.store(42)\n      DUP3 \t\t\tstorageToTest.store(42)\n      PUSH FFFFFFFF\t\t\tstorageToTest.store(42)\n      AND \t\t\tstorageToTest.store(42)\n      PUSH E0\t\t\tstorageToTest.store(42)\n      SHL \t\t\tstorageToTest.store(42)\n      DUP2 \t\t\tstorageToTest.store(42)\n      MSTORE \t\t\tstorageToTest.store(42)\n      PUSH 4\t\t\tstorageToTest.store(42)\n      ADD \t\t\tstorageToTest.store(42)\n      PUSH [tag] 10\t\t\tstorageToTest.store(42)\n      SWAP2 \t\t\tstorageToTest.store(42)\n      SWAP1 \t\t\tstorageToTest.store(42)\n      PUSH [tag] 11\t\t\tstorageToTest.store(42)\n      JUMP \t\t\tstorageToTest.store(42)\n    tag 10\t\t\tstorageToTest.store(42)\n      JUMPDEST \t\t\tstorageToTest.store(42)\n      PUSH 0\t\t\tstorageToTest.store(42)\n      PUSH 40\t\t\tstorageToTest.store(42)\n      MLOAD \t\t\tstorageToTest.store(42)\n      DUP1 \t\t\tstorageToTest.store(42)\n      DUP4 \t\t\tstorageToTest.store(42)\n      SUB \t\t\tstorageToTest.store(42)\n      DUP2 \t\t\tstorageToTest.store(42)\n      PUSH 0\t\t\tstorageToTest.store(42)\n      DUP8 \t\t\tstorageToTest.store(42)\n      DUP1 \t\t\tstorageToTest.store(42)\n      EXTCODESIZE \t\t\tstorageToTest.store(42)\n      ISZERO \t\t\tstorageToTest.store(42)\n      DUP1 \t\t\tstorageToTest.store(42)\n      ISZERO \t\t\tstorageToTest.store(42)\n      PUSH [tag] 12\t\t\tstorageToTest.store(42)\n      JUMPI \t\t\tstorageToTest.store(42)\n      PUSH 0\t\t\tstorageToTest.store(42)\n      PUSH 0\t\t\tstorageToTest.store(42)\n      REVERT \t\t\tstorageToTest.store(42)\n    tag 12\t\t\tstorageToTest.store(42)\n      JUMPDEST \t\t\tstorageToTest.store(42)\n      POP \t\t\tstorageToTest.store(42)\n      GAS \t\t\tstorageToTest.store(42)\n      CALL \t\t\tstorageToTest.store(42)\n      ISZERO \t\t\tstorageToTest.store(42)\n      DUP1 \t\t\tstorageToTest.store(42)\n      ISZERO \t\t\tstorageToTest.store(42)\n      PUSH [tag] 14\t\t\tstorageToTest.store(42)\n      JUMPI \t\t\tstorageToTest.store(42)\n      RETURNDATASIZE \t\t\tstorageToTest.store(42)\n      PUSH 0\t\t\tstorageToTest.store(42)\n      PUSH 0\t\t\tstorageToTest.store(42)\n      RETURNDATACOPY \t\t\tstorageToTest.store(42)\n      RETURNDATASIZE \t\t\tstorageToTest.store(42)\n      PUSH 0\t\t\tstorageToTest.store(42)\n      REVERT \t\t\tstorageToTest.store(42)\n    tag 14\t\t\tstorageToTest.store(42)\n      JUMPDEST \t\t\tstorageToTest.store(42)\n      POP \t\t\tstorageToTest.store(42)\n      POP \t\t\tstorageToTest.store(42)\n      POP \t\t\tstorageToTest.store(42)\n      POP \t\t\tstorageToTest.store(42)\n      PUSHLIB remix_tests.sol:Assert\t\t\tAssert\n      PUSH ABCD7960\t\t\tAssert.equal\n      PUSH 0\t\t\tstorageToTest\n      PUSH 0\t\t\tstorageToTest\n      SWAP1 \t\t\tstorageToTest\n      SLOAD \t\t\tstorageToTest\n      SWAP1 \t\t\tstorageToTest\n      PUSH 100\t\t\tstorageToTest\n      EXP \t\t\tstorageToTest\n      SWAP1 \t\t\tstorageToTest\n      DIV \t\t\tstorageToTest\n      PUSH FFFFFFFFFFFFFFFFFFFFFFFFFFFFFFFFFFFFFFFF\t\t\tstorageToTest\n      AND \t\t\tstorageToTest\n      PUSH FFFFFFFFFFFFFFFFFFFFFFFFFFFFFFFFFFFFFFFF\t\t\tstorageToTest.retrieve\n      AND \t\t\tstorageToTest.retrieve\n      PUSH 2E64CEC1\t\t\tstorageToTest.retrieve\n      PUSH 40\t\t\tstorageToTest.retrieve()\n      MLOAD \t\t\tstorageToTest.retrieve()\n      DUP2 \t\t\tstorageToTest.retrieve()\n      PUSH FFFFFFFF\t\t\tstorageToTest.retrieve()\n      AND \t\t\tstorageToTest.retrieve()\n      PUSH E0\t\t\tstorageToTest.retrieve()\n      SHL \t\t\tstorageToTest.retrieve()\n      DUP2 \t\t\tstorageToTest.retrieve()\n      MSTORE \t\t\tstorageToTest.retrieve()\n      PUSH 4\t\t\tstorageToTest.retrieve()\n      ADD \t\t\tstorageToTest.retrieve()\n      PUSH 20\t\t\tstorageToTest.retrieve()\n      PUSH 40\t\t\tstorageToTest.retrieve()\n      MLOAD \t\t\tstorageToTest.retrieve()\n      DUP1 \t\t\tstorageToTest.retrieve()\n      DUP4 \t\t\tstorageToTest.retrieve()\n      SUB \t\t\tstorageToTest.retrieve()\n      DUP2 \t\t\tstorageToTest.retrieve()\n      DUP7 \t\t\tstorageToTest.retrieve()\n      GAS \t\t\tstorageToTest.retrieve()\n      STATICCALL \t\t\tstorageToTest.retrieve()\n      ISZERO \t\t\tstorageToTest.retrieve()\n      DUP1 \t\t\tstorageToTest.retrieve()\n      ISZERO \t\t\tstorageToTest.retrieve()\n      PUSH [tag] 16\t\t\tstorageToTest.retrieve()\n      JUMPI \t\t\tstorageToTest.retrieve()\n      RETURNDATASIZE \t\t\tstorageToTest.retrieve()\n      PUSH 0\t\t\tstorageToTest.retrieve()\n      PUSH 0\t\t\tstorageToTest.retrieve()\n      RETURNDATACOPY \t\t\tstorageToTest.retrieve()\n      RETURNDATASIZE \t\t\tstorageToTest.retrieve()\n      PUSH 0\t\t\tstorageToTest.retrieve()\n      REVERT \t\t\tstorageToTest.retrieve()\n    tag 16\t\t\tstorageToTest.retrieve()\n      JUMPDEST \t\t\tstorageToTest.retrieve()\n      POP \t\t\tstorageToTest.retrieve()\n      POP \t\t\tstorageToTest.retrieve()\n      POP \t\t\tstorageToTest.retrieve()\n      POP \t\t\tstorageToTest.retrieve()\n      PUSH 40\t\t\tstorageToTest.retrieve()\n      MLOAD \t\t\tstorageToTest.retrieve()\n      RETURNDATASIZE \t\t\tstorageToTest.retrieve()\n      PUSH 1F\t\t\tstorageToTest.retrieve()\n      NOT \t\t\tstorageToTest.retrieve()\n      PUSH 1F\t\t\tstorageToTest.retrieve()\n      DUP3 \t\t\tstorageToTest.retrieve()\n      ADD \t\t\tstorageToTest.retrieve()\n      AND \t\t\tstorageToTest.retrieve()\n      DUP3 \t\t\tstorageToTest.retrieve()\n      ADD \t\t\tstorageToTest.retrieve()\n      DUP1 \t\t\tstorageToTest.retrieve()\n      PUSH 40\t\t\tstorageToTest.retrieve()\n      MSTORE \t\t\tstorageToTest.retrieve()\n      POP \t\t\tstorageToTest.retrieve()\n      DUP2 \t\t\tstorageToTest.retrieve()\n      ADD \t\t\tstorageToTest.retrieve()\n      SWAP1 \t\t\tstorageToTest.retrieve()\n      PUSH [tag] 17\t\t\tstorageToTest.retrieve()\n      SWAP2 \t\t\tstorageToTest.retrieve()\n      SWAP1 \t\t\tstorageToTest.retrieve()\n      PUSH [tag] 18\t\t\tstorageToTest.retrieve()\n      JUMP \t\t\tstorageToTest.retrieve()\n    tag 17\t\t\tstorageToTest.retrieve()\n      JUMPDEST \t\t\tstorageToTest.retrieve()\n      PUSH 2A\t\t\t42\n      PUSH 40\t\t\tAssert.equal(storageToTest.ret...\n      MLOAD \t\t\tAssert.equal(storageToTest.ret...\n      DUP4 \t\t\tAssert.equal(storageToTest.ret...\n      PUSH FFFFFFFF\t\t\tAssert.equal(storageToTest.ret...\n      AND \t\t\tAssert.equal(storageToTest.ret...\n      PUSH E0\t\t\tAssert.equal(storageToTest.ret...\n      SHL \t\t\tAssert.equal(storageToTest.ret...\n      DUP2 \t\t\tAssert.equal(storageToTest.ret...\n      MSTORE \t\t\tAssert.equal(storageToTest.ret...\n      PUSH 4\t\t\tAssert.equal(storageToTest.ret...\n      ADD \t\t\tAssert.equal(storageToTest.ret...\n      PUSH [tag] 19\t\t\tAssert.equal(storageToTest.ret...\n      SWAP3 \t\t\tAssert.equal(storageToTest.ret...\n      SWAP2 \t\t\tAssert.equal(storageToTest.ret...\n      SWAP1 \t\t\tAssert.equal(storageToTest.ret...\n      PUSH [tag] 20\t\t\tAssert.equal(storageToTest.ret...\n      JUMP \t\t\tAssert.equal(storageToTest.ret...\n    tag 19\t\t\tAssert.equal(storageToTest.ret...\n      JUMPDEST \t\t\tAssert.equal(storageToTest.ret...\n      PUSH 20\t\t\tAssert.equal(storageToTest.ret...\n      PUSH 40\t\t\tAssert.equal(storageToTest.ret...\n      MLOAD \t\t\tAssert.equal(storageToTest.ret...\n      DUP1 \t\t\tAssert.equal(storageToTest.ret...\n      DUP4 \t\t\tAssert.equal(storageToTest.ret...\n      SUB \t\t\tAssert.equal(storageToTest.ret...\n      DUP2 \t\t\tAssert.equal(storageToTest.ret...\n      DUP7 \t\t\tAssert.equal(storageToTest.ret...\n      GAS \t\t\tAssert.equal(storageToTest.ret...\n      DELEGATECALL \t\t\tAssert.equal(storageToTest.ret...\n      ISZERO \t\t\tAssert.equal(storageToTest.ret...\n      DUP1 \t\t\tAssert.equal(storageToTest.ret...\n      ISZERO \t\t\tAssert.equal(storageToTest.ret...\n      PUSH [tag] 22\t\t\tAssert.equal(storageToTest.ret...\n      JUMPI \t\t\tAssert.equal(storageToTest.ret...\n      RETURNDATASIZE \t\t\tAssert.equal(storageToTest.ret...\n      PUSH 0\t\t\tAssert.equal(storageToTest.ret...\n      PUSH 0\t\t\tAssert.equal(storageToTest.ret...\n      RETURNDATACOPY \t\t\tAssert.equal(storageToTest.ret...\n      RETURNDATASIZE \t\t\tAssert.equal(storageToTest.ret...\n      PUSH 0\t\t\tAssert.equal(storageToTest.ret...\n      REVERT \t\t\tAssert.equal(storageToTest.ret...\n    tag 22\t\t\tAssert.equal(storageToTest.ret...\n      JUMPDEST \t\t\tAssert.equal(storageToTest.ret...\n      POP \t\t\tAssert.equal(storageToTest.ret...\n      POP \t\t\tAssert.equal(storageToTest.ret...\n      POP \t\t\tAssert.equal(storageToTest.ret...\n      POP \t\t\tAssert.equal(storageToTest.ret...\n      PUSH 40\t\t\tAssert.equal(storageToTest.ret...\n      MLOAD \t\t\tAssert.equal(storageToTest.ret...\n      RETURNDATASIZE \t\t\tAssert.equal(storageToTest.ret...\n      PUSH 1F\t\t\tAssert.equal(storageToTest.ret...\n      NOT \t\t\tAssert.equal(storageToTest.ret...\n      PUSH 1F\t\t\tAssert.equal(storageToTest.ret...\n      DUP3 \t\t\tAssert.equal(storageToTest.ret...\n      ADD \t\t\tAssert.equal(storageToTest.ret...\n      AND \t\t\tAssert.equal(storageToTest.ret...\n      DUP3 \t\t\tAssert.equal(storageToTest.ret...\n      ADD \t\t\tAssert.equal(storageToTest.ret...\n      DUP1 \t\t\tAssert.equal(storageToTest.ret...\n      PUSH 40\t\t\tAssert.equal(storageToTest.ret...\n      MSTORE \t\t\tAssert.equal(storageToTest.ret...\n      POP \t\t\tAssert.equal(storageToTest.ret...\n      DUP2 \t\t\tAssert.equal(storageToTest.ret...\n      ADD \t\t\tAssert.equal(storageToTest.ret...\n      SWAP1 \t\t\tAssert.equal(storageToTest.ret...\n      PUSH [tag] 23\t\t\tAssert.equal(storageToTest.ret...\n      SWAP2 \t\t\tAssert.equal(storageToTest.ret...\n      SWAP1 \t\t\tAssert.equal(storageToTest.ret...\n      PUSH [tag] 24\t\t\tAssert.equal(storageToTest.ret...\n      JUMP \t\t\tAssert.equal(storageToTest.ret...\n    tag 23\t\t\tAssert.equal(storageToTest.ret...\n      JUMPDEST \t\t\tAssert.equal(storageToTest.ret...\n      POP \t\t\tAssert.equal(storageToTest.ret...\n      JUMP \t\t\tfunction checkWriteRead() publ...\n    tag 8\t\t\tfunction beforeAll() public {\\...\n      JUMPDEST \t\t\tfunction beforeAll() public {\\...\n      PUSH 40\t\t\tnew Storage()\n      MLOAD \t\t\tnew Storage()\n      PUSH [tag] 26\t\t\tnew Storage()\n      SWAP1 \t\t\tnew Storage()\n      PUSH [tag] 27\t\t\tnew Storage()\n      JUMP \t\t\tnew Storage()\n    tag 26\t\t\tnew Storage()\n      JUMPDEST \t\t\tnew Storage()\n      PUSH 40\t\t\tnew Storage()\n      MLOAD \t\t\tnew Storage()\n      DUP1 \t\t\tnew Storage()\n      SWAP2 \t\t\tnew Storage()\n      SUB \t\t\tnew Storage()\n      SWAP1 \t\t\tnew Storage()\n      PUSH 0\t\t\tnew Storage()\n      CREATE \t\t\tnew Storage()\n      DUP1 \t\t\tnew Storage()\n      ISZERO \t\t\tnew Storage()\n      DUP1 \t\t\tnew Storage()\n      ISZERO \t\t\tnew Storage()\n      PUSH [tag] 28\t\t\tnew Storage()\n      JUMPI \t\t\tnew Storage()\n      RETURNDATASIZE \t\t\tnew Storage()\n      PUSH 0\t\t\tnew Storage()\n      PUSH 0\t\t\tnew Storage()\n      RETURNDATACOPY \t\t\tnew Storage()\n      RETURNDATASIZE \t\t\tnew Storage()\n      PUSH 0\t\t\tnew Storage()\n      REVERT \t\t\tnew Storage()\n    tag 28\t\t\tnew Storage()\n      JUMPDEST \t\t\tnew Storage()\n      POP \t\t\tnew Storage()\n      PUSH 0\t\t\tstorageToTest\n      PUSH 0\t\t\tstorageToTest\n      PUSH 100\t\t\tstorageToTest = new Storage()\n      EXP \t\t\tstorageToTest = new Storage()\n      DUP2 \t\t\tstorageToTest = new Storage()\n      SLOAD \t\t\tstorageToTest = new Storage()\n      DUP2 \t\t\tstorageToTest = new Storage()\n      PUSH FFFFFFFFFFFFFFFFFFFFFFFFFFFFFFFFFFFFFFFF\t\t\tstorageToTest = new Storage()\n      MUL \t\t\tstorageToTest = new Storage()\n      NOT \t\t\tstorageToTest = new Storage()\n      AND \t\t\tstorageToTest = new Storage()\n      SWAP1 \t\t\tstorageToTest = new Storage()\n      DUP4 \t\t\tstorageToTest = new Storage()\n      PUSH FFFFFFFFFFFFFFFFFFFFFFFFFFFFFFFFFFFFFFFF\t\t\tstorageToTest = new Storage()\n      AND \t\t\tstorageToTest = new Storage()\n      MUL \t\t\tstorageToTest = new Storage()\n      OR \t\t\tstorageToTest = new Storage()\n      SWAP1 \t\t\tstorageToTest = new Storage()\n      SSTORE \t\t\tstorageToTest = new Storage()\n      POP \t\t\tstorageToTest = new Storage()\n      JUMP \t\t\tfunction beforeAll() public {\\...\n    tag 27\t\t\t\n      JUMPDEST \t\t\t\n      PUSH #[$] 0000000000000000000000000000000000000000000000000000000000000000\t\t\t\n      DUP1 \t\t\t\n      PUSH [$] 0000000000000000000000000000000000000000000000000000000000000000\t\t\t\n      DUP4 \t\t\t\n      CODECOPY \t\t\t\n      ADD \t\t\t\n      SWAP1 \t\t\t\n      JUMP \t\t\t\n    tag 29\t\t\t-License-Identifier: GPL-3.0\\n...\n      JUMPDEST \t\t\t-License-Identifier: GPL-3.0\\n...\n      PUSH 0\t\t\t=0.7.0 \n      DUP2 \t\t\t_test\n      SWAP1 \t\t\tport \"remix_test\n      POP \t\t\tport \"remix_test\n      SWAP2 \t\t\t-License-Identifier: GPL-3.0\\n...\n      SWAP1 \t\t\t-License-Identifier: GPL-3.0\\n...\n      POP \t\t\t-License-Identifier: GPL-3.0\\n...\n      JUMP \t\t\t-License-Identifier: GPL-3.0\\n...\n    tag 30\t\t\trt \"../contracts/1_Storage.sol...\n      JUMPDEST \t\t\trt \"../contracts/1_Storage.sol...\n      PUSH 0\t\t\ttract S\n      DUP2 \t\t\tge st\n      SWAP1 \t\t\t{\\n    Storage st\n      POP \t\t\t{\\n    Storage st\n      SWAP2 \t\t\trt \"../contracts/1_Storage.sol...\n      SWAP1 \t\t\trt \"../contracts/1_Storage.sol...\n      POP \t\t\trt \"../contracts/1_Storage.sol...\n      JUMP \t\t\trt \"../contracts/1_Storage.sol...\n    tag 31\t\t\t\\n\\n    function beforeAll() p...\n      JUMPDEST \t\t\t\\n\\n    function beforeAll() p...\n      PUSH 0\t\t\tubl\n      DUP2 \t\t\tgeToT\n      SWAP1 \t\t\t  storageToT\n      POP \t\t\t  storageToT\n      SWAP2 \t\t\t\\n\\n    function beforeAll() p...\n      SWAP1 \t\t\t\\n\\n    function beforeAll() p...\n      POP \t\t\t\\n\\n    function beforeAll() p...\n      JUMP \t\t\t\\n\\n    function beforeAll() p...\n    tag 32\t\t\torage();\\n    }\\n\\n    functio...\n      JUMPDEST \t\t\torage();\\n    }\\n\\n    functio...\n      PUSH 0\t\t\t    stora\n      PUSH [tag] 51\t\t\t    Assert.equal(storageToTest...\n      PUSH [tag] 52\t\t\ttorageToTest.retrieve(), uint2...\n      PUSH [tag] 53\t\t\test.retrieve(), uint256(42), \"...\n      DUP5 \t\t\t, \"pr\n      PUSH [tag] 29\t\t\test.retrieve(), uint256(42), \"...\n      JUMP \t\t\test.retrieve(), uint256(42), \"...\n    tag 53\t\t\test.retrieve(), uint256(42), \"...\n      JUMPDEST \t\t\test.retrieve(), uint256(42), \"...\n      PUSH [tag] 31\t\t\ttorageToTest.retrieve(), uint2...\n      JUMP \t\t\ttorageToTest.retrieve(), uint2...\n    tag 52\t\t\ttorageToTest.retrieve(), uint2...\n      JUMPDEST \t\t\ttorageToTest.retrieve(), uint2...\n      PUSH [tag] 30\t\t\t    Assert.equal(storageToTest...\n      JUMP \t\t\t    Assert.equal(storageToTest...\n    tag 51\t\t\t    Assert.equal(storageToTest...\n      JUMPDEST \t\t\t    Assert.equal(storageToTest...\n      SWAP1 \t\t\tore(42);\\n        Assert.equal...\n      POP \t\t\tore(42);\\n        Assert.equal...\n      SWAP2 \t\t\torage();\\n    }\\n\\n    functio...\n      SWAP1 \t\t\torage();\\n    }\\n\\n    functio...\n      POP \t\t\torage();\\n    }\\n\\n    functio...\n      JUMP \t\t\torage();\\n    }\\n\\n    functio...\n    tag 33\t\t\t should be 42\");\\n    }\\n}\\n\n      JUMPDEST \t\t\t should be 42\");\\n    }\\n}\\n\n      PUSH [tag] 55\t\t\t\n      DUP2 \t\t\t\n      PUSH [tag] 32\t\t\t\n      JUMP \t\t\t\n    tag 55\t\t\t\n      JUMPDEST \t\t\t\n      DUP3 \t\t\t\n      MSTORE \t\t\t\n      POP \t\t\t should be 42\");\\n    }\\n}\\n\n      POP \t\t\t should be 42\");\\n    }\\n}\\n\n      JUMP \t\t\t should be 42\");\\n    }\\n}\\n\n    tag 11\t\t\t\n      JUMPDEST \t\t\t\n      PUSH 0\t\t\t\n      PUSH 20\t\t\t\n      DUP3 \t\t\t\n      ADD \t\t\t\n      SWAP1 \t\t\t\n      POP \t\t\t\n      PUSH [tag] 57\t\t\t\n      PUSH 0\t\t\t\n      DUP4 \t\t\t\n      ADD \t\t\t\n      DUP5 \t\t\t\n      PUSH [tag] 33\t\t\t\n      JUMP \t\t\t\n    tag 57\t\t\t\n      JUMPDEST \t\t\t\n      SWAP3 \t\t\t\n      SWAP2 \t\t\t\n      POP \t\t\t\n      POP \t\t\t\n      JUMP \t\t\t\n    tag 35\t\t\t\n      JUMPDEST \t\t\t\n      PUSH 0\t\t\t\n      PUSH 0\t\t\t\n      REVERT \t\t\t\n    tag 37\t\t\t\n      JUMPDEST \t\t\t\n      PUSH [tag] 62\t\t\t\n      DUP2 \t\t\t\n      PUSH [tag] 30\t\t\t\n      JUMP \t\t\t\n    tag 62\t\t\t\n      JUMPDEST \t\t\t\n      DUP2 \t\t\t\n      EQ \t\t\t\n      PUSH [tag] 63\t\t\t\n      JUMPI \t\t\t\n      PUSH 0\t\t\t\n      PUSH 0\t\t\t\n      REVERT \t\t\t\n    tag 63\t\t\t\n      JUMPDEST \t\t\t\n      POP \t\t\t\n      JUMP \t\t\t\n    tag 38\t\t\t\n      JUMPDEST \t\t\t\n      PUSH 0\t\t\t\n      DUP2 \t\t\t\n      MLOAD \t\t\t\n      SWAP1 \t\t\t\n      POP \t\t\t\n      PUSH [tag] 65\t\t\t\n      DUP2 \t\t\t\n      PUSH [tag] 37\t\t\t\n      JUMP \t\t\t\n    tag 65\t\t\t\n      JUMPDEST \t\t\t\n      SWAP3 \t\t\t\n      SWAP2 \t\t\t\n      POP \t\t\t\n      POP \t\t\t\n      JUMP \t\t\t\n    tag 18\t\t\t\n      JUMPDEST \t\t\t\n      PUSH 0\t\t\t\n      PUSH 20\t\t\t\n      DUP3 \t\t\t\n      DUP5 \t\t\t\n      SUB \t\t\t\n      SLT \t\t\t\n      ISZERO \t\t\t\n      PUSH [tag] 67\t\t\t\n      JUMPI \t\t\t\n      PUSH [tag] 68\t\t\t\n      PUSH [tag] 35\t\t\t\n      JUMP \t\t\t\n    tag 68\t\t\t\n      JUMPDEST \t\t\t\n    tag 67\t\t\t\n      JUMPDEST \t\t\t\n      PUSH 0\t\t\t\n      PUSH [tag] 69\t\t\t\n      DUP5 \t\t\t\n      DUP3 \t\t\t\n      DUP6 \t\t\t\n      ADD \t\t\t\n      PUSH [tag] 38\t\t\t\n      JUMP \t\t\t\n    tag 69\t\t\t\n      JUMPDEST \t\t\t\n      SWAP2 \t\t\t\n      POP \t\t\t\n      POP \t\t\t\n      SWAP3 \t\t\t\n      SWAP2 \t\t\t\n      POP \t\t\t\n      POP \t\t\t\n      JUMP \t\t\t\n    tag 39\t\t\t\n      JUMPDEST \t\t\t\n      PUSH [tag] 71\t\t\t\n      DUP2 \t\t\t\n      PUSH [tag] 30\t\t\t\n      JUMP \t\t\t\n    tag 71\t\t\t\n      JUMPDEST \t\t\t\n      DUP3 \t\t\t\n      MSTORE \t\t\t\n      POP \t\t\t\n      POP \t\t\t\n      JUMP \t\t\t\n    tag 40\t\t\t\n      JUMPDEST \t\t\t\n      PUSH 0\t\t\t\n      DUP3 \t\t\t\n      DUP3 \t\t\t\n      MSTORE \t\t\t\n      PUSH 20\t\t\t\n      DUP3 \t\t\t\n      ADD \t\t\t\n      SWAP1 \t\t\t\n      POP \t\t\t\n      SWAP3 \t\t\t\n      SWAP2 \t\t\t\n      POP \t\t\t\n      POP \t\t\t\n      JUMP \t\t\t\n    tag 41\t\t\t\n      JUMPDEST \t\t\t\n      PUSH 70726F706F73616C2072657472696576652073686F756C642062652034320000\t\t\t\n      PUSH 0\t\t\t\n      DUP3 \t\t\t\n      ADD \t\t\t\n      MSTORE \t\t\t\n      POP \t\t\t\n      JUMP \t\t\t\n    tag 42\t\t\t\n      JUMPDEST \t\t\t\n      PUSH 0\t\t\t\n      PUSH [tag] 75\t\t\t\n      PUSH 1E\t\t\t\n      DUP4 \t\t\t\n      PUSH [tag] 40\t\t\t\n      JUMP \t\t\t\n    tag 75\t\t\t\n      JUMPDEST \t\t\t\n      SWAP2 \t\t\t\n      POP \t\t\t\n      PUSH [tag] 76\t\t\t\n      DUP3 \t\t\t\n      PUSH [tag] 41\t\t\t\n      JUMP \t\t\t\n    tag 76\t\t\t\n      JUMPDEST \t\t\t\n      PUSH 20\t\t\t\n      DUP3 \t\t\t\n      ADD \t\t\t\n      SWAP1 \t\t\t\n      POP \t\t\t\n      SWAP2 \t\t\t\n      SWAP1 \t\t\t\n      POP \t\t\t\n      JUMP \t\t\t\n    tag 20\t\t\t\n      JUMPDEST \t\t\t\n      PUSH 0\t\t\t\n      PUSH 60\t\t\t\n      DUP3 \t\t\t\n      ADD \t\t\t\n      SWAP1 \t\t\t\n      POP \t\t\t\n      PUSH [tag] 78\t\t\t\n      PUSH 0\t\t\t\n      DUP4 \t\t\t\n      ADD \t\t\t\n      DUP6 \t\t\t\n      PUSH [tag] 39\t\t\t\n      JUMP \t\t\t\n    tag 78\t\t\t\n      JUMPDEST \t\t\t\n      PUSH [tag] 79\t\t\t\n      PUSH 20\t\t\t\n      DUP4 \t\t\t\n      ADD \t\t\t\n      DUP5 \t\t\t\n      PUSH [tag] 39\t\t\t\n      JUMP \t\t\t\n    tag 79\t\t\t\n      JUMPDEST \t\t\t\n      DUP2 \t\t\t\n      DUP2 \t\t\t\n      SUB \t\t\t\n      PUSH 40\t\t\t\n      DUP4 \t\t\t\n      ADD \t\t\t\n      MSTORE \t\t\t\n      PUSH [tag] 80\t\t\t\n      DUP2 \t\t\t\n      PUSH [tag] 42\t\t\t\n      JUMP \t\t\t\n    tag 80\t\t\t\n      JUMPDEST \t\t\t\n      SWAP1 \t\t\t\n      POP \t\t\t\n      SWAP4 \t\t\t\n      SWAP3 \t\t\t\n      POP \t\t\t\n      POP \t\t\t\n      POP \t\t\t\n      JUMP \t\t\t\n    tag 43\t\t\t\n      JUMPDEST \t\t\t\n      PUSH 0\t\t\t\n      DUP2 \t\t\t\n      ISZERO \t\t\t\n      ISZERO \t\t\t\n      SWAP1 \t\t\t\n      POP \t\t\t\n      SWAP2 \t\t\t\n      SWAP1 \t\t\t\n      POP \t\t\t\n      JUMP \t\t\t\n    tag 44\t\t\t\n      JUMPDEST \t\t\t\n      PUSH [tag] 83\t\t\t\n      DUP2 \t\t\t\n      PUSH [tag] 43\t\t\t\n      JUMP \t\t\t\n    tag 83\t\t\t\n      JUMPDEST \t\t\t\n      DUP2 \t\t\t\n      EQ \t\t\t\n      PUSH [tag] 84\t\t\t\n      JUMPI \t\t\t\n      PUSH 0\t\t\t\n      PUSH 0\t\t\t\n      REVERT \t\t\t\n    tag 84\t\t\t\n      JUMPDEST \t\t\t\n      POP \t\t\t\n      JUMP \t\t\t\n    tag 45\t\t\t\n      JUMPDEST \t\t\t\n      PUSH 0\t\t\t\n      DUP2 \t\t\t\n      MLOAD \t\t\t\n      SWAP1 \t\t\t\n      POP \t\t\t\n      PUSH [tag] 86\t\t\t\n      DUP2 \t\t\t\n      PUSH [tag] 44\t\t\t\n      JUMP \t\t\t\n    tag 86\t\t\t\n      JUMPDEST \t\t\t\n      SWAP3 \t\t\t\n      SWAP2 \t\t\t\n      POP \t\t\t\n      POP \t\t\t\n      JUMP \t\t\t\n    tag 24\t\t\t\n      JUMPDEST \t\t\t\n      PUSH 0\t\t\t\n      PUSH 20\t\t\t\n      DUP3 \t\t\t\n      DUP5 \t\t\t\n      SUB \t\t\t\n      SLT \t\t\t\n      ISZERO \t\t\t\n      PUSH [tag] 88\t\t\t\n      JUMPI \t\t\t\n      PUSH [tag] 89\t\t\t\n      PUSH [tag] 35\t\t\t\n      JUMP \t\t\t\n    tag 89\t\t\t\n      JUMPDEST \t\t\t\n    tag 88\t\t\t\n      JUMPDEST \t\t\t\n      PUSH 0\t\t\t\n      PUSH [tag] 90\t\t\t\n      DUP5 \t\t\t\n      DUP3 \t\t\t\n      DUP6 \t\t\t\n      ADD \t\t\t\n      PUSH [tag] 45\t\t\t\n      JUMP \t\t\t\n    tag 90\t\t\t\n      JUMPDEST \t\t\t\n      SWAP2 \t\t\t\n      POP \t\t\t\n      POP \t\t\t\n      SWAP3 \t\t\t\n      SWAP2 \t\t\t\n      POP \t\t\t\n      POP \t\t\t\n      JUMP \t\t\t\n    .data\n      0:\n        .code\n          PUSH 80\t\t\timport \"remix_tests.sol\";\\nimp...\n          PUSH 40\t\t\timport \"remix_tests.sol\";\\nimp...\n          MSTORE \t\t\timport \"remix_tests.sol\";\\nimp...\n          CALLVALUE \t\t\timport \"remix_tests.sol\";\\nimp...\n          DUP1 \t\t\timport \"remix_tests.sol\";\\nimp...\n          ISZERO \t\t\timport \"remix_tests.sol\";\\nimp...\n          PUSH [tag] 1\t\t\timport \"remix_tests.sol\";\\nimp...\n          JUMPI \t\t\timport \"remix_tests.sol\";\\nimp...\n          PUSH 0\t\t\timport \"remix_tests.sol\";\\nimp...\n          PUSH 0\t\t\timport \"remix_tests.sol\";\\nimp...\n          REVERT \t\t\timport \"remix_tests.sol\";\\nimp...\n        tag 1\t\t\timport \"remix_tests.sol\";\\nimp...\n          JUMPDEST \t\t\timport \"remix_tests.sol\";\\nimp...\n          POP \t\t\timport \"remix_tests.sol\";\\nimp...\n          PUSH #[$] 0000000000000000000000000000000000000000000000000000000000000000\t\t\timport \"remix_tests.sol\";\\nimp...\n          DUP1 \t\t\timport \"remix_tests.sol\";\\nimp...\n          PUSH [$] 0000000000000000000000000000000000000000000000000000000000000000\t\t\timport \"remix_tests.sol\";\\nimp...\n          PUSH 0\t\t\timport \"remix_tests.sol\";\\nimp...\n          CODECOPY \t\t\timport \"remix_tests.sol\";\\nimp...\n          PUSH 0\t\t\timport \"remix_tests.sol\";\\nimp...\n          RETURN \t\t\timport \"remix_tests.sol\";\\nimp...\n        .data\n          0:\n            .code\n              PUSH 80\t\t\timport \"remix_tests.sol\";\\nimp...\n              PUSH 40\t\t\timport \"remix_tests.sol\";\\nimp...\n              MSTORE \t\t\timport \"remix_tests.sol\";\\nimp...\n              CALLVALUE \t\t\timport \"remix_tests.sol\";\\nimp...\n              DUP1 \t\t\timport \"remix_tests.sol\";\\nimp...\n              ISZERO \t\t\timport \"remix_tests.sol\";\\nimp...\n              PUSH [tag] 1\t\t\timport \"remix_tests.sol\";\\nimp...\n              JUMPI \t\t\timport \"remix_tests.sol\";\\nimp...\n              PUSH 0\t\t\timport \"remix_tests.sol\";\\nimp...\n              PUSH 0\t\t\timport \"remix_tests.sol\";\\nimp...\n              REVERT \t\t\timport \"remix_tests.sol\";\\nimp...\n            tag 1\t\t\timport \"remix_tests.sol\";\\nimp...\n              JUMPDEST \t\t\timport \"remix_tests.sol\";\\nimp...\n              POP \t\t\timport \"remix_tests.sol\";\\nimp...\n              PUSH 4\t\t\timport \"remix_tests.sol\";\\nimp...\n              CALLDATASIZE \t\t\timport \"remix_tests.sol\";\\nimp...\n              LT \t\t\timport \"remix_tests.sol\";\\nimp...\n              PUSH [tag] 2\t\t\timport \"remix_tests.sol\";\\nimp...\n              JUMPI \t\t\timport \"remix_tests.sol\";\\nimp...\n              PUSH 0\t\t\timport \"remix_tests.sol\";\\nimp...\n              CALLDATALOAD \t\t\timport \"remix_tests.sol\";\\nimp...\n              PUSH E0\t\t\timport \"remix_tests.sol\";\\nimp...\n              SHR \t\t\timport \"remix_tests.sol\";\\nimp...\n              DUP1 \t\t\timport \"remix_tests.sol\";\\nimp...\n              PUSH 2E64CEC1\t\t\timport \"remix_tests.sol\";\\nimp...\n              EQ \t\t\timport \"remix_tests.sol\";\\nimp...\n              PUSH [tag] 3\t\t\timport \"remix_tests.sol\";\\nimp...\n              JUMPI \t\t\timport \"remix_tests.sol\";\\nimp...\n              DUP1 \t\t\timport \"remix_tests.sol\";\\nimp...\n              PUSH 6057361D\t\t\timport \"remix_tests.sol\";\\nimp...\n              EQ \t\t\timport \"remix_tests.sol\";\\nimp...\n              PUSH [tag] 4\t\t\timport \"remix_tests.sol\";\\nimp...\n              JUMPI \t\t\timport \"remix_tests.sol\";\\nimp...\n            tag 2\t\t\timport \"remix_tests.sol\";\\nimp...\n              JUMPDEST \t\t\timport \"remix_tests.sol\";\\nimp...\n              PUSH 0\t\t\timport \"remix_tests.sol\";\\nimp...\n              PUSH 0\t\t\timport \"remix_tests.sol\";\\nimp...\n              REVERT \t\t\timport \"remix_tests.sol\";\\nimp...\n            tag 3\t\t\tction beforeAll() public {\\n  ...\n              JUMPDEST \t\t\tction beforeAll() public {\\n  ...\n              PUSH [tag] 5\t\t\tction beforeAll() public {\\n  ...\n              PUSH [tag] 6\t\t\tction beforeAll() public {\\n  ...\n              JUMP \t\t\tction beforeAll() public {\\n  ...\n            tag 5\t\t\tction beforeAll() public {\\n  ...\n              JUMPDEST \t\t\tction beforeAll() public {\\n  ...\n              PUSH 40\t\t\tction beforeAll() public {\\n  ...\n              MLOAD \t\t\tction beforeAll() public {\\n  ...\n              PUSH [tag] 7\t\t\tction beforeAll() public {\\n  ...\n              SWAP2 \t\t\tction beforeAll() public {\\n  ...\n              SWAP1 \t\t\tction beforeAll() public {\\n  ...\n              PUSH [tag] 8\t\t\tction beforeAll() public {\\n  ...\n              JUMP \t\t\tction beforeAll() public {\\n  ...\n            tag 7\t\t\tction beforeAll() public {\\n  ...\n              JUMPDEST \t\t\tction beforeAll() public {\\n  ...\n              PUSH 40\t\t\tction beforeAll() public {\\n  ...\n              MLOAD \t\t\tction beforeAll() public {\\n  ...\n              DUP1 \t\t\tction beforeAll() public {\\n  ...\n              SWAP2 \t\t\tction beforeAll() public {\\n  ...\n              SUB \t\t\tction beforeAll() public {\\n  ...\n              SWAP1 \t\t\tction beforeAll() public {\\n  ...\n              RETURN \t\t\tction beforeAll() public {\\n  ...\n            tag 4\t\t\trage.sol\";\\n\\ncontract Storage...\n              JUMPDEST \t\t\trage.sol\";\\n\\ncontract Storage...\n              PUSH [tag] 9\t\t\trage.sol\";\\n\\ncontract Storage...\n              PUSH 4\t\t\trage.sol\";\\n\\ncontract Storage...\n              DUP1 \t\t\trage.sol\";\\n\\ncontract Storage...\n              CALLDATASIZE \t\t\trage.sol\";\\n\\ncontract Storage...\n              SUB \t\t\trage.sol\";\\n\\ncontract Storage...\n              DUP2 \t\t\trage.sol\";\\n\\ncontract Storage...\n              ADD \t\t\trage.sol\";\\n\\ncontract Storage...\n              SWAP1 \t\t\trage.sol\";\\n\\ncontract Storage...\n              PUSH [tag] 10\t\t\trage.sol\";\\n\\ncontract Storage...\n              SWAP2 \t\t\trage.sol\";\\n\\ncontract Storage...\n              SWAP1 \t\t\trage.sol\";\\n\\ncontract Storage...\n              PUSH [tag] 11\t\t\trage.sol\";\\n\\ncontract Storage...\n              JUMP \t\t\trage.sol\";\\n\\ncontract Storage...\n            tag 10\t\t\trage.sol\";\\n\\ncontract Storage...\n              JUMPDEST \t\t\trage.sol\";\\n\\ncontract Storage...\n              PUSH [tag] 12\t\t\trage.sol\";\\n\\ncontract Storage...\n              JUMP \t\t\trage.sol\";\\n\\ncontract Storage...\n            tag 9\t\t\trage.sol\";\\n\\ncontract Storage...\n              JUMPDEST \t\t\trage.sol\";\\n\\ncontract Storage...\n              STOP \t\t\trage.sol\";\\n\\ncontract Storage...\n            tag 6\t\t\tction beforeAll() public {\\n  ...\n              JUMPDEST \t\t\tction beforeAll() public {\\n  ...\n              PUSH 0\t\t\teToTest\n              PUSH 0\t\t\t   }\\n\\n\n              SLOAD \t\t\t   }\\n\\n\n              SWAP1 \t\t\tge();\\n    }\\n\\n\n              POP \t\t\tge();\\n    }\\n\\n\n              SWAP1 \t\t\tction beforeAll() public {\\n  ...\n              JUMP \t\t\tction beforeAll() public {\\n  ...\n            tag 12\t\t\trage.sol\";\\n\\ncontract Storage...\n              JUMPDEST \t\t\trage.sol\";\\n\\ncontract Storage...\n              DUP1 \t\t\tToT\n              PUSH 0\t\t\te stor\n              DUP2 \t\t\te storageToT\n              SWAP1 \t\t\te storageToT\n              SSTORE \t\t\te storageToT\n              POP \t\t\te storageToT\n              POP \t\t\trage.sol\";\\n\\ncontract Storage...\n              JUMP \t\t\trage.sol\";\\n\\ncontract Storage...\n            tag 15\t\t\t-License-Identifier: GPL-3.0\\n...\n              JUMPDEST \t\t\t-License-Identifier: GPL-3.0\\n...\n              PUSH 0\t\t\tolidity\n              DUP2 \t\t\trt \"r\n              SWAP1 \t\t\t.9.0;\\n\\nimport \"r\n              POP \t\t\t.9.0;\\n\\nimport \"r\n              SWAP2 \t\t\t-License-Identifier: GPL-3.0\\n...\n              SWAP1 \t\t\t-License-Identifier: GPL-3.0\\n...\n              POP \t\t\t-License-Identifier: GPL-3.0\\n...\n              JUMP \t\t\t-License-Identifier: GPL-3.0\\n...\n            tag 16\t\t\tol\";\\nimport \"../contracts/1_S...\n              JUMPDEST \t\t\tol\";\\nimport \"../contracts/1_S...\n              PUSH [tag] 25\t\t\tTest;\\n\\n    function befo\n              DUP2 \t\t\tn bef\n              PUSH [tag] 15\t\t\tTest;\\n\\n    function befo\n              JUMP \t\t\tTest;\\n\\n    function befo\n            tag 25\t\t\tTest;\\n\\n    function befo\n              JUMPDEST \t\t\tTest;\\n\\n    function befo\n              DUP3 \t\t\tage\n              MSTORE \t\t\tge storageToTest;\\n\\n    funct...\n              POP \t\t\tol\";\\nimport \"../contracts/1_S...\n              POP \t\t\tol\";\\nimport \"../contracts/1_S...\n              JUMP \t\t\tol\";\\nimport \"../contracts/1_S...\n            tag 8\t\t\tc {\\n        storageToTest = n...\n              JUMPDEST \t\t\tc {\\n        storageToTest = n...\n              PUSH 0\t\t\t    \n              PUSH 20\t\t\tss\n              DUP3 \t\t\t;\\n       \n              ADD \t\t\t(42);\\n        Asse\n              SWAP1 \t\t\tst.store(42);\\n        Asse\n              POP \t\t\tst.store(42);\\n        Asse\n              PUSH [tag] 27\t\t\ttorageToTest.retrieve(), uint2...\n              PUSH 0\t\t\t2\n              DUP4 \t\t\tshould be\n              ADD \t\t\teve should be 42\"\n              DUP5 \t\t\tsal re\n              PUSH [tag] 16\t\t\ttorageToTest.retrieve(), uint2...\n              JUMP \t\t\ttorageToTest.retrieve(), uint2...\n            tag 27\t\t\ttorageToTest.retrieve(), uint2...\n              JUMPDEST \t\t\ttorageToTest.retrieve(), uint2...\n              SWAP3 \t\t\tc {\\n        storageToTest = n...\n              SWAP2 \t\t\tc {\\n        storageToTest = n...\n              POP \t\t\tc {\\n        storageToTest = n...\n              POP \t\t\tc {\\n        storageToTest = n...\n              JUMP \t\t\tc {\\n        storageToTest = n...\n            tag 18\t\t\t\n              JUMPDEST \t\t\t\n              PUSH 0\t\t\t\n              PUSH 0\t\t\t\n              REVERT \t\t\t\n            tag 20\t\t\t\n              JUMPDEST \t\t\t\n              PUSH [tag] 32\t\t\t\n              DUP2 \t\t\t\n              PUSH [tag] 15\t\t\t\n              JUMP \t\t\t\n            tag 32\t\t\t\n              JUMPDEST \t\t\t\n              DUP2 \t\t\t\n              EQ \t\t\t\n              PUSH [tag] 33\t\t\t\n              JUMPI \t\t\t\n              PUSH 0\t\t\t\n              PUSH 0\t\t\t\n              REVERT \t\t\t\n            tag 33\t\t\t\n              JUMPDEST \t\t\t\n              POP \t\t\t\n              JUMP \t\t\t\n            tag 21\t\t\t\n              JUMPDEST \t\t\t\n              PUSH 0\t\t\t\n              DUP2 \t\t\t\n              CALLDATALOAD \t\t\t\n              SWAP1 \t\t\t\n              POP \t\t\t\n              PUSH [tag] 35\t\t\t\n              DUP2 \t\t\t\n              PUSH [tag] 20\t\t\t\n              JUMP \t\t\t\n            tag 35\t\t\t\n              JUMPDEST \t\t\t\n              SWAP3 \t\t\t\n              SWAP2 \t\t\t\n              POP \t\t\t\n              POP \t\t\t\n              JUMP \t\t\t\n            tag 11\t\t\t\n              JUMPDEST \t\t\t\n              PUSH 0\t\t\t\n              PUSH 20\t\t\t\n              DUP3 \t\t\t\n              DUP5 \t\t\t\n              SUB \t\t\t\n              SLT \t\t\t\n              ISZERO \t\t\t\n              PUSH [tag] 37\t\t\t\n              JUMPI \t\t\t\n              PUSH [tag] 38\t\t\t\n              PUSH [tag] 18\t\t\t\n              JUMP \t\t\t\n            tag 38\t\t\t\n              JUMPDEST \t\t\t\n            tag 37\t\t\t\n              JUMPDEST \t\t\t\n              PUSH 0\t\t\t\n              PUSH [tag] 39\t\t\t\n              DUP5 \t\t\t\n              DUP3 \t\t\t\n              DUP6 \t\t\t\n              ADD \t\t\t\n              PUSH [tag] 21\t\t\t\n              JUMP \t\t\t\n            tag 39\t\t\t\n              JUMPDEST \t\t\t\n              SWAP2 \t\t\t\n              POP \t\t\t\n              POP \t\t\t\n              SWAP3 \t\t\t\n              SWAP2 \t\t\t\n              POP \t\t\t\n              POP \t\t\t\n              JUMP \t\t\t\n            .data\n"
}